{
  "_format": "hh-sol-artifact-1",
  "contractName": "UsdSubscription",
  "sourceName": "contracts/UsdSubscription.sol",
  "abi": [
    {
      "inputs": [],
      "name": "CalldataMustHaveValidPayload",
      "type": "error"
    },
    {
      "inputs": [],
      "name": "CalldataOverOrUnderFlow",
      "type": "error"
    },
    {
      "inputs": [],
      "name": "CanNotPickMedianOfEmptyArray",
      "type": "error"
    },
    {
      "inputs": [],
      "name": "DataPackageTimestampMustNotBeZero",
      "type": "error"
    },
    {
      "inputs": [],
      "name": "DataPackageTimestampsMustBeEqual",
      "type": "error"
    },
    {
      "inputs": [],
      "name": "DataTimestampCannotBeZero",
      "type": "error"
    },
    {
      "inputs": [],
      "name": "EachSignerMustProvideTheSameValue",
      "type": "error"
    },
    {
      "inputs": [],
      "name": "EmptyCalldataPointersArr",
      "type": "error"
    },
    {
      "inputs": [],
      "name": "GetDataServiceIdNotImplemented",
      "type": "error"
    },
    {
      "inputs": [],
      "name": "IncorrectUnsignedMetadataSize",
      "type": "error"
    },
    {
      "inputs": [
        {
          "internalType": "uint256",
          "name": "receivedSignersCount",
          "type": "uint256"
        },
        {
          "internalType": "uint256",
          "name": "requiredSignersCount",
          "type": "uint256"
        }
      ],
      "name": "InsufficientNumberOfUniqueSigners",
      "type": "error"
    },
    {
      "inputs": [],
      "name": "InvalidCalldataPointer",
      "type": "error"
    },
    {
      "inputs": [
        {
          "internalType": "bytes32",
          "name": "signedHash",
          "type": "bytes32"
        }
      ],
      "name": "InvalidSignature",
      "type": "error"
    },
    {
      "inputs": [],
      "name": "RedstonePayloadMustHaveAtLeastOneDataPackage",
      "type": "error"
    },
    {
      "inputs": [
        {
          "internalType": "address",
          "name": "receivedSigner",
          "type": "address"
        }
      ],
      "name": "SignerNotAuthorised",
      "type": "error"
    },
    {
      "inputs": [
        {
          "internalType": "uint256",
          "name": "receivedTimestampSeconds",
          "type": "uint256"
        },
        {
          "internalType": "uint256",
          "name": "blockTimestamp",
          "type": "uint256"
        }
      ],
      "name": "TimestampFromTooLongFuture",
      "type": "error"
    },
    {
      "inputs": [
        {
          "internalType": "uint256",
          "name": "receivedTimestampSeconds",
          "type": "uint256"
        },
        {
          "internalType": "uint256",
          "name": "blockTimestamp",
          "type": "uint256"
        }
      ],
      "name": "TimestampIsTooOld",
      "type": "error"
    },
    {
      "inputs": [],
      "name": "TimestampsMustBeEqual",
      "type": "error"
    },
    {
      "inputs": [
        {
          "internalType": "uint256",
          "name": "valueByteSize",
          "type": "uint256"
        }
      ],
      "name": "TooLargeValueByteSize",
      "type": "error"
    },
    {
      "anonymous": false,
      "inputs": [
        {
          "indexed": true,
          "internalType": "address",
          "name": "payer",
          "type": "address"
        }
      ],
      "name": "Cancelled",
      "type": "event"
    },
    {
      "anonymous": false,
      "inputs": [
        {
          "indexed": true,
          "internalType": "address",
          "name": "payer",
          "type": "address"
        },
        {
          "indexed": true,
          "internalType": "address",
          "name": "merchant",
          "type": "address"
        },
        {
          "indexed": false,
          "internalType": "uint256",
          "name": "usdCents",
          "type": "uint256"
        },
        {
          "indexed": false,
          "internalType": "uint256",
          "name": "priceEthUsd_8",
          "type": "uint256"
        },
        {
          "indexed": false,
          "internalType": "uint256",
          "name": "paidEthWei",
          "type": "uint256"
        },
        {
          "indexed": false,
          "internalType": "uint256",
          "name": "nextChargeAt",
          "type": "uint256"
        }
      ],
      "name": "Charged",
      "type": "event"
    },
    {
      "anonymous": false,
      "inputs": [
        {
          "indexed": true,
          "internalType": "address",
          "name": "payer",
          "type": "address"
        },
        {
          "indexed": false,
          "internalType": "uint256",
          "name": "amount",
          "type": "uint256"
        }
      ],
      "name": "Deposited",
      "type": "event"
    },
    {
      "anonymous": false,
      "inputs": [
        {
          "indexed": true,
          "internalType": "address",
          "name": "payer",
          "type": "address"
        },
        {
          "indexed": true,
          "internalType": "address",
          "name": "merchant",
          "type": "address"
        },
        {
          "indexed": false,
          "internalType": "uint256",
          "name": "usdCentsPerPeriod",
          "type": "uint256"
        },
        {
          "indexed": false,
          "internalType": "uint256",
          "name": "period",
          "type": "uint256"
        },
        {
          "indexed": false,
          "internalType": "uint256",
          "name": "maxEthPerChargeWei",
          "type": "uint256"
        }
      ],
      "name": "Subscribed",
      "type": "event"
    },
    {
      "anonymous": false,
      "inputs": [
        {
          "indexed": true,
          "internalType": "address",
          "name": "payer",
          "type": "address"
        },
        {
          "indexed": false,
          "internalType": "uint256",
          "name": "amount",
          "type": "uint256"
        }
      ],
      "name": "Withdrawn",
      "type": "event"
    },
    {
      "inputs": [
        {
          "internalType": "uint256[]",
          "name": "values",
          "type": "uint256[]"
        }
      ],
      "name": "aggregateValues",
      "outputs": [
        {
          "internalType": "uint256",
          "name": "",
          "type": "uint256"
        }
      ],
      "stateMutability": "view",
      "type": "function"
    },
    {
      "inputs": [],
      "name": "cancel",
      "outputs": [],
      "stateMutability": "nonpayable",
      "type": "function"
    },
    {
      "inputs": [
        {
          "internalType": "address",
          "name": "payer",
          "type": "address"
        }
      ],
      "name": "charge",
      "outputs": [],
      "stateMutability": "nonpayable",
      "type": "function"
    },
    {
      "inputs": [],
      "name": "depositETH",
      "outputs": [],
      "stateMutability": "payable",
      "type": "function"
    },
    {
      "inputs": [
        {
          "internalType": "address",
          "name": "",
          "type": "address"
        }
      ],
      "name": "ethBalances",
      "outputs": [
        {
          "internalType": "uint256",
          "name": "",
          "type": "uint256"
        }
      ],
      "stateMutability": "view",
      "type": "function"
    },
    {
      "inputs": [],
      "name": "extractTimestampsAndAssertAllAreEqual",
      "outputs": [
        {
          "internalType": "uint256",
          "name": "extractedTimestamp",
          "type": "uint256"
        }
      ],
      "stateMutability": "pure",
      "type": "function"
    },
    {
      "inputs": [
        {
          "internalType": "address",
          "name": "signerAddress",
          "type": "address"
        }
      ],
      "name": "getAllMockAuthorised",
      "outputs": [
        {
          "internalType": "uint8",
          "name": "",
          "type": "uint8"
        }
      ],
      "stateMutability": "view",
      "type": "function"
    },
    {
      "inputs": [
        {
          "internalType": "address",
          "name": "signerAddress",
          "type": "address"
        }
      ],
      "name": "getAllMockExceptLastOneAuthorised",
      "outputs": [
        {
          "internalType": "uint8",
          "name": "",
          "type": "uint8"
        }
      ],
      "stateMutability": "view",
      "type": "function"
    },
    {
      "inputs": [
        {
          "internalType": "address",
          "name": "signerAddress",
          "type": "address"
        }
      ],
      "name": "getAuthorisedMockSignerIndex",
      "outputs": [
        {
          "internalType": "uint8",
          "name": "",
          "type": "uint8"
        }
      ],
      "stateMutability": "view",
      "type": "function"
    },
    {
      "inputs": [
        {
          "internalType": "address",
          "name": "receivedSigner",
          "type": "address"
        }
      ],
      "name": "getAuthorisedSignerIndex",
      "outputs": [
        {
          "internalType": "uint8",
          "name": "",
          "type": "uint8"
        }
      ],
      "stateMutability": "view",
      "type": "function"
    },
    {
      "inputs": [],
      "name": "getDataServiceId",
      "outputs": [
        {
          "internalType": "string",
          "name": "",
          "type": "string"
        }
      ],
      "stateMutability": "view",
      "type": "function"
    },
    {
      "inputs": [],
      "name": "getUniqueSignersThreshold",
      "outputs": [
        {
          "internalType": "uint8",
          "name": "",
          "type": "uint8"
        }
      ],
      "stateMutability": "pure",
      "type": "function"
    },
    {
      "inputs": [
        {
          "internalType": "address",
          "name": "payer",
          "type": "address"
        }
      ],
      "name": "nextChargeDueAt",
      "outputs": [
        {
          "internalType": "uint256",
          "name": "",
          "type": "uint256"
        }
      ],
      "stateMutability": "view",
      "type": "function"
    },
    {
      "inputs": [
        {
          "internalType": "address",
          "name": "",
          "type": "address"
        }
      ],
      "name": "plans",
      "outputs": [
        {
          "internalType": "address",
          "name": "merchant",
          "type": "address"
        },
        {
          "internalType": "uint256",
          "name": "usdCentsPerPeriod",
          "type": "uint256"
        },
        {
          "internalType": "uint256",
          "name": "period",
          "type": "uint256"
        },
        {
          "internalType": "uint256",
          "name": "lastCharged",
          "type": "uint256"
        },
        {
          "internalType": "uint256",
          "name": "maxEthPerChargeWei",
          "type": "uint256"
        },
        {
          "internalType": "bool",
          "name": "active",
          "type": "bool"
        }
      ],
      "stateMutability": "view",
      "type": "function"
    },
    {
      "inputs": [
        {
          "internalType": "uint256",
          "name": "usdCents",
          "type": "uint256"
        }
      ],
      "name": "quoteEthForUsdCents",
      "outputs": [
        {
          "internalType": "uint256",
          "name": "ethWei",
          "type": "uint256"
        }
      ],
      "stateMutability": "view",
      "type": "function"
    },
    {
      "inputs": [
        {
          "internalType": "address",
          "name": "merchant",
          "type": "address"
        },
        {
          "internalType": "uint256",
          "name": "usdCentsPerPeriod",
          "type": "uint256"
        },
        {
          "internalType": "uint256",
          "name": "period",
          "type": "uint256"
        },
        {
          "internalType": "uint256",
          "name": "maxEthPerChargeWei",
          "type": "uint256"
        }
      ],
      "name": "subscribe",
      "outputs": [],
      "stateMutability": "nonpayable",
      "type": "function"
    },
    {
      "inputs": [
        {
          "internalType": "uint256",
          "name": "receivedTimestampMilliseconds",
          "type": "uint256"
        }
      ],
      "name": "validateTimestamp",
      "outputs": [],
      "stateMutability": "view",
      "type": "function"
    },
    {
      "inputs": [
        {
          "internalType": "uint256",
          "name": "amount",
          "type": "uint256"
        }
      ],
      "name": "withdrawETH",
      "outputs": [],
      "stateMutability": "nonpayable",
      "type": "function"
    },
    {
      "stateMutability": "payable",
      "type": "receive"
    }
  ],
  "bytecode": "0x608060405234801561001057600080fd5b50611f21806100206000396000f3fe60806040526004361061010d5760003560e01c8063b4ee623e11610095578063f14210a611610064578063f14210a6146103ab578063f50b2efe146103cb578063f6326fb3146103eb578063f90c4924146103f3578063fc6bd76a1461040757600080fd5b8063b4ee623e14610334578063c274583a14610354578063d22158fa14610376578063ea8a1af01461039657600080fd5b80634907cd0f116100dc5780634907cd0f1461022457806355a547d51461024657806386d86d841461025b57806395262d9f146102f4578063b24ebfcc1461031457600080fd5b80633ce142f5146101725780633cfba0e3146101a9578063429989f0146101e4578063460b410d1461020457600080fd5b3661016d573360009081526020819052604081208054349290610131908490611c9b565b909155505060405134815233907f2da466a7b24304f47e87fa2e1e5a81b9831ce54fec19055ce277ca2f39ba42c49060200160405180910390a2005b600080fd5b34801561017e57600080fd5b5061019261018d366004611cc5565b610427565b60405160ff90911681526020015b60405180910390f35b3480156101b557600080fd5b506101d66101c4366004611cc5565b60006020819052908152604090205481565b6040519081526020016101a0565b3480156101f057600080fd5b506101926101ff366004611cc5565b610438565b34801561021057600080fd5b506101d661021f366004611ce0565b6107d8565b34801561023057600080fd5b5061024461023f366004611cf9565b61084e565b005b34801561025257600080fd5b506101d66109df565b34801561026757600080fd5b506102bb610276366004611cc5565b60016020819052600091825260409091208054918101546002820154600383015460048401546005909401546001600160a01b03909516949293919290919060ff1686565b604080516001600160a01b03909716875260208701959095529385019290925260608401526080830152151560a082015260c0016101a0565b34801561030057600080fd5b5061019261030f366004611cc5565b610aed565b34801561032057600080fd5b506101d661032f366004611d48565b610af8565b34801561034057600080fd5b506101d661034f366004611cc5565b610b03565b34801561036057600080fd5b50610369610b59565b6040516101a09190611e06565b34801561038257600080fd5b50610192610391366004611cc5565b610b74565b3480156103a257600080fd5b50610244610bc7565b3480156103b757600080fd5b506102446103c6366004611ce0565b610c4e565b3480156103d757600080fd5b506102446103e6366004611ce0565b610dab565b610244610db7565b3480156103ff57600080fd5b506001610192565b34801561041357600080fd5b50610244610422366004611cc5565b610e4b565b600061043282610438565b92915050565b60006001600160a01b03821673f39fd6e51aad88f6f4ce6ab8827279cfffb922660361046657506000919050565b6001600160a01b0382167370997970c51812dc3a010c7d01b50e0d17dc79c80361049257506001919050565b6001600160a01b038216733c44cdddb6a900fa2b585dd299e03d12fa4293bc036104be57506002919050565b6001600160a01b0382167390f79bf6eb2c4f870365e785982e1f101e93b906036104ea57506003919050565b6001600160a01b0382167315d34aaf54267db7d7c367839aaf71a00a2c6a650361051657506004919050565b6001600160a01b038216739965507d1a55bcc2695c58ba16fb37d819b0a4dc0361054257506005919050565b6001600160a01b03821673976ea74026e726554db657fa54763abd0c3a0aa90361056e57506006919050565b6001600160a01b0382167314dc79964da2c08b23698b3d3cc7ca32193d99550361059a57506007919050565b6001600160a01b0382167323618e81e3f5cdf7f54c3d65f7fbc0abf5b21e8f036105c657506008919050565b6001600160a01b03821673a0ee7a142d267c1f36714e4a8f75612f20a79720036105f257506009919050565b6001600160a01b03821673bcd4042de499d14e55001ccbb24a551f3b9540960361061e5750600a919050565b6001600160a01b0382167371be63f3384f5fb98995898a86b02fb2426c57880361064a5750600b919050565b6001600160a01b03821673fabb0ac9d68b0b445fb7357272ff202c5651694a036106765750600c919050565b6001600160a01b038216731cbd3b2770909d4e10f157cabc84c7264073c9ec036106a25750600d919050565b6001600160a01b03821673df3e18d64bc6a983f673ab319ccae4f1a57c7097036106ce5750600e919050565b6001600160a01b03821673cd3b766ccdd6ae721141f452c550ca635964ce71036106fa5750600f919050565b6001600160a01b038216732546bcd3c84621e976d8185a91a922ae77ecec300361072657506010919050565b6001600160a01b03821673bda5747bfd65f08deb54cb465eb87d40e51b197e0361075257506011919050565b6001600160a01b03821673dd2fd4581271e230360230f9337d5c0430bf44c00361077e57506012919050565b6001600160a01b038216738626f6940e2eb28930efb4cef49b2d1f2c9c1199036107aa57506013919050565b6040516303b1166f60e61b81526001600160a01b03831660048201526024015b60405180910390fd5b919050565b6000806107ea6208aa8960eb1b611153565b9050600081116108285760405162461bcd60e51b815260206004820152600960248201526862616420707269636560b81b60448201526064016107ca565b8061083d8469d3c21bcecceda1000000611e54565b6108479190611e81565b9392505050565b6001600160a01b0384166108915760405162461bcd60e51b815260206004820152600a60248201526906d65726368616e743d360b41b60448201526064016107ca565b600083116108cb5760405162461bcd60e51b8152602060048201526007602482015266070726963653d360cc1b60448201526064016107ca565b600082116109065760405162461bcd60e51b81526020600482015260086024820152670706572696f643d360c41b60448201526064016107ca565b6040805160c0810182526001600160a01b03868116808352602080840188815284860188815260006060808801828152608089018b8152600160a08b0181815233808752828a52958d90209b518c546001600160a01b0319169b169a909a178b559551958a019590955592516002890155915160038801559151600487015593516005909501805460ff1916951515959095179094558451888152908101879052938401859052927f1faf2b5a74c296487268de9f9e3ddf269ca3980197cda4ee5c927ac895aeee88910160405180910390a350505050565b6000806109ea6111c3565b905060006109f78261126a565b925061ffff1690506000819003610a2157604051632154bfcf60e21b815260040160405180910390fd5b60005b81811015610ae7576000610a37846112b9565b9050600080610a47606887611c9b565b90506000610a558236611e95565b9050803592508265ffffffffffff16600003610a8457604051630336dc9d60e41b815260040160405180910390fd5b87600003610a9c578265ffffffffffff169750610ac4565b878365ffffffffffff1614610ac45760405163d9d1f46560e01b815260040160405180910390fd5b610ace8488611c9b565b9650505050508080610adf90611ea8565b915050610a24565b50505090565b600061043282610b74565b6000610432826112f5565b6001600160a01b0381166000908152600160205260408120600581015460ff16610b31575060001992915050565b8060030154600003610b4557504292915050565b806002015481600301546108479190611c9b565b606060405163608b530760e01b815260040160405180910390fd5b60006001600160a01b038216738626f6940e2eb28930efb4cef49b2d1f2c9c119903610bbe576040516303b1166f60e61b81526001600160a01b03831660048201526024016107ca565b61043282610438565b336000908152600160205260409020600581015460ff16610c145760405162461bcd60e51b8152602060048201526007602482015266373790383630b760c91b60448201526064016107ca565b60058101805460ff1916905560405133907f398bd6b21ae4164ec322fb0eb8c2eb6277f36fd41903fbbed594dfe12559128190600090a250565b60008111610c875760405162461bcd60e51b81526004016107ca906020808252600490820152635a65726f60e01b604082015260600190565b3360009081526020819052604090205481811015610cd65760405162461bcd60e51b815260206004820152600c60248201526b125b9cdd59999a58da595b9d60a21b60448201526064016107ca565b3360008181526020819052604080822085850390555190919084908381818185875af1925050503d8060008114610d29576040519150601f19603f3d011682016040523d82523d6000602084013e610d2e565b606091505b5050905080610d715760405162461bcd60e51b815260206004820152600f60248201526e15da5d1a191c985dc819985a5b1959608a1b60448201526064016107ca565b60405183815233907f7084f5476618d8e60b11ef0d7d3f06914655adb8793e28ff7f018d4c76d505d59060200160405180910390a2505050565b610db481611300565b50565b60003411610df05760405162461bcd60e51b815260206004820152600660248201526509cde408aa8960d31b60448201526064016107ca565b3360009081526020819052604081208054349290610e0f908490611c9b565b909155505060405134815233907f2da466a7b24304f47e87fa2e1e5a81b9831ce54fec19055ce277ca2f39ba42c49060200160405180910390a2565b6001600160a01b0381166000908152600160205260409020600581015460ff16610ea15760405162461bcd60e51b8152602060048201526007602482015266373790383630b760c91b60448201526064016107ca565b610eaa82610b03565b421015610ee35760405162461bcd60e51b81526020600482015260076024820152666e6f742064756560c81b60448201526064016107ca565b6000610ef46208aa8960eb1b611153565b905060008111610f325760405162461bcd60e51b815260206004820152600960248201526862616420707269636560b81b60448201526064016107ca565b6001820154600082610f4e8369d3c21bcecceda1000000611e54565b610f589190611e81565b905060008111610f935760405162461bcd60e51b81526004016107ca9060208082526004908201526374696e7960e01b604082015260600190565b836004015481111580610fa857506004840154155b610fe25760405162461bcd60e51b815260206004820152600b60248201526a065786365656473206361760ac1b60448201526064016107ca565b6001600160a01b0385166000908152602081905260409020548111156110415760405162461bcd60e51b8152602060048201526014602482015273696e73756666696369656e742062616c616e636560601b60448201526064016107ca565b6001600160a01b0385811660009081526020819052604080822080548590039055865490519192169083908381818185875af1925050503d80600081146110a4576040519150601f19603f3d011682016040523d82523d6000602084013e6110a9565b606091505b50509050806110e55760405162461bcd60e51b81526020600482015260086024820152671c185e4819985a5b60c21b60448201526064016107ca565b42600386015584546001600160a01b039081169087167fb3e1a1d5eec96c841d90f413aa5261898365653f66cd2769cffe66bbfb28c7a08587866111288c610b03565b60408051948552602085019390935291830152606082015260800160405180910390a3505050505050565b60408051600180825281830190925260009182919060208083019080368337019050509050828160008151811061118c5761118c611ec1565b6020026020010181815250506111a181611384565b6000815181106111b3576111b3611ec1565b6020026020010151915050919050565b60006602ed57011e0000601f19360135811614806111f4576040516373bb264f60e11b815260040160405180910390fd5b6000366029111561121857604051632bcb7bc560e11b815260040160405180910390fd5b5060281936013560006009611233600362ffffff8516611c9b565b61123d9190611c9b565b90503661124b600283611c9b565b11156108475760405163c30a7bd760e01b815260040160405180910390fd5b60008080611279602085611c9b565b90503681111561129c57604051632bcb7bc560e11b815260040160405180910390fd5b36819003359250826112af600286611c9b565b9250925050915091565b60008060006112c7846113a6565b9092509050604e6112d9826020611c9b565b6112e39084611e54565b6112ed9190611c9b565b949350505050565b6000610432826113f9565b600061130e6103e883611e81565b90508042101561135057603c6113244283611e95565b111561134c5760405163b6b0916d60e01b8152600481018290524260248201526044016107ca565b5050565b60b461135c8242611e95565b111561134c57604051630321d0b560e01b8152600481018290524260248201526044016107ca565b60606000806113928461150d565b9150915061139f81610dab565b5092915050565b60008080808060206113b9604188611c9b565b6113c39190611c9b565b6113cd9036611e95565b8035935090506113de600382611e95565b62ffffff9390931696923563ffffffff169550919350505050565b600081516002036114505760028260018151811061141957611419611ec1565b60200260200101518360008151811061143457611434611ec1565b60200260200101516114469190611c9b565b6104329190611e81565b815160000361147257604051639e198af960e01b815260040160405180910390fd5b61147b82611728565b60006002835161148b9190611e81565b90506002835161149b9190611ed7565b6000036114fb5760008382815181106114b6576114b6611ec1565b6020026020010151846001846114cc9190611e95565b815181106114dc576114dc611ec1565b60200260200101516114ee9190611c9b565b90506112ed600282611e81565b8281815181106111b3576111b3611ec1565b6060600080835167ffffffffffffffff81111561152c5761152c611d32565b604051908082528060200260200182016040528015611555578160200160208202803683370190505b5090506000845167ffffffffffffffff81111561157457611574611d32565b60405190808252806020026020018201604052801561159d578160200160208202803683370190505b5090506000855167ffffffffffffffff8111156115bc576115bc611d32565b6040519080825280602002602001820160405280156115ef57816020015b60608152602001906001900390816115da5790505b509050600160005b8751811015611668578167ffffffffffffffff81111561161957611619611d32565b604051908082528060200260200182016040528015611642578160200160208202803683370190505b5083828151811061165557611655611ec1565b60209081029190910101526001016115f7565b5060006116736111c3565b905060006116808261126a565b60405190935061ffff909116915060005b8281101561170f5760006116a88c8a8a8a89611776565b909550905060008190036116cf5760405163dfb25a7960e01b815260040160405180910390fd5b8981146116ff57896000036116e6578099506116ff565b60405163265e23a160e11b815260040160405180910390fd5b5060208201604052600101611691565b5061171a8588611a01565b985050505050505050915091565b8051602082016020820281019150805b8281101561177057815b8181101561176757815181518082101561175d578084528183525b5050602001611742565b50602001611738565b50505050565b6000806000806000611787866113a6565b909250905060008060608180600d6117a0602088611c9b565b6117aa9089611e54565b6117b49190611c9b565b915060006117c360688d611c9b565b6117cd9036611e95565b90506000836117dd60418f611c9b565b6117e79190611c9b565b6117f19036611e95565b90506117fd8482611810565b9450836020860120955081359250611834565b60408051838152602081850181019092526000910183838237601f19019392505050565b8265ffffffffffff169a506118558660418f6118509190611c9b565b611b10565b965061186087610427565b60ff16995050505050505050604e866118799190611c9b565b955060008060005b848110156119ee576020611895858b611c9b565b61189f9190611c9b565b98506118ab8985611c32565b909350915060005b8d518110156119e5578d81815181106118ce576118ce611ec1565b602002602001015184036119dd5760008c82815181106118f0576118f0611ec1565b6020026020010151905061190981896001901b16151590565b1580156119325750600160ff168e838151811061192857611928611ec1565b6020026020010151105b156119d757838c838151811061194a5761194a611ec1565b60200260200101518f848151811061196457611964611ec1565b60200260200101518151811061197c5761197c611ec1565b6020026020010181815250508d828151811061199a5761199a611ec1565b6020026020010180518091906119af90611ea8565b9052506001881b81178d83815181106119ca576119ca611ec1565b6020026020010181815250505b506119e5565b6001016118b3565b50600101611881565b5050508594505050509550959350505050565b60606000835167ffffffffffffffff811115611a1f57611a1f611d32565b604051908082528060200260200182016040528015611a48578160200160208202803683370190505b509050600160005b8551811015611b065781858281518110611a6c57611a6c611ec1565b60200260200101511015611ab957848181518110611a8c57611a8c611ec1565b602002602001015182604051632b13aef560e01b81526004016107ca929190918252602082015260400190565b6000611add878381518110611ad057611ad0611ec1565b6020026020010151610af8565b905080848381518110611af257611af2611ec1565b602090810291909101015250600101611a50565b5090949350505050565b60003682900380359060208101359060400135831a601b8114801590611b3a575060ff8116601c14155b15611b5b57604051633335be5d60e11b8152600481018790526024016107ca565b7f7fffffffffffffffffffffffffffffff5d576e7357a4501ddfe92f46681b20a0821115611b9f57604051633335be5d60e11b8152600481018790526024016107ca565b60408051600081526020810180835288905260ff831691810191909152606081018490526080810183905260019060a0016020604051602081039080840390855afa158015611bf2573d6000803e3d6000fd5b5050604051601f1901519450506001600160a01b038416611c2957604051633335be5d60e11b8152600481018790526024016107ca565b50505092915050565b60008080611c408536611e95565b9050803592506020810135915060218410611c71576040516360007e2160e11b8152600481018590526024016107ca565b8360200360080282901c9150509250929050565b634e487b7160e01b600052601160045260246000fd5b8082018082111561043257610432611c85565b80356001600160a01b03811681146107d357600080fd5b600060208284031215611cd757600080fd5b61084782611cae565b600060208284031215611cf257600080fd5b5035919050565b60008060008060808587031215611d0f57600080fd5b611d1885611cae565b966020860135965060408601359560600135945092505050565b634e487b7160e01b600052604160045260246000fd5b60006020808385031215611d5b57600080fd5b823567ffffffffffffffff80821115611d7357600080fd5b818501915085601f830112611d8757600080fd5b813581811115611d9957611d99611d32565b8060051b604051601f19603f83011681018181108582111715611dbe57611dbe611d32565b604052918252848201925083810185019188831115611ddc57600080fd5b938501935b82851015611dfa57843584529385019392850192611de1565b98975050505050505050565b600060208083528351808285015260005b81811015611e3357858101830151858201604001528201611e17565b506000604082860101526040601f19601f8301168501019250505092915050565b808202811582820484141761043257610432611c85565b634e487b7160e01b600052601260045260246000fd5b600082611e9057611e90611e6b565b500490565b8181038181111561043257610432611c85565b600060018201611eba57611eba611c85565b5060010190565b634e487b7160e01b600052603260045260246000fd5b600082611ee657611ee6611e6b565b50069056fea26469706673582212208b8a55893b21aab9bfb8d4edfbd050a2accde7721c712af71ec64770b2d6cba864736f6c63430008140033",
  "linkReferences": {},
  "deployedLinkReferences": {}
}