{"@redstone-finance/evm-connector/contracts/core/CalldataExtractor.sol":{"CalldataExtractor":{"abi":[{"inputs":[],"name":"CalldataMustHaveValidPayload","type":"error"},{"inputs":[],"name":"CalldataOverOrUnderFlow","type":"error"},{"inputs":[],"name":"DataPackageTimestampMustNotBeZero","type":"error"},{"inputs":[],"name":"DataPackageTimestampsMustBeEqual","type":"error"},{"inputs":[],"name":"DataTimestampCannotBeZero","type":"error"},{"inputs":[],"name":"EachSignerMustProvideTheSameValue","type":"error"},{"inputs":[],"name":"EmptyCalldataPointersArr","type":"error"},{"inputs":[],"name":"IncorrectUnsignedMetadataSize","type":"error"},{"inputs":[{"internalType":"uint256","name":"receivedSignersCount","type":"uint256"},{"internalType":"uint256","name":"requiredSignersCount","type":"uint256"}],"name":"InsufficientNumberOfUniqueSigners","type":"error"},{"inputs":[],"name":"InvalidCalldataPointer","type":"error"},{"inputs":[],"name":"RedstonePayloadMustHaveAtLeastOneDataPackage","type":"error"},{"inputs":[{"internalType":"address","name":"receivedSigner","type":"address"}],"name":"SignerNotAuthorised","type":"error"},{"inputs":[],"name":"TimestampsMustBeEqual","type":"error"},{"inputs":[{"internalType":"uint256","name":"valueByteSize","type":"uint256"}],"name":"TooLargeValueByteSize","type":"error"},{"inputs":[],"name":"extractTimestampsAndAssertAllAreEqual","outputs":[{"internalType":"uint256","name":"extractedTimestamp","type":"uint256"}],"stateMutability":"pure","type":"function"}],"evm":{"bytecode":{"linkReferences":{},"object":"608060405234801561001057600080fd5b5061038c806100206000396000f3fe608060405234801561001057600080fd5b506004361061002b5760003560e01c806355a547d514610030575b600080fd5b61003861004a565b60405190815260200160405180910390f35b600080610055610158565b9050600061006282610206565b925061ffff169050600081900361008c57604051632154bfcf60e21b815260040160405180910390fd5b60005b818110156101525760006100a284610255565b90506000806100b26068876102fa565b905060006100c08236610313565b9050803592508265ffffffffffff166000036100ef57604051630336dc9d60e41b815260040160405180910390fd5b87600003610107578265ffffffffffff16975061012f565b878365ffffffffffff161461012f5760405163d9d1f46560e01b815260040160405180910390fd5b61013984886102fa565b965050505050808061014a90610326565b91505061008f565b50505090565b60006602ed57011e0000601f1936013581161480610189576040516373bb264f60e11b815260040160405180910390fd5b600036602911156101ad57604051632bcb7bc560e11b815260040160405180910390fd5b50602819360135600060096101c8600362ffffff85166102fa565b6101d291906102fa565b9050366101e06002836102fa565b11156101ff5760405163c30a7bd760e01b815260040160405180910390fd5b9392505050565b600080806102156020856102fa565b90503681111561023857604051632bcb7bc560e11b815260040160405180910390fd5b368190033592508261024b6002866102fa565b9250925050915091565b600080600061026384610291565b9092509050604e6102758260206102fa565b61027f908461033f565b61028991906102fa565b949350505050565b60008080808060206102a46041886102fa565b6102ae91906102fa565b6102b89036610313565b8035935090506102c9600382610313565b62ffffff9390931696923563ffffffff169550919350505050565b634e487b7160e01b600052601160045260246000fd5b8082018082111561030d5761030d6102e4565b92915050565b8181038181111561030d5761030d6102e4565b600060018201610338576103386102e4565b5060010190565b808202811582820484141761030d5761030d6102e456fea26469706673582212204f39caf3484b9be0560ac03021b1fbc46e37efe4d1d539466192c35fbdfaac4764736f6c63430008140033","opcodes":"PUSH1 0x80 PUSH1 0x40 MSTORE CALLVALUE DUP1 ISZERO PUSH2 0x10 JUMPI PUSH1 0x0 DUP1 REVERT JUMPDEST POP PUSH2 0x38C DUP1 PUSH2 0x20 PUSH1 0x0 CODECOPY PUSH1 0x0 RETURN INVALID PUSH1 0x80 PUSH1 0x40 MSTORE CALLVALUE DUP1 ISZERO PUSH2 0x10 JUMPI PUSH1 0x0 DUP1 REVERT JUMPDEST POP PUSH1 0x4 CALLDATASIZE LT PUSH2 0x2B JUMPI PUSH1 0x0 CALLDATALOAD PUSH1 0xE0 SHR DUP1 PUSH4 0x55A547D5 EQ PUSH2 0x30 JUMPI JUMPDEST PUSH1 0x0 DUP1 REVERT JUMPDEST PUSH2 0x38 PUSH2 0x4A JUMP JUMPDEST PUSH1 0x40 MLOAD SWAP1 DUP2 MSTORE PUSH1 0x20 ADD PUSH1 0x40 MLOAD DUP1 SWAP2 SUB SWAP1 RETURN JUMPDEST PUSH1 0x0 DUP1 PUSH2 0x55 PUSH2 0x158 JUMP JUMPDEST SWAP1 POP PUSH1 0x0 PUSH2 0x62 DUP3 PUSH2 0x206 JUMP JUMPDEST SWAP3 POP PUSH2 0xFFFF AND SWAP1 POP PUSH1 0x0 DUP2 SWAP1 SUB PUSH2 0x8C JUMPI PUSH1 0x40 MLOAD PUSH4 0x2154BFCF PUSH1 0xE2 SHL DUP2 MSTORE PUSH1 0x4 ADD PUSH1 0x40 MLOAD DUP1 SWAP2 SUB SWAP1 REVERT JUMPDEST PUSH1 0x0 JUMPDEST DUP2 DUP2 LT ISZERO PUSH2 0x152 JUMPI PUSH1 0x0 PUSH2 0xA2 DUP5 PUSH2 0x255 JUMP JUMPDEST SWAP1 POP PUSH1 0x0 DUP1 PUSH2 0xB2 PUSH1 0x68 DUP8 PUSH2 0x2FA JUMP JUMPDEST SWAP1 POP PUSH1 0x0 PUSH2 0xC0 DUP3 CALLDATASIZE PUSH2 0x313 JUMP JUMPDEST SWAP1 POP DUP1 CALLDATALOAD SWAP3 POP DUP3 PUSH6 0xFFFFFFFFFFFF AND PUSH1 0x0 SUB PUSH2 0xEF JUMPI PUSH1 0x40 MLOAD PUSH4 0x336DC9D PUSH1 0xE4 SHL DUP2 MSTORE PUSH1 0x4 ADD PUSH1 0x40 MLOAD DUP1 SWAP2 SUB SWAP1 REVERT JUMPDEST DUP8 PUSH1 0x0 SUB PUSH2 0x107 JUMPI DUP3 PUSH6 0xFFFFFFFFFFFF AND SWAP8 POP PUSH2 0x12F JUMP JUMPDEST DUP8 DUP4 PUSH6 0xFFFFFFFFFFFF AND EQ PUSH2 0x12F JUMPI PUSH1 0x40 MLOAD PUSH4 0xD9D1F465 PUSH1 0xE0 SHL DUP2 MSTORE PUSH1 0x4 ADD PUSH1 0x40 MLOAD DUP1 SWAP2 SUB SWAP1 REVERT JUMPDEST PUSH2 0x139 DUP5 DUP9 PUSH2 0x2FA JUMP JUMPDEST SWAP7 POP POP POP POP POP DUP1 DUP1 PUSH2 0x14A SWAP1 PUSH2 0x326 JUMP JUMPDEST SWAP2 POP POP PUSH2 0x8F JUMP JUMPDEST POP POP POP SWAP1 JUMP JUMPDEST PUSH1 0x0 PUSH7 0x2ED57011E0000 PUSH1 0x1F NOT CALLDATASIZE ADD CALLDATALOAD DUP2 AND EQ DUP1 PUSH2 0x189 JUMPI PUSH1 0x40 MLOAD PUSH4 0x73BB264F PUSH1 0xE1 SHL DUP2 MSTORE PUSH1 0x4 ADD PUSH1 0x40 MLOAD DUP1 SWAP2 SUB SWAP1 REVERT JUMPDEST PUSH1 0x0 CALLDATASIZE PUSH1 0x29 GT ISZERO PUSH2 0x1AD JUMPI PUSH1 0x40 MLOAD PUSH4 0x2BCB7BC5 PUSH1 0xE1 SHL DUP2 MSTORE PUSH1 0x4 ADD PUSH1 0x40 MLOAD DUP1 SWAP2 SUB SWAP1 REVERT JUMPDEST POP PUSH1 0x28 NOT CALLDATASIZE ADD CALLDATALOAD PUSH1 0x0 PUSH1 0x9 PUSH2 0x1C8 PUSH1 0x3 PUSH3 0xFFFFFF DUP6 AND PUSH2 0x2FA JUMP JUMPDEST PUSH2 0x1D2 SWAP2 SWAP1 PUSH2 0x2FA JUMP JUMPDEST SWAP1 POP CALLDATASIZE PUSH2 0x1E0 PUSH1 0x2 DUP4 PUSH2 0x2FA JUMP JUMPDEST GT ISZERO PUSH2 0x1FF JUMPI PUSH1 0x40 MLOAD PUSH4 0xC30A7BD7 PUSH1 0xE0 SHL DUP2 MSTORE PUSH1 0x4 ADD PUSH1 0x40 MLOAD DUP1 SWAP2 SUB SWAP1 REVERT JUMPDEST SWAP4 SWAP3 POP POP POP JUMP JUMPDEST PUSH1 0x0 DUP1 DUP1 PUSH2 0x215 PUSH1 0x20 DUP6 PUSH2 0x2FA JUMP JUMPDEST SWAP1 POP CALLDATASIZE DUP2 GT ISZERO PUSH2 0x238 JUMPI PUSH1 0x40 MLOAD PUSH4 0x2BCB7BC5 PUSH1 0xE1 SHL DUP2 MSTORE PUSH1 0x4 ADD PUSH1 0x40 MLOAD DUP1 SWAP2 SUB SWAP1 REVERT JUMPDEST CALLDATASIZE DUP2 SWAP1 SUB CALLDATALOAD SWAP3 POP DUP3 PUSH2 0x24B PUSH1 0x2 DUP7 PUSH2 0x2FA JUMP JUMPDEST SWAP3 POP SWAP3 POP POP SWAP2 POP SWAP2 JUMP JUMPDEST PUSH1 0x0 DUP1 PUSH1 0x0 PUSH2 0x263 DUP5 PUSH2 0x291 JUMP JUMPDEST SWAP1 SWAP3 POP SWAP1 POP PUSH1 0x4E PUSH2 0x275 DUP3 PUSH1 0x20 PUSH2 0x2FA JUMP JUMPDEST PUSH2 0x27F SWAP1 DUP5 PUSH2 0x33F JUMP JUMPDEST PUSH2 0x289 SWAP2 SWAP1 PUSH2 0x2FA JUMP JUMPDEST SWAP5 SWAP4 POP POP POP POP JUMP JUMPDEST PUSH1 0x0 DUP1 DUP1 DUP1 DUP1 PUSH1 0x20 PUSH2 0x2A4 PUSH1 0x41 DUP9 PUSH2 0x2FA JUMP JUMPDEST PUSH2 0x2AE SWAP2 SWAP1 PUSH2 0x2FA JUMP JUMPDEST PUSH2 0x2B8 SWAP1 CALLDATASIZE PUSH2 0x313 JUMP JUMPDEST DUP1 CALLDATALOAD SWAP4 POP SWAP1 POP PUSH2 0x2C9 PUSH1 0x3 DUP3 PUSH2 0x313 JUMP JUMPDEST PUSH3 0xFFFFFF SWAP4 SWAP1 SWAP4 AND SWAP7 SWAP3 CALLDATALOAD PUSH4 0xFFFFFFFF AND SWAP6 POP SWAP2 SWAP4 POP POP POP POP JUMP JUMPDEST PUSH4 0x4E487B71 PUSH1 0xE0 SHL PUSH1 0x0 MSTORE PUSH1 0x11 PUSH1 0x4 MSTORE PUSH1 0x24 PUSH1 0x0 REVERT JUMPDEST DUP1 DUP3 ADD DUP1 DUP3 GT ISZERO PUSH2 0x30D JUMPI PUSH2 0x30D PUSH2 0x2E4 JUMP JUMPDEST SWAP3 SWAP2 POP POP JUMP JUMPDEST DUP2 DUP2 SUB DUP2 DUP2 GT ISZERO PUSH2 0x30D JUMPI PUSH2 0x30D PUSH2 0x2E4 JUMP JUMPDEST PUSH1 0x0 PUSH1 0x1 DUP3 ADD PUSH2 0x338 JUMPI PUSH2 0x338 PUSH2 0x2E4 JUMP JUMPDEST POP PUSH1 0x1 ADD SWAP1 JUMP JUMPDEST DUP1 DUP3 MUL DUP2 ISZERO DUP3 DUP3 DIV DUP5 EQ OR PUSH2 0x30D JUMPI PUSH2 0x30D PUSH2 0x2E4 JUMP INVALID LOG2 PUSH5 0x6970667358 0x22 SLT KECCAK256 0x4F CODECOPY 0xCA RETURN BASEFEE 0x4B SWAP12 0xE0 JUMP EXP 0xC0 ADDRESS 0x21 0xB1 0xFB 0xC4 PUSH15 0x37EFE4D1D539466192C35FBDFAAC47 PUSH5 0x736F6C6343 STOP ADDMOD EQ STOP CALLER "},"methodIdentifiers":{"extractTimestampsAndAssertAllAreEqual()":"55a547d5"}}}}}