{"@redstone-finance/evm-connector/contracts/data-services/PrimaryProdDataServiceConsumerBase.sol":{"PrimaryProdDataServiceConsumerBase":{"abi":[{"inputs":[],"name":"CalldataMustHaveValidPayload","type":"error"},{"inputs":[],"name":"CalldataOverOrUnderFlow","type":"error"},{"inputs":[],"name":"CanNotPickMedianOfEmptyArray","type":"error"},{"inputs":[],"name":"DataPackageTimestampMustNotBeZero","type":"error"},{"inputs":[],"name":"DataPackageTimestampsMustBeEqual","type":"error"},{"inputs":[],"name":"DataTimestampCannotBeZero","type":"error"},{"inputs":[],"name":"EachSignerMustProvideTheSameValue","type":"error"},{"inputs":[],"name":"EmptyCalldataPointersArr","type":"error"},{"inputs":[],"name":"GetDataServiceIdNotImplemented","type":"error"},{"inputs":[],"name":"IncorrectUnsignedMetadataSize","type":"error"},{"inputs":[{"internalType":"uint256","name":"receivedSignersCount","type":"uint256"},{"internalType":"uint256","name":"requiredSignersCount","type":"uint256"}],"name":"InsufficientNumberOfUniqueSigners","type":"error"},{"inputs":[],"name":"InvalidCalldataPointer","type":"error"},{"inputs":[],"name":"RedstonePayloadMustHaveAtLeastOneDataPackage","type":"error"},{"inputs":[{"internalType":"address","name":"receivedSigner","type":"address"}],"name":"SignerNotAuthorised","type":"error"},{"inputs":[{"internalType":"uint256","name":"receivedTimestampSeconds","type":"uint256"},{"internalType":"uint256","name":"blockTimestamp","type":"uint256"}],"name":"TimestampFromTooLongFuture","type":"error"},{"inputs":[{"internalType":"uint256","name":"receivedTimestampSeconds","type":"uint256"},{"internalType":"uint256","name":"blockTimestamp","type":"uint256"}],"name":"TimestampIsTooOld","type":"error"},{"inputs":[],"name":"TimestampsMustBeEqual","type":"error"},{"inputs":[{"internalType":"uint256","name":"valueByteSize","type":"uint256"}],"name":"TooLargeValueByteSize","type":"error"},{"inputs":[{"internalType":"uint256[]","name":"values","type":"uint256[]"}],"name":"aggregateValues","outputs":[{"internalType":"uint256","name":"","type":"uint256"}],"stateMutability":"view","type":"function"},{"inputs":[],"name":"extractTimestampsAndAssertAllAreEqual","outputs":[{"internalType":"uint256","name":"extractedTimestamp","type":"uint256"}],"stateMutability":"pure","type":"function"},{"inputs":[{"internalType":"address","name":"signerAddress","type":"address"}],"name":"getAuthorisedSignerIndex","outputs":[{"internalType":"uint8","name":"","type":"uint8"}],"stateMutability":"view","type":"function"},{"inputs":[],"name":"getDataServiceId","outputs":[{"internalType":"string","name":"","type":"string"}],"stateMutability":"view","type":"function"},{"inputs":[],"name":"getUniqueSignersThreshold","outputs":[{"internalType":"uint8","name":"","type":"uint8"}],"stateMutability":"view","type":"function"},{"inputs":[{"internalType":"uint256","name":"receivedTimestampMilliseconds","type":"uint256"}],"name":"validateTimestamp","outputs":[],"stateMutability":"view","type":"function"}],"evm":{"bytecode":{"linkReferences":{},"object":"608060405234801561001057600080fd5b50610926806100206000396000f3fe608060405234801561001057600080fd5b50600436106100625760003560e01c80633ce142f51461006757806355a547d514610091578063b24ebfcc146100a7578063c274583a146100ba578063f50b2efe146100f1578063f90c492414610106575b600080fd5b61007a6100753660046106cc565b61010d565b60405160ff90911681526020015b60405180910390f35b610099610214565b604051908152602001610088565b6100996100b536600461070b565b610322565b60408051808201825260158152741c99591cdd1bdb994b5c1c9a5b585c9e4b5c1c9bd9605a1b6020820152905161008891906107c9565b6101046100ff366004610817565b610333565b005b600361007a565b60006001600160a01b038216738bb8f32df04c8b654987daaed53d6b6091e3b7740361013b57506000919050565b6001600160a01b03821673deb22f54738d54976c4c0fe5ce6d408e40d884990361016757506001919050565b6001600160a01b0382167351ce04be4b3e32572c4ec9135221d0691ba7d2020361019357506002919050565b6001600160a01b03821673dd682daec5a90dd295d14da4b0bec9281017b5be036101bf57506003919050565b6001600160a01b038216739c5ae89c4af6aa32ce58588dbaf90d18a855b6de036101eb57506004919050565b6040516303b1166f60e61b81526001600160a01b03831660048201526024015b60405180910390fd5b60008061021f61033f565b9050600061022c826103ed565b925061ffff169050600081900361025657604051632154bfcf60e21b815260040160405180910390fd5b60005b8181101561031c57600061026c8461043c565b905060008061027c606887610846565b9050600061028a8236610859565b9050803592508265ffffffffffff166000036102b957604051630336dc9d60e41b815260040160405180910390fd5b876000036102d1578265ffffffffffff1697506102f9565b878365ffffffffffff16146102f95760405163d9d1f46560e01b815260040160405180910390fd5b6103038488610846565b96505050505080806103149061086c565b915050610259565b50505090565b600061032d82610478565b92915050565b61033c81610483565b50565b60006602ed57011e0000601f1936013581161480610370576040516373bb264f60e11b815260040160405180910390fd5b6000366029111561039457604051632bcb7bc560e11b815260040160405180910390fd5b50602819360135600060096103af600362ffffff8516610846565b6103b99190610846565b9050366103c7600283610846565b11156103e65760405163c30a7bd760e01b815260040160405180910390fd5b9392505050565b600080806103fc602085610846565b90503681111561041f57604051632bcb7bc560e11b815260040160405180910390fd5b3681900335925082610432600286610846565b9250925050915091565b600080600061044a84610507565b9092509050604e61045c826020610846565b6104669084610885565b6104709190610846565b949350505050565b600061032d8261055a565b60006104916103e8836108b2565b9050804210156104d357603c6104a74283610859565b11156104cf5760405163b6b0916d60e01b81526004810182905242602482015260440161020b565b5050565b60b46104df8242610859565b11156104cf57604051630321d0b560e01b81526004810182905242602482015260440161020b565b600080808080602061051a604188610846565b6105249190610846565b61052e9036610859565b80359350905061053f600382610859565b62ffffff9390931696923563ffffffff169550919350505050565b600081516002036105b15760028260018151811061057a5761057a6108c6565b602002602001015183600081518110610595576105956108c6565b60200260200101516105a79190610846565b61032d91906108b2565b81516000036105d357604051639e198af960e01b815260040160405180910390fd5b6105dc8261067e565b6000600283516105ec91906108b2565b9050600283516105fc91906108dc565b60000361065c576000838281518110610617576106176108c6565b60200260200101518460018461062d9190610859565b8151811061063d5761063d6108c6565b602002602001015161064f9190610846565b90506104706002826108b2565b82818151811061066e5761066e6108c6565b6020026020010151915050919050565b8051602082016020820281019150805b828110156106c657815b818110156106bd5781518151808210156106b3578084528183525b5050602001610698565b5060200161068e565b50505050565b6000602082840312156106de57600080fd5b81356001600160a01b03811681146103e657600080fd5b634e487b7160e01b600052604160045260246000fd5b6000602080838503121561071e57600080fd5b823567ffffffffffffffff8082111561073657600080fd5b818501915085601f83011261074a57600080fd5b81358181111561075c5761075c6106f5565b8060051b604051601f19603f83011681018181108582111715610781576107816106f5565b60405291825284820192508381018501918883111561079f57600080fd5b938501935b828510156107bd578435845293850193928501926107a4565b98975050505050505050565b600060208083528351808285015260005b818110156107f6578581018301518582016040015282016107da565b506000604082860101526040601f19601f8301168501019250505092915050565b60006020828403121561082957600080fd5b5035919050565b634e487b7160e01b600052601160045260246000fd5b8082018082111561032d5761032d610830565b8181038181111561032d5761032d610830565b60006001820161087e5761087e610830565b5060010190565b808202811582820484141761032d5761032d610830565b634e487b7160e01b600052601260045260246000fd5b6000826108c1576108c161089c565b500490565b634e487b7160e01b600052603260045260246000fd5b6000826108eb576108eb61089c565b50069056fea2646970667358221220db3ad76fcf29ecaf5b9c99df3a908a060d58c179d1c1eeb7c0ef4b401901d2ea64736f6c63430008140033","opcodes":"PUSH1 0x80 PUSH1 0x40 MSTORE CALLVALUE DUP1 ISZERO PUSH2 0x10 JUMPI PUSH1 0x0 DUP1 REVERT JUMPDEST POP PUSH2 0x926 DUP1 PUSH2 0x20 PUSH1 0x0 CODECOPY PUSH1 0x0 RETURN INVALID PUSH1 0x80 PUSH1 0x40 MSTORE CALLVALUE DUP1 ISZERO PUSH2 0x10 JUMPI PUSH1 0x0 DUP1 REVERT JUMPDEST POP PUSH1 0x4 CALLDATASIZE LT PUSH2 0x62 JUMPI PUSH1 0x0 CALLDATALOAD PUSH1 0xE0 SHR DUP1 PUSH4 0x3CE142F5 EQ PUSH2 0x67 JUMPI DUP1 PUSH4 0x55A547D5 EQ PUSH2 0x91 JUMPI DUP1 PUSH4 0xB24EBFCC EQ PUSH2 0xA7 JUMPI DUP1 PUSH4 0xC274583A EQ PUSH2 0xBA JUMPI DUP1 PUSH4 0xF50B2EFE EQ PUSH2 0xF1 JUMPI DUP1 PUSH4 0xF90C4924 EQ PUSH2 0x106 JUMPI JUMPDEST PUSH1 0x0 DUP1 REVERT JUMPDEST PUSH2 0x7A PUSH2 0x75 CALLDATASIZE PUSH1 0x4 PUSH2 0x6CC JUMP JUMPDEST PUSH2 0x10D JUMP JUMPDEST PUSH1 0x40 MLOAD PUSH1 0xFF SWAP1 SWAP2 AND DUP2 MSTORE PUSH1 0x20 ADD JUMPDEST PUSH1 0x40 MLOAD DUP1 SWAP2 SUB SWAP1 RETURN JUMPDEST PUSH2 0x99 PUSH2 0x214 JUMP JUMPDEST PUSH1 0x40 MLOAD SWAP1 DUP2 MSTORE PUSH1 0x20 ADD PUSH2 0x88 JUMP JUMPDEST PUSH2 0x99 PUSH2 0xB5 CALLDATASIZE PUSH1 0x4 PUSH2 0x70B JUMP JUMPDEST PUSH2 0x322 JUMP JUMPDEST PUSH1 0x40 DUP1 MLOAD DUP1 DUP3 ADD DUP3 MSTORE PUSH1 0x15 DUP2 MSTORE PUSH21 0x1C99591CDD1BDB994B5C1C9A5B585C9E4B5C1C9BD9 PUSH1 0x5A SHL PUSH1 0x20 DUP3 ADD MSTORE SWAP1 MLOAD PUSH2 0x88 SWAP2 SWAP1 PUSH2 0x7C9 JUMP JUMPDEST PUSH2 0x104 PUSH2 0xFF CALLDATASIZE PUSH1 0x4 PUSH2 0x817 JUMP JUMPDEST PUSH2 0x333 JUMP JUMPDEST STOP JUMPDEST PUSH1 0x3 PUSH2 0x7A JUMP JUMPDEST PUSH1 0x0 PUSH1 0x1 PUSH1 0x1 PUSH1 0xA0 SHL SUB DUP3 AND PUSH20 0x8BB8F32DF04C8B654987DAAED53D6B6091E3B774 SUB PUSH2 0x13B JUMPI POP PUSH1 0x0 SWAP2 SWAP1 POP JUMP JUMPDEST PUSH1 0x1 PUSH1 0x1 PUSH1 0xA0 SHL SUB DUP3 AND PUSH20 0xDEB22F54738D54976C4C0FE5CE6D408E40D88499 SUB PUSH2 0x167 JUMPI POP PUSH1 0x1 SWAP2 SWAP1 POP JUMP JUMPDEST PUSH1 0x1 PUSH1 0x1 PUSH1 0xA0 SHL SUB DUP3 AND PUSH20 0x51CE04BE4B3E32572C4EC9135221D0691BA7D202 SUB PUSH2 0x193 JUMPI POP PUSH1 0x2 SWAP2 SWAP1 POP JUMP JUMPDEST PUSH1 0x1 PUSH1 0x1 PUSH1 0xA0 SHL SUB DUP3 AND PUSH20 0xDD682DAEC5A90DD295D14DA4B0BEC9281017B5BE SUB PUSH2 0x1BF JUMPI POP PUSH1 0x3 SWAP2 SWAP1 POP JUMP JUMPDEST PUSH1 0x1 PUSH1 0x1 PUSH1 0xA0 SHL SUB DUP3 AND PUSH20 0x9C5AE89C4AF6AA32CE58588DBAF90D18A855B6DE SUB PUSH2 0x1EB JUMPI POP PUSH1 0x4 SWAP2 SWAP1 POP JUMP JUMPDEST PUSH1 0x40 MLOAD PUSH4 0x3B1166F PUSH1 0xE6 SHL DUP2 MSTORE PUSH1 0x1 PUSH1 0x1 PUSH1 0xA0 SHL SUB DUP4 AND PUSH1 0x4 DUP3 ADD MSTORE PUSH1 0x24 ADD JUMPDEST PUSH1 0x40 MLOAD DUP1 SWAP2 SUB SWAP1 REVERT JUMPDEST PUSH1 0x0 DUP1 PUSH2 0x21F PUSH2 0x33F JUMP JUMPDEST SWAP1 POP PUSH1 0x0 PUSH2 0x22C DUP3 PUSH2 0x3ED JUMP JUMPDEST SWAP3 POP PUSH2 0xFFFF AND SWAP1 POP PUSH1 0x0 DUP2 SWAP1 SUB PUSH2 0x256 JUMPI PUSH1 0x40 MLOAD PUSH4 0x2154BFCF PUSH1 0xE2 SHL DUP2 MSTORE PUSH1 0x4 ADD PUSH1 0x40 MLOAD DUP1 SWAP2 SUB SWAP1 REVERT JUMPDEST PUSH1 0x0 JUMPDEST DUP2 DUP2 LT ISZERO PUSH2 0x31C JUMPI PUSH1 0x0 PUSH2 0x26C DUP5 PUSH2 0x43C JUMP JUMPDEST SWAP1 POP PUSH1 0x0 DUP1 PUSH2 0x27C PUSH1 0x68 DUP8 PUSH2 0x846 JUMP JUMPDEST SWAP1 POP PUSH1 0x0 PUSH2 0x28A DUP3 CALLDATASIZE PUSH2 0x859 JUMP JUMPDEST SWAP1 POP DUP1 CALLDATALOAD SWAP3 POP DUP3 PUSH6 0xFFFFFFFFFFFF AND PUSH1 0x0 SUB PUSH2 0x2B9 JUMPI PUSH1 0x40 MLOAD PUSH4 0x336DC9D PUSH1 0xE4 SHL DUP2 MSTORE PUSH1 0x4 ADD PUSH1 0x40 MLOAD DUP1 SWAP2 SUB SWAP1 REVERT JUMPDEST DUP8 PUSH1 0x0 SUB PUSH2 0x2D1 JUMPI DUP3 PUSH6 0xFFFFFFFFFFFF AND SWAP8 POP PUSH2 0x2F9 JUMP JUMPDEST DUP8 DUP4 PUSH6 0xFFFFFFFFFFFF AND EQ PUSH2 0x2F9 JUMPI PUSH1 0x40 MLOAD PUSH4 0xD9D1F465 PUSH1 0xE0 SHL DUP2 MSTORE PUSH1 0x4 ADD PUSH1 0x40 MLOAD DUP1 SWAP2 SUB SWAP1 REVERT JUMPDEST PUSH2 0x303 DUP5 DUP9 PUSH2 0x846 JUMP JUMPDEST SWAP7 POP POP POP POP POP DUP1 DUP1 PUSH2 0x314 SWAP1 PUSH2 0x86C JUMP JUMPDEST SWAP2 POP POP PUSH2 0x259 JUMP JUMPDEST POP POP POP SWAP1 JUMP JUMPDEST PUSH1 0x0 PUSH2 0x32D DUP3 PUSH2 0x478 JUMP JUMPDEST SWAP3 SWAP2 POP POP JUMP JUMPDEST PUSH2 0x33C DUP2 PUSH2 0x483 JUMP JUMPDEST POP JUMP JUMPDEST PUSH1 0x0 PUSH7 0x2ED57011E0000 PUSH1 0x1F NOT CALLDATASIZE ADD CALLDATALOAD DUP2 AND EQ DUP1 PUSH2 0x370 JUMPI PUSH1 0x40 MLOAD PUSH4 0x73BB264F PUSH1 0xE1 SHL DUP2 MSTORE PUSH1 0x4 ADD PUSH1 0x40 MLOAD DUP1 SWAP2 SUB SWAP1 REVERT JUMPDEST PUSH1 0x0 CALLDATASIZE PUSH1 0x29 GT ISZERO PUSH2 0x394 JUMPI PUSH1 0x40 MLOAD PUSH4 0x2BCB7BC5 PUSH1 0xE1 SHL DUP2 MSTORE PUSH1 0x4 ADD PUSH1 0x40 MLOAD DUP1 SWAP2 SUB SWAP1 REVERT JUMPDEST POP PUSH1 0x28 NOT CALLDATASIZE ADD CALLDATALOAD PUSH1 0x0 PUSH1 0x9 PUSH2 0x3AF PUSH1 0x3 PUSH3 0xFFFFFF DUP6 AND PUSH2 0x846 JUMP JUMPDEST PUSH2 0x3B9 SWAP2 SWAP1 PUSH2 0x846 JUMP JUMPDEST SWAP1 POP CALLDATASIZE PUSH2 0x3C7 PUSH1 0x2 DUP4 PUSH2 0x846 JUMP JUMPDEST GT ISZERO PUSH2 0x3E6 JUMPI PUSH1 0x40 MLOAD PUSH4 0xC30A7BD7 PUSH1 0xE0 SHL DUP2 MSTORE PUSH1 0x4 ADD PUSH1 0x40 MLOAD DUP1 SWAP2 SUB SWAP1 REVERT JUMPDEST SWAP4 SWAP3 POP POP POP JUMP JUMPDEST PUSH1 0x0 DUP1 DUP1 PUSH2 0x3FC PUSH1 0x20 DUP6 PUSH2 0x846 JUMP JUMPDEST SWAP1 POP CALLDATASIZE DUP2 GT ISZERO PUSH2 0x41F JUMPI PUSH1 0x40 MLOAD PUSH4 0x2BCB7BC5 PUSH1 0xE1 SHL DUP2 MSTORE PUSH1 0x4 ADD PUSH1 0x40 MLOAD DUP1 SWAP2 SUB SWAP1 REVERT JUMPDEST CALLDATASIZE DUP2 SWAP1 SUB CALLDATALOAD SWAP3 POP DUP3 PUSH2 0x432 PUSH1 0x2 DUP7 PUSH2 0x846 JUMP JUMPDEST SWAP3 POP SWAP3 POP POP SWAP2 POP SWAP2 JUMP JUMPDEST PUSH1 0x0 DUP1 PUSH1 0x0 PUSH2 0x44A DUP5 PUSH2 0x507 JUMP JUMPDEST SWAP1 SWAP3 POP SWAP1 POP PUSH1 0x4E PUSH2 0x45C DUP3 PUSH1 0x20 PUSH2 0x846 JUMP JUMPDEST PUSH2 0x466 SWAP1 DUP5 PUSH2 0x885 JUMP JUMPDEST PUSH2 0x470 SWAP2 SWAP1 PUSH2 0x846 JUMP JUMPDEST SWAP5 SWAP4 POP POP POP POP JUMP JUMPDEST PUSH1 0x0 PUSH2 0x32D DUP3 PUSH2 0x55A JUMP JUMPDEST PUSH1 0x0 PUSH2 0x491 PUSH2 0x3E8 DUP4 PUSH2 0x8B2 JUMP JUMPDEST SWAP1 POP DUP1 TIMESTAMP LT ISZERO PUSH2 0x4D3 JUMPI PUSH1 0x3C PUSH2 0x4A7 TIMESTAMP DUP4 PUSH2 0x859 JUMP JUMPDEST GT ISZERO PUSH2 0x4CF JUMPI PUSH1 0x40 MLOAD PUSH4 0xB6B0916D PUSH1 0xE0 SHL DUP2 MSTORE PUSH1 0x4 DUP2 ADD DUP3 SWAP1 MSTORE TIMESTAMP PUSH1 0x24 DUP3 ADD MSTORE PUSH1 0x44 ADD PUSH2 0x20B JUMP JUMPDEST POP POP JUMP JUMPDEST PUSH1 0xB4 PUSH2 0x4DF DUP3 TIMESTAMP PUSH2 0x859 JUMP JUMPDEST GT ISZERO PUSH2 0x4CF JUMPI PUSH1 0x40 MLOAD PUSH4 0x321D0B5 PUSH1 0xE0 SHL DUP2 MSTORE PUSH1 0x4 DUP2 ADD DUP3 SWAP1 MSTORE TIMESTAMP PUSH1 0x24 DUP3 ADD MSTORE PUSH1 0x44 ADD PUSH2 0x20B JUMP JUMPDEST PUSH1 0x0 DUP1 DUP1 DUP1 DUP1 PUSH1 0x20 PUSH2 0x51A PUSH1 0x41 DUP9 PUSH2 0x846 JUMP JUMPDEST PUSH2 0x524 SWAP2 SWAP1 PUSH2 0x846 JUMP JUMPDEST PUSH2 0x52E SWAP1 CALLDATASIZE PUSH2 0x859 JUMP JUMPDEST DUP1 CALLDATALOAD SWAP4 POP SWAP1 POP PUSH2 0x53F PUSH1 0x3 DUP3 PUSH2 0x859 JUMP JUMPDEST PUSH3 0xFFFFFF SWAP4 SWAP1 SWAP4 AND SWAP7 SWAP3 CALLDATALOAD PUSH4 0xFFFFFFFF AND SWAP6 POP SWAP2 SWAP4 POP POP POP POP JUMP JUMPDEST PUSH1 0x0 DUP2 MLOAD PUSH1 0x2 SUB PUSH2 0x5B1 JUMPI PUSH1 0x2 DUP3 PUSH1 0x1 DUP2 MLOAD DUP2 LT PUSH2 0x57A JUMPI PUSH2 0x57A PUSH2 0x8C6 JUMP JUMPDEST PUSH1 0x20 MUL PUSH1 0x20 ADD ADD MLOAD DUP4 PUSH1 0x0 DUP2 MLOAD DUP2 LT PUSH2 0x595 JUMPI PUSH2 0x595 PUSH2 0x8C6 JUMP JUMPDEST PUSH1 0x20 MUL PUSH1 0x20 ADD ADD MLOAD PUSH2 0x5A7 SWAP2 SWAP1 PUSH2 0x846 JUMP JUMPDEST PUSH2 0x32D SWAP2 SWAP1 PUSH2 0x8B2 JUMP JUMPDEST DUP2 MLOAD PUSH1 0x0 SUB PUSH2 0x5D3 JUMPI PUSH1 0x40 MLOAD PUSH4 0x9E198AF9 PUSH1 0xE0 SHL DUP2 MSTORE PUSH1 0x4 ADD PUSH1 0x40 MLOAD DUP1 SWAP2 SUB SWAP1 REVERT JUMPDEST PUSH2 0x5DC DUP3 PUSH2 0x67E JUMP JUMPDEST PUSH1 0x0 PUSH1 0x2 DUP4 MLOAD PUSH2 0x5EC SWAP2 SWAP1 PUSH2 0x8B2 JUMP JUMPDEST SWAP1 POP PUSH1 0x2 DUP4 MLOAD PUSH2 0x5FC SWAP2 SWAP1 PUSH2 0x8DC JUMP JUMPDEST PUSH1 0x0 SUB PUSH2 0x65C JUMPI PUSH1 0x0 DUP4 DUP3 DUP2 MLOAD DUP2 LT PUSH2 0x617 JUMPI PUSH2 0x617 PUSH2 0x8C6 JUMP JUMPDEST PUSH1 0x20 MUL PUSH1 0x20 ADD ADD MLOAD DUP5 PUSH1 0x1 DUP5 PUSH2 0x62D SWAP2 SWAP1 PUSH2 0x859 JUMP JUMPDEST DUP2 MLOAD DUP2 LT PUSH2 0x63D JUMPI PUSH2 0x63D PUSH2 0x8C6 JUMP JUMPDEST PUSH1 0x20 MUL PUSH1 0x20 ADD ADD MLOAD PUSH2 0x64F SWAP2 SWAP1 PUSH2 0x846 JUMP JUMPDEST SWAP1 POP PUSH2 0x470 PUSH1 0x2 DUP3 PUSH2 0x8B2 JUMP JUMPDEST DUP3 DUP2 DUP2 MLOAD DUP2 LT PUSH2 0x66E JUMPI PUSH2 0x66E PUSH2 0x8C6 JUMP JUMPDEST PUSH1 0x20 MUL PUSH1 0x20 ADD ADD MLOAD SWAP2 POP POP SWAP2 SWAP1 POP JUMP JUMPDEST DUP1 MLOAD PUSH1 0x20 DUP3 ADD PUSH1 0x20 DUP3 MUL DUP2 ADD SWAP2 POP DUP1 JUMPDEST DUP3 DUP2 LT ISZERO PUSH2 0x6C6 JUMPI DUP2 JUMPDEST DUP2 DUP2 LT ISZERO PUSH2 0x6BD JUMPI DUP2 MLOAD DUP2 MLOAD DUP1 DUP3 LT ISZERO PUSH2 0x6B3 JUMPI DUP1 DUP5 MSTORE DUP2 DUP4 MSTORE JUMPDEST POP POP PUSH1 0x20 ADD PUSH2 0x698 JUMP JUMPDEST POP PUSH1 0x20 ADD PUSH2 0x68E JUMP JUMPDEST POP POP POP POP JUMP JUMPDEST PUSH1 0x0 PUSH1 0x20 DUP3 DUP5 SUB SLT ISZERO PUSH2 0x6DE JUMPI PUSH1 0x0 DUP1 REVERT JUMPDEST DUP2 CALLDATALOAD PUSH1 0x1 PUSH1 0x1 PUSH1 0xA0 SHL SUB DUP2 AND DUP2 EQ PUSH2 0x3E6 JUMPI PUSH1 0x0 DUP1 REVERT JUMPDEST PUSH4 0x4E487B71 PUSH1 0xE0 SHL PUSH1 0x0 MSTORE PUSH1 0x41 PUSH1 0x4 MSTORE PUSH1 0x24 PUSH1 0x0 REVERT JUMPDEST PUSH1 0x0 PUSH1 0x20 DUP1 DUP4 DUP6 SUB SLT ISZERO PUSH2 0x71E JUMPI PUSH1 0x0 DUP1 REVERT JUMPDEST DUP3 CALLDATALOAD PUSH8 0xFFFFFFFFFFFFFFFF DUP1 DUP3 GT ISZERO PUSH2 0x736 JUMPI PUSH1 0x0 DUP1 REVERT JUMPDEST DUP2 DUP6 ADD SWAP2 POP DUP6 PUSH1 0x1F DUP4 ADD SLT PUSH2 0x74A JUMPI PUSH1 0x0 DUP1 REVERT JUMPDEST DUP2 CALLDATALOAD DUP2 DUP2 GT ISZERO PUSH2 0x75C JUMPI PUSH2 0x75C PUSH2 0x6F5 JUMP JUMPDEST DUP1 PUSH1 0x5 SHL PUSH1 0x40 MLOAD PUSH1 0x1F NOT PUSH1 0x3F DUP4 ADD AND DUP2 ADD DUP2 DUP2 LT DUP6 DUP3 GT OR ISZERO PUSH2 0x781 JUMPI PUSH2 0x781 PUSH2 0x6F5 JUMP JUMPDEST PUSH1 0x40 MSTORE SWAP2 DUP3 MSTORE DUP5 DUP3 ADD SWAP3 POP DUP4 DUP2 ADD DUP6 ADD SWAP2 DUP9 DUP4 GT ISZERO PUSH2 0x79F JUMPI PUSH1 0x0 DUP1 REVERT JUMPDEST SWAP4 DUP6 ADD SWAP4 JUMPDEST DUP3 DUP6 LT ISZERO PUSH2 0x7BD JUMPI DUP5 CALLDATALOAD DUP5 MSTORE SWAP4 DUP6 ADD SWAP4 SWAP3 DUP6 ADD SWAP3 PUSH2 0x7A4 JUMP JUMPDEST SWAP9 SWAP8 POP POP POP POP POP POP POP POP JUMP JUMPDEST PUSH1 0x0 PUSH1 0x20 DUP1 DUP4 MSTORE DUP4 MLOAD DUP1 DUP3 DUP6 ADD MSTORE PUSH1 0x0 JUMPDEST DUP2 DUP2 LT ISZERO PUSH2 0x7F6 JUMPI DUP6 DUP2 ADD DUP4 ADD MLOAD DUP6 DUP3 ADD PUSH1 0x40 ADD MSTORE DUP3 ADD PUSH2 0x7DA JUMP JUMPDEST POP PUSH1 0x0 PUSH1 0x40 DUP3 DUP7 ADD ADD MSTORE PUSH1 0x40 PUSH1 0x1F NOT PUSH1 0x1F DUP4 ADD AND DUP6 ADD ADD SWAP3 POP POP POP SWAP3 SWAP2 POP POP JUMP JUMPDEST PUSH1 0x0 PUSH1 0x20 DUP3 DUP5 SUB SLT ISZERO PUSH2 0x829 JUMPI PUSH1 0x0 DUP1 REVERT JUMPDEST POP CALLDATALOAD SWAP2 SWAP1 POP JUMP JUMPDEST PUSH4 0x4E487B71 PUSH1 0xE0 SHL PUSH1 0x0 MSTORE PUSH1 0x11 PUSH1 0x4 MSTORE PUSH1 0x24 PUSH1 0x0 REVERT JUMPDEST DUP1 DUP3 ADD DUP1 DUP3 GT ISZERO PUSH2 0x32D JUMPI PUSH2 0x32D PUSH2 0x830 JUMP JUMPDEST DUP2 DUP2 SUB DUP2 DUP2 GT ISZERO PUSH2 0x32D JUMPI PUSH2 0x32D PUSH2 0x830 JUMP JUMPDEST PUSH1 0x0 PUSH1 0x1 DUP3 ADD PUSH2 0x87E JUMPI PUSH2 0x87E PUSH2 0x830 JUMP JUMPDEST POP PUSH1 0x1 ADD SWAP1 JUMP JUMPDEST DUP1 DUP3 MUL DUP2 ISZERO DUP3 DUP3 DIV DUP5 EQ OR PUSH2 0x32D JUMPI PUSH2 0x32D PUSH2 0x830 JUMP JUMPDEST PUSH4 0x4E487B71 PUSH1 0xE0 SHL PUSH1 0x0 MSTORE PUSH1 0x12 PUSH1 0x4 MSTORE PUSH1 0x24 PUSH1 0x0 REVERT JUMPDEST PUSH1 0x0 DUP3 PUSH2 0x8C1 JUMPI PUSH2 0x8C1 PUSH2 0x89C JUMP JUMPDEST POP DIV SWAP1 JUMP JUMPDEST PUSH4 0x4E487B71 PUSH1 0xE0 SHL PUSH1 0x0 MSTORE PUSH1 0x32 PUSH1 0x4 MSTORE PUSH1 0x24 PUSH1 0x0 REVERT JUMPDEST PUSH1 0x0 DUP3 PUSH2 0x8EB JUMPI PUSH2 0x8EB PUSH2 0x89C JUMP JUMPDEST POP MOD SWAP1 JUMP INVALID LOG2 PUSH5 0x6970667358 0x22 SLT KECCAK256 0xDB GASPRICE 0xD7 PUSH16 0xCF29ECAF5B9C99DF3A908A060D58C179 0xD1 0xC1 0xEE 0xB7 0xC0 0xEF 0x4B BLOCKHASH NOT ADD 0xD2 0xEA PUSH5 0x736F6C6343 STOP ADDMOD EQ STOP CALLER "},"methodIdentifiers":{"aggregateValues(uint256[])":"b24ebfcc","extractTimestampsAndAssertAllAreEqual()":"55a547d5","getAuthorisedSignerIndex(address)":"3ce142f5","getDataServiceId()":"c274583a","getUniqueSignersThreshold()":"f90c4924","validateTimestamp(uint256)":"f50b2efe"}}}}}