{"contracts/UsdSubscriptionProd.sol":{"UsdSubscriptionProd":{"abi":[{"inputs":[],"name":"CalldataMustHaveValidPayload","type":"error"},{"inputs":[],"name":"CalldataOverOrUnderFlow","type":"error"},{"inputs":[],"name":"CanNotPickMedianOfEmptyArray","type":"error"},{"inputs":[],"name":"DataPackageTimestampMustNotBeZero","type":"error"},{"inputs":[],"name":"DataPackageTimestampsMustBeEqual","type":"error"},{"inputs":[],"name":"DataTimestampCannotBeZero","type":"error"},{"inputs":[],"name":"EachSignerMustProvideTheSameValue","type":"error"},{"inputs":[],"name":"EmptyCalldataPointersArr","type":"error"},{"inputs":[],"name":"GetDataServiceIdNotImplemented","type":"error"},{"inputs":[],"name":"IncorrectUnsignedMetadataSize","type":"error"},{"inputs":[{"internalType":"uint256","name":"receivedSignersCount","type":"uint256"},{"internalType":"uint256","name":"requiredSignersCount","type":"uint256"}],"name":"InsufficientNumberOfUniqueSigners","type":"error"},{"inputs":[],"name":"InvalidCalldataPointer","type":"error"},{"inputs":[{"internalType":"bytes32","name":"signedHash","type":"bytes32"}],"name":"InvalidSignature","type":"error"},{"inputs":[],"name":"RedstonePayloadMustHaveAtLeastOneDataPackage","type":"error"},{"inputs":[{"internalType":"address","name":"receivedSigner","type":"address"}],"name":"SignerNotAuthorised","type":"error"},{"inputs":[{"internalType":"uint256","name":"receivedTimestampSeconds","type":"uint256"},{"internalType":"uint256","name":"blockTimestamp","type":"uint256"}],"name":"TimestampFromTooLongFuture","type":"error"},{"inputs":[{"internalType":"uint256","name":"receivedTimestampSeconds","type":"uint256"},{"internalType":"uint256","name":"blockTimestamp","type":"uint256"}],"name":"TimestampIsTooOld","type":"error"},{"inputs":[],"name":"TimestampsMustBeEqual","type":"error"},{"inputs":[{"internalType":"uint256","name":"valueByteSize","type":"uint256"}],"name":"TooLargeValueByteSize","type":"error"},{"anonymous":false,"inputs":[{"indexed":true,"internalType":"address","name":"payer","type":"address"},{"indexed":true,"internalType":"address","name":"caller","type":"address"},{"indexed":true,"internalType":"address","name":"asset","type":"address"},{"indexed":false,"internalType":"uint256","name":"rewardUnits","type":"uint256"}],"name":"CallerReward","type":"event"},{"anonymous":false,"inputs":[{"indexed":true,"internalType":"address","name":"payer","type":"address"}],"name":"Cancelled","type":"event"},{"anonymous":false,"inputs":[{"indexed":true,"internalType":"address","name":"payer","type":"address"},{"indexed":true,"internalType":"address","name":"merchant","type":"address"},{"indexed":false,"internalType":"uint256","name":"usdCents","type":"uint256"},{"indexed":false,"internalType":"uint256","name":"price_8","type":"uint256"},{"indexed":false,"internalType":"uint256","name":"paidUnits","type":"uint256"},{"indexed":false,"internalType":"uint256","name":"nextChargeAt","type":"uint256"}],"name":"Charged","type":"event"},{"anonymous":false,"inputs":[{"indexed":true,"internalType":"address","name":"payer","type":"address"},{"indexed":false,"internalType":"uint256","name":"amount","type":"uint256"}],"name":"Deposited","type":"event"},{"anonymous":false,"inputs":[{"indexed":true,"internalType":"address","name":"payer","type":"address"},{"indexed":true,"internalType":"address","name":"merchant","type":"address"},{"indexed":false,"internalType":"uint256","name":"usdCentsPerPeriod","type":"uint256"},{"indexed":false,"internalType":"uint256","name":"period","type":"uint256"},{"indexed":false,"internalType":"uint256","name":"maxEthPerChargeWei","type":"uint256"}],"name":"Subscribed","type":"event"},{"anonymous":false,"inputs":[{"indexed":true,"internalType":"address","name":"payer","type":"address"},{"indexed":true,"internalType":"address","name":"merchant","type":"address"},{"indexed":false,"internalType":"address","name":"asset","type":"address"},{"indexed":false,"internalType":"bytes32","name":"feedId","type":"bytes32"},{"indexed":false,"internalType":"uint256","name":"usdCentsPerPeriod","type":"uint256"},{"indexed":false,"internalType":"uint256","name":"period","type":"uint256"},{"indexed":false,"internalType":"uint256","name":"maxUnitsPerCharge","type":"uint256"},{"indexed":false,"internalType":"uint16","name":"callerFeeBps","type":"uint16"}],"name":"SubscribedAdvanced","type":"event"},{"anonymous":false,"inputs":[{"indexed":true,"internalType":"address","name":"payer","type":"address"},{"indexed":true,"internalType":"address","name":"token","type":"address"},{"indexed":false,"internalType":"uint256","name":"amount","type":"uint256"}],"name":"TokenDeposited","type":"event"},{"anonymous":false,"inputs":[{"indexed":true,"internalType":"address","name":"payer","type":"address"},{"indexed":true,"internalType":"address","name":"token","type":"address"},{"indexed":false,"internalType":"uint256","name":"amount","type":"uint256"}],"name":"TokenWithdrawn","type":"event"},{"anonymous":false,"inputs":[{"indexed":true,"internalType":"address","name":"payer","type":"address"},{"indexed":false,"internalType":"uint256","name":"amount","type":"uint256"}],"name":"Withdrawn","type":"event"},{"inputs":[{"internalType":"uint256[]","name":"values","type":"uint256[]"}],"name":"aggregateValues","outputs":[{"internalType":"uint256","name":"","type":"uint256"}],"stateMutability":"view","type":"function"},{"inputs":[],"name":"cancel","outputs":[],"stateMutability":"nonpayable","type":"function"},{"inputs":[{"internalType":"address","name":"payer","type":"address"}],"name":"charge","outputs":[],"stateMutability":"nonpayable","type":"function"},{"inputs":[],"name":"depositETH","outputs":[],"stateMutability":"payable","type":"function"},{"inputs":[{"internalType":"address","name":"token","type":"address"},{"internalType":"uint256","name":"amount","type":"uint256"}],"name":"depositToken","outputs":[],"stateMutability":"nonpayable","type":"function"},{"inputs":[{"internalType":"address","name":"","type":"address"}],"name":"ethBalances","outputs":[{"internalType":"uint256","name":"","type":"uint256"}],"stateMutability":"view","type":"function"},{"inputs":[],"name":"extractTimestampsAndAssertAllAreEqual","outputs":[{"internalType":"uint256","name":"extractedTimestamp","type":"uint256"}],"stateMutability":"pure","type":"function"},{"inputs":[{"internalType":"address","name":"signerAddress","type":"address"}],"name":"getAuthorisedSignerIndex","outputs":[{"internalType":"uint8","name":"","type":"uint8"}],"stateMutability":"view","type":"function"},{"inputs":[],"name":"getDataServiceId","outputs":[{"internalType":"string","name":"","type":"string"}],"stateMutability":"view","type":"function"},{"inputs":[],"name":"getUniqueSignersThreshold","outputs":[{"internalType":"uint8","name":"","type":"uint8"}],"stateMutability":"view","type":"function"},{"inputs":[{"internalType":"address","name":"payer","type":"address"}],"name":"nextChargeDueAt","outputs":[{"internalType":"uint256","name":"","type":"uint256"}],"stateMutability":"view","type":"function"},{"inputs":[{"internalType":"address","name":"","type":"address"}],"name":"plans","outputs":[{"internalType":"address","name":"merchant","type":"address"},{"internalType":"address","name":"asset","type":"address"},{"internalType":"bytes32","name":"feedId","type":"bytes32"},{"internalType":"uint16","name":"callerFeeBps","type":"uint16"},{"internalType":"uint256","name":"usdCentsPerPeriod","type":"uint256"},{"internalType":"uint256","name":"period","type":"uint256"},{"internalType":"uint256","name":"lastCharged","type":"uint256"},{"internalType":"uint256","name":"maxUnitsPerCharge","type":"uint256"},{"internalType":"bool","name":"active","type":"bool"}],"stateMutability":"view","type":"function"},{"inputs":[{"internalType":"uint256","name":"usdCents","type":"uint256"}],"name":"quoteEthForUsdCents","outputs":[{"internalType":"uint256","name":"ethWei","type":"uint256"}],"stateMutability":"view","type":"function"},{"inputs":[{"internalType":"bytes32","name":"feedId","type":"bytes32"},{"internalType":"address","name":"token","type":"address"},{"internalType":"uint256","name":"usdCents","type":"uint256"}],"name":"quoteTokenForUsdCents","outputs":[{"internalType":"uint256","name":"units","type":"uint256"}],"stateMutability":"view","type":"function"},{"inputs":[{"internalType":"address","name":"merchant","type":"address"},{"internalType":"uint256","name":"usdCentsPerPeriod","type":"uint256"},{"internalType":"uint256","name":"period","type":"uint256"},{"internalType":"uint256","name":"maxEthPerChargeWei","type":"uint256"}],"name":"subscribe","outputs":[],"stateMutability":"nonpayable","type":"function"},{"inputs":[{"internalType":"address","name":"merchant","type":"address"},{"internalType":"address","name":"asset","type":"address"},{"internalType":"bytes32","name":"feedId","type":"bytes32"},{"internalType":"uint256","name":"usdCentsPerPeriod","type":"uint256"},{"internalType":"uint256","name":"period","type":"uint256"},{"internalType":"uint256","name":"maxUnitsPerCharge","type":"uint256"},{"internalType":"uint16","name":"callerFeeBps","type":"uint16"}],"name":"subscribeAdvanced","outputs":[],"stateMutability":"nonpayable","type":"function"},{"inputs":[{"internalType":"address","name":"","type":"address"},{"internalType":"address","name":"","type":"address"}],"name":"tokenBalances","outputs":[{"internalType":"uint256","name":"","type":"uint256"}],"stateMutability":"view","type":"function"},{"inputs":[{"internalType":"uint256","name":"receivedTimestampMilliseconds","type":"uint256"}],"name":"validateTimestamp","outputs":[],"stateMutability":"view","type":"function"},{"inputs":[{"internalType":"uint256","name":"amount","type":"uint256"}],"name":"withdrawETH","outputs":[],"stateMutability":"nonpayable","type":"function"},{"inputs":[{"internalType":"address","name":"token","type":"address"},{"internalType":"uint256","name":"amount","type":"uint256"}],"name":"withdrawToken","outputs":[],"stateMutability":"nonpayable","type":"function"},{"stateMutability":"payable","type":"receive"}],"evm":{"bytecode":{"linkReferences":{},"object":"608060405234801561001057600080fd5b50612ad0806100206000396000f3fe6080604052600436106101235760003560e01c8063b4ee623e116100a0578063f50b2efe11610064578063f50b2efe14610471578063f6326fb314610491578063f90c492414610499578063fadc04f4146104ad578063fc6bd76a146104cd57600080fd5b8063b4ee623e146103b8578063c274583a146103d8578063d7e85ff01461041c578063ea8a1af01461043c578063f14210a61461045157600080fd5b80634dbf6c5a116100e75780634dbf6c5a1461025c57806355a547d51461029457806386d86d84146102a95780639e281a9814610378578063b24ebfcc1461039857600080fd5b8063338b5dea146101885780633ce142f5146101aa5780633cfba0e3146101e1578063460b410d1461021c5780634907cd0f1461023c57600080fd5b366101835733600090815260208190526040812080543492906101479084906125ac565b909155505060405134815233907f2da466a7b24304f47e87fa2e1e5a81b9831ce54fec19055ce277ca2f39ba42c49060200160405180910390a2005b600080fd5b34801561019457600080fd5b506101a86101a33660046125d6565b6104ed565b005b3480156101b657600080fd5b506101ca6101c5366004612600565b610671565b60405160ff90911681526020015b60405180910390f35b3480156101ed57600080fd5b5061020e6101fc366004612600565b60006020819052908152604090205481565b6040519081526020016101d8565b34801561022857600080fd5b5061020e61023736600461261b565b610778565b34801561024857600080fd5b506101a8610257366004612634565b6107d2565b34801561026857600080fd5b5061020e61027736600461266d565b600160209081526000928352604080842090915290825290205481565b3480156102a057600080fd5b5061020e6109cd565b3480156102b557600080fd5b506103246102c4366004612600565b60026020819052600091825260409091208054600182015492820154600383015460048401546005850154600686015460078701546008909701546001600160a01b039687169890961696949561ffff9094169492939192909160ff1689565b604080516001600160a01b039a8b1681529990981660208a01529688019590955261ffff9093166060870152608086019190915260a085015260c084015260e08301521515610100820152610120016101d8565b34801561038457600080fd5b506101a86103933660046125d6565b610adb565b3480156103a457600080fd5b5061020e6103b33660046126b6565b610c99565b3480156103c457600080fd5b5061020e6103d3366004612600565b610caa565b3480156103e457600080fd5b5060408051808201825260158152741c99591cdd1bdb994b5c1c9a5b585c9e4b5c1c9bd9605a1b602082015290516101d89190612774565b34801561042857600080fd5b5061020e6104373660046127c2565b610d00565b34801561044857600080fd5b506101a8610dfd565b34801561045d57600080fd5b506101a861046c36600461261b565b610e84565b34801561047d57600080fd5b506101a861048c36600461261b565b610fc8565b6101a8610fd4565b3480156104a557600080fd5b5060036101ca565b3480156104b957600080fd5b506101a86104c83660046127f7565b611068565b3480156104d957600080fd5b506101a86104e8366004612600565b611341565b6001600160a01b03821661051c5760405162461bcd60e51b81526004016105139061286c565b60405180910390fd5b6000811161053c5760405162461bcd60e51b81526004016105139061288d565b6040516323b872dd60e01b8152336004820152306024820152604481018290526001600160a01b038316906323b872dd906064016020604051808303816000875af115801561058f573d6000803e3d6000fd5b505050506040513d601f19601f820116820180604052508101906105b391906128ab565b6105f55760405162461bcd60e51b81526020600482015260136024820152721d1c985b9cd9995c919c9bdb4819985a5b1959606a1b6044820152606401610513565b3360009081526001602090815260408083206001600160a01b0386168452909152812080548392906106289084906125ac565b90915550506040518181526001600160a01b0383169033907ff1444b5cad7ce70cb018d1b8edc8618fe303f3c7f034d8d572a6e27facbf2bef9060200160405180910390a35050565b60006001600160a01b038216738bb8f32df04c8b654987daaed53d6b6091e3b7740361069f57506000919050565b6001600160a01b03821673deb22f54738d54976c4c0fe5ce6d408e40d88499036106cb57506001919050565b6001600160a01b0382167351ce04be4b3e32572c4ec9135221d0691ba7d202036106f757506002919050565b6001600160a01b03821673dd682daec5a90dd295d14da4b0bec9281017b5be0361072357506003919050565b6001600160a01b038216739c5ae89c4af6aa32ce58588dbaf90d18a855b6de0361074f57506004919050565b6040516303b1166f60e61b81526001600160a01b0383166004820152602401610513565b919050565b60008061078a6208aa8960eb1b611a64565b9050600081116107ac5760405162461bcd60e51b8152600401610513906128cd565b806107c18469d3c21bcecceda10000006128f0565b6107cb919061291d565b9392505050565b6001600160a01b0384166108155760405162461bcd60e51b815260206004820152600a60248201526906d65726368616e743d360b41b6044820152606401610513565b6000831161084f5760405162461bcd60e51b8152602060048201526007602482015266070726963653d360cc1b6044820152606401610513565b6000821161088a5760405162461bcd60e51b81526020600482015260086024820152670706572696f643d360c41b6044820152606401610513565b60408051610120810182526001600160a01b03808716808352600060208085018281526208aa8960eb1b86880190815260608701848152608088018c815260a089018c815260c08a0187815260e08b018d815260016101008d0181815233808c5260029a8b90529a8f90209d518e54908e166001600160a01b0319918216178f559851918e01805492909d169190981617909a559351958a0195909555905160038901805461ffff9290921661ffff1990921691909117905551600488015591516005870155905160068601559251600785015591516008909301805493151560ff19949094169390931790925591519091907f1faf2b5a74c296487268de9f9e3ddf269ca3980197cda4ee5c927ac895aeee88906109bf908790879087909283526020830191909152604082015260600190565b60405180910390a350505050565b6000806109d8611ad4565b905060006109e582611b7b565b925061ffff1690506000819003610a0f57604051632154bfcf60e21b815260040160405180910390fd5b60005b81811015610ad5576000610a2584611bca565b9050600080610a356068876125ac565b90506000610a438236612931565b9050803592508265ffffffffffff16600003610a7257604051630336dc9d60e41b815260040160405180910390fd5b87600003610a8a578265ffffffffffff169750610ab2565b878365ffffffffffff1614610ab25760405163d9d1f46560e01b815260040160405180910390fd5b610abc84886125ac565b9650505050508080610acd90612944565b915050610a12565b50505090565b6001600160a01b038216610b015760405162461bcd60e51b81526004016105139061286c565b60008111610b215760405162461bcd60e51b81526004016105139061288d565b3360009081526001602090815260408083206001600160a01b038616845290915290205481811015610b845760405162461bcd60e51b815260206004820152600c60248201526b125b9cdd59999a58da595b9d60a21b6044820152606401610513565b3360008181526001602090815260408083206001600160a01b0388168085529252918290208585039055905163a9059cbb60e01b81526004810192909252602482018490529063a9059cbb906044016020604051808303816000875af1158015610bf2573d6000803e3d6000fd5b505050506040513d601f19601f82011682018060405250810190610c1691906128ab565b610c545760405162461bcd60e51b815260206004820152600f60248201526e1d1c985b9cd9995c8819985a5b1959608a1b6044820152606401610513565b6040518281526001600160a01b0384169033907f8210728e7c071f615b840ee026032693858fbcd5e5359e67e438c890f59e56209060200160405180910390a3505050565b6000610ca482611c06565b92915050565b6001600160a01b0381166000908152600260205260408120600881015460ff16610cd8575060001992915050565b8060060154600003610cec57504292915050565b806005015481600601546107cb91906125ac565b60006001600160a01b038316610d285760405162461bcd60e51b81526004016105139061286c565b6000610d3385611a64565b905060008111610d555760405162461bcd60e51b8152600401610513906128cd565b6000846001600160a01b031663313ce5676040518163ffffffff1660e01b8152600401602060405180830381865afa158015610d95573d6000803e3d6000fd5b505050506040513d601f19601f82011682018060405250810190610db9919061295d565b9050610dc68260646128f0565b610dd460ff831660086125ac565b610ddf90600a612a64565b610de990866128f0565b610df3919061291d565b9695505050505050565b336000908152600260205260409020600881015460ff16610e4a5760405162461bcd60e51b8152602060048201526007602482015266373790383630b760c91b6044820152606401610513565b60088101805460ff1916905560405133907f398bd6b21ae4164ec322fb0eb8c2eb6277f36fd41903fbbed594dfe12559128190600090a250565b60008111610ea45760405162461bcd60e51b81526004016105139061288d565b3360009081526020819052604090205481811015610ef35760405162461bcd60e51b815260206004820152600c60248201526b125b9cdd59999a58da595b9d60a21b6044820152606401610513565b3360008181526020819052604080822085850390555190919084908381818185875af1925050503d8060008114610f46576040519150601f19603f3d011682016040523d82523d6000602084013e610f4b565b606091505b5050905080610f8e5760405162461bcd60e51b815260206004820152600f60248201526e15da5d1a191c985dc819985a5b1959608a1b6044820152606401610513565b60405183815233907f7084f5476618d8e60b11ef0d7d3f06914655adb8793e28ff7f018d4c76d505d59060200160405180910390a2505050565b610fd181611c11565b50565b6000341161100d5760405162461bcd60e51b815260206004820152600660248201526509cde408aa8960d31b6044820152606401610513565b336000908152602081905260408120805434929061102c9084906125ac565b909155505060405134815233907f2da466a7b24304f47e87fa2e1e5a81b9831ce54fec19055ce277ca2f39ba42c49060200160405180910390a2565b6001600160a01b0387166110ab5760405162461bcd60e51b815260206004820152600a60248201526906d65726368616e743d360b41b6044820152606401610513565b600084116110e55760405162461bcd60e51b8152602060048201526007602482015266070726963653d360cc1b6044820152606401610513565b600083116111205760405162461bcd60e51b81526020600482015260086024820152670706572696f643d360c41b6044820152606401610513565b61271061ffff82161061115f5760405162461bcd60e51b81526020600482015260076024820152666665652062707360c81b6044820152606401610513565b604051806101200160405280886001600160a01b03168152602001876001600160a01b031681526020018681526020018261ffff168152602001858152602001848152602001600081526020018381526020016001151581525060026000336001600160a01b03166001600160a01b0316815260200190815260200160002060008201518160000160006101000a8154816001600160a01b0302191690836001600160a01b0316021790555060208201518160010160006101000a8154816001600160a01b0302191690836001600160a01b031602179055506040820151816002015560608201518160030160006101000a81548161ffff021916908361ffff1602179055506080820151816004015560a0820151816005015560c0820151816006015560e082015181600701556101008201518160080160006101000a81548160ff021916908315150217905550905050866001600160a01b0316336001600160a01b03167ff13822ddeac14c8bf1f75bc61d60690a2846bed11a8d11c56be6f29c5ae66abc888888888888604051611330969594939291906001600160a01b03969096168652602086019490945260408501929092526060840152608083015261ffff1660a082015260c00190565b60405180910390a350505050505050565b6001600160a01b0381166000908152600260205260409020600881015460ff166113975760405162461bcd60e51b8152602060048201526007602482015266373790383630b760c91b6044820152606401610513565b6113a082610caa565b4210156113d95760405162461bcd60e51b81526020600482015260076024820152666e6f742064756560c81b6044820152606401610513565b6002810154600090156113f05781600201546113f8565b6208aa8960eb1b5b9050600061140582611a64565b9050600081116114275760405162461bcd60e51b8152600401610513906128cd565b600483015460018401546000906001600160a01b03168061146857836114578469d3c21bcecceda10000006128f0565b611461919061291d565b915061150a565b6000816001600160a01b031663313ce5676040518163ffffffff1660e01b8152600401602060405180830381865afa1580156114a8573d6000803e3d6000fd5b505050506040513d601f19601f820116820180604052508101906114cc919061295d565b90506114d98560646128f0565b6114e760ff831660086125ac565b6114f290600a612a64565b6114fc90866128f0565b611506919061291d565b9250505b600082116115435760405162461bcd60e51b81526004016105139060208082526004908201526374696e7960e01b604082015260600190565b60078601541580611558575085600701548211155b6115925760405162461bcd60e51b815260206004820152600b60248201526a065786365656473206361760ac1b6044820152606401610513565b6003860154600090612710906115ac9061ffff16856128f0565b6115b6919061291d565b905060006115c48285612931565b90506001600160a01b0383166117ad576001600160a01b0389166000908152602081905260409020548411156116335760405162461bcd60e51b8152602060048201526014602482015273696e73756666696369656e742062616c616e636560601b6044820152606401610513565b6001600160a01b03898116600090815260208190526040808220805488900390558a5490519192169083908381818185875af1925050503d8060008114611696576040519150601f19603f3d011682016040523d82523d6000602084013e61169b565b606091505b50509050806116d85760405162461bcd60e51b81526020600482015260096024820152681c185e534819985a5b60ba1b6044820152606401610513565b82156117a757604051600090339085908381818185875af1925050503d8060008114611720576040519150601f19603f3d011682016040523d82523d6000602084013e611725565b606091505b50509050806117625760405162461bcd60e51b81526020600482015260096024820152681c185e50c819985a5b60ba1b6044820152606401610513565b60405184815260009033906001600160a01b038e16907f1b9251f5d647165412d9426252c6606427efb36f9b61f2200a1e8e33d7ccb5a39060200160405180910390a4505b506119f3565b6001600160a01b03808a166000908152600160209081526040808320938716835292905220548411156118195760405162461bcd60e51b8152602060048201526014602482015273696e73756666696369656e742062616c616e636560601b6044820152606401610513565b6001600160a01b038981166000908152600160209081526040808320878516808552925291829020805488900390558a54915163a9059cbb60e01b81529190921660048201526024810183905263a9059cbb906044016020604051808303816000875af115801561188e573d6000803e3d6000fd5b505050506040513d601f19601f820116820180604052508101906118b291906128ab565b6118eb5760405162461bcd60e51b815260206004820152600a6024820152691d1c185e534819985a5b60b21b6044820152606401610513565b81156119f35760405163a9059cbb60e01b8152336004820152602481018390526001600160a01b0384169063a9059cbb906044016020604051808303816000875af115801561193e573d6000803e3d6000fd5b505050506040513d601f19601f8201168201806040525081019061196291906128ab565b61199b5760405162461bcd60e51b815260206004820152600a6024820152691d1c185e50c819985a5b60b21b6044820152606401610513565b826001600160a01b0316336001600160a01b03168a6001600160a01b03167f1b9251f5d647165412d9426252c6606427efb36f9b61f2200a1e8e33d7ccb5a3856040516119ea91815260200190565b60405180910390a45b42600689015587546001600160a01b03908116908a167fb3e1a1d5eec96c841d90f413aa5261898365653f66cd2769cffe66bbfb28c7a0878988611a368f610caa565b60408051948552602085019390935291830152606082015260800160405180910390a3505050505050505050565b604080516001808252818301909252600091829190602080830190803683370190505090508281600081518110611a9d57611a9d612a70565b602002602001018181525050611ab281611c95565b600081518110611ac457611ac4612a70565b6020026020010151915050919050565b60006602ed57011e0000601f1936013581161480611b05576040516373bb264f60e11b815260040160405180910390fd5b60003660291115611b2957604051632bcb7bc560e11b815260040160405180910390fd5b5060281936013560006009611b44600362ffffff85166125ac565b611b4e91906125ac565b905036611b5c6002836125ac565b11156107cb5760405163c30a7bd760e01b815260040160405180910390fd5b60008080611b8a6020856125ac565b905036811115611bad57604051632bcb7bc560e11b815260040160405180910390fd5b3681900335925082611bc06002866125ac565b9250925050915091565b6000806000611bd884611cb7565b9092509050604e611bea8260206125ac565b611bf490846128f0565b611bfe91906125ac565b949350505050565b6000610ca482611d0a565b6000611c1f6103e88361291d565b905080421015611c6157603c611c354283612931565b1115611c5d5760405163b6b0916d60e01b815260048101829052426024820152604401610513565b5050565b60b4611c6d8242612931565b1115611c5d57604051630321d0b560e01b815260048101829052426024820152604401610513565b6060600080611ca384611e1e565b91509150611cb081610fc8565b5092915050565b6000808080806020611cca6041886125ac565b611cd491906125ac565b611cde9036612931565b803593509050611cef600382612931565b62ffffff9390931696923563ffffffff169550919350505050565b60008151600203611d6157600282600181518110611d2a57611d2a612a70565b602002602001015183600081518110611d4557611d45612a70565b6020026020010151611d5791906125ac565b610ca4919061291d565b8151600003611d8357604051639e198af960e01b815260040160405180910390fd5b611d8c82612039565b600060028351611d9c919061291d565b905060028351611dac9190612a86565b600003611e0c576000838281518110611dc757611dc7612a70565b602002602001015184600184611ddd9190612931565b81518110611ded57611ded612a70565b6020026020010151611dff91906125ac565b9050611bfe60028261291d565b828181518110611ac457611ac4612a70565b6060600080835167ffffffffffffffff811115611e3d57611e3d6126a0565b604051908082528060200260200182016040528015611e66578160200160208202803683370190505b5090506000845167ffffffffffffffff811115611e8557611e856126a0565b604051908082528060200260200182016040528015611eae578160200160208202803683370190505b5090506000855167ffffffffffffffff811115611ecd57611ecd6126a0565b604051908082528060200260200182016040528015611f0057816020015b6060815260200190600190039081611eeb5790505b509050600360005b8751811015611f79578167ffffffffffffffff811115611f2a57611f2a6126a0565b604051908082528060200260200182016040528015611f53578160200160208202803683370190505b50838281518110611f6657611f66612a70565b6020908102919091010152600101611f08565b506000611f84611ad4565b90506000611f9182611b7b565b60405190935061ffff909116915060005b82811015612020576000611fb98c8a8a8a89612087565b90955090506000819003611fe05760405163dfb25a7960e01b815260040160405180910390fd5b8981146120105789600003611ff757809950612010565b60405163265e23a160e11b815260040160405180910390fd5b5060208201604052600101611fa2565b5061202b8588612312565b985050505050505050915091565b8051602082016020820281019150805b8281101561208157815b8181101561207857815181518082101561206e578084528183525b5050602001612053565b50602001612049565b50505050565b600080600080600061209886611cb7565b909250905060008060608180600d6120b16020886125ac565b6120bb90896128f0565b6120c591906125ac565b915060006120d460688d6125ac565b6120de9036612931565b90506000836120ee60418f6125ac565b6120f891906125ac565b6121029036612931565b905061210e8482612121565b9450836020860120955081359250612145565b60408051838152602081850181019092526000910183838237601f19019392505050565b8265ffffffffffff169a506121668660418f61216191906125ac565b612421565b965061217187610671565b60ff16995050505050505050604e8661218a91906125ac565b955060008060005b848110156122ff5760206121a6858b6125ac565b6121b091906125ac565b98506121bc8985612543565b909350915060005b8d518110156122f6578d81815181106121df576121df612a70565b602002602001015184036122ee5760008c828151811061220157612201612a70565b6020026020010151905061221a81896001901b16151590565b1580156122435750600360ff168e838151811061223957612239612a70565b6020026020010151105b156122e857838c838151811061225b5761225b612a70565b60200260200101518f848151811061227557612275612a70565b60200260200101518151811061228d5761228d612a70565b6020026020010181815250508d82815181106122ab576122ab612a70565b6020026020010180518091906122c090612944565b9052506001881b81178d83815181106122db576122db612a70565b6020026020010181815250505b506122f6565b6001016121c4565b50600101612192565b5050508594505050509550959350505050565b60606000835167ffffffffffffffff811115612330576123306126a0565b604051908082528060200260200182016040528015612359578160200160208202803683370190505b509050600360005b8551811015612417578185828151811061237d5761237d612a70565b602002602001015110156123ca5784818151811061239d5761239d612a70565b602002602001015182604051632b13aef560e01b8152600401610513929190918252602082015260400190565b60006123ee8783815181106123e1576123e1612a70565b6020026020010151610c99565b90508084838151811061240357612403612a70565b602090810291909101015250600101612361565b5090949350505050565b60003682900380359060208101359060400135831a601b811480159061244b575060ff8116601c14155b1561246c57604051633335be5d60e11b815260048101879052602401610513565b7f7fffffffffffffffffffffffffffffff5d576e7357a4501ddfe92f46681b20a08211156124b057604051633335be5d60e11b815260048101879052602401610513565b60408051600081526020810180835288905260ff831691810191909152606081018490526080810183905260019060a0016020604051602081039080840390855afa158015612503573d6000803e3d6000fd5b5050604051601f1901519450506001600160a01b03841661253a57604051633335be5d60e11b815260048101879052602401610513565b50505092915050565b600080806125518536612931565b9050803592506020810135915060218410612582576040516360007e2160e11b815260048101859052602401610513565b8360200360080282901c9150509250929050565b634e487b7160e01b600052601160045260246000fd5b80820180821115610ca457610ca4612596565b80356001600160a01b038116811461077357600080fd5b600080604083850312156125e957600080fd5b6125f2836125bf565b946020939093013593505050565b60006020828403121561261257600080fd5b6107cb826125bf565b60006020828403121561262d57600080fd5b5035919050565b6000806000806080858703121561264a57600080fd5b612653856125bf565b966020860135965060408601359560600135945092505050565b6000806040838503121561268057600080fd5b612689836125bf565b9150612697602084016125bf565b90509250929050565b634e487b7160e01b600052604160045260246000fd5b600060208083850312156126c957600080fd5b823567ffffffffffffffff808211156126e157600080fd5b818501915085601f8301126126f557600080fd5b813581811115612707576127076126a0565b8060051b604051601f19603f8301168101818110858211171561272c5761272c6126a0565b60405291825284820192508381018501918883111561274a57600080fd5b938501935b828510156127685784358452938501939285019261274f565b98975050505050505050565b600060208083528351808285015260005b818110156127a157858101830151858201604001528201612785565b506000604082860101526040601f19601f8301168501019250505092915050565b6000806000606084860312156127d757600080fd5b833592506127e7602085016125bf565b9150604084013590509250925092565b600080600080600080600060e0888a03121561281257600080fd5b61281b886125bf565b9650612829602089016125bf565b955060408801359450606088013593506080880135925060a0880135915060c088013561ffff8116811461285c57600080fd5b8091505092959891949750929550565b6020808252600790820152660746f6b656e3d360cc1b604082015260600190565b6020808252600490820152635a65726f60e01b604082015260600190565b6000602082840312156128bd57600080fd5b815180151581146107cb57600080fd5b60208082526009908201526862616420707269636560b81b604082015260600190565b8082028115828204841417610ca457610ca4612596565b634e487b7160e01b600052601260045260246000fd5b60008261292c5761292c612907565b500490565b81810381811115610ca457610ca4612596565b60006001820161295657612956612596565b5060010190565b60006020828403121561296f57600080fd5b815160ff811681146107cb57600080fd5b600181815b808511156129bb5781600019048211156129a1576129a1612596565b808516156129ae57918102915b93841c9390800290612985565b509250929050565b6000826129d257506001610ca4565b816129df57506000610ca4565b81600181146129f557600281146129ff57612a1b565b6001915050610ca4565b60ff841115612a1057612a10612596565b50506001821b610ca4565b5060208310610133831016604e8410600b8410161715612a3e575081810a610ca4565b612a488383612980565b8060001904821115612a5c57612a5c612596565b029392505050565b60006107cb83836129c3565b634e487b7160e01b600052603260045260246000fd5b600082612a9557612a95612907565b50069056fea2646970667358221220f7be4fbb0cbedb58e2d25c0df0c5f8977244a1a0011a01314a6d440af68c3a7264736f6c63430008140033","opcodes":"PUSH1 0x80 PUSH1 0x40 MSTORE CALLVALUE DUP1 ISZERO PUSH2 0x10 JUMPI PUSH1 0x0 DUP1 REVERT JUMPDEST POP PUSH2 0x2AD0 DUP1 PUSH2 0x20 PUSH1 0x0 CODECOPY PUSH1 0x0 RETURN INVALID PUSH1 0x80 PUSH1 0x40 MSTORE PUSH1 0x4 CALLDATASIZE LT PUSH2 0x123 JUMPI PUSH1 0x0 CALLDATALOAD PUSH1 0xE0 SHR DUP1 PUSH4 0xB4EE623E GT PUSH2 0xA0 JUMPI DUP1 PUSH4 0xF50B2EFE GT PUSH2 0x64 JUMPI DUP1 PUSH4 0xF50B2EFE EQ PUSH2 0x471 JUMPI DUP1 PUSH4 0xF6326FB3 EQ PUSH2 0x491 JUMPI DUP1 PUSH4 0xF90C4924 EQ PUSH2 0x499 JUMPI DUP1 PUSH4 0xFADC04F4 EQ PUSH2 0x4AD JUMPI DUP1 PUSH4 0xFC6BD76A EQ PUSH2 0x4CD JUMPI PUSH1 0x0 DUP1 REVERT JUMPDEST DUP1 PUSH4 0xB4EE623E EQ PUSH2 0x3B8 JUMPI DUP1 PUSH4 0xC274583A EQ PUSH2 0x3D8 JUMPI DUP1 PUSH4 0xD7E85FF0 EQ PUSH2 0x41C JUMPI DUP1 PUSH4 0xEA8A1AF0 EQ PUSH2 0x43C JUMPI DUP1 PUSH4 0xF14210A6 EQ PUSH2 0x451 JUMPI PUSH1 0x0 DUP1 REVERT JUMPDEST DUP1 PUSH4 0x4DBF6C5A GT PUSH2 0xE7 JUMPI DUP1 PUSH4 0x4DBF6C5A EQ PUSH2 0x25C JUMPI DUP1 PUSH4 0x55A547D5 EQ PUSH2 0x294 JUMPI DUP1 PUSH4 0x86D86D84 EQ PUSH2 0x2A9 JUMPI DUP1 PUSH4 0x9E281A98 EQ PUSH2 0x378 JUMPI DUP1 PUSH4 0xB24EBFCC EQ PUSH2 0x398 JUMPI PUSH1 0x0 DUP1 REVERT JUMPDEST DUP1 PUSH4 0x338B5DEA EQ PUSH2 0x188 JUMPI DUP1 PUSH4 0x3CE142F5 EQ PUSH2 0x1AA JUMPI DUP1 PUSH4 0x3CFBA0E3 EQ PUSH2 0x1E1 JUMPI DUP1 PUSH4 0x460B410D EQ PUSH2 0x21C JUMPI DUP1 PUSH4 0x4907CD0F EQ PUSH2 0x23C JUMPI PUSH1 0x0 DUP1 REVERT JUMPDEST CALLDATASIZE PUSH2 0x183 JUMPI CALLER PUSH1 0x0 SWAP1 DUP2 MSTORE PUSH1 0x20 DUP2 SWAP1 MSTORE PUSH1 0x40 DUP2 KECCAK256 DUP1 SLOAD CALLVALUE SWAP3 SWAP1 PUSH2 0x147 SWAP1 DUP5 SWAP1 PUSH2 0x25AC JUMP JUMPDEST SWAP1 SWAP2 SSTORE POP POP PUSH1 0x40 MLOAD CALLVALUE DUP2 MSTORE CALLER SWAP1 PUSH32 0x2DA466A7B24304F47E87FA2E1E5A81B9831CE54FEC19055CE277CA2F39BA42C4 SWAP1 PUSH1 0x20 ADD PUSH1 0x40 MLOAD DUP1 SWAP2 SUB SWAP1 LOG2 STOP JUMPDEST PUSH1 0x0 DUP1 REVERT JUMPDEST CALLVALUE DUP1 ISZERO PUSH2 0x194 JUMPI PUSH1 0x0 DUP1 REVERT JUMPDEST POP PUSH2 0x1A8 PUSH2 0x1A3 CALLDATASIZE PUSH1 0x4 PUSH2 0x25D6 JUMP JUMPDEST PUSH2 0x4ED JUMP JUMPDEST STOP JUMPDEST CALLVALUE DUP1 ISZERO PUSH2 0x1B6 JUMPI PUSH1 0x0 DUP1 REVERT JUMPDEST POP PUSH2 0x1CA PUSH2 0x1C5 CALLDATASIZE PUSH1 0x4 PUSH2 0x2600 JUMP JUMPDEST PUSH2 0x671 JUMP JUMPDEST PUSH1 0x40 MLOAD PUSH1 0xFF SWAP1 SWAP2 AND DUP2 MSTORE PUSH1 0x20 ADD JUMPDEST PUSH1 0x40 MLOAD DUP1 SWAP2 SUB SWAP1 RETURN JUMPDEST CALLVALUE DUP1 ISZERO PUSH2 0x1ED JUMPI PUSH1 0x0 DUP1 REVERT JUMPDEST POP PUSH2 0x20E PUSH2 0x1FC CALLDATASIZE PUSH1 0x4 PUSH2 0x2600 JUMP JUMPDEST PUSH1 0x0 PUSH1 0x20 DUP2 SWAP1 MSTORE SWAP1 DUP2 MSTORE PUSH1 0x40 SWAP1 KECCAK256 SLOAD DUP2 JUMP JUMPDEST PUSH1 0x40 MLOAD SWAP1 DUP2 MSTORE PUSH1 0x20 ADD PUSH2 0x1D8 JUMP JUMPDEST CALLVALUE DUP1 ISZERO PUSH2 0x228 JUMPI PUSH1 0x0 DUP1 REVERT JUMPDEST POP PUSH2 0x20E PUSH2 0x237 CALLDATASIZE PUSH1 0x4 PUSH2 0x261B JUMP JUMPDEST PUSH2 0x778 JUMP JUMPDEST CALLVALUE DUP1 ISZERO PUSH2 0x248 JUMPI PUSH1 0x0 DUP1 REVERT JUMPDEST POP PUSH2 0x1A8 PUSH2 0x257 CALLDATASIZE PUSH1 0x4 PUSH2 0x2634 JUMP JUMPDEST PUSH2 0x7D2 JUMP JUMPDEST CALLVALUE DUP1 ISZERO PUSH2 0x268 JUMPI PUSH1 0x0 DUP1 REVERT JUMPDEST POP PUSH2 0x20E PUSH2 0x277 CALLDATASIZE PUSH1 0x4 PUSH2 0x266D JUMP JUMPDEST PUSH1 0x1 PUSH1 0x20 SWAP1 DUP2 MSTORE PUSH1 0x0 SWAP3 DUP4 MSTORE PUSH1 0x40 DUP1 DUP5 KECCAK256 SWAP1 SWAP2 MSTORE SWAP1 DUP3 MSTORE SWAP1 KECCAK256 SLOAD DUP2 JUMP JUMPDEST CALLVALUE DUP1 ISZERO PUSH2 0x2A0 JUMPI PUSH1 0x0 DUP1 REVERT JUMPDEST POP PUSH2 0x20E PUSH2 0x9CD JUMP JUMPDEST CALLVALUE DUP1 ISZERO PUSH2 0x2B5 JUMPI PUSH1 0x0 DUP1 REVERT JUMPDEST POP PUSH2 0x324 PUSH2 0x2C4 CALLDATASIZE PUSH1 0x4 PUSH2 0x2600 JUMP JUMPDEST PUSH1 0x2 PUSH1 0x20 DUP2 SWAP1 MSTORE PUSH1 0x0 SWAP2 DUP3 MSTORE PUSH1 0x40 SWAP1 SWAP2 KECCAK256 DUP1 SLOAD PUSH1 0x1 DUP3 ADD SLOAD SWAP3 DUP3 ADD SLOAD PUSH1 0x3 DUP4 ADD SLOAD PUSH1 0x4 DUP5 ADD SLOAD PUSH1 0x5 DUP6 ADD SLOAD PUSH1 0x6 DUP7 ADD SLOAD PUSH1 0x7 DUP8 ADD SLOAD PUSH1 0x8 SWAP1 SWAP8 ADD SLOAD PUSH1 0x1 PUSH1 0x1 PUSH1 0xA0 SHL SUB SWAP7 DUP8 AND SWAP9 SWAP1 SWAP7 AND SWAP7 SWAP5 SWAP6 PUSH2 0xFFFF SWAP1 SWAP5 AND SWAP5 SWAP3 SWAP4 SWAP2 SWAP3 SWAP1 SWAP2 PUSH1 0xFF AND DUP10 JUMP JUMPDEST PUSH1 0x40 DUP1 MLOAD PUSH1 0x1 PUSH1 0x1 PUSH1 0xA0 SHL SUB SWAP11 DUP12 AND DUP2 MSTORE SWAP10 SWAP1 SWAP9 AND PUSH1 0x20 DUP11 ADD MSTORE SWAP7 DUP9 ADD SWAP6 SWAP1 SWAP6 MSTORE PUSH2 0xFFFF SWAP1 SWAP4 AND PUSH1 0x60 DUP8 ADD MSTORE PUSH1 0x80 DUP7 ADD SWAP2 SWAP1 SWAP2 MSTORE PUSH1 0xA0 DUP6 ADD MSTORE PUSH1 0xC0 DUP5 ADD MSTORE PUSH1 0xE0 DUP4 ADD MSTORE ISZERO ISZERO PUSH2 0x100 DUP3 ADD MSTORE PUSH2 0x120 ADD PUSH2 0x1D8 JUMP JUMPDEST CALLVALUE DUP1 ISZERO PUSH2 0x384 JUMPI PUSH1 0x0 DUP1 REVERT JUMPDEST POP PUSH2 0x1A8 PUSH2 0x393 CALLDATASIZE PUSH1 0x4 PUSH2 0x25D6 JUMP JUMPDEST PUSH2 0xADB JUMP JUMPDEST CALLVALUE DUP1 ISZERO PUSH2 0x3A4 JUMPI PUSH1 0x0 DUP1 REVERT JUMPDEST POP PUSH2 0x20E PUSH2 0x3B3 CALLDATASIZE PUSH1 0x4 PUSH2 0x26B6 JUMP JUMPDEST PUSH2 0xC99 JUMP JUMPDEST CALLVALUE DUP1 ISZERO PUSH2 0x3C4 JUMPI PUSH1 0x0 DUP1 REVERT JUMPDEST POP PUSH2 0x20E PUSH2 0x3D3 CALLDATASIZE PUSH1 0x4 PUSH2 0x2600 JUMP JUMPDEST PUSH2 0xCAA JUMP JUMPDEST CALLVALUE DUP1 ISZERO PUSH2 0x3E4 JUMPI PUSH1 0x0 DUP1 REVERT JUMPDEST POP PUSH1 0x40 DUP1 MLOAD DUP1 DUP3 ADD DUP3 MSTORE PUSH1 0x15 DUP2 MSTORE PUSH21 0x1C99591CDD1BDB994B5C1C9A5B585C9E4B5C1C9BD9 PUSH1 0x5A SHL PUSH1 0x20 DUP3 ADD MSTORE SWAP1 MLOAD PUSH2 0x1D8 SWAP2 SWAP1 PUSH2 0x2774 JUMP JUMPDEST CALLVALUE DUP1 ISZERO PUSH2 0x428 JUMPI PUSH1 0x0 DUP1 REVERT JUMPDEST POP PUSH2 0x20E PUSH2 0x437 CALLDATASIZE PUSH1 0x4 PUSH2 0x27C2 JUMP JUMPDEST PUSH2 0xD00 JUMP JUMPDEST CALLVALUE DUP1 ISZERO PUSH2 0x448 JUMPI PUSH1 0x0 DUP1 REVERT JUMPDEST POP PUSH2 0x1A8 PUSH2 0xDFD JUMP JUMPDEST CALLVALUE DUP1 ISZERO PUSH2 0x45D JUMPI PUSH1 0x0 DUP1 REVERT JUMPDEST POP PUSH2 0x1A8 PUSH2 0x46C CALLDATASIZE PUSH1 0x4 PUSH2 0x261B JUMP JUMPDEST PUSH2 0xE84 JUMP JUMPDEST CALLVALUE DUP1 ISZERO PUSH2 0x47D JUMPI PUSH1 0x0 DUP1 REVERT JUMPDEST POP PUSH2 0x1A8 PUSH2 0x48C CALLDATASIZE PUSH1 0x4 PUSH2 0x261B JUMP JUMPDEST PUSH2 0xFC8 JUMP JUMPDEST PUSH2 0x1A8 PUSH2 0xFD4 JUMP JUMPDEST CALLVALUE DUP1 ISZERO PUSH2 0x4A5 JUMPI PUSH1 0x0 DUP1 REVERT JUMPDEST POP PUSH1 0x3 PUSH2 0x1CA JUMP JUMPDEST CALLVALUE DUP1 ISZERO PUSH2 0x4B9 JUMPI PUSH1 0x0 DUP1 REVERT JUMPDEST POP PUSH2 0x1A8 PUSH2 0x4C8 CALLDATASIZE PUSH1 0x4 PUSH2 0x27F7 JUMP JUMPDEST PUSH2 0x1068 JUMP JUMPDEST CALLVALUE DUP1 ISZERO PUSH2 0x4D9 JUMPI PUSH1 0x0 DUP1 REVERT JUMPDEST POP PUSH2 0x1A8 PUSH2 0x4E8 CALLDATASIZE PUSH1 0x4 PUSH2 0x2600 JUMP JUMPDEST PUSH2 0x1341 JUMP JUMPDEST PUSH1 0x1 PUSH1 0x1 PUSH1 0xA0 SHL SUB DUP3 AND PUSH2 0x51C JUMPI PUSH1 0x40 MLOAD PUSH3 0x461BCD PUSH1 0xE5 SHL DUP2 MSTORE PUSH1 0x4 ADD PUSH2 0x513 SWAP1 PUSH2 0x286C JUMP JUMPDEST PUSH1 0x40 MLOAD DUP1 SWAP2 SUB SWAP1 REVERT JUMPDEST PUSH1 0x0 DUP2 GT PUSH2 0x53C JUMPI PUSH1 0x40 MLOAD PUSH3 0x461BCD PUSH1 0xE5 SHL DUP2 MSTORE PUSH1 0x4 ADD PUSH2 0x513 SWAP1 PUSH2 0x288D JUMP JUMPDEST PUSH1 0x40 MLOAD PUSH4 0x23B872DD PUSH1 0xE0 SHL DUP2 MSTORE CALLER PUSH1 0x4 DUP3 ADD MSTORE ADDRESS PUSH1 0x24 DUP3 ADD MSTORE PUSH1 0x44 DUP2 ADD DUP3 SWAP1 MSTORE PUSH1 0x1 PUSH1 0x1 PUSH1 0xA0 SHL SUB DUP4 AND SWAP1 PUSH4 0x23B872DD SWAP1 PUSH1 0x64 ADD PUSH1 0x20 PUSH1 0x40 MLOAD DUP1 DUP4 SUB DUP2 PUSH1 0x0 DUP8 GAS CALL ISZERO DUP1 ISZERO PUSH2 0x58F JUMPI RETURNDATASIZE PUSH1 0x0 DUP1 RETURNDATACOPY RETURNDATASIZE PUSH1 0x0 REVERT JUMPDEST POP POP POP POP PUSH1 0x40 MLOAD RETURNDATASIZE PUSH1 0x1F NOT PUSH1 0x1F DUP3 ADD AND DUP3 ADD DUP1 PUSH1 0x40 MSTORE POP DUP2 ADD SWAP1 PUSH2 0x5B3 SWAP2 SWAP1 PUSH2 0x28AB JUMP JUMPDEST PUSH2 0x5F5 JUMPI PUSH1 0x40 MLOAD PUSH3 0x461BCD PUSH1 0xE5 SHL DUP2 MSTORE PUSH1 0x20 PUSH1 0x4 DUP3 ADD MSTORE PUSH1 0x13 PUSH1 0x24 DUP3 ADD MSTORE PUSH19 0x1D1C985B9CD9995C919C9BDB4819985A5B1959 PUSH1 0x6A SHL PUSH1 0x44 DUP3 ADD MSTORE PUSH1 0x64 ADD PUSH2 0x513 JUMP JUMPDEST CALLER PUSH1 0x0 SWAP1 DUP2 MSTORE PUSH1 0x1 PUSH1 0x20 SWAP1 DUP2 MSTORE PUSH1 0x40 DUP1 DUP4 KECCAK256 PUSH1 0x1 PUSH1 0x1 PUSH1 0xA0 SHL SUB DUP7 AND DUP5 MSTORE SWAP1 SWAP2 MSTORE DUP2 KECCAK256 DUP1 SLOAD DUP4 SWAP3 SWAP1 PUSH2 0x628 SWAP1 DUP5 SWAP1 PUSH2 0x25AC JUMP JUMPDEST SWAP1 SWAP2 SSTORE POP POP PUSH1 0x40 MLOAD DUP2 DUP2 MSTORE PUSH1 0x1 PUSH1 0x1 PUSH1 0xA0 SHL SUB DUP4 AND SWAP1 CALLER SWAP1 PUSH32 0xF1444B5CAD7CE70CB018D1B8EDC8618FE303F3C7F034D8D572A6E27FACBF2BEF SWAP1 PUSH1 0x20 ADD PUSH1 0x40 MLOAD DUP1 SWAP2 SUB SWAP1 LOG3 POP POP JUMP JUMPDEST PUSH1 0x0 PUSH1 0x1 PUSH1 0x1 PUSH1 0xA0 SHL SUB DUP3 AND PUSH20 0x8BB8F32DF04C8B654987DAAED53D6B6091E3B774 SUB PUSH2 0x69F JUMPI POP PUSH1 0x0 SWAP2 SWAP1 POP JUMP JUMPDEST PUSH1 0x1 PUSH1 0x1 PUSH1 0xA0 SHL SUB DUP3 AND PUSH20 0xDEB22F54738D54976C4C0FE5CE6D408E40D88499 SUB PUSH2 0x6CB JUMPI POP PUSH1 0x1 SWAP2 SWAP1 POP JUMP JUMPDEST PUSH1 0x1 PUSH1 0x1 PUSH1 0xA0 SHL SUB DUP3 AND PUSH20 0x51CE04BE4B3E32572C4EC9135221D0691BA7D202 SUB PUSH2 0x6F7 JUMPI POP PUSH1 0x2 SWAP2 SWAP1 POP JUMP JUMPDEST PUSH1 0x1 PUSH1 0x1 PUSH1 0xA0 SHL SUB DUP3 AND PUSH20 0xDD682DAEC5A90DD295D14DA4B0BEC9281017B5BE SUB PUSH2 0x723 JUMPI POP PUSH1 0x3 SWAP2 SWAP1 POP JUMP JUMPDEST PUSH1 0x1 PUSH1 0x1 PUSH1 0xA0 SHL SUB DUP3 AND PUSH20 0x9C5AE89C4AF6AA32CE58588DBAF90D18A855B6DE SUB PUSH2 0x74F JUMPI POP PUSH1 0x4 SWAP2 SWAP1 POP JUMP JUMPDEST PUSH1 0x40 MLOAD PUSH4 0x3B1166F PUSH1 0xE6 SHL DUP2 MSTORE PUSH1 0x1 PUSH1 0x1 PUSH1 0xA0 SHL SUB DUP4 AND PUSH1 0x4 DUP3 ADD MSTORE PUSH1 0x24 ADD PUSH2 0x513 JUMP JUMPDEST SWAP2 SWAP1 POP JUMP JUMPDEST PUSH1 0x0 DUP1 PUSH2 0x78A PUSH3 0x8AA89 PUSH1 0xEB SHL PUSH2 0x1A64 JUMP JUMPDEST SWAP1 POP PUSH1 0x0 DUP2 GT PUSH2 0x7AC JUMPI PUSH1 0x40 MLOAD PUSH3 0x461BCD PUSH1 0xE5 SHL DUP2 MSTORE PUSH1 0x4 ADD PUSH2 0x513 SWAP1 PUSH2 0x28CD JUMP JUMPDEST DUP1 PUSH2 0x7C1 DUP5 PUSH10 0xD3C21BCECCEDA1000000 PUSH2 0x28F0 JUMP JUMPDEST PUSH2 0x7CB SWAP2 SWAP1 PUSH2 0x291D JUMP JUMPDEST SWAP4 SWAP3 POP POP POP JUMP JUMPDEST PUSH1 0x1 PUSH1 0x1 PUSH1 0xA0 SHL SUB DUP5 AND PUSH2 0x815 JUMPI PUSH1 0x40 MLOAD PUSH3 0x461BCD PUSH1 0xE5 SHL DUP2 MSTORE PUSH1 0x20 PUSH1 0x4 DUP3 ADD MSTORE PUSH1 0xA PUSH1 0x24 DUP3 ADD MSTORE PUSH10 0x6D65726368616E743D3 PUSH1 0xB4 SHL PUSH1 0x44 DUP3 ADD MSTORE PUSH1 0x64 ADD PUSH2 0x513 JUMP JUMPDEST PUSH1 0x0 DUP4 GT PUSH2 0x84F JUMPI PUSH1 0x40 MLOAD PUSH3 0x461BCD PUSH1 0xE5 SHL DUP2 MSTORE PUSH1 0x20 PUSH1 0x4 DUP3 ADD MSTORE PUSH1 0x7 PUSH1 0x24 DUP3 ADD MSTORE PUSH7 0x70726963653D3 PUSH1 0xCC SHL PUSH1 0x44 DUP3 ADD MSTORE PUSH1 0x64 ADD PUSH2 0x513 JUMP JUMPDEST PUSH1 0x0 DUP3 GT PUSH2 0x88A JUMPI PUSH1 0x40 MLOAD PUSH3 0x461BCD PUSH1 0xE5 SHL DUP2 MSTORE PUSH1 0x20 PUSH1 0x4 DUP3 ADD MSTORE PUSH1 0x8 PUSH1 0x24 DUP3 ADD MSTORE PUSH8 0x706572696F643D3 PUSH1 0xC4 SHL PUSH1 0x44 DUP3 ADD MSTORE PUSH1 0x64 ADD PUSH2 0x513 JUMP JUMPDEST PUSH1 0x40 DUP1 MLOAD PUSH2 0x120 DUP2 ADD DUP3 MSTORE PUSH1 0x1 PUSH1 0x1 PUSH1 0xA0 SHL SUB DUP1 DUP8 AND DUP1 DUP4 MSTORE PUSH1 0x0 PUSH1 0x20 DUP1 DUP6 ADD DUP3 DUP2 MSTORE PUSH3 0x8AA89 PUSH1 0xEB SHL DUP7 DUP9 ADD SWAP1 DUP2 MSTORE PUSH1 0x60 DUP8 ADD DUP5 DUP2 MSTORE PUSH1 0x80 DUP9 ADD DUP13 DUP2 MSTORE PUSH1 0xA0 DUP10 ADD DUP13 DUP2 MSTORE PUSH1 0xC0 DUP11 ADD DUP8 DUP2 MSTORE PUSH1 0xE0 DUP12 ADD DUP14 DUP2 MSTORE PUSH1 0x1 PUSH2 0x100 DUP14 ADD DUP2 DUP2 MSTORE CALLER DUP1 DUP13 MSTORE PUSH1 0x2 SWAP11 DUP12 SWAP1 MSTORE SWAP11 DUP16 SWAP1 KECCAK256 SWAP14 MLOAD DUP15 SLOAD SWAP1 DUP15 AND PUSH1 0x1 PUSH1 0x1 PUSH1 0xA0 SHL SUB NOT SWAP2 DUP3 AND OR DUP16 SSTORE SWAP9 MLOAD SWAP2 DUP15 ADD DUP1 SLOAD SWAP3 SWAP1 SWAP14 AND SWAP2 SWAP1 SWAP9 AND OR SWAP1 SWAP11 SSTORE SWAP4 MLOAD SWAP6 DUP11 ADD SWAP6 SWAP1 SWAP6 SSTORE SWAP1 MLOAD PUSH1 0x3 DUP10 ADD DUP1 SLOAD PUSH2 0xFFFF SWAP3 SWAP1 SWAP3 AND PUSH2 0xFFFF NOT SWAP1 SWAP3 AND SWAP2 SWAP1 SWAP2 OR SWAP1 SSTORE MLOAD PUSH1 0x4 DUP9 ADD SSTORE SWAP2 MLOAD PUSH1 0x5 DUP8 ADD SSTORE SWAP1 MLOAD PUSH1 0x6 DUP7 ADD SSTORE SWAP3 MLOAD PUSH1 0x7 DUP6 ADD SSTORE SWAP2 MLOAD PUSH1 0x8 SWAP1 SWAP4 ADD DUP1 SLOAD SWAP4 ISZERO ISZERO PUSH1 0xFF NOT SWAP5 SWAP1 SWAP5 AND SWAP4 SWAP1 SWAP4 OR SWAP1 SWAP3 SSTORE SWAP2 MLOAD SWAP1 SWAP2 SWAP1 PUSH32 0x1FAF2B5A74C296487268DE9F9E3DDF269CA3980197CDA4EE5C927AC895AEEE88 SWAP1 PUSH2 0x9BF SWAP1 DUP8 SWAP1 DUP8 SWAP1 DUP8 SWAP1 SWAP3 DUP4 MSTORE PUSH1 0x20 DUP4 ADD SWAP2 SWAP1 SWAP2 MSTORE PUSH1 0x40 DUP3 ADD MSTORE PUSH1 0x60 ADD SWAP1 JUMP JUMPDEST PUSH1 0x40 MLOAD DUP1 SWAP2 SUB SWAP1 LOG3 POP POP POP POP JUMP JUMPDEST PUSH1 0x0 DUP1 PUSH2 0x9D8 PUSH2 0x1AD4 JUMP JUMPDEST SWAP1 POP PUSH1 0x0 PUSH2 0x9E5 DUP3 PUSH2 0x1B7B JUMP JUMPDEST SWAP3 POP PUSH2 0xFFFF AND SWAP1 POP PUSH1 0x0 DUP2 SWAP1 SUB PUSH2 0xA0F JUMPI PUSH1 0x40 MLOAD PUSH4 0x2154BFCF PUSH1 0xE2 SHL DUP2 MSTORE PUSH1 0x4 ADD PUSH1 0x40 MLOAD DUP1 SWAP2 SUB SWAP1 REVERT JUMPDEST PUSH1 0x0 JUMPDEST DUP2 DUP2 LT ISZERO PUSH2 0xAD5 JUMPI PUSH1 0x0 PUSH2 0xA25 DUP5 PUSH2 0x1BCA JUMP JUMPDEST SWAP1 POP PUSH1 0x0 DUP1 PUSH2 0xA35 PUSH1 0x68 DUP8 PUSH2 0x25AC JUMP JUMPDEST SWAP1 POP PUSH1 0x0 PUSH2 0xA43 DUP3 CALLDATASIZE PUSH2 0x2931 JUMP JUMPDEST SWAP1 POP DUP1 CALLDATALOAD SWAP3 POP DUP3 PUSH6 0xFFFFFFFFFFFF AND PUSH1 0x0 SUB PUSH2 0xA72 JUMPI PUSH1 0x40 MLOAD PUSH4 0x336DC9D PUSH1 0xE4 SHL DUP2 MSTORE PUSH1 0x4 ADD PUSH1 0x40 MLOAD DUP1 SWAP2 SUB SWAP1 REVERT JUMPDEST DUP8 PUSH1 0x0 SUB PUSH2 0xA8A JUMPI DUP3 PUSH6 0xFFFFFFFFFFFF AND SWAP8 POP PUSH2 0xAB2 JUMP JUMPDEST DUP8 DUP4 PUSH6 0xFFFFFFFFFFFF AND EQ PUSH2 0xAB2 JUMPI PUSH1 0x40 MLOAD PUSH4 0xD9D1F465 PUSH1 0xE0 SHL DUP2 MSTORE PUSH1 0x4 ADD PUSH1 0x40 MLOAD DUP1 SWAP2 SUB SWAP1 REVERT JUMPDEST PUSH2 0xABC DUP5 DUP9 PUSH2 0x25AC JUMP JUMPDEST SWAP7 POP POP POP POP POP DUP1 DUP1 PUSH2 0xACD SWAP1 PUSH2 0x2944 JUMP JUMPDEST SWAP2 POP POP PUSH2 0xA12 JUMP JUMPDEST POP POP POP SWAP1 JUMP JUMPDEST PUSH1 0x1 PUSH1 0x1 PUSH1 0xA0 SHL SUB DUP3 AND PUSH2 0xB01 JUMPI PUSH1 0x40 MLOAD PUSH3 0x461BCD PUSH1 0xE5 SHL DUP2 MSTORE PUSH1 0x4 ADD PUSH2 0x513 SWAP1 PUSH2 0x286C JUMP JUMPDEST PUSH1 0x0 DUP2 GT PUSH2 0xB21 JUMPI PUSH1 0x40 MLOAD PUSH3 0x461BCD PUSH1 0xE5 SHL DUP2 MSTORE PUSH1 0x4 ADD PUSH2 0x513 SWAP1 PUSH2 0x288D JUMP JUMPDEST CALLER PUSH1 0x0 SWAP1 DUP2 MSTORE PUSH1 0x1 PUSH1 0x20 SWAP1 DUP2 MSTORE PUSH1 0x40 DUP1 DUP4 KECCAK256 PUSH1 0x1 PUSH1 0x1 PUSH1 0xA0 SHL SUB DUP7 AND DUP5 MSTORE SWAP1 SWAP2 MSTORE SWAP1 KECCAK256 SLOAD DUP2 DUP2 LT ISZERO PUSH2 0xB84 JUMPI PUSH1 0x40 MLOAD PUSH3 0x461BCD PUSH1 0xE5 SHL DUP2 MSTORE PUSH1 0x20 PUSH1 0x4 DUP3 ADD MSTORE PUSH1 0xC PUSH1 0x24 DUP3 ADD MSTORE PUSH12 0x125B9CDD59999A58DA595B9D PUSH1 0xA2 SHL PUSH1 0x44 DUP3 ADD MSTORE PUSH1 0x64 ADD PUSH2 0x513 JUMP JUMPDEST CALLER PUSH1 0x0 DUP2 DUP2 MSTORE PUSH1 0x1 PUSH1 0x20 SWAP1 DUP2 MSTORE PUSH1 0x40 DUP1 DUP4 KECCAK256 PUSH1 0x1 PUSH1 0x1 PUSH1 0xA0 SHL SUB DUP9 AND DUP1 DUP6 MSTORE SWAP3 MSTORE SWAP2 DUP3 SWAP1 KECCAK256 DUP6 DUP6 SUB SWAP1 SSTORE SWAP1 MLOAD PUSH4 0xA9059CBB PUSH1 0xE0 SHL DUP2 MSTORE PUSH1 0x4 DUP2 ADD SWAP3 SWAP1 SWAP3 MSTORE PUSH1 0x24 DUP3 ADD DUP5 SWAP1 MSTORE SWAP1 PUSH4 0xA9059CBB SWAP1 PUSH1 0x44 ADD PUSH1 0x20 PUSH1 0x40 MLOAD DUP1 DUP4 SUB DUP2 PUSH1 0x0 DUP8 GAS CALL ISZERO DUP1 ISZERO PUSH2 0xBF2 JUMPI RETURNDATASIZE PUSH1 0x0 DUP1 RETURNDATACOPY RETURNDATASIZE PUSH1 0x0 REVERT JUMPDEST POP POP POP POP PUSH1 0x40 MLOAD RETURNDATASIZE PUSH1 0x1F NOT PUSH1 0x1F DUP3 ADD AND DUP3 ADD DUP1 PUSH1 0x40 MSTORE POP DUP2 ADD SWAP1 PUSH2 0xC16 SWAP2 SWAP1 PUSH2 0x28AB JUMP JUMPDEST PUSH2 0xC54 JUMPI PUSH1 0x40 MLOAD PUSH3 0x461BCD PUSH1 0xE5 SHL DUP2 MSTORE PUSH1 0x20 PUSH1 0x4 DUP3 ADD MSTORE PUSH1 0xF PUSH1 0x24 DUP3 ADD MSTORE PUSH15 0x1D1C985B9CD9995C8819985A5B1959 PUSH1 0x8A SHL PUSH1 0x44 DUP3 ADD MSTORE PUSH1 0x64 ADD PUSH2 0x513 JUMP JUMPDEST PUSH1 0x40 MLOAD DUP3 DUP2 MSTORE PUSH1 0x1 PUSH1 0x1 PUSH1 0xA0 SHL SUB DUP5 AND SWAP1 CALLER SWAP1 PUSH32 0x8210728E7C071F615B840EE026032693858FBCD5E5359E67E438C890F59E5620 SWAP1 PUSH1 0x20 ADD PUSH1 0x40 MLOAD DUP1 SWAP2 SUB SWAP1 LOG3 POP POP POP JUMP JUMPDEST PUSH1 0x0 PUSH2 0xCA4 DUP3 PUSH2 0x1C06 JUMP JUMPDEST SWAP3 SWAP2 POP POP JUMP JUMPDEST PUSH1 0x1 PUSH1 0x1 PUSH1 0xA0 SHL SUB DUP2 AND PUSH1 0x0 SWAP1 DUP2 MSTORE PUSH1 0x2 PUSH1 0x20 MSTORE PUSH1 0x40 DUP2 KECCAK256 PUSH1 0x8 DUP2 ADD SLOAD PUSH1 0xFF AND PUSH2 0xCD8 JUMPI POP PUSH1 0x0 NOT SWAP3 SWAP2 POP POP JUMP JUMPDEST DUP1 PUSH1 0x6 ADD SLOAD PUSH1 0x0 SUB PUSH2 0xCEC JUMPI POP TIMESTAMP SWAP3 SWAP2 POP POP JUMP JUMPDEST DUP1 PUSH1 0x5 ADD SLOAD DUP2 PUSH1 0x6 ADD SLOAD PUSH2 0x7CB SWAP2 SWAP1 PUSH2 0x25AC JUMP JUMPDEST PUSH1 0x0 PUSH1 0x1 PUSH1 0x1 PUSH1 0xA0 SHL SUB DUP4 AND PUSH2 0xD28 JUMPI PUSH1 0x40 MLOAD PUSH3 0x461BCD PUSH1 0xE5 SHL DUP2 MSTORE PUSH1 0x4 ADD PUSH2 0x513 SWAP1 PUSH2 0x286C JUMP JUMPDEST PUSH1 0x0 PUSH2 0xD33 DUP6 PUSH2 0x1A64 JUMP JUMPDEST SWAP1 POP PUSH1 0x0 DUP2 GT PUSH2 0xD55 JUMPI PUSH1 0x40 MLOAD PUSH3 0x461BCD PUSH1 0xE5 SHL DUP2 MSTORE PUSH1 0x4 ADD PUSH2 0x513 SWAP1 PUSH2 0x28CD JUMP JUMPDEST PUSH1 0x0 DUP5 PUSH1 0x1 PUSH1 0x1 PUSH1 0xA0 SHL SUB AND PUSH4 0x313CE567 PUSH1 0x40 MLOAD DUP2 PUSH4 0xFFFFFFFF AND PUSH1 0xE0 SHL DUP2 MSTORE PUSH1 0x4 ADD PUSH1 0x20 PUSH1 0x40 MLOAD DUP1 DUP4 SUB DUP2 DUP7 GAS STATICCALL ISZERO DUP1 ISZERO PUSH2 0xD95 JUMPI RETURNDATASIZE PUSH1 0x0 DUP1 RETURNDATACOPY RETURNDATASIZE PUSH1 0x0 REVERT JUMPDEST POP POP POP POP PUSH1 0x40 MLOAD RETURNDATASIZE PUSH1 0x1F NOT PUSH1 0x1F DUP3 ADD AND DUP3 ADD DUP1 PUSH1 0x40 MSTORE POP DUP2 ADD SWAP1 PUSH2 0xDB9 SWAP2 SWAP1 PUSH2 0x295D JUMP JUMPDEST SWAP1 POP PUSH2 0xDC6 DUP3 PUSH1 0x64 PUSH2 0x28F0 JUMP JUMPDEST PUSH2 0xDD4 PUSH1 0xFF DUP4 AND PUSH1 0x8 PUSH2 0x25AC JUMP JUMPDEST PUSH2 0xDDF SWAP1 PUSH1 0xA PUSH2 0x2A64 JUMP JUMPDEST PUSH2 0xDE9 SWAP1 DUP7 PUSH2 0x28F0 JUMP JUMPDEST PUSH2 0xDF3 SWAP2 SWAP1 PUSH2 0x291D JUMP JUMPDEST SWAP7 SWAP6 POP POP POP POP POP POP JUMP JUMPDEST CALLER PUSH1 0x0 SWAP1 DUP2 MSTORE PUSH1 0x2 PUSH1 0x20 MSTORE PUSH1 0x40 SWAP1 KECCAK256 PUSH1 0x8 DUP2 ADD SLOAD PUSH1 0xFF AND PUSH2 0xE4A JUMPI PUSH1 0x40 MLOAD PUSH3 0x461BCD PUSH1 0xE5 SHL DUP2 MSTORE PUSH1 0x20 PUSH1 0x4 DUP3 ADD MSTORE PUSH1 0x7 PUSH1 0x24 DUP3 ADD MSTORE PUSH7 0x373790383630B7 PUSH1 0xC9 SHL PUSH1 0x44 DUP3 ADD MSTORE PUSH1 0x64 ADD PUSH2 0x513 JUMP JUMPDEST PUSH1 0x8 DUP2 ADD DUP1 SLOAD PUSH1 0xFF NOT AND SWAP1 SSTORE PUSH1 0x40 MLOAD CALLER SWAP1 PUSH32 0x398BD6B21AE4164EC322FB0EB8C2EB6277F36FD41903FBBED594DFE125591281 SWAP1 PUSH1 0x0 SWAP1 LOG2 POP JUMP JUMPDEST PUSH1 0x0 DUP2 GT PUSH2 0xEA4 JUMPI PUSH1 0x40 MLOAD PUSH3 0x461BCD PUSH1 0xE5 SHL DUP2 MSTORE PUSH1 0x4 ADD PUSH2 0x513 SWAP1 PUSH2 0x288D JUMP JUMPDEST CALLER PUSH1 0x0 SWAP1 DUP2 MSTORE PUSH1 0x20 DUP2 SWAP1 MSTORE PUSH1 0x40 SWAP1 KECCAK256 SLOAD DUP2 DUP2 LT ISZERO PUSH2 0xEF3 JUMPI PUSH1 0x40 MLOAD PUSH3 0x461BCD PUSH1 0xE5 SHL DUP2 MSTORE PUSH1 0x20 PUSH1 0x4 DUP3 ADD MSTORE PUSH1 0xC PUSH1 0x24 DUP3 ADD MSTORE PUSH12 0x125B9CDD59999A58DA595B9D PUSH1 0xA2 SHL PUSH1 0x44 DUP3 ADD MSTORE PUSH1 0x64 ADD PUSH2 0x513 JUMP JUMPDEST CALLER PUSH1 0x0 DUP2 DUP2 MSTORE PUSH1 0x20 DUP2 SWAP1 MSTORE PUSH1 0x40 DUP1 DUP3 KECCAK256 DUP6 DUP6 SUB SWAP1 SSTORE MLOAD SWAP1 SWAP2 SWAP1 DUP5 SWAP1 DUP4 DUP2 DUP2 DUP2 DUP6 DUP8 GAS CALL SWAP3 POP POP POP RETURNDATASIZE DUP1 PUSH1 0x0 DUP2 EQ PUSH2 0xF46 JUMPI PUSH1 0x40 MLOAD SWAP2 POP PUSH1 0x1F NOT PUSH1 0x3F RETURNDATASIZE ADD AND DUP3 ADD PUSH1 0x40 MSTORE RETURNDATASIZE DUP3 MSTORE RETURNDATASIZE PUSH1 0x0 PUSH1 0x20 DUP5 ADD RETURNDATACOPY PUSH2 0xF4B JUMP JUMPDEST PUSH1 0x60 SWAP2 POP JUMPDEST POP POP SWAP1 POP DUP1 PUSH2 0xF8E JUMPI PUSH1 0x40 MLOAD PUSH3 0x461BCD PUSH1 0xE5 SHL DUP2 MSTORE PUSH1 0x20 PUSH1 0x4 DUP3 ADD MSTORE PUSH1 0xF PUSH1 0x24 DUP3 ADD MSTORE PUSH15 0x15DA5D1A191C985DC819985A5B1959 PUSH1 0x8A SHL PUSH1 0x44 DUP3 ADD MSTORE PUSH1 0x64 ADD PUSH2 0x513 JUMP JUMPDEST PUSH1 0x40 MLOAD DUP4 DUP2 MSTORE CALLER SWAP1 PUSH32 0x7084F5476618D8E60B11EF0D7D3F06914655ADB8793E28FF7F018D4C76D505D5 SWAP1 PUSH1 0x20 ADD PUSH1 0x40 MLOAD DUP1 SWAP2 SUB SWAP1 LOG2 POP POP POP JUMP JUMPDEST PUSH2 0xFD1 DUP2 PUSH2 0x1C11 JUMP JUMPDEST POP JUMP JUMPDEST PUSH1 0x0 CALLVALUE GT PUSH2 0x100D JUMPI PUSH1 0x40 MLOAD PUSH3 0x461BCD PUSH1 0xE5 SHL DUP2 MSTORE PUSH1 0x20 PUSH1 0x4 DUP3 ADD MSTORE PUSH1 0x6 PUSH1 0x24 DUP3 ADD MSTORE PUSH6 0x9CDE408AA89 PUSH1 0xD3 SHL PUSH1 0x44 DUP3 ADD MSTORE PUSH1 0x64 ADD PUSH2 0x513 JUMP JUMPDEST CALLER PUSH1 0x0 SWAP1 DUP2 MSTORE PUSH1 0x20 DUP2 SWAP1 MSTORE PUSH1 0x40 DUP2 KECCAK256 DUP1 SLOAD CALLVALUE SWAP3 SWAP1 PUSH2 0x102C SWAP1 DUP5 SWAP1 PUSH2 0x25AC JUMP JUMPDEST SWAP1 SWAP2 SSTORE POP POP PUSH1 0x40 MLOAD CALLVALUE DUP2 MSTORE CALLER SWAP1 PUSH32 0x2DA466A7B24304F47E87FA2E1E5A81B9831CE54FEC19055CE277CA2F39BA42C4 SWAP1 PUSH1 0x20 ADD PUSH1 0x40 MLOAD DUP1 SWAP2 SUB SWAP1 LOG2 JUMP JUMPDEST PUSH1 0x1 PUSH1 0x1 PUSH1 0xA0 SHL SUB DUP8 AND PUSH2 0x10AB JUMPI PUSH1 0x40 MLOAD PUSH3 0x461BCD PUSH1 0xE5 SHL DUP2 MSTORE PUSH1 0x20 PUSH1 0x4 DUP3 ADD MSTORE PUSH1 0xA PUSH1 0x24 DUP3 ADD MSTORE PUSH10 0x6D65726368616E743D3 PUSH1 0xB4 SHL PUSH1 0x44 DUP3 ADD MSTORE PUSH1 0x64 ADD PUSH2 0x513 JUMP JUMPDEST PUSH1 0x0 DUP5 GT PUSH2 0x10E5 JUMPI PUSH1 0x40 MLOAD PUSH3 0x461BCD PUSH1 0xE5 SHL DUP2 MSTORE PUSH1 0x20 PUSH1 0x4 DUP3 ADD MSTORE PUSH1 0x7 PUSH1 0x24 DUP3 ADD MSTORE PUSH7 0x70726963653D3 PUSH1 0xCC SHL PUSH1 0x44 DUP3 ADD MSTORE PUSH1 0x64 ADD PUSH2 0x513 JUMP JUMPDEST PUSH1 0x0 DUP4 GT PUSH2 0x1120 JUMPI PUSH1 0x40 MLOAD PUSH3 0x461BCD PUSH1 0xE5 SHL DUP2 MSTORE PUSH1 0x20 PUSH1 0x4 DUP3 ADD MSTORE PUSH1 0x8 PUSH1 0x24 DUP3 ADD MSTORE PUSH8 0x706572696F643D3 PUSH1 0xC4 SHL PUSH1 0x44 DUP3 ADD MSTORE PUSH1 0x64 ADD PUSH2 0x513 JUMP JUMPDEST PUSH2 0x2710 PUSH2 0xFFFF DUP3 AND LT PUSH2 0x115F JUMPI PUSH1 0x40 MLOAD PUSH3 0x461BCD PUSH1 0xE5 SHL DUP2 MSTORE PUSH1 0x20 PUSH1 0x4 DUP3 ADD MSTORE PUSH1 0x7 PUSH1 0x24 DUP3 ADD MSTORE PUSH7 0x66656520627073 PUSH1 0xC8 SHL PUSH1 0x44 DUP3 ADD MSTORE PUSH1 0x64 ADD PUSH2 0x513 JUMP JUMPDEST PUSH1 0x40 MLOAD DUP1 PUSH2 0x120 ADD PUSH1 0x40 MSTORE DUP1 DUP9 PUSH1 0x1 PUSH1 0x1 PUSH1 0xA0 SHL SUB AND DUP2 MSTORE PUSH1 0x20 ADD DUP8 PUSH1 0x1 PUSH1 0x1 PUSH1 0xA0 SHL SUB AND DUP2 MSTORE PUSH1 0x20 ADD DUP7 DUP2 MSTORE PUSH1 0x20 ADD DUP3 PUSH2 0xFFFF AND DUP2 MSTORE PUSH1 0x20 ADD DUP6 DUP2 MSTORE PUSH1 0x20 ADD DUP5 DUP2 MSTORE PUSH1 0x20 ADD PUSH1 0x0 DUP2 MSTORE PUSH1 0x20 ADD DUP4 DUP2 MSTORE PUSH1 0x20 ADD PUSH1 0x1 ISZERO ISZERO DUP2 MSTORE POP PUSH1 0x2 PUSH1 0x0 CALLER PUSH1 0x1 PUSH1 0x1 PUSH1 0xA0 SHL SUB AND PUSH1 0x1 PUSH1 0x1 PUSH1 0xA0 SHL SUB AND DUP2 MSTORE PUSH1 0x20 ADD SWAP1 DUP2 MSTORE PUSH1 0x20 ADD PUSH1 0x0 KECCAK256 PUSH1 0x0 DUP3 ADD MLOAD DUP2 PUSH1 0x0 ADD PUSH1 0x0 PUSH2 0x100 EXP DUP2 SLOAD DUP2 PUSH1 0x1 PUSH1 0x1 PUSH1 0xA0 SHL SUB MUL NOT AND SWAP1 DUP4 PUSH1 0x1 PUSH1 0x1 PUSH1 0xA0 SHL SUB AND MUL OR SWAP1 SSTORE POP PUSH1 0x20 DUP3 ADD MLOAD DUP2 PUSH1 0x1 ADD PUSH1 0x0 PUSH2 0x100 EXP DUP2 SLOAD DUP2 PUSH1 0x1 PUSH1 0x1 PUSH1 0xA0 SHL SUB MUL NOT AND SWAP1 DUP4 PUSH1 0x1 PUSH1 0x1 PUSH1 0xA0 SHL SUB AND MUL OR SWAP1 SSTORE POP PUSH1 0x40 DUP3 ADD MLOAD DUP2 PUSH1 0x2 ADD SSTORE PUSH1 0x60 DUP3 ADD MLOAD DUP2 PUSH1 0x3 ADD PUSH1 0x0 PUSH2 0x100 EXP DUP2 SLOAD DUP2 PUSH2 0xFFFF MUL NOT AND SWAP1 DUP4 PUSH2 0xFFFF AND MUL OR SWAP1 SSTORE POP PUSH1 0x80 DUP3 ADD MLOAD DUP2 PUSH1 0x4 ADD SSTORE PUSH1 0xA0 DUP3 ADD MLOAD DUP2 PUSH1 0x5 ADD SSTORE PUSH1 0xC0 DUP3 ADD MLOAD DUP2 PUSH1 0x6 ADD SSTORE PUSH1 0xE0 DUP3 ADD MLOAD DUP2 PUSH1 0x7 ADD SSTORE PUSH2 0x100 DUP3 ADD MLOAD DUP2 PUSH1 0x8 ADD PUSH1 0x0 PUSH2 0x100 EXP DUP2 SLOAD DUP2 PUSH1 0xFF MUL NOT AND SWAP1 DUP4 ISZERO ISZERO MUL OR SWAP1 SSTORE POP SWAP1 POP POP DUP7 PUSH1 0x1 PUSH1 0x1 PUSH1 0xA0 SHL SUB AND CALLER PUSH1 0x1 PUSH1 0x1 PUSH1 0xA0 SHL SUB AND PUSH32 0xF13822DDEAC14C8BF1F75BC61D60690A2846BED11A8D11C56BE6F29C5AE66ABC DUP9 DUP9 DUP9 DUP9 DUP9 DUP9 PUSH1 0x40 MLOAD PUSH2 0x1330 SWAP7 SWAP6 SWAP5 SWAP4 SWAP3 SWAP2 SWAP1 PUSH1 0x1 PUSH1 0x1 PUSH1 0xA0 SHL SUB SWAP7 SWAP1 SWAP7 AND DUP7 MSTORE PUSH1 0x20 DUP7 ADD SWAP5 SWAP1 SWAP5 MSTORE PUSH1 0x40 DUP6 ADD SWAP3 SWAP1 SWAP3 MSTORE PUSH1 0x60 DUP5 ADD MSTORE PUSH1 0x80 DUP4 ADD MSTORE PUSH2 0xFFFF AND PUSH1 0xA0 DUP3 ADD MSTORE PUSH1 0xC0 ADD SWAP1 JUMP JUMPDEST PUSH1 0x40 MLOAD DUP1 SWAP2 SUB SWAP1 LOG3 POP POP POP POP POP POP POP JUMP JUMPDEST PUSH1 0x1 PUSH1 0x1 PUSH1 0xA0 SHL SUB DUP2 AND PUSH1 0x0 SWAP1 DUP2 MSTORE PUSH1 0x2 PUSH1 0x20 MSTORE PUSH1 0x40 SWAP1 KECCAK256 PUSH1 0x8 DUP2 ADD SLOAD PUSH1 0xFF AND PUSH2 0x1397 JUMPI PUSH1 0x40 MLOAD PUSH3 0x461BCD PUSH1 0xE5 SHL DUP2 MSTORE PUSH1 0x20 PUSH1 0x4 DUP3 ADD MSTORE PUSH1 0x7 PUSH1 0x24 DUP3 ADD MSTORE PUSH7 0x373790383630B7 PUSH1 0xC9 SHL PUSH1 0x44 DUP3 ADD MSTORE PUSH1 0x64 ADD PUSH2 0x513 JUMP JUMPDEST PUSH2 0x13A0 DUP3 PUSH2 0xCAA JUMP JUMPDEST TIMESTAMP LT ISZERO PUSH2 0x13D9 JUMPI PUSH1 0x40 MLOAD PUSH3 0x461BCD PUSH1 0xE5 SHL DUP2 MSTORE PUSH1 0x20 PUSH1 0x4 DUP3 ADD MSTORE PUSH1 0x7 PUSH1 0x24 DUP3 ADD MSTORE PUSH7 0x6E6F7420647565 PUSH1 0xC8 SHL PUSH1 0x44 DUP3 ADD MSTORE PUSH1 0x64 ADD PUSH2 0x513 JUMP JUMPDEST PUSH1 0x2 DUP2 ADD SLOAD PUSH1 0x0 SWAP1 ISZERO PUSH2 0x13F0 JUMPI DUP2 PUSH1 0x2 ADD SLOAD PUSH2 0x13F8 JUMP JUMPDEST PUSH3 0x8AA89 PUSH1 0xEB SHL JUMPDEST SWAP1 POP PUSH1 0x0 PUSH2 0x1405 DUP3 PUSH2 0x1A64 JUMP JUMPDEST SWAP1 POP PUSH1 0x0 DUP2 GT PUSH2 0x1427 JUMPI PUSH1 0x40 MLOAD PUSH3 0x461BCD PUSH1 0xE5 SHL DUP2 MSTORE PUSH1 0x4 ADD PUSH2 0x513 SWAP1 PUSH2 0x28CD JUMP JUMPDEST PUSH1 0x4 DUP4 ADD SLOAD PUSH1 0x1 DUP5 ADD SLOAD PUSH1 0x0 SWAP1 PUSH1 0x1 PUSH1 0x1 PUSH1 0xA0 SHL SUB AND DUP1 PUSH2 0x1468 JUMPI DUP4 PUSH2 0x1457 DUP5 PUSH10 0xD3C21BCECCEDA1000000 PUSH2 0x28F0 JUMP JUMPDEST PUSH2 0x1461 SWAP2 SWAP1 PUSH2 0x291D JUMP JUMPDEST SWAP2 POP PUSH2 0x150A JUMP JUMPDEST PUSH1 0x0 DUP2 PUSH1 0x1 PUSH1 0x1 PUSH1 0xA0 SHL SUB AND PUSH4 0x313CE567 PUSH1 0x40 MLOAD DUP2 PUSH4 0xFFFFFFFF AND PUSH1 0xE0 SHL DUP2 MSTORE PUSH1 0x4 ADD PUSH1 0x20 PUSH1 0x40 MLOAD DUP1 DUP4 SUB DUP2 DUP7 GAS STATICCALL ISZERO DUP1 ISZERO PUSH2 0x14A8 JUMPI RETURNDATASIZE PUSH1 0x0 DUP1 RETURNDATACOPY RETURNDATASIZE PUSH1 0x0 REVERT JUMPDEST POP POP POP POP PUSH1 0x40 MLOAD RETURNDATASIZE PUSH1 0x1F NOT PUSH1 0x1F DUP3 ADD AND DUP3 ADD DUP1 PUSH1 0x40 MSTORE POP DUP2 ADD SWAP1 PUSH2 0x14CC SWAP2 SWAP1 PUSH2 0x295D JUMP JUMPDEST SWAP1 POP PUSH2 0x14D9 DUP6 PUSH1 0x64 PUSH2 0x28F0 JUMP JUMPDEST PUSH2 0x14E7 PUSH1 0xFF DUP4 AND PUSH1 0x8 PUSH2 0x25AC JUMP JUMPDEST PUSH2 0x14F2 SWAP1 PUSH1 0xA PUSH2 0x2A64 JUMP JUMPDEST PUSH2 0x14FC SWAP1 DUP7 PUSH2 0x28F0 JUMP JUMPDEST PUSH2 0x1506 SWAP2 SWAP1 PUSH2 0x291D JUMP JUMPDEST SWAP3 POP POP JUMPDEST PUSH1 0x0 DUP3 GT PUSH2 0x1543 JUMPI PUSH1 0x40 MLOAD PUSH3 0x461BCD PUSH1 0xE5 SHL DUP2 MSTORE PUSH1 0x4 ADD PUSH2 0x513 SWAP1 PUSH1 0x20 DUP1 DUP3 MSTORE PUSH1 0x4 SWAP1 DUP3 ADD MSTORE PUSH4 0x74696E79 PUSH1 0xE0 SHL PUSH1 0x40 DUP3 ADD MSTORE PUSH1 0x60 ADD SWAP1 JUMP JUMPDEST PUSH1 0x7 DUP7 ADD SLOAD ISZERO DUP1 PUSH2 0x1558 JUMPI POP DUP6 PUSH1 0x7 ADD SLOAD DUP3 GT ISZERO JUMPDEST PUSH2 0x1592 JUMPI PUSH1 0x40 MLOAD PUSH3 0x461BCD PUSH1 0xE5 SHL DUP2 MSTORE PUSH1 0x20 PUSH1 0x4 DUP3 ADD MSTORE PUSH1 0xB PUSH1 0x24 DUP3 ADD MSTORE PUSH11 0x657863656564732063617 PUSH1 0xAC SHL PUSH1 0x44 DUP3 ADD MSTORE PUSH1 0x64 ADD PUSH2 0x513 JUMP JUMPDEST PUSH1 0x3 DUP7 ADD SLOAD PUSH1 0x0 SWAP1 PUSH2 0x2710 SWAP1 PUSH2 0x15AC SWAP1 PUSH2 0xFFFF AND DUP6 PUSH2 0x28F0 JUMP JUMPDEST PUSH2 0x15B6 SWAP2 SWAP1 PUSH2 0x291D JUMP JUMPDEST SWAP1 POP PUSH1 0x0 PUSH2 0x15C4 DUP3 DUP6 PUSH2 0x2931 JUMP JUMPDEST SWAP1 POP PUSH1 0x1 PUSH1 0x1 PUSH1 0xA0 SHL SUB DUP4 AND PUSH2 0x17AD JUMPI PUSH1 0x1 PUSH1 0x1 PUSH1 0xA0 SHL SUB DUP10 AND PUSH1 0x0 SWAP1 DUP2 MSTORE PUSH1 0x20 DUP2 SWAP1 MSTORE PUSH1 0x40 SWAP1 KECCAK256 SLOAD DUP5 GT ISZERO PUSH2 0x1633 JUMPI PUSH1 0x40 MLOAD PUSH3 0x461BCD PUSH1 0xE5 SHL DUP2 MSTORE PUSH1 0x20 PUSH1 0x4 DUP3 ADD MSTORE PUSH1 0x14 PUSH1 0x24 DUP3 ADD MSTORE PUSH20 0x696E73756666696369656E742062616C616E6365 PUSH1 0x60 SHL PUSH1 0x44 DUP3 ADD MSTORE PUSH1 0x64 ADD PUSH2 0x513 JUMP JUMPDEST PUSH1 0x1 PUSH1 0x1 PUSH1 0xA0 SHL SUB DUP10 DUP2 AND PUSH1 0x0 SWAP1 DUP2 MSTORE PUSH1 0x20 DUP2 SWAP1 MSTORE PUSH1 0x40 DUP1 DUP3 KECCAK256 DUP1 SLOAD DUP9 SWAP1 SUB SWAP1 SSTORE DUP11 SLOAD SWAP1 MLOAD SWAP2 SWAP3 AND SWAP1 DUP4 SWAP1 DUP4 DUP2 DUP2 DUP2 DUP6 DUP8 GAS CALL SWAP3 POP POP POP RETURNDATASIZE DUP1 PUSH1 0x0 DUP2 EQ PUSH2 0x1696 JUMPI PUSH1 0x40 MLOAD SWAP2 POP PUSH1 0x1F NOT PUSH1 0x3F RETURNDATASIZE ADD AND DUP3 ADD PUSH1 0x40 MSTORE RETURNDATASIZE DUP3 MSTORE RETURNDATASIZE PUSH1 0x0 PUSH1 0x20 DUP5 ADD RETURNDATACOPY PUSH2 0x169B JUMP JUMPDEST PUSH1 0x60 SWAP2 POP JUMPDEST POP POP SWAP1 POP DUP1 PUSH2 0x16D8 JUMPI PUSH1 0x40 MLOAD PUSH3 0x461BCD PUSH1 0xE5 SHL DUP2 MSTORE PUSH1 0x20 PUSH1 0x4 DUP3 ADD MSTORE PUSH1 0x9 PUSH1 0x24 DUP3 ADD MSTORE PUSH9 0x1C185E534819985A5B PUSH1 0xBA SHL PUSH1 0x44 DUP3 ADD MSTORE PUSH1 0x64 ADD PUSH2 0x513 JUMP JUMPDEST DUP3 ISZERO PUSH2 0x17A7 JUMPI PUSH1 0x40 MLOAD PUSH1 0x0 SWAP1 CALLER SWAP1 DUP6 SWAP1 DUP4 DUP2 DUP2 DUP2 DUP6 DUP8 GAS CALL SWAP3 POP POP POP RETURNDATASIZE DUP1 PUSH1 0x0 DUP2 EQ PUSH2 0x1720 JUMPI PUSH1 0x40 MLOAD SWAP2 POP PUSH1 0x1F NOT PUSH1 0x3F RETURNDATASIZE ADD AND DUP3 ADD PUSH1 0x40 MSTORE RETURNDATASIZE DUP3 MSTORE RETURNDATASIZE PUSH1 0x0 PUSH1 0x20 DUP5 ADD RETURNDATACOPY PUSH2 0x1725 JUMP JUMPDEST PUSH1 0x60 SWAP2 POP JUMPDEST POP POP SWAP1 POP DUP1 PUSH2 0x1762 JUMPI PUSH1 0x40 MLOAD PUSH3 0x461BCD PUSH1 0xE5 SHL DUP2 MSTORE PUSH1 0x20 PUSH1 0x4 DUP3 ADD MSTORE PUSH1 0x9 PUSH1 0x24 DUP3 ADD MSTORE PUSH9 0x1C185E50C819985A5B PUSH1 0xBA SHL PUSH1 0x44 DUP3 ADD MSTORE PUSH1 0x64 ADD PUSH2 0x513 JUMP JUMPDEST PUSH1 0x40 MLOAD DUP5 DUP2 MSTORE PUSH1 0x0 SWAP1 CALLER SWAP1 PUSH1 0x1 PUSH1 0x1 PUSH1 0xA0 SHL SUB DUP15 AND SWAP1 PUSH32 0x1B9251F5D647165412D9426252C6606427EFB36F9B61F2200A1E8E33D7CCB5A3 SWAP1 PUSH1 0x20 ADD PUSH1 0x40 MLOAD DUP1 SWAP2 SUB SWAP1 LOG4 POP JUMPDEST POP PUSH2 0x19F3 JUMP JUMPDEST PUSH1 0x1 PUSH1 0x1 PUSH1 0xA0 SHL SUB DUP1 DUP11 AND PUSH1 0x0 SWAP1 DUP2 MSTORE PUSH1 0x1 PUSH1 0x20 SWAP1 DUP2 MSTORE PUSH1 0x40 DUP1 DUP4 KECCAK256 SWAP4 DUP8 AND DUP4 MSTORE SWAP3 SWAP1 MSTORE KECCAK256 SLOAD DUP5 GT ISZERO PUSH2 0x1819 JUMPI PUSH1 0x40 MLOAD PUSH3 0x461BCD PUSH1 0xE5 SHL DUP2 MSTORE PUSH1 0x20 PUSH1 0x4 DUP3 ADD MSTORE PUSH1 0x14 PUSH1 0x24 DUP3 ADD MSTORE PUSH20 0x696E73756666696369656E742062616C616E6365 PUSH1 0x60 SHL PUSH1 0x44 DUP3 ADD MSTORE PUSH1 0x64 ADD PUSH2 0x513 JUMP JUMPDEST PUSH1 0x1 PUSH1 0x1 PUSH1 0xA0 SHL SUB DUP10 DUP2 AND PUSH1 0x0 SWAP1 DUP2 MSTORE PUSH1 0x1 PUSH1 0x20 SWAP1 DUP2 MSTORE PUSH1 0x40 DUP1 DUP4 KECCAK256 DUP8 DUP6 AND DUP1 DUP6 MSTORE SWAP3 MSTORE SWAP2 DUP3 SWAP1 KECCAK256 DUP1 SLOAD DUP9 SWAP1 SUB SWAP1 SSTORE DUP11 SLOAD SWAP2 MLOAD PUSH4 0xA9059CBB PUSH1 0xE0 SHL DUP2 MSTORE SWAP2 SWAP1 SWAP3 AND PUSH1 0x4 DUP3 ADD MSTORE PUSH1 0x24 DUP2 ADD DUP4 SWAP1 MSTORE PUSH4 0xA9059CBB SWAP1 PUSH1 0x44 ADD PUSH1 0x20 PUSH1 0x40 MLOAD DUP1 DUP4 SUB DUP2 PUSH1 0x0 DUP8 GAS CALL ISZERO DUP1 ISZERO PUSH2 0x188E JUMPI RETURNDATASIZE PUSH1 0x0 DUP1 RETURNDATACOPY RETURNDATASIZE PUSH1 0x0 REVERT JUMPDEST POP POP POP POP PUSH1 0x40 MLOAD RETURNDATASIZE PUSH1 0x1F NOT PUSH1 0x1F DUP3 ADD AND DUP3 ADD DUP1 PUSH1 0x40 MSTORE POP DUP2 ADD SWAP1 PUSH2 0x18B2 SWAP2 SWAP1 PUSH2 0x28AB JUMP JUMPDEST PUSH2 0x18EB JUMPI PUSH1 0x40 MLOAD PUSH3 0x461BCD PUSH1 0xE5 SHL DUP2 MSTORE PUSH1 0x20 PUSH1 0x4 DUP3 ADD MSTORE PUSH1 0xA PUSH1 0x24 DUP3 ADD MSTORE PUSH10 0x1D1C185E534819985A5B PUSH1 0xB2 SHL PUSH1 0x44 DUP3 ADD MSTORE PUSH1 0x64 ADD PUSH2 0x513 JUMP JUMPDEST DUP2 ISZERO PUSH2 0x19F3 JUMPI PUSH1 0x40 MLOAD PUSH4 0xA9059CBB PUSH1 0xE0 SHL DUP2 MSTORE CALLER PUSH1 0x4 DUP3 ADD MSTORE PUSH1 0x24 DUP2 ADD DUP4 SWAP1 MSTORE PUSH1 0x1 PUSH1 0x1 PUSH1 0xA0 SHL SUB DUP5 AND SWAP1 PUSH4 0xA9059CBB SWAP1 PUSH1 0x44 ADD PUSH1 0x20 PUSH1 0x40 MLOAD DUP1 DUP4 SUB DUP2 PUSH1 0x0 DUP8 GAS CALL ISZERO DUP1 ISZERO PUSH2 0x193E JUMPI RETURNDATASIZE PUSH1 0x0 DUP1 RETURNDATACOPY RETURNDATASIZE PUSH1 0x0 REVERT JUMPDEST POP POP POP POP PUSH1 0x40 MLOAD RETURNDATASIZE PUSH1 0x1F NOT PUSH1 0x1F DUP3 ADD AND DUP3 ADD DUP1 PUSH1 0x40 MSTORE POP DUP2 ADD SWAP1 PUSH2 0x1962 SWAP2 SWAP1 PUSH2 0x28AB JUMP JUMPDEST PUSH2 0x199B JUMPI PUSH1 0x40 MLOAD PUSH3 0x461BCD PUSH1 0xE5 SHL DUP2 MSTORE PUSH1 0x20 PUSH1 0x4 DUP3 ADD MSTORE PUSH1 0xA PUSH1 0x24 DUP3 ADD MSTORE PUSH10 0x1D1C185E50C819985A5B PUSH1 0xB2 SHL PUSH1 0x44 DUP3 ADD MSTORE PUSH1 0x64 ADD PUSH2 0x513 JUMP JUMPDEST DUP3 PUSH1 0x1 PUSH1 0x1 PUSH1 0xA0 SHL SUB AND CALLER PUSH1 0x1 PUSH1 0x1 PUSH1 0xA0 SHL SUB AND DUP11 PUSH1 0x1 PUSH1 0x1 PUSH1 0xA0 SHL SUB AND PUSH32 0x1B9251F5D647165412D9426252C6606427EFB36F9B61F2200A1E8E33D7CCB5A3 DUP6 PUSH1 0x40 MLOAD PUSH2 0x19EA SWAP2 DUP2 MSTORE PUSH1 0x20 ADD SWAP1 JUMP JUMPDEST PUSH1 0x40 MLOAD DUP1 SWAP2 SUB SWAP1 LOG4 JUMPDEST TIMESTAMP PUSH1 0x6 DUP10 ADD SSTORE DUP8 SLOAD PUSH1 0x1 PUSH1 0x1 PUSH1 0xA0 SHL SUB SWAP1 DUP2 AND SWAP1 DUP11 AND PUSH32 0xB3E1A1D5EEC96C841D90F413AA5261898365653F66CD2769CFFE66BBFB28C7A0 DUP8 DUP10 DUP9 PUSH2 0x1A36 DUP16 PUSH2 0xCAA JUMP JUMPDEST PUSH1 0x40 DUP1 MLOAD SWAP5 DUP6 MSTORE PUSH1 0x20 DUP6 ADD SWAP4 SWAP1 SWAP4 MSTORE SWAP2 DUP4 ADD MSTORE PUSH1 0x60 DUP3 ADD MSTORE PUSH1 0x80 ADD PUSH1 0x40 MLOAD DUP1 SWAP2 SUB SWAP1 LOG3 POP POP POP POP POP POP POP POP POP JUMP JUMPDEST PUSH1 0x40 DUP1 MLOAD PUSH1 0x1 DUP1 DUP3 MSTORE DUP2 DUP4 ADD SWAP1 SWAP3 MSTORE PUSH1 0x0 SWAP2 DUP3 SWAP2 SWAP1 PUSH1 0x20 DUP1 DUP4 ADD SWAP1 DUP1 CALLDATASIZE DUP4 CALLDATACOPY ADD SWAP1 POP POP SWAP1 POP DUP3 DUP2 PUSH1 0x0 DUP2 MLOAD DUP2 LT PUSH2 0x1A9D JUMPI PUSH2 0x1A9D PUSH2 0x2A70 JUMP JUMPDEST PUSH1 0x20 MUL PUSH1 0x20 ADD ADD DUP2 DUP2 MSTORE POP POP PUSH2 0x1AB2 DUP2 PUSH2 0x1C95 JUMP JUMPDEST PUSH1 0x0 DUP2 MLOAD DUP2 LT PUSH2 0x1AC4 JUMPI PUSH2 0x1AC4 PUSH2 0x2A70 JUMP JUMPDEST PUSH1 0x20 MUL PUSH1 0x20 ADD ADD MLOAD SWAP2 POP POP SWAP2 SWAP1 POP JUMP JUMPDEST PUSH1 0x0 PUSH7 0x2ED57011E0000 PUSH1 0x1F NOT CALLDATASIZE ADD CALLDATALOAD DUP2 AND EQ DUP1 PUSH2 0x1B05 JUMPI PUSH1 0x40 MLOAD PUSH4 0x73BB264F PUSH1 0xE1 SHL DUP2 MSTORE PUSH1 0x4 ADD PUSH1 0x40 MLOAD DUP1 SWAP2 SUB SWAP1 REVERT JUMPDEST PUSH1 0x0 CALLDATASIZE PUSH1 0x29 GT ISZERO PUSH2 0x1B29 JUMPI PUSH1 0x40 MLOAD PUSH4 0x2BCB7BC5 PUSH1 0xE1 SHL DUP2 MSTORE PUSH1 0x4 ADD PUSH1 0x40 MLOAD DUP1 SWAP2 SUB SWAP1 REVERT JUMPDEST POP PUSH1 0x28 NOT CALLDATASIZE ADD CALLDATALOAD PUSH1 0x0 PUSH1 0x9 PUSH2 0x1B44 PUSH1 0x3 PUSH3 0xFFFFFF DUP6 AND PUSH2 0x25AC JUMP JUMPDEST PUSH2 0x1B4E SWAP2 SWAP1 PUSH2 0x25AC JUMP JUMPDEST SWAP1 POP CALLDATASIZE PUSH2 0x1B5C PUSH1 0x2 DUP4 PUSH2 0x25AC JUMP JUMPDEST GT ISZERO PUSH2 0x7CB JUMPI PUSH1 0x40 MLOAD PUSH4 0xC30A7BD7 PUSH1 0xE0 SHL DUP2 MSTORE PUSH1 0x4 ADD PUSH1 0x40 MLOAD DUP1 SWAP2 SUB SWAP1 REVERT JUMPDEST PUSH1 0x0 DUP1 DUP1 PUSH2 0x1B8A PUSH1 0x20 DUP6 PUSH2 0x25AC JUMP JUMPDEST SWAP1 POP CALLDATASIZE DUP2 GT ISZERO PUSH2 0x1BAD JUMPI PUSH1 0x40 MLOAD PUSH4 0x2BCB7BC5 PUSH1 0xE1 SHL DUP2 MSTORE PUSH1 0x4 ADD PUSH1 0x40 MLOAD DUP1 SWAP2 SUB SWAP1 REVERT JUMPDEST CALLDATASIZE DUP2 SWAP1 SUB CALLDATALOAD SWAP3 POP DUP3 PUSH2 0x1BC0 PUSH1 0x2 DUP7 PUSH2 0x25AC JUMP JUMPDEST SWAP3 POP SWAP3 POP POP SWAP2 POP SWAP2 JUMP JUMPDEST PUSH1 0x0 DUP1 PUSH1 0x0 PUSH2 0x1BD8 DUP5 PUSH2 0x1CB7 JUMP JUMPDEST SWAP1 SWAP3 POP SWAP1 POP PUSH1 0x4E PUSH2 0x1BEA DUP3 PUSH1 0x20 PUSH2 0x25AC JUMP JUMPDEST PUSH2 0x1BF4 SWAP1 DUP5 PUSH2 0x28F0 JUMP JUMPDEST PUSH2 0x1BFE SWAP2 SWAP1 PUSH2 0x25AC JUMP JUMPDEST SWAP5 SWAP4 POP POP POP POP JUMP JUMPDEST PUSH1 0x0 PUSH2 0xCA4 DUP3 PUSH2 0x1D0A JUMP JUMPDEST PUSH1 0x0 PUSH2 0x1C1F PUSH2 0x3E8 DUP4 PUSH2 0x291D JUMP JUMPDEST SWAP1 POP DUP1 TIMESTAMP LT ISZERO PUSH2 0x1C61 JUMPI PUSH1 0x3C PUSH2 0x1C35 TIMESTAMP DUP4 PUSH2 0x2931 JUMP JUMPDEST GT ISZERO PUSH2 0x1C5D JUMPI PUSH1 0x40 MLOAD PUSH4 0xB6B0916D PUSH1 0xE0 SHL DUP2 MSTORE PUSH1 0x4 DUP2 ADD DUP3 SWAP1 MSTORE TIMESTAMP PUSH1 0x24 DUP3 ADD MSTORE PUSH1 0x44 ADD PUSH2 0x513 JUMP JUMPDEST POP POP JUMP JUMPDEST PUSH1 0xB4 PUSH2 0x1C6D DUP3 TIMESTAMP PUSH2 0x2931 JUMP JUMPDEST GT ISZERO PUSH2 0x1C5D JUMPI PUSH1 0x40 MLOAD PUSH4 0x321D0B5 PUSH1 0xE0 SHL DUP2 MSTORE PUSH1 0x4 DUP2 ADD DUP3 SWAP1 MSTORE TIMESTAMP PUSH1 0x24 DUP3 ADD MSTORE PUSH1 0x44 ADD PUSH2 0x513 JUMP JUMPDEST PUSH1 0x60 PUSH1 0x0 DUP1 PUSH2 0x1CA3 DUP5 PUSH2 0x1E1E JUMP JUMPDEST SWAP2 POP SWAP2 POP PUSH2 0x1CB0 DUP2 PUSH2 0xFC8 JUMP JUMPDEST POP SWAP3 SWAP2 POP POP JUMP JUMPDEST PUSH1 0x0 DUP1 DUP1 DUP1 DUP1 PUSH1 0x20 PUSH2 0x1CCA PUSH1 0x41 DUP9 PUSH2 0x25AC JUMP JUMPDEST PUSH2 0x1CD4 SWAP2 SWAP1 PUSH2 0x25AC JUMP JUMPDEST PUSH2 0x1CDE SWAP1 CALLDATASIZE PUSH2 0x2931 JUMP JUMPDEST DUP1 CALLDATALOAD SWAP4 POP SWAP1 POP PUSH2 0x1CEF PUSH1 0x3 DUP3 PUSH2 0x2931 JUMP JUMPDEST PUSH3 0xFFFFFF SWAP4 SWAP1 SWAP4 AND SWAP7 SWAP3 CALLDATALOAD PUSH4 0xFFFFFFFF AND SWAP6 POP SWAP2 SWAP4 POP POP POP POP JUMP JUMPDEST PUSH1 0x0 DUP2 MLOAD PUSH1 0x2 SUB PUSH2 0x1D61 JUMPI PUSH1 0x2 DUP3 PUSH1 0x1 DUP2 MLOAD DUP2 LT PUSH2 0x1D2A JUMPI PUSH2 0x1D2A PUSH2 0x2A70 JUMP JUMPDEST PUSH1 0x20 MUL PUSH1 0x20 ADD ADD MLOAD DUP4 PUSH1 0x0 DUP2 MLOAD DUP2 LT PUSH2 0x1D45 JUMPI PUSH2 0x1D45 PUSH2 0x2A70 JUMP JUMPDEST PUSH1 0x20 MUL PUSH1 0x20 ADD ADD MLOAD PUSH2 0x1D57 SWAP2 SWAP1 PUSH2 0x25AC JUMP JUMPDEST PUSH2 0xCA4 SWAP2 SWAP1 PUSH2 0x291D JUMP JUMPDEST DUP2 MLOAD PUSH1 0x0 SUB PUSH2 0x1D83 JUMPI PUSH1 0x40 MLOAD PUSH4 0x9E198AF9 PUSH1 0xE0 SHL DUP2 MSTORE PUSH1 0x4 ADD PUSH1 0x40 MLOAD DUP1 SWAP2 SUB SWAP1 REVERT JUMPDEST PUSH2 0x1D8C DUP3 PUSH2 0x2039 JUMP JUMPDEST PUSH1 0x0 PUSH1 0x2 DUP4 MLOAD PUSH2 0x1D9C SWAP2 SWAP1 PUSH2 0x291D JUMP JUMPDEST SWAP1 POP PUSH1 0x2 DUP4 MLOAD PUSH2 0x1DAC SWAP2 SWAP1 PUSH2 0x2A86 JUMP JUMPDEST PUSH1 0x0 SUB PUSH2 0x1E0C JUMPI PUSH1 0x0 DUP4 DUP3 DUP2 MLOAD DUP2 LT PUSH2 0x1DC7 JUMPI PUSH2 0x1DC7 PUSH2 0x2A70 JUMP JUMPDEST PUSH1 0x20 MUL PUSH1 0x20 ADD ADD MLOAD DUP5 PUSH1 0x1 DUP5 PUSH2 0x1DDD SWAP2 SWAP1 PUSH2 0x2931 JUMP JUMPDEST DUP2 MLOAD DUP2 LT PUSH2 0x1DED JUMPI PUSH2 0x1DED PUSH2 0x2A70 JUMP JUMPDEST PUSH1 0x20 MUL PUSH1 0x20 ADD ADD MLOAD PUSH2 0x1DFF SWAP2 SWAP1 PUSH2 0x25AC JUMP JUMPDEST SWAP1 POP PUSH2 0x1BFE PUSH1 0x2 DUP3 PUSH2 0x291D JUMP JUMPDEST DUP3 DUP2 DUP2 MLOAD DUP2 LT PUSH2 0x1AC4 JUMPI PUSH2 0x1AC4 PUSH2 0x2A70 JUMP JUMPDEST PUSH1 0x60 PUSH1 0x0 DUP1 DUP4 MLOAD PUSH8 0xFFFFFFFFFFFFFFFF DUP2 GT ISZERO PUSH2 0x1E3D JUMPI PUSH2 0x1E3D PUSH2 0x26A0 JUMP JUMPDEST PUSH1 0x40 MLOAD SWAP1 DUP1 DUP3 MSTORE DUP1 PUSH1 0x20 MUL PUSH1 0x20 ADD DUP3 ADD PUSH1 0x40 MSTORE DUP1 ISZERO PUSH2 0x1E66 JUMPI DUP2 PUSH1 0x20 ADD PUSH1 0x20 DUP3 MUL DUP1 CALLDATASIZE DUP4 CALLDATACOPY ADD SWAP1 POP JUMPDEST POP SWAP1 POP PUSH1 0x0 DUP5 MLOAD PUSH8 0xFFFFFFFFFFFFFFFF DUP2 GT ISZERO PUSH2 0x1E85 JUMPI PUSH2 0x1E85 PUSH2 0x26A0 JUMP JUMPDEST PUSH1 0x40 MLOAD SWAP1 DUP1 DUP3 MSTORE DUP1 PUSH1 0x20 MUL PUSH1 0x20 ADD DUP3 ADD PUSH1 0x40 MSTORE DUP1 ISZERO PUSH2 0x1EAE JUMPI DUP2 PUSH1 0x20 ADD PUSH1 0x20 DUP3 MUL DUP1 CALLDATASIZE DUP4 CALLDATACOPY ADD SWAP1 POP JUMPDEST POP SWAP1 POP PUSH1 0x0 DUP6 MLOAD PUSH8 0xFFFFFFFFFFFFFFFF DUP2 GT ISZERO PUSH2 0x1ECD JUMPI PUSH2 0x1ECD PUSH2 0x26A0 JUMP JUMPDEST PUSH1 0x40 MLOAD SWAP1 DUP1 DUP3 MSTORE DUP1 PUSH1 0x20 MUL PUSH1 0x20 ADD DUP3 ADD PUSH1 0x40 MSTORE DUP1 ISZERO PUSH2 0x1F00 JUMPI DUP2 PUSH1 0x20 ADD JUMPDEST PUSH1 0x60 DUP2 MSTORE PUSH1 0x20 ADD SWAP1 PUSH1 0x1 SWAP1 SUB SWAP1 DUP2 PUSH2 0x1EEB JUMPI SWAP1 POP JUMPDEST POP SWAP1 POP PUSH1 0x3 PUSH1 0x0 JUMPDEST DUP8 MLOAD DUP2 LT ISZERO PUSH2 0x1F79 JUMPI DUP2 PUSH8 0xFFFFFFFFFFFFFFFF DUP2 GT ISZERO PUSH2 0x1F2A JUMPI PUSH2 0x1F2A PUSH2 0x26A0 JUMP JUMPDEST PUSH1 0x40 MLOAD SWAP1 DUP1 DUP3 MSTORE DUP1 PUSH1 0x20 MUL PUSH1 0x20 ADD DUP3 ADD PUSH1 0x40 MSTORE DUP1 ISZERO PUSH2 0x1F53 JUMPI DUP2 PUSH1 0x20 ADD PUSH1 0x20 DUP3 MUL DUP1 CALLDATASIZE DUP4 CALLDATACOPY ADD SWAP1 POP JUMPDEST POP DUP4 DUP3 DUP2 MLOAD DUP2 LT PUSH2 0x1F66 JUMPI PUSH2 0x1F66 PUSH2 0x2A70 JUMP JUMPDEST PUSH1 0x20 SWAP1 DUP2 MUL SWAP2 SWAP1 SWAP2 ADD ADD MSTORE PUSH1 0x1 ADD PUSH2 0x1F08 JUMP JUMPDEST POP PUSH1 0x0 PUSH2 0x1F84 PUSH2 0x1AD4 JUMP JUMPDEST SWAP1 POP PUSH1 0x0 PUSH2 0x1F91 DUP3 PUSH2 0x1B7B JUMP JUMPDEST PUSH1 0x40 MLOAD SWAP1 SWAP4 POP PUSH2 0xFFFF SWAP1 SWAP2 AND SWAP2 POP PUSH1 0x0 JUMPDEST DUP3 DUP2 LT ISZERO PUSH2 0x2020 JUMPI PUSH1 0x0 PUSH2 0x1FB9 DUP13 DUP11 DUP11 DUP11 DUP10 PUSH2 0x2087 JUMP JUMPDEST SWAP1 SWAP6 POP SWAP1 POP PUSH1 0x0 DUP2 SWAP1 SUB PUSH2 0x1FE0 JUMPI PUSH1 0x40 MLOAD PUSH4 0xDFB25A79 PUSH1 0xE0 SHL DUP2 MSTORE PUSH1 0x4 ADD PUSH1 0x40 MLOAD DUP1 SWAP2 SUB SWAP1 REVERT JUMPDEST DUP10 DUP2 EQ PUSH2 0x2010 JUMPI DUP10 PUSH1 0x0 SUB PUSH2 0x1FF7 JUMPI DUP1 SWAP10 POP PUSH2 0x2010 JUMP JUMPDEST PUSH1 0x40 MLOAD PUSH4 0x265E23A1 PUSH1 0xE1 SHL DUP2 MSTORE PUSH1 0x4 ADD PUSH1 0x40 MLOAD DUP1 SWAP2 SUB SWAP1 REVERT JUMPDEST POP PUSH1 0x20 DUP3 ADD PUSH1 0x40 MSTORE PUSH1 0x1 ADD PUSH2 0x1FA2 JUMP JUMPDEST POP PUSH2 0x202B DUP6 DUP9 PUSH2 0x2312 JUMP JUMPDEST SWAP9 POP POP POP POP POP POP POP POP SWAP2 POP SWAP2 JUMP JUMPDEST DUP1 MLOAD PUSH1 0x20 DUP3 ADD PUSH1 0x20 DUP3 MUL DUP2 ADD SWAP2 POP DUP1 JUMPDEST DUP3 DUP2 LT ISZERO PUSH2 0x2081 JUMPI DUP2 JUMPDEST DUP2 DUP2 LT ISZERO PUSH2 0x2078 JUMPI DUP2 MLOAD DUP2 MLOAD DUP1 DUP3 LT ISZERO PUSH2 0x206E JUMPI DUP1 DUP5 MSTORE DUP2 DUP4 MSTORE JUMPDEST POP POP PUSH1 0x20 ADD PUSH2 0x2053 JUMP JUMPDEST POP PUSH1 0x20 ADD PUSH2 0x2049 JUMP JUMPDEST POP POP POP POP JUMP JUMPDEST PUSH1 0x0 DUP1 PUSH1 0x0 DUP1 PUSH1 0x0 PUSH2 0x2098 DUP7 PUSH2 0x1CB7 JUMP JUMPDEST SWAP1 SWAP3 POP SWAP1 POP PUSH1 0x0 DUP1 PUSH1 0x60 DUP2 DUP1 PUSH1 0xD PUSH2 0x20B1 PUSH1 0x20 DUP9 PUSH2 0x25AC JUMP JUMPDEST PUSH2 0x20BB SWAP1 DUP10 PUSH2 0x28F0 JUMP JUMPDEST PUSH2 0x20C5 SWAP2 SWAP1 PUSH2 0x25AC JUMP JUMPDEST SWAP2 POP PUSH1 0x0 PUSH2 0x20D4 PUSH1 0x68 DUP14 PUSH2 0x25AC JUMP JUMPDEST PUSH2 0x20DE SWAP1 CALLDATASIZE PUSH2 0x2931 JUMP JUMPDEST SWAP1 POP PUSH1 0x0 DUP4 PUSH2 0x20EE PUSH1 0x41 DUP16 PUSH2 0x25AC JUMP JUMPDEST PUSH2 0x20F8 SWAP2 SWAP1 PUSH2 0x25AC JUMP JUMPDEST PUSH2 0x2102 SWAP1 CALLDATASIZE PUSH2 0x2931 JUMP JUMPDEST SWAP1 POP PUSH2 0x210E DUP5 DUP3 PUSH2 0x2121 JUMP JUMPDEST SWAP5 POP DUP4 PUSH1 0x20 DUP7 ADD KECCAK256 SWAP6 POP DUP2 CALLDATALOAD SWAP3 POP PUSH2 0x2145 JUMP JUMPDEST PUSH1 0x40 DUP1 MLOAD DUP4 DUP2 MSTORE PUSH1 0x20 DUP2 DUP6 ADD DUP2 ADD SWAP1 SWAP3 MSTORE PUSH1 0x0 SWAP2 ADD DUP4 DUP4 DUP3 CALLDATACOPY PUSH1 0x1F NOT ADD SWAP4 SWAP3 POP POP POP JUMP JUMPDEST DUP3 PUSH6 0xFFFFFFFFFFFF AND SWAP11 POP PUSH2 0x2166 DUP7 PUSH1 0x41 DUP16 PUSH2 0x2161 SWAP2 SWAP1 PUSH2 0x25AC JUMP JUMPDEST PUSH2 0x2421 JUMP JUMPDEST SWAP7 POP PUSH2 0x2171 DUP8 PUSH2 0x671 JUMP JUMPDEST PUSH1 0xFF AND SWAP10 POP POP POP POP POP POP POP POP PUSH1 0x4E DUP7 PUSH2 0x218A SWAP2 SWAP1 PUSH2 0x25AC JUMP JUMPDEST SWAP6 POP PUSH1 0x0 DUP1 PUSH1 0x0 JUMPDEST DUP5 DUP2 LT ISZERO PUSH2 0x22FF JUMPI PUSH1 0x20 PUSH2 0x21A6 DUP6 DUP12 PUSH2 0x25AC JUMP JUMPDEST PUSH2 0x21B0 SWAP2 SWAP1 PUSH2 0x25AC JUMP JUMPDEST SWAP9 POP PUSH2 0x21BC DUP10 DUP6 PUSH2 0x2543 JUMP JUMPDEST SWAP1 SWAP4 POP SWAP2 POP PUSH1 0x0 JUMPDEST DUP14 MLOAD DUP2 LT ISZERO PUSH2 0x22F6 JUMPI DUP14 DUP2 DUP2 MLOAD DUP2 LT PUSH2 0x21DF JUMPI PUSH2 0x21DF PUSH2 0x2A70 JUMP JUMPDEST PUSH1 0x20 MUL PUSH1 0x20 ADD ADD MLOAD DUP5 SUB PUSH2 0x22EE JUMPI PUSH1 0x0 DUP13 DUP3 DUP2 MLOAD DUP2 LT PUSH2 0x2201 JUMPI PUSH2 0x2201 PUSH2 0x2A70 JUMP JUMPDEST PUSH1 0x20 MUL PUSH1 0x20 ADD ADD MLOAD SWAP1 POP PUSH2 0x221A DUP2 DUP10 PUSH1 0x1 SWAP1 SHL AND ISZERO ISZERO SWAP1 JUMP JUMPDEST ISZERO DUP1 ISZERO PUSH2 0x2243 JUMPI POP PUSH1 0x3 PUSH1 0xFF AND DUP15 DUP4 DUP2 MLOAD DUP2 LT PUSH2 0x2239 JUMPI PUSH2 0x2239 PUSH2 0x2A70 JUMP JUMPDEST PUSH1 0x20 MUL PUSH1 0x20 ADD ADD MLOAD LT JUMPDEST ISZERO PUSH2 0x22E8 JUMPI DUP4 DUP13 DUP4 DUP2 MLOAD DUP2 LT PUSH2 0x225B JUMPI PUSH2 0x225B PUSH2 0x2A70 JUMP JUMPDEST PUSH1 0x20 MUL PUSH1 0x20 ADD ADD MLOAD DUP16 DUP5 DUP2 MLOAD DUP2 LT PUSH2 0x2275 JUMPI PUSH2 0x2275 PUSH2 0x2A70 JUMP JUMPDEST PUSH1 0x20 MUL PUSH1 0x20 ADD ADD MLOAD DUP2 MLOAD DUP2 LT PUSH2 0x228D JUMPI PUSH2 0x228D PUSH2 0x2A70 JUMP JUMPDEST PUSH1 0x20 MUL PUSH1 0x20 ADD ADD DUP2 DUP2 MSTORE POP POP DUP14 DUP3 DUP2 MLOAD DUP2 LT PUSH2 0x22AB JUMPI PUSH2 0x22AB PUSH2 0x2A70 JUMP JUMPDEST PUSH1 0x20 MUL PUSH1 0x20 ADD ADD DUP1 MLOAD DUP1 SWAP2 SWAP1 PUSH2 0x22C0 SWAP1 PUSH2 0x2944 JUMP JUMPDEST SWAP1 MSTORE POP PUSH1 0x1 DUP9 SHL DUP2 OR DUP14 DUP4 DUP2 MLOAD DUP2 LT PUSH2 0x22DB JUMPI PUSH2 0x22DB PUSH2 0x2A70 JUMP JUMPDEST PUSH1 0x20 MUL PUSH1 0x20 ADD ADD DUP2 DUP2 MSTORE POP POP JUMPDEST POP PUSH2 0x22F6 JUMP JUMPDEST PUSH1 0x1 ADD PUSH2 0x21C4 JUMP JUMPDEST POP PUSH1 0x1 ADD PUSH2 0x2192 JUMP JUMPDEST POP POP POP DUP6 SWAP5 POP POP POP POP SWAP6 POP SWAP6 SWAP4 POP POP POP POP JUMP JUMPDEST PUSH1 0x60 PUSH1 0x0 DUP4 MLOAD PUSH8 0xFFFFFFFFFFFFFFFF DUP2 GT ISZERO PUSH2 0x2330 JUMPI PUSH2 0x2330 PUSH2 0x26A0 JUMP JUMPDEST PUSH1 0x40 MLOAD SWAP1 DUP1 DUP3 MSTORE DUP1 PUSH1 0x20 MUL PUSH1 0x20 ADD DUP3 ADD PUSH1 0x40 MSTORE DUP1 ISZERO PUSH2 0x2359 JUMPI DUP2 PUSH1 0x20 ADD PUSH1 0x20 DUP3 MUL DUP1 CALLDATASIZE DUP4 CALLDATACOPY ADD SWAP1 POP JUMPDEST POP SWAP1 POP PUSH1 0x3 PUSH1 0x0 JUMPDEST DUP6 MLOAD DUP2 LT ISZERO PUSH2 0x2417 JUMPI DUP2 DUP6 DUP3 DUP2 MLOAD DUP2 LT PUSH2 0x237D JUMPI PUSH2 0x237D PUSH2 0x2A70 JUMP JUMPDEST PUSH1 0x20 MUL PUSH1 0x20 ADD ADD MLOAD LT ISZERO PUSH2 0x23CA JUMPI DUP5 DUP2 DUP2 MLOAD DUP2 LT PUSH2 0x239D JUMPI PUSH2 0x239D PUSH2 0x2A70 JUMP JUMPDEST PUSH1 0x20 MUL PUSH1 0x20 ADD ADD MLOAD DUP3 PUSH1 0x40 MLOAD PUSH4 0x2B13AEF5 PUSH1 0xE0 SHL DUP2 MSTORE PUSH1 0x4 ADD PUSH2 0x513 SWAP3 SWAP2 SWAP1 SWAP2 DUP3 MSTORE PUSH1 0x20 DUP3 ADD MSTORE PUSH1 0x40 ADD SWAP1 JUMP JUMPDEST PUSH1 0x0 PUSH2 0x23EE DUP8 DUP4 DUP2 MLOAD DUP2 LT PUSH2 0x23E1 JUMPI PUSH2 0x23E1 PUSH2 0x2A70 JUMP JUMPDEST PUSH1 0x20 MUL PUSH1 0x20 ADD ADD MLOAD PUSH2 0xC99 JUMP JUMPDEST SWAP1 POP DUP1 DUP5 DUP4 DUP2 MLOAD DUP2 LT PUSH2 0x2403 JUMPI PUSH2 0x2403 PUSH2 0x2A70 JUMP JUMPDEST PUSH1 0x20 SWAP1 DUP2 MUL SWAP2 SWAP1 SWAP2 ADD ADD MSTORE POP PUSH1 0x1 ADD PUSH2 0x2361 JUMP JUMPDEST POP SWAP1 SWAP5 SWAP4 POP POP POP POP JUMP JUMPDEST PUSH1 0x0 CALLDATASIZE DUP3 SWAP1 SUB DUP1 CALLDATALOAD SWAP1 PUSH1 0x20 DUP2 ADD CALLDATALOAD SWAP1 PUSH1 0x40 ADD CALLDATALOAD DUP4 BYTE PUSH1 0x1B DUP2 EQ DUP1 ISZERO SWAP1 PUSH2 0x244B JUMPI POP PUSH1 0xFF DUP2 AND PUSH1 0x1C EQ ISZERO JUMPDEST ISZERO PUSH2 0x246C JUMPI PUSH1 0x40 MLOAD PUSH4 0x3335BE5D PUSH1 0xE1 SHL DUP2 MSTORE PUSH1 0x4 DUP2 ADD DUP8 SWAP1 MSTORE PUSH1 0x24 ADD PUSH2 0x513 JUMP JUMPDEST PUSH32 0x7FFFFFFFFFFFFFFFFFFFFFFFFFFFFFFF5D576E7357A4501DDFE92F46681B20A0 DUP3 GT ISZERO PUSH2 0x24B0 JUMPI PUSH1 0x40 MLOAD PUSH4 0x3335BE5D PUSH1 0xE1 SHL DUP2 MSTORE PUSH1 0x4 DUP2 ADD DUP8 SWAP1 MSTORE PUSH1 0x24 ADD PUSH2 0x513 JUMP JUMPDEST PUSH1 0x40 DUP1 MLOAD PUSH1 0x0 DUP2 MSTORE PUSH1 0x20 DUP2 ADD DUP1 DUP4 MSTORE DUP9 SWAP1 MSTORE PUSH1 0xFF DUP4 AND SWAP2 DUP2 ADD SWAP2 SWAP1 SWAP2 MSTORE PUSH1 0x60 DUP2 ADD DUP5 SWAP1 MSTORE PUSH1 0x80 DUP2 ADD DUP4 SWAP1 MSTORE PUSH1 0x1 SWAP1 PUSH1 0xA0 ADD PUSH1 0x20 PUSH1 0x40 MLOAD PUSH1 0x20 DUP2 SUB SWAP1 DUP1 DUP5 SUB SWAP1 DUP6 GAS STATICCALL ISZERO DUP1 ISZERO PUSH2 0x2503 JUMPI RETURNDATASIZE PUSH1 0x0 DUP1 RETURNDATACOPY RETURNDATASIZE PUSH1 0x0 REVERT JUMPDEST POP POP PUSH1 0x40 MLOAD PUSH1 0x1F NOT ADD MLOAD SWAP5 POP POP PUSH1 0x1 PUSH1 0x1 PUSH1 0xA0 SHL SUB DUP5 AND PUSH2 0x253A JUMPI PUSH1 0x40 MLOAD PUSH4 0x3335BE5D PUSH1 0xE1 SHL DUP2 MSTORE PUSH1 0x4 DUP2 ADD DUP8 SWAP1 MSTORE PUSH1 0x24 ADD PUSH2 0x513 JUMP JUMPDEST POP POP POP SWAP3 SWAP2 POP POP JUMP JUMPDEST PUSH1 0x0 DUP1 DUP1 PUSH2 0x2551 DUP6 CALLDATASIZE PUSH2 0x2931 JUMP JUMPDEST SWAP1 POP DUP1 CALLDATALOAD SWAP3 POP PUSH1 0x20 DUP2 ADD CALLDATALOAD SWAP2 POP PUSH1 0x21 DUP5 LT PUSH2 0x2582 JUMPI PUSH1 0x40 MLOAD PUSH4 0x60007E21 PUSH1 0xE1 SHL DUP2 MSTORE PUSH1 0x4 DUP2 ADD DUP6 SWAP1 MSTORE PUSH1 0x24 ADD PUSH2 0x513 JUMP JUMPDEST DUP4 PUSH1 0x20 SUB PUSH1 0x8 MUL DUP3 SWAP1 SHR SWAP2 POP POP SWAP3 POP SWAP3 SWAP1 POP JUMP JUMPDEST PUSH4 0x4E487B71 PUSH1 0xE0 SHL PUSH1 0x0 MSTORE PUSH1 0x11 PUSH1 0x4 MSTORE PUSH1 0x24 PUSH1 0x0 REVERT JUMPDEST DUP1 DUP3 ADD DUP1 DUP3 GT ISZERO PUSH2 0xCA4 JUMPI PUSH2 0xCA4 PUSH2 0x2596 JUMP JUMPDEST DUP1 CALLDATALOAD PUSH1 0x1 PUSH1 0x1 PUSH1 0xA0 SHL SUB DUP2 AND DUP2 EQ PUSH2 0x773 JUMPI PUSH1 0x0 DUP1 REVERT JUMPDEST PUSH1 0x0 DUP1 PUSH1 0x40 DUP4 DUP6 SUB SLT ISZERO PUSH2 0x25E9 JUMPI PUSH1 0x0 DUP1 REVERT JUMPDEST PUSH2 0x25F2 DUP4 PUSH2 0x25BF JUMP JUMPDEST SWAP5 PUSH1 0x20 SWAP4 SWAP1 SWAP4 ADD CALLDATALOAD SWAP4 POP POP POP JUMP JUMPDEST PUSH1 0x0 PUSH1 0x20 DUP3 DUP5 SUB SLT ISZERO PUSH2 0x2612 JUMPI PUSH1 0x0 DUP1 REVERT JUMPDEST PUSH2 0x7CB DUP3 PUSH2 0x25BF JUMP JUMPDEST PUSH1 0x0 PUSH1 0x20 DUP3 DUP5 SUB SLT ISZERO PUSH2 0x262D JUMPI PUSH1 0x0 DUP1 REVERT JUMPDEST POP CALLDATALOAD SWAP2 SWAP1 POP JUMP JUMPDEST PUSH1 0x0 DUP1 PUSH1 0x0 DUP1 PUSH1 0x80 DUP6 DUP8 SUB SLT ISZERO PUSH2 0x264A JUMPI PUSH1 0x0 DUP1 REVERT JUMPDEST PUSH2 0x2653 DUP6 PUSH2 0x25BF JUMP JUMPDEST SWAP7 PUSH1 0x20 DUP7 ADD CALLDATALOAD SWAP7 POP PUSH1 0x40 DUP7 ADD CALLDATALOAD SWAP6 PUSH1 0x60 ADD CALLDATALOAD SWAP5 POP SWAP3 POP POP POP JUMP JUMPDEST PUSH1 0x0 DUP1 PUSH1 0x40 DUP4 DUP6 SUB SLT ISZERO PUSH2 0x2680 JUMPI PUSH1 0x0 DUP1 REVERT JUMPDEST PUSH2 0x2689 DUP4 PUSH2 0x25BF JUMP JUMPDEST SWAP2 POP PUSH2 0x2697 PUSH1 0x20 DUP5 ADD PUSH2 0x25BF JUMP JUMPDEST SWAP1 POP SWAP3 POP SWAP3 SWAP1 POP JUMP JUMPDEST PUSH4 0x4E487B71 PUSH1 0xE0 SHL PUSH1 0x0 MSTORE PUSH1 0x41 PUSH1 0x4 MSTORE PUSH1 0x24 PUSH1 0x0 REVERT JUMPDEST PUSH1 0x0 PUSH1 0x20 DUP1 DUP4 DUP6 SUB SLT ISZERO PUSH2 0x26C9 JUMPI PUSH1 0x0 DUP1 REVERT JUMPDEST DUP3 CALLDATALOAD PUSH8 0xFFFFFFFFFFFFFFFF DUP1 DUP3 GT ISZERO PUSH2 0x26E1 JUMPI PUSH1 0x0 DUP1 REVERT JUMPDEST DUP2 DUP6 ADD SWAP2 POP DUP6 PUSH1 0x1F DUP4 ADD SLT PUSH2 0x26F5 JUMPI PUSH1 0x0 DUP1 REVERT JUMPDEST DUP2 CALLDATALOAD DUP2 DUP2 GT ISZERO PUSH2 0x2707 JUMPI PUSH2 0x2707 PUSH2 0x26A0 JUMP JUMPDEST DUP1 PUSH1 0x5 SHL PUSH1 0x40 MLOAD PUSH1 0x1F NOT PUSH1 0x3F DUP4 ADD AND DUP2 ADD DUP2 DUP2 LT DUP6 DUP3 GT OR ISZERO PUSH2 0x272C JUMPI PUSH2 0x272C PUSH2 0x26A0 JUMP JUMPDEST PUSH1 0x40 MSTORE SWAP2 DUP3 MSTORE DUP5 DUP3 ADD SWAP3 POP DUP4 DUP2 ADD DUP6 ADD SWAP2 DUP9 DUP4 GT ISZERO PUSH2 0x274A JUMPI PUSH1 0x0 DUP1 REVERT JUMPDEST SWAP4 DUP6 ADD SWAP4 JUMPDEST DUP3 DUP6 LT ISZERO PUSH2 0x2768 JUMPI DUP5 CALLDATALOAD DUP5 MSTORE SWAP4 DUP6 ADD SWAP4 SWAP3 DUP6 ADD SWAP3 PUSH2 0x274F JUMP JUMPDEST SWAP9 SWAP8 POP POP POP POP POP POP POP POP JUMP JUMPDEST PUSH1 0x0 PUSH1 0x20 DUP1 DUP4 MSTORE DUP4 MLOAD DUP1 DUP3 DUP6 ADD MSTORE PUSH1 0x0 JUMPDEST DUP2 DUP2 LT ISZERO PUSH2 0x27A1 JUMPI DUP6 DUP2 ADD DUP4 ADD MLOAD DUP6 DUP3 ADD PUSH1 0x40 ADD MSTORE DUP3 ADD PUSH2 0x2785 JUMP JUMPDEST POP PUSH1 0x0 PUSH1 0x40 DUP3 DUP7 ADD ADD MSTORE PUSH1 0x40 PUSH1 0x1F NOT PUSH1 0x1F DUP4 ADD AND DUP6 ADD ADD SWAP3 POP POP POP SWAP3 SWAP2 POP POP JUMP JUMPDEST PUSH1 0x0 DUP1 PUSH1 0x0 PUSH1 0x60 DUP5 DUP7 SUB SLT ISZERO PUSH2 0x27D7 JUMPI PUSH1 0x0 DUP1 REVERT JUMPDEST DUP4 CALLDATALOAD SWAP3 POP PUSH2 0x27E7 PUSH1 0x20 DUP6 ADD PUSH2 0x25BF JUMP JUMPDEST SWAP2 POP PUSH1 0x40 DUP5 ADD CALLDATALOAD SWAP1 POP SWAP3 POP SWAP3 POP SWAP3 JUMP JUMPDEST PUSH1 0x0 DUP1 PUSH1 0x0 DUP1 PUSH1 0x0 DUP1 PUSH1 0x0 PUSH1 0xE0 DUP9 DUP11 SUB SLT ISZERO PUSH2 0x2812 JUMPI PUSH1 0x0 DUP1 REVERT JUMPDEST PUSH2 0x281B DUP9 PUSH2 0x25BF JUMP JUMPDEST SWAP7 POP PUSH2 0x2829 PUSH1 0x20 DUP10 ADD PUSH2 0x25BF JUMP JUMPDEST SWAP6 POP PUSH1 0x40 DUP9 ADD CALLDATALOAD SWAP5 POP PUSH1 0x60 DUP9 ADD CALLDATALOAD SWAP4 POP PUSH1 0x80 DUP9 ADD CALLDATALOAD SWAP3 POP PUSH1 0xA0 DUP9 ADD CALLDATALOAD SWAP2 POP PUSH1 0xC0 DUP9 ADD CALLDATALOAD PUSH2 0xFFFF DUP2 AND DUP2 EQ PUSH2 0x285C JUMPI PUSH1 0x0 DUP1 REVERT JUMPDEST DUP1 SWAP2 POP POP SWAP3 SWAP6 SWAP9 SWAP2 SWAP5 SWAP8 POP SWAP3 SWAP6 POP JUMP JUMPDEST PUSH1 0x20 DUP1 DUP3 MSTORE PUSH1 0x7 SWAP1 DUP3 ADD MSTORE PUSH7 0x746F6B656E3D3 PUSH1 0xCC SHL PUSH1 0x40 DUP3 ADD MSTORE PUSH1 0x60 ADD SWAP1 JUMP JUMPDEST PUSH1 0x20 DUP1 DUP3 MSTORE PUSH1 0x4 SWAP1 DUP3 ADD MSTORE PUSH4 0x5A65726F PUSH1 0xE0 SHL PUSH1 0x40 DUP3 ADD MSTORE PUSH1 0x60 ADD SWAP1 JUMP JUMPDEST PUSH1 0x0 PUSH1 0x20 DUP3 DUP5 SUB SLT ISZERO PUSH2 0x28BD JUMPI PUSH1 0x0 DUP1 REVERT JUMPDEST DUP2 MLOAD DUP1 ISZERO ISZERO DUP2 EQ PUSH2 0x7CB JUMPI PUSH1 0x0 DUP1 REVERT JUMPDEST PUSH1 0x20 DUP1 DUP3 MSTORE PUSH1 0x9 SWAP1 DUP3 ADD MSTORE PUSH9 0x626164207072696365 PUSH1 0xB8 SHL PUSH1 0x40 DUP3 ADD MSTORE PUSH1 0x60 ADD SWAP1 JUMP JUMPDEST DUP1 DUP3 MUL DUP2 ISZERO DUP3 DUP3 DIV DUP5 EQ OR PUSH2 0xCA4 JUMPI PUSH2 0xCA4 PUSH2 0x2596 JUMP JUMPDEST PUSH4 0x4E487B71 PUSH1 0xE0 SHL PUSH1 0x0 MSTORE PUSH1 0x12 PUSH1 0x4 MSTORE PUSH1 0x24 PUSH1 0x0 REVERT JUMPDEST PUSH1 0x0 DUP3 PUSH2 0x292C JUMPI PUSH2 0x292C PUSH2 0x2907 JUMP JUMPDEST POP DIV SWAP1 JUMP JUMPDEST DUP2 DUP2 SUB DUP2 DUP2 GT ISZERO PUSH2 0xCA4 JUMPI PUSH2 0xCA4 PUSH2 0x2596 JUMP JUMPDEST PUSH1 0x0 PUSH1 0x1 DUP3 ADD PUSH2 0x2956 JUMPI PUSH2 0x2956 PUSH2 0x2596 JUMP JUMPDEST POP PUSH1 0x1 ADD SWAP1 JUMP JUMPDEST PUSH1 0x0 PUSH1 0x20 DUP3 DUP5 SUB SLT ISZERO PUSH2 0x296F JUMPI PUSH1 0x0 DUP1 REVERT JUMPDEST DUP2 MLOAD PUSH1 0xFF DUP2 AND DUP2 EQ PUSH2 0x7CB JUMPI PUSH1 0x0 DUP1 REVERT JUMPDEST PUSH1 0x1 DUP2 DUP2 JUMPDEST DUP1 DUP6 GT ISZERO PUSH2 0x29BB JUMPI DUP2 PUSH1 0x0 NOT DIV DUP3 GT ISZERO PUSH2 0x29A1 JUMPI PUSH2 0x29A1 PUSH2 0x2596 JUMP JUMPDEST DUP1 DUP6 AND ISZERO PUSH2 0x29AE JUMPI SWAP2 DUP2 MUL SWAP2 JUMPDEST SWAP4 DUP5 SHR SWAP4 SWAP1 DUP1 MUL SWAP1 PUSH2 0x2985 JUMP JUMPDEST POP SWAP3 POP SWAP3 SWAP1 POP JUMP JUMPDEST PUSH1 0x0 DUP3 PUSH2 0x29D2 JUMPI POP PUSH1 0x1 PUSH2 0xCA4 JUMP JUMPDEST DUP2 PUSH2 0x29DF JUMPI POP PUSH1 0x0 PUSH2 0xCA4 JUMP JUMPDEST DUP2 PUSH1 0x1 DUP2 EQ PUSH2 0x29F5 JUMPI PUSH1 0x2 DUP2 EQ PUSH2 0x29FF JUMPI PUSH2 0x2A1B JUMP JUMPDEST PUSH1 0x1 SWAP2 POP POP PUSH2 0xCA4 JUMP JUMPDEST PUSH1 0xFF DUP5 GT ISZERO PUSH2 0x2A10 JUMPI PUSH2 0x2A10 PUSH2 0x2596 JUMP JUMPDEST POP POP PUSH1 0x1 DUP3 SHL PUSH2 0xCA4 JUMP JUMPDEST POP PUSH1 0x20 DUP4 LT PUSH2 0x133 DUP4 LT AND PUSH1 0x4E DUP5 LT PUSH1 0xB DUP5 LT AND OR ISZERO PUSH2 0x2A3E JUMPI POP DUP2 DUP2 EXP PUSH2 0xCA4 JUMP JUMPDEST PUSH2 0x2A48 DUP4 DUP4 PUSH2 0x2980 JUMP JUMPDEST DUP1 PUSH1 0x0 NOT DIV DUP3 GT ISZERO PUSH2 0x2A5C JUMPI PUSH2 0x2A5C PUSH2 0x2596 JUMP JUMPDEST MUL SWAP4 SWAP3 POP POP POP JUMP JUMPDEST PUSH1 0x0 PUSH2 0x7CB DUP4 DUP4 PUSH2 0x29C3 JUMP JUMPDEST PUSH4 0x4E487B71 PUSH1 0xE0 SHL PUSH1 0x0 MSTORE PUSH1 0x32 PUSH1 0x4 MSTORE PUSH1 0x24 PUSH1 0x0 REVERT JUMPDEST PUSH1 0x0 DUP3 PUSH2 0x2A95 JUMPI PUSH2 0x2A95 PUSH2 0x2907 JUMP JUMPDEST POP MOD SWAP1 JUMP INVALID LOG2 PUSH5 0x6970667358 0x22 SLT KECCAK256 0xF7 0xBE 0x4F 0xBB 0xC 0xBE 0xDB PC 0xE2 0xD2 0x5C 0xD CREATE 0xC5 0xF8 SWAP8 PUSH19 0x44A1A0011A01314A6D440AF68C3A7264736F6C PUSH4 0x43000814 STOP CALLER "},"methodIdentifiers":{"aggregateValues(uint256[])":"b24ebfcc","cancel()":"ea8a1af0","charge(address)":"fc6bd76a","depositETH()":"f6326fb3","depositToken(address,uint256)":"338b5dea","ethBalances(address)":"3cfba0e3","extractTimestampsAndAssertAllAreEqual()":"55a547d5","getAuthorisedSignerIndex(address)":"3ce142f5","getDataServiceId()":"c274583a","getUniqueSignersThreshold()":"f90c4924","nextChargeDueAt(address)":"b4ee623e","plans(address)":"86d86d84","quoteEthForUsdCents(uint256)":"460b410d","quoteTokenForUsdCents(bytes32,address,uint256)":"d7e85ff0","subscribe(address,uint256,uint256,uint256)":"4907cd0f","subscribeAdvanced(address,address,bytes32,uint256,uint256,uint256,uint16)":"fadc04f4","tokenBalances(address,address)":"4dbf6c5a","validateTimestamp(uint256)":"f50b2efe","withdrawETH(uint256)":"f14210a6","withdrawToken(address,uint256)":"9e281a98"}}}}}