{"contracts/UsdSubscription.sol":{"UsdSubscription":{"abi":[{"inputs":[],"name":"CalldataMustHaveValidPayload","type":"error"},{"inputs":[],"name":"CalldataOverOrUnderFlow","type":"error"},{"inputs":[],"name":"CanNotPickMedianOfEmptyArray","type":"error"},{"inputs":[],"name":"DataPackageTimestampMustNotBeZero","type":"error"},{"inputs":[],"name":"DataPackageTimestampsMustBeEqual","type":"error"},{"inputs":[],"name":"DataTimestampCannotBeZero","type":"error"},{"inputs":[],"name":"EachSignerMustProvideTheSameValue","type":"error"},{"inputs":[],"name":"EmptyCalldataPointersArr","type":"error"},{"inputs":[],"name":"GetDataServiceIdNotImplemented","type":"error"},{"inputs":[],"name":"IncorrectUnsignedMetadataSize","type":"error"},{"inputs":[{"internalType":"uint256","name":"receivedSignersCount","type":"uint256"},{"internalType":"uint256","name":"requiredSignersCount","type":"uint256"}],"name":"InsufficientNumberOfUniqueSigners","type":"error"},{"inputs":[],"name":"InvalidCalldataPointer","type":"error"},{"inputs":[{"internalType":"bytes32","name":"signedHash","type":"bytes32"}],"name":"InvalidSignature","type":"error"},{"inputs":[],"name":"RedstonePayloadMustHaveAtLeastOneDataPackage","type":"error"},{"inputs":[{"internalType":"address","name":"receivedSigner","type":"address"}],"name":"SignerNotAuthorised","type":"error"},{"inputs":[{"internalType":"uint256","name":"receivedTimestampSeconds","type":"uint256"},{"internalType":"uint256","name":"blockTimestamp","type":"uint256"}],"name":"TimestampFromTooLongFuture","type":"error"},{"inputs":[{"internalType":"uint256","name":"receivedTimestampSeconds","type":"uint256"},{"internalType":"uint256","name":"blockTimestamp","type":"uint256"}],"name":"TimestampIsTooOld","type":"error"},{"inputs":[],"name":"TimestampsMustBeEqual","type":"error"},{"inputs":[{"internalType":"uint256","name":"valueByteSize","type":"uint256"}],"name":"TooLargeValueByteSize","type":"error"},{"anonymous":false,"inputs":[{"indexed":true,"internalType":"address","name":"payer","type":"address"}],"name":"Cancelled","type":"event"},{"anonymous":false,"inputs":[{"indexed":true,"internalType":"address","name":"payer","type":"address"},{"indexed":true,"internalType":"address","name":"merchant","type":"address"},{"indexed":false,"internalType":"uint256","name":"usdCents","type":"uint256"},{"indexed":false,"internalType":"uint256","name":"priceEthUsd_8","type":"uint256"},{"indexed":false,"internalType":"uint256","name":"paidEthWei","type":"uint256"},{"indexed":false,"internalType":"uint256","name":"nextChargeAt","type":"uint256"}],"name":"Charged","type":"event"},{"anonymous":false,"inputs":[{"indexed":true,"internalType":"address","name":"payer","type":"address"},{"indexed":false,"internalType":"uint256","name":"amount","type":"uint256"}],"name":"Deposited","type":"event"},{"anonymous":false,"inputs":[{"indexed":true,"internalType":"address","name":"payer","type":"address"},{"indexed":true,"internalType":"address","name":"merchant","type":"address"},{"indexed":false,"internalType":"uint256","name":"usdCentsPerPeriod","type":"uint256"},{"indexed":false,"internalType":"uint256","name":"period","type":"uint256"},{"indexed":false,"internalType":"uint256","name":"maxEthPerChargeWei","type":"uint256"}],"name":"Subscribed","type":"event"},{"anonymous":false,"inputs":[{"indexed":true,"internalType":"address","name":"payer","type":"address"},{"indexed":false,"internalType":"uint256","name":"amount","type":"uint256"}],"name":"Withdrawn","type":"event"},{"inputs":[{"internalType":"uint256[]","name":"values","type":"uint256[]"}],"name":"aggregateValues","outputs":[{"internalType":"uint256","name":"","type":"uint256"}],"stateMutability":"view","type":"function"},{"inputs":[],"name":"cancel","outputs":[],"stateMutability":"nonpayable","type":"function"},{"inputs":[{"internalType":"address","name":"payer","type":"address"}],"name":"charge","outputs":[],"stateMutability":"nonpayable","type":"function"},{"inputs":[],"name":"depositETH","outputs":[],"stateMutability":"payable","type":"function"},{"inputs":[{"internalType":"address","name":"","type":"address"}],"name":"ethBalances","outputs":[{"internalType":"uint256","name":"","type":"uint256"}],"stateMutability":"view","type":"function"},{"inputs":[],"name":"extractTimestampsAndAssertAllAreEqual","outputs":[{"internalType":"uint256","name":"extractedTimestamp","type":"uint256"}],"stateMutability":"pure","type":"function"},{"inputs":[{"internalType":"address","name":"signerAddress","type":"address"}],"name":"getAllMockAuthorised","outputs":[{"internalType":"uint8","name":"","type":"uint8"}],"stateMutability":"view","type":"function"},{"inputs":[{"internalType":"address","name":"signerAddress","type":"address"}],"name":"getAllMockExceptLastOneAuthorised","outputs":[{"internalType":"uint8","name":"","type":"uint8"}],"stateMutability":"view","type":"function"},{"inputs":[{"internalType":"address","name":"signerAddress","type":"address"}],"name":"getAuthorisedMockSignerIndex","outputs":[{"internalType":"uint8","name":"","type":"uint8"}],"stateMutability":"view","type":"function"},{"inputs":[{"internalType":"address","name":"receivedSigner","type":"address"}],"name":"getAuthorisedSignerIndex","outputs":[{"internalType":"uint8","name":"","type":"uint8"}],"stateMutability":"view","type":"function"},{"inputs":[],"name":"getDataServiceId","outputs":[{"internalType":"string","name":"","type":"string"}],"stateMutability":"view","type":"function"},{"inputs":[],"name":"getUniqueSignersThreshold","outputs":[{"internalType":"uint8","name":"","type":"uint8"}],"stateMutability":"pure","type":"function"},{"inputs":[{"internalType":"address","name":"payer","type":"address"}],"name":"nextChargeDueAt","outputs":[{"internalType":"uint256","name":"","type":"uint256"}],"stateMutability":"view","type":"function"},{"inputs":[{"internalType":"address","name":"","type":"address"}],"name":"plans","outputs":[{"internalType":"address","name":"merchant","type":"address"},{"internalType":"uint256","name":"usdCentsPerPeriod","type":"uint256"},{"internalType":"uint256","name":"period","type":"uint256"},{"internalType":"uint256","name":"lastCharged","type":"uint256"},{"internalType":"uint256","name":"maxEthPerChargeWei","type":"uint256"},{"internalType":"bool","name":"active","type":"bool"}],"stateMutability":"view","type":"function"},{"inputs":[{"internalType":"uint256","name":"usdCents","type":"uint256"}],"name":"quoteEthForUsdCents","outputs":[{"internalType":"uint256","name":"ethWei","type":"uint256"}],"stateMutability":"view","type":"function"},{"inputs":[{"internalType":"address","name":"merchant","type":"address"},{"internalType":"uint256","name":"usdCentsPerPeriod","type":"uint256"},{"internalType":"uint256","name":"period","type":"uint256"},{"internalType":"uint256","name":"maxEthPerChargeWei","type":"uint256"}],"name":"subscribe","outputs":[],"stateMutability":"nonpayable","type":"function"},{"inputs":[{"internalType":"uint256","name":"receivedTimestampMilliseconds","type":"uint256"}],"name":"validateTimestamp","outputs":[],"stateMutability":"view","type":"function"},{"inputs":[{"internalType":"uint256","name":"amount","type":"uint256"}],"name":"withdrawETH","outputs":[],"stateMutability":"nonpayable","type":"function"},{"stateMutability":"payable","type":"receive"}],"evm":{"bytecode":{"linkReferences":{},"object":"608060405234801561001057600080fd5b50611f21806100206000396000f3fe60806040526004361061010d5760003560e01c8063b4ee623e11610095578063f14210a611610064578063f14210a6146103ab578063f50b2efe146103cb578063f6326fb3146103eb578063f90c4924146103f3578063fc6bd76a1461040757600080fd5b8063b4ee623e14610334578063c274583a14610354578063d22158fa14610376578063ea8a1af01461039657600080fd5b80634907cd0f116100dc5780634907cd0f1461022457806355a547d51461024657806386d86d841461025b57806395262d9f146102f4578063b24ebfcc1461031457600080fd5b80633ce142f5146101725780633cfba0e3146101a9578063429989f0146101e4578063460b410d1461020457600080fd5b3661016d573360009081526020819052604081208054349290610131908490611c9b565b909155505060405134815233907f2da466a7b24304f47e87fa2e1e5a81b9831ce54fec19055ce277ca2f39ba42c49060200160405180910390a2005b600080fd5b34801561017e57600080fd5b5061019261018d366004611cc5565b610427565b60405160ff90911681526020015b60405180910390f35b3480156101b557600080fd5b506101d66101c4366004611cc5565b60006020819052908152604090205481565b6040519081526020016101a0565b3480156101f057600080fd5b506101926101ff366004611cc5565b610438565b34801561021057600080fd5b506101d661021f366004611ce0565b6107d8565b34801561023057600080fd5b5061024461023f366004611cf9565b61084e565b005b34801561025257600080fd5b506101d66109df565b34801561026757600080fd5b506102bb610276366004611cc5565b60016020819052600091825260409091208054918101546002820154600383015460048401546005909401546001600160a01b03909516949293919290919060ff1686565b604080516001600160a01b03909716875260208701959095529385019290925260608401526080830152151560a082015260c0016101a0565b34801561030057600080fd5b5061019261030f366004611cc5565b610aed565b34801561032057600080fd5b506101d661032f366004611d48565b610af8565b34801561034057600080fd5b506101d661034f366004611cc5565b610b03565b34801561036057600080fd5b50610369610b59565b6040516101a09190611e06565b34801561038257600080fd5b50610192610391366004611cc5565b610b74565b3480156103a257600080fd5b50610244610bc7565b3480156103b757600080fd5b506102446103c6366004611ce0565b610c4e565b3480156103d757600080fd5b506102446103e6366004611ce0565b610dab565b610244610db7565b3480156103ff57600080fd5b506001610192565b34801561041357600080fd5b50610244610422366004611cc5565b610e4b565b600061043282610438565b92915050565b60006001600160a01b03821673f39fd6e51aad88f6f4ce6ab8827279cfffb922660361046657506000919050565b6001600160a01b0382167370997970c51812dc3a010c7d01b50e0d17dc79c80361049257506001919050565b6001600160a01b038216733c44cdddb6a900fa2b585dd299e03d12fa4293bc036104be57506002919050565b6001600160a01b0382167390f79bf6eb2c4f870365e785982e1f101e93b906036104ea57506003919050565b6001600160a01b0382167315d34aaf54267db7d7c367839aaf71a00a2c6a650361051657506004919050565b6001600160a01b038216739965507d1a55bcc2695c58ba16fb37d819b0a4dc0361054257506005919050565b6001600160a01b03821673976ea74026e726554db657fa54763abd0c3a0aa90361056e57506006919050565b6001600160a01b0382167314dc79964da2c08b23698b3d3cc7ca32193d99550361059a57506007919050565b6001600160a01b0382167323618e81e3f5cdf7f54c3d65f7fbc0abf5b21e8f036105c657506008919050565b6001600160a01b03821673a0ee7a142d267c1f36714e4a8f75612f20a79720036105f257506009919050565b6001600160a01b03821673bcd4042de499d14e55001ccbb24a551f3b9540960361061e5750600a919050565b6001600160a01b0382167371be63f3384f5fb98995898a86b02fb2426c57880361064a5750600b919050565b6001600160a01b03821673fabb0ac9d68b0b445fb7357272ff202c5651694a036106765750600c919050565b6001600160a01b038216731cbd3b2770909d4e10f157cabc84c7264073c9ec036106a25750600d919050565b6001600160a01b03821673df3e18d64bc6a983f673ab319ccae4f1a57c7097036106ce5750600e919050565b6001600160a01b03821673cd3b766ccdd6ae721141f452c550ca635964ce71036106fa5750600f919050565b6001600160a01b038216732546bcd3c84621e976d8185a91a922ae77ecec300361072657506010919050565b6001600160a01b03821673bda5747bfd65f08deb54cb465eb87d40e51b197e0361075257506011919050565b6001600160a01b03821673dd2fd4581271e230360230f9337d5c0430bf44c00361077e57506012919050565b6001600160a01b038216738626f6940e2eb28930efb4cef49b2d1f2c9c1199036107aa57506013919050565b6040516303b1166f60e61b81526001600160a01b03831660048201526024015b60405180910390fd5b919050565b6000806107ea6208aa8960eb1b611153565b9050600081116108285760405162461bcd60e51b815260206004820152600960248201526862616420707269636560b81b60448201526064016107ca565b8061083d8469d3c21bcecceda1000000611e54565b6108479190611e81565b9392505050565b6001600160a01b0384166108915760405162461bcd60e51b815260206004820152600a60248201526906d65726368616e743d360b41b60448201526064016107ca565b600083116108cb5760405162461bcd60e51b8152602060048201526007602482015266070726963653d360cc1b60448201526064016107ca565b600082116109065760405162461bcd60e51b81526020600482015260086024820152670706572696f643d360c41b60448201526064016107ca565b6040805160c0810182526001600160a01b03868116808352602080840188815284860188815260006060808801828152608089018b8152600160a08b0181815233808752828a52958d90209b518c546001600160a01b0319169b169a909a178b559551958a019590955592516002890155915160038801559151600487015593516005909501805460ff1916951515959095179094558451888152908101879052938401859052927f1faf2b5a74c296487268de9f9e3ddf269ca3980197cda4ee5c927ac895aeee88910160405180910390a350505050565b6000806109ea6111c3565b905060006109f78261126a565b925061ffff1690506000819003610a2157604051632154bfcf60e21b815260040160405180910390fd5b60005b81811015610ae7576000610a37846112b9565b9050600080610a47606887611c9b565b90506000610a558236611e95565b9050803592508265ffffffffffff16600003610a8457604051630336dc9d60e41b815260040160405180910390fd5b87600003610a9c578265ffffffffffff169750610ac4565b878365ffffffffffff1614610ac45760405163d9d1f46560e01b815260040160405180910390fd5b610ace8488611c9b565b9650505050508080610adf90611ea8565b915050610a24565b50505090565b600061043282610b74565b6000610432826112f5565b6001600160a01b0381166000908152600160205260408120600581015460ff16610b31575060001992915050565b8060030154600003610b4557504292915050565b806002015481600301546108479190611c9b565b606060405163608b530760e01b815260040160405180910390fd5b60006001600160a01b038216738626f6940e2eb28930efb4cef49b2d1f2c9c119903610bbe576040516303b1166f60e61b81526001600160a01b03831660048201526024016107ca565b61043282610438565b336000908152600160205260409020600581015460ff16610c145760405162461bcd60e51b8152602060048201526007602482015266373790383630b760c91b60448201526064016107ca565b60058101805460ff1916905560405133907f398bd6b21ae4164ec322fb0eb8c2eb6277f36fd41903fbbed594dfe12559128190600090a250565b60008111610c875760405162461bcd60e51b81526004016107ca906020808252600490820152635a65726f60e01b604082015260600190565b3360009081526020819052604090205481811015610cd65760405162461bcd60e51b815260206004820152600c60248201526b125b9cdd59999a58da595b9d60a21b60448201526064016107ca565b3360008181526020819052604080822085850390555190919084908381818185875af1925050503d8060008114610d29576040519150601f19603f3d011682016040523d82523d6000602084013e610d2e565b606091505b5050905080610d715760405162461bcd60e51b815260206004820152600f60248201526e15da5d1a191c985dc819985a5b1959608a1b60448201526064016107ca565b60405183815233907f7084f5476618d8e60b11ef0d7d3f06914655adb8793e28ff7f018d4c76d505d59060200160405180910390a2505050565b610db481611300565b50565b60003411610df05760405162461bcd60e51b815260206004820152600660248201526509cde408aa8960d31b60448201526064016107ca565b3360009081526020819052604081208054349290610e0f908490611c9b565b909155505060405134815233907f2da466a7b24304f47e87fa2e1e5a81b9831ce54fec19055ce277ca2f39ba42c49060200160405180910390a2565b6001600160a01b0381166000908152600160205260409020600581015460ff16610ea15760405162461bcd60e51b8152602060048201526007602482015266373790383630b760c91b60448201526064016107ca565b610eaa82610b03565b421015610ee35760405162461bcd60e51b81526020600482015260076024820152666e6f742064756560c81b60448201526064016107ca565b6000610ef46208aa8960eb1b611153565b905060008111610f325760405162461bcd60e51b815260206004820152600960248201526862616420707269636560b81b60448201526064016107ca565b6001820154600082610f4e8369d3c21bcecceda1000000611e54565b610f589190611e81565b905060008111610f935760405162461bcd60e51b81526004016107ca9060208082526004908201526374696e7960e01b604082015260600190565b836004015481111580610fa857506004840154155b610fe25760405162461bcd60e51b815260206004820152600b60248201526a065786365656473206361760ac1b60448201526064016107ca565b6001600160a01b0385166000908152602081905260409020548111156110415760405162461bcd60e51b8152602060048201526014602482015273696e73756666696369656e742062616c616e636560601b60448201526064016107ca565b6001600160a01b0385811660009081526020819052604080822080548590039055865490519192169083908381818185875af1925050503d80600081146110a4576040519150601f19603f3d011682016040523d82523d6000602084013e6110a9565b606091505b50509050806110e55760405162461bcd60e51b81526020600482015260086024820152671c185e4819985a5b60c21b60448201526064016107ca565b42600386015584546001600160a01b039081169087167fb3e1a1d5eec96c841d90f413aa5261898365653f66cd2769cffe66bbfb28c7a08587866111288c610b03565b60408051948552602085019390935291830152606082015260800160405180910390a3505050505050565b60408051600180825281830190925260009182919060208083019080368337019050509050828160008151811061118c5761118c611ec1565b6020026020010181815250506111a181611384565b6000815181106111b3576111b3611ec1565b6020026020010151915050919050565b60006602ed57011e0000601f19360135811614806111f4576040516373bb264f60e11b815260040160405180910390fd5b6000366029111561121857604051632bcb7bc560e11b815260040160405180910390fd5b5060281936013560006009611233600362ffffff8516611c9b565b61123d9190611c9b565b90503661124b600283611c9b565b11156108475760405163c30a7bd760e01b815260040160405180910390fd5b60008080611279602085611c9b565b90503681111561129c57604051632bcb7bc560e11b815260040160405180910390fd5b36819003359250826112af600286611c9b565b9250925050915091565b60008060006112c7846113a6565b9092509050604e6112d9826020611c9b565b6112e39084611e54565b6112ed9190611c9b565b949350505050565b6000610432826113f9565b600061130e6103e883611e81565b90508042101561135057603c6113244283611e95565b111561134c5760405163b6b0916d60e01b8152600481018290524260248201526044016107ca565b5050565b60b461135c8242611e95565b111561134c57604051630321d0b560e01b8152600481018290524260248201526044016107ca565b60606000806113928461150d565b9150915061139f81610dab565b5092915050565b60008080808060206113b9604188611c9b565b6113c39190611c9b565b6113cd9036611e95565b8035935090506113de600382611e95565b62ffffff9390931696923563ffffffff169550919350505050565b600081516002036114505760028260018151811061141957611419611ec1565b60200260200101518360008151811061143457611434611ec1565b60200260200101516114469190611c9b565b6104329190611e81565b815160000361147257604051639e198af960e01b815260040160405180910390fd5b61147b82611728565b60006002835161148b9190611e81565b90506002835161149b9190611ed7565b6000036114fb5760008382815181106114b6576114b6611ec1565b6020026020010151846001846114cc9190611e95565b815181106114dc576114dc611ec1565b60200260200101516114ee9190611c9b565b90506112ed600282611e81565b8281815181106111b3576111b3611ec1565b6060600080835167ffffffffffffffff81111561152c5761152c611d32565b604051908082528060200260200182016040528015611555578160200160208202803683370190505b5090506000845167ffffffffffffffff81111561157457611574611d32565b60405190808252806020026020018201604052801561159d578160200160208202803683370190505b5090506000855167ffffffffffffffff8111156115bc576115bc611d32565b6040519080825280602002602001820160405280156115ef57816020015b60608152602001906001900390816115da5790505b509050600160005b8751811015611668578167ffffffffffffffff81111561161957611619611d32565b604051908082528060200260200182016040528015611642578160200160208202803683370190505b5083828151811061165557611655611ec1565b60209081029190910101526001016115f7565b5060006116736111c3565b905060006116808261126a565b60405190935061ffff909116915060005b8281101561170f5760006116a88c8a8a8a89611776565b909550905060008190036116cf5760405163dfb25a7960e01b815260040160405180910390fd5b8981146116ff57896000036116e6578099506116ff565b60405163265e23a160e11b815260040160405180910390fd5b5060208201604052600101611691565b5061171a8588611a01565b985050505050505050915091565b8051602082016020820281019150805b8281101561177057815b8181101561176757815181518082101561175d578084528183525b5050602001611742565b50602001611738565b50505050565b6000806000806000611787866113a6565b909250905060008060608180600d6117a0602088611c9b565b6117aa9089611e54565b6117b49190611c9b565b915060006117c360688d611c9b565b6117cd9036611e95565b90506000836117dd60418f611c9b565b6117e79190611c9b565b6117f19036611e95565b90506117fd8482611810565b9450836020860120955081359250611834565b60408051838152602081850181019092526000910183838237601f19019392505050565b8265ffffffffffff169a506118558660418f6118509190611c9b565b611b10565b965061186087610427565b60ff16995050505050505050604e866118799190611c9b565b955060008060005b848110156119ee576020611895858b611c9b565b61189f9190611c9b565b98506118ab8985611c32565b909350915060005b8d518110156119e5578d81815181106118ce576118ce611ec1565b602002602001015184036119dd5760008c82815181106118f0576118f0611ec1565b6020026020010151905061190981896001901b16151590565b1580156119325750600160ff168e838151811061192857611928611ec1565b6020026020010151105b156119d757838c838151811061194a5761194a611ec1565b60200260200101518f848151811061196457611964611ec1565b60200260200101518151811061197c5761197c611ec1565b6020026020010181815250508d828151811061199a5761199a611ec1565b6020026020010180518091906119af90611ea8565b9052506001881b81178d83815181106119ca576119ca611ec1565b6020026020010181815250505b506119e5565b6001016118b3565b50600101611881565b5050508594505050509550959350505050565b60606000835167ffffffffffffffff811115611a1f57611a1f611d32565b604051908082528060200260200182016040528015611a48578160200160208202803683370190505b509050600160005b8551811015611b065781858281518110611a6c57611a6c611ec1565b60200260200101511015611ab957848181518110611a8c57611a8c611ec1565b602002602001015182604051632b13aef560e01b81526004016107ca929190918252602082015260400190565b6000611add878381518110611ad057611ad0611ec1565b6020026020010151610af8565b905080848381518110611af257611af2611ec1565b602090810291909101015250600101611a50565b5090949350505050565b60003682900380359060208101359060400135831a601b8114801590611b3a575060ff8116601c14155b15611b5b57604051633335be5d60e11b8152600481018790526024016107ca565b7f7fffffffffffffffffffffffffffffff5d576e7357a4501ddfe92f46681b20a0821115611b9f57604051633335be5d60e11b8152600481018790526024016107ca565b60408051600081526020810180835288905260ff831691810191909152606081018490526080810183905260019060a0016020604051602081039080840390855afa158015611bf2573d6000803e3d6000fd5b5050604051601f1901519450506001600160a01b038416611c2957604051633335be5d60e11b8152600481018790526024016107ca565b50505092915050565b60008080611c408536611e95565b9050803592506020810135915060218410611c71576040516360007e2160e11b8152600481018590526024016107ca565b8360200360080282901c9150509250929050565b634e487b7160e01b600052601160045260246000fd5b8082018082111561043257610432611c85565b80356001600160a01b03811681146107d357600080fd5b600060208284031215611cd757600080fd5b61084782611cae565b600060208284031215611cf257600080fd5b5035919050565b60008060008060808587031215611d0f57600080fd5b611d1885611cae565b966020860135965060408601359560600135945092505050565b634e487b7160e01b600052604160045260246000fd5b60006020808385031215611d5b57600080fd5b823567ffffffffffffffff80821115611d7357600080fd5b818501915085601f830112611d8757600080fd5b813581811115611d9957611d99611d32565b8060051b604051601f19603f83011681018181108582111715611dbe57611dbe611d32565b604052918252848201925083810185019188831115611ddc57600080fd5b938501935b82851015611dfa57843584529385019392850192611de1565b98975050505050505050565b600060208083528351808285015260005b81811015611e3357858101830151858201604001528201611e17565b506000604082860101526040601f19601f8301168501019250505092915050565b808202811582820484141761043257610432611c85565b634e487b7160e01b600052601260045260246000fd5b600082611e9057611e90611e6b565b500490565b8181038181111561043257610432611c85565b600060018201611eba57611eba611c85565b5060010190565b634e487b7160e01b600052603260045260246000fd5b600082611ee657611ee6611e6b565b50069056fea26469706673582212208b8a55893b21aab9bfb8d4edfbd050a2accde7721c712af71ec64770b2d6cba864736f6c63430008140033","opcodes":"PUSH1 0x80 PUSH1 0x40 MSTORE CALLVALUE DUP1 ISZERO PUSH2 0x10 JUMPI PUSH1 0x0 DUP1 REVERT JUMPDEST POP PUSH2 0x1F21 DUP1 PUSH2 0x20 PUSH1 0x0 CODECOPY PUSH1 0x0 RETURN INVALID PUSH1 0x80 PUSH1 0x40 MSTORE PUSH1 0x4 CALLDATASIZE LT PUSH2 0x10D JUMPI PUSH1 0x0 CALLDATALOAD PUSH1 0xE0 SHR DUP1 PUSH4 0xB4EE623E GT PUSH2 0x95 JUMPI DUP1 PUSH4 0xF14210A6 GT PUSH2 0x64 JUMPI DUP1 PUSH4 0xF14210A6 EQ PUSH2 0x3AB JUMPI DUP1 PUSH4 0xF50B2EFE EQ PUSH2 0x3CB JUMPI DUP1 PUSH4 0xF6326FB3 EQ PUSH2 0x3EB JUMPI DUP1 PUSH4 0xF90C4924 EQ PUSH2 0x3F3 JUMPI DUP1 PUSH4 0xFC6BD76A EQ PUSH2 0x407 JUMPI PUSH1 0x0 DUP1 REVERT JUMPDEST DUP1 PUSH4 0xB4EE623E EQ PUSH2 0x334 JUMPI DUP1 PUSH4 0xC274583A EQ PUSH2 0x354 JUMPI DUP1 PUSH4 0xD22158FA EQ PUSH2 0x376 JUMPI DUP1 PUSH4 0xEA8A1AF0 EQ PUSH2 0x396 JUMPI PUSH1 0x0 DUP1 REVERT JUMPDEST DUP1 PUSH4 0x4907CD0F GT PUSH2 0xDC JUMPI DUP1 PUSH4 0x4907CD0F EQ PUSH2 0x224 JUMPI DUP1 PUSH4 0x55A547D5 EQ PUSH2 0x246 JUMPI DUP1 PUSH4 0x86D86D84 EQ PUSH2 0x25B JUMPI DUP1 PUSH4 0x95262D9F EQ PUSH2 0x2F4 JUMPI DUP1 PUSH4 0xB24EBFCC EQ PUSH2 0x314 JUMPI PUSH1 0x0 DUP1 REVERT JUMPDEST DUP1 PUSH4 0x3CE142F5 EQ PUSH2 0x172 JUMPI DUP1 PUSH4 0x3CFBA0E3 EQ PUSH2 0x1A9 JUMPI DUP1 PUSH4 0x429989F0 EQ PUSH2 0x1E4 JUMPI DUP1 PUSH4 0x460B410D EQ PUSH2 0x204 JUMPI PUSH1 0x0 DUP1 REVERT JUMPDEST CALLDATASIZE PUSH2 0x16D JUMPI CALLER PUSH1 0x0 SWAP1 DUP2 MSTORE PUSH1 0x20 DUP2 SWAP1 MSTORE PUSH1 0x40 DUP2 KECCAK256 DUP1 SLOAD CALLVALUE SWAP3 SWAP1 PUSH2 0x131 SWAP1 DUP5 SWAP1 PUSH2 0x1C9B JUMP JUMPDEST SWAP1 SWAP2 SSTORE POP POP PUSH1 0x40 MLOAD CALLVALUE DUP2 MSTORE CALLER SWAP1 PUSH32 0x2DA466A7B24304F47E87FA2E1E5A81B9831CE54FEC19055CE277CA2F39BA42C4 SWAP1 PUSH1 0x20 ADD PUSH1 0x40 MLOAD DUP1 SWAP2 SUB SWAP1 LOG2 STOP JUMPDEST PUSH1 0x0 DUP1 REVERT JUMPDEST CALLVALUE DUP1 ISZERO PUSH2 0x17E JUMPI PUSH1 0x0 DUP1 REVERT JUMPDEST POP PUSH2 0x192 PUSH2 0x18D CALLDATASIZE PUSH1 0x4 PUSH2 0x1CC5 JUMP JUMPDEST PUSH2 0x427 JUMP JUMPDEST PUSH1 0x40 MLOAD PUSH1 0xFF SWAP1 SWAP2 AND DUP2 MSTORE PUSH1 0x20 ADD JUMPDEST PUSH1 0x40 MLOAD DUP1 SWAP2 SUB SWAP1 RETURN JUMPDEST CALLVALUE DUP1 ISZERO PUSH2 0x1B5 JUMPI PUSH1 0x0 DUP1 REVERT JUMPDEST POP PUSH2 0x1D6 PUSH2 0x1C4 CALLDATASIZE PUSH1 0x4 PUSH2 0x1CC5 JUMP JUMPDEST PUSH1 0x0 PUSH1 0x20 DUP2 SWAP1 MSTORE SWAP1 DUP2 MSTORE PUSH1 0x40 SWAP1 KECCAK256 SLOAD DUP2 JUMP JUMPDEST PUSH1 0x40 MLOAD SWAP1 DUP2 MSTORE PUSH1 0x20 ADD PUSH2 0x1A0 JUMP JUMPDEST CALLVALUE DUP1 ISZERO PUSH2 0x1F0 JUMPI PUSH1 0x0 DUP1 REVERT JUMPDEST POP PUSH2 0x192 PUSH2 0x1FF CALLDATASIZE PUSH1 0x4 PUSH2 0x1CC5 JUMP JUMPDEST PUSH2 0x438 JUMP JUMPDEST CALLVALUE DUP1 ISZERO PUSH2 0x210 JUMPI PUSH1 0x0 DUP1 REVERT JUMPDEST POP PUSH2 0x1D6 PUSH2 0x21F CALLDATASIZE PUSH1 0x4 PUSH2 0x1CE0 JUMP JUMPDEST PUSH2 0x7D8 JUMP JUMPDEST CALLVALUE DUP1 ISZERO PUSH2 0x230 JUMPI PUSH1 0x0 DUP1 REVERT JUMPDEST POP PUSH2 0x244 PUSH2 0x23F CALLDATASIZE PUSH1 0x4 PUSH2 0x1CF9 JUMP JUMPDEST PUSH2 0x84E JUMP JUMPDEST STOP JUMPDEST CALLVALUE DUP1 ISZERO PUSH2 0x252 JUMPI PUSH1 0x0 DUP1 REVERT JUMPDEST POP PUSH2 0x1D6 PUSH2 0x9DF JUMP JUMPDEST CALLVALUE DUP1 ISZERO PUSH2 0x267 JUMPI PUSH1 0x0 DUP1 REVERT JUMPDEST POP PUSH2 0x2BB PUSH2 0x276 CALLDATASIZE PUSH1 0x4 PUSH2 0x1CC5 JUMP JUMPDEST PUSH1 0x1 PUSH1 0x20 DUP2 SWAP1 MSTORE PUSH1 0x0 SWAP2 DUP3 MSTORE PUSH1 0x40 SWAP1 SWAP2 KECCAK256 DUP1 SLOAD SWAP2 DUP2 ADD SLOAD PUSH1 0x2 DUP3 ADD SLOAD PUSH1 0x3 DUP4 ADD SLOAD PUSH1 0x4 DUP5 ADD SLOAD PUSH1 0x5 SWAP1 SWAP5 ADD SLOAD PUSH1 0x1 PUSH1 0x1 PUSH1 0xA0 SHL SUB SWAP1 SWAP6 AND SWAP5 SWAP3 SWAP4 SWAP2 SWAP3 SWAP1 SWAP2 SWAP1 PUSH1 0xFF AND DUP7 JUMP JUMPDEST PUSH1 0x40 DUP1 MLOAD PUSH1 0x1 PUSH1 0x1 PUSH1 0xA0 SHL SUB SWAP1 SWAP8 AND DUP8 MSTORE PUSH1 0x20 DUP8 ADD SWAP6 SWAP1 SWAP6 MSTORE SWAP4 DUP6 ADD SWAP3 SWAP1 SWAP3 MSTORE PUSH1 0x60 DUP5 ADD MSTORE PUSH1 0x80 DUP4 ADD MSTORE ISZERO ISZERO PUSH1 0xA0 DUP3 ADD MSTORE PUSH1 0xC0 ADD PUSH2 0x1A0 JUMP JUMPDEST CALLVALUE DUP1 ISZERO PUSH2 0x300 JUMPI PUSH1 0x0 DUP1 REVERT JUMPDEST POP PUSH2 0x192 PUSH2 0x30F CALLDATASIZE PUSH1 0x4 PUSH2 0x1CC5 JUMP JUMPDEST PUSH2 0xAED JUMP JUMPDEST CALLVALUE DUP1 ISZERO PUSH2 0x320 JUMPI PUSH1 0x0 DUP1 REVERT JUMPDEST POP PUSH2 0x1D6 PUSH2 0x32F CALLDATASIZE PUSH1 0x4 PUSH2 0x1D48 JUMP JUMPDEST PUSH2 0xAF8 JUMP JUMPDEST CALLVALUE DUP1 ISZERO PUSH2 0x340 JUMPI PUSH1 0x0 DUP1 REVERT JUMPDEST POP PUSH2 0x1D6 PUSH2 0x34F CALLDATASIZE PUSH1 0x4 PUSH2 0x1CC5 JUMP JUMPDEST PUSH2 0xB03 JUMP JUMPDEST CALLVALUE DUP1 ISZERO PUSH2 0x360 JUMPI PUSH1 0x0 DUP1 REVERT JUMPDEST POP PUSH2 0x369 PUSH2 0xB59 JUMP JUMPDEST PUSH1 0x40 MLOAD PUSH2 0x1A0 SWAP2 SWAP1 PUSH2 0x1E06 JUMP JUMPDEST CALLVALUE DUP1 ISZERO PUSH2 0x382 JUMPI PUSH1 0x0 DUP1 REVERT JUMPDEST POP PUSH2 0x192 PUSH2 0x391 CALLDATASIZE PUSH1 0x4 PUSH2 0x1CC5 JUMP JUMPDEST PUSH2 0xB74 JUMP JUMPDEST CALLVALUE DUP1 ISZERO PUSH2 0x3A2 JUMPI PUSH1 0x0 DUP1 REVERT JUMPDEST POP PUSH2 0x244 PUSH2 0xBC7 JUMP JUMPDEST CALLVALUE DUP1 ISZERO PUSH2 0x3B7 JUMPI PUSH1 0x0 DUP1 REVERT JUMPDEST POP PUSH2 0x244 PUSH2 0x3C6 CALLDATASIZE PUSH1 0x4 PUSH2 0x1CE0 JUMP JUMPDEST PUSH2 0xC4E JUMP JUMPDEST CALLVALUE DUP1 ISZERO PUSH2 0x3D7 JUMPI PUSH1 0x0 DUP1 REVERT JUMPDEST POP PUSH2 0x244 PUSH2 0x3E6 CALLDATASIZE PUSH1 0x4 PUSH2 0x1CE0 JUMP JUMPDEST PUSH2 0xDAB JUMP JUMPDEST PUSH2 0x244 PUSH2 0xDB7 JUMP JUMPDEST CALLVALUE DUP1 ISZERO PUSH2 0x3FF JUMPI PUSH1 0x0 DUP1 REVERT JUMPDEST POP PUSH1 0x1 PUSH2 0x192 JUMP JUMPDEST CALLVALUE DUP1 ISZERO PUSH2 0x413 JUMPI PUSH1 0x0 DUP1 REVERT JUMPDEST POP PUSH2 0x244 PUSH2 0x422 CALLDATASIZE PUSH1 0x4 PUSH2 0x1CC5 JUMP JUMPDEST PUSH2 0xE4B JUMP JUMPDEST PUSH1 0x0 PUSH2 0x432 DUP3 PUSH2 0x438 JUMP JUMPDEST SWAP3 SWAP2 POP POP JUMP JUMPDEST PUSH1 0x0 PUSH1 0x1 PUSH1 0x1 PUSH1 0xA0 SHL SUB DUP3 AND PUSH20 0xF39FD6E51AAD88F6F4CE6AB8827279CFFFB92266 SUB PUSH2 0x466 JUMPI POP PUSH1 0x0 SWAP2 SWAP1 POP JUMP JUMPDEST PUSH1 0x1 PUSH1 0x1 PUSH1 0xA0 SHL SUB DUP3 AND PUSH20 0x70997970C51812DC3A010C7D01B50E0D17DC79C8 SUB PUSH2 0x492 JUMPI POP PUSH1 0x1 SWAP2 SWAP1 POP JUMP JUMPDEST PUSH1 0x1 PUSH1 0x1 PUSH1 0xA0 SHL SUB DUP3 AND PUSH20 0x3C44CDDDB6A900FA2B585DD299E03D12FA4293BC SUB PUSH2 0x4BE JUMPI POP PUSH1 0x2 SWAP2 SWAP1 POP JUMP JUMPDEST PUSH1 0x1 PUSH1 0x1 PUSH1 0xA0 SHL SUB DUP3 AND PUSH20 0x90F79BF6EB2C4F870365E785982E1F101E93B906 SUB PUSH2 0x4EA JUMPI POP PUSH1 0x3 SWAP2 SWAP1 POP JUMP JUMPDEST PUSH1 0x1 PUSH1 0x1 PUSH1 0xA0 SHL SUB DUP3 AND PUSH20 0x15D34AAF54267DB7D7C367839AAF71A00A2C6A65 SUB PUSH2 0x516 JUMPI POP PUSH1 0x4 SWAP2 SWAP1 POP JUMP JUMPDEST PUSH1 0x1 PUSH1 0x1 PUSH1 0xA0 SHL SUB DUP3 AND PUSH20 0x9965507D1A55BCC2695C58BA16FB37D819B0A4DC SUB PUSH2 0x542 JUMPI POP PUSH1 0x5 SWAP2 SWAP1 POP JUMP JUMPDEST PUSH1 0x1 PUSH1 0x1 PUSH1 0xA0 SHL SUB DUP3 AND PUSH20 0x976EA74026E726554DB657FA54763ABD0C3A0AA9 SUB PUSH2 0x56E JUMPI POP PUSH1 0x6 SWAP2 SWAP1 POP JUMP JUMPDEST PUSH1 0x1 PUSH1 0x1 PUSH1 0xA0 SHL SUB DUP3 AND PUSH20 0x14DC79964DA2C08B23698B3D3CC7CA32193D9955 SUB PUSH2 0x59A JUMPI POP PUSH1 0x7 SWAP2 SWAP1 POP JUMP JUMPDEST PUSH1 0x1 PUSH1 0x1 PUSH1 0xA0 SHL SUB DUP3 AND PUSH20 0x23618E81E3F5CDF7F54C3D65F7FBC0ABF5B21E8F SUB PUSH2 0x5C6 JUMPI POP PUSH1 0x8 SWAP2 SWAP1 POP JUMP JUMPDEST PUSH1 0x1 PUSH1 0x1 PUSH1 0xA0 SHL SUB DUP3 AND PUSH20 0xA0EE7A142D267C1F36714E4A8F75612F20A79720 SUB PUSH2 0x5F2 JUMPI POP PUSH1 0x9 SWAP2 SWAP1 POP JUMP JUMPDEST PUSH1 0x1 PUSH1 0x1 PUSH1 0xA0 SHL SUB DUP3 AND PUSH20 0xBCD4042DE499D14E55001CCBB24A551F3B954096 SUB PUSH2 0x61E JUMPI POP PUSH1 0xA SWAP2 SWAP1 POP JUMP JUMPDEST PUSH1 0x1 PUSH1 0x1 PUSH1 0xA0 SHL SUB DUP3 AND PUSH20 0x71BE63F3384F5FB98995898A86B02FB2426C5788 SUB PUSH2 0x64A JUMPI POP PUSH1 0xB SWAP2 SWAP1 POP JUMP JUMPDEST PUSH1 0x1 PUSH1 0x1 PUSH1 0xA0 SHL SUB DUP3 AND PUSH20 0xFABB0AC9D68B0B445FB7357272FF202C5651694A SUB PUSH2 0x676 JUMPI POP PUSH1 0xC SWAP2 SWAP1 POP JUMP JUMPDEST PUSH1 0x1 PUSH1 0x1 PUSH1 0xA0 SHL SUB DUP3 AND PUSH20 0x1CBD3B2770909D4E10F157CABC84C7264073C9EC SUB PUSH2 0x6A2 JUMPI POP PUSH1 0xD SWAP2 SWAP1 POP JUMP JUMPDEST PUSH1 0x1 PUSH1 0x1 PUSH1 0xA0 SHL SUB DUP3 AND PUSH20 0xDF3E18D64BC6A983F673AB319CCAE4F1A57C7097 SUB PUSH2 0x6CE JUMPI POP PUSH1 0xE SWAP2 SWAP1 POP JUMP JUMPDEST PUSH1 0x1 PUSH1 0x1 PUSH1 0xA0 SHL SUB DUP3 AND PUSH20 0xCD3B766CCDD6AE721141F452C550CA635964CE71 SUB PUSH2 0x6FA JUMPI POP PUSH1 0xF SWAP2 SWAP1 POP JUMP JUMPDEST PUSH1 0x1 PUSH1 0x1 PUSH1 0xA0 SHL SUB DUP3 AND PUSH20 0x2546BCD3C84621E976D8185A91A922AE77ECEC30 SUB PUSH2 0x726 JUMPI POP PUSH1 0x10 SWAP2 SWAP1 POP JUMP JUMPDEST PUSH1 0x1 PUSH1 0x1 PUSH1 0xA0 SHL SUB DUP3 AND PUSH20 0xBDA5747BFD65F08DEB54CB465EB87D40E51B197E SUB PUSH2 0x752 JUMPI POP PUSH1 0x11 SWAP2 SWAP1 POP JUMP JUMPDEST PUSH1 0x1 PUSH1 0x1 PUSH1 0xA0 SHL SUB DUP3 AND PUSH20 0xDD2FD4581271E230360230F9337D5C0430BF44C0 SUB PUSH2 0x77E JUMPI POP PUSH1 0x12 SWAP2 SWAP1 POP JUMP JUMPDEST PUSH1 0x1 PUSH1 0x1 PUSH1 0xA0 SHL SUB DUP3 AND PUSH20 0x8626F6940E2EB28930EFB4CEF49B2D1F2C9C1199 SUB PUSH2 0x7AA JUMPI POP PUSH1 0x13 SWAP2 SWAP1 POP JUMP JUMPDEST PUSH1 0x40 MLOAD PUSH4 0x3B1166F PUSH1 0xE6 SHL DUP2 MSTORE PUSH1 0x1 PUSH1 0x1 PUSH1 0xA0 SHL SUB DUP4 AND PUSH1 0x4 DUP3 ADD MSTORE PUSH1 0x24 ADD JUMPDEST PUSH1 0x40 MLOAD DUP1 SWAP2 SUB SWAP1 REVERT JUMPDEST SWAP2 SWAP1 POP JUMP JUMPDEST PUSH1 0x0 DUP1 PUSH2 0x7EA PUSH3 0x8AA89 PUSH1 0xEB SHL PUSH2 0x1153 JUMP JUMPDEST SWAP1 POP PUSH1 0x0 DUP2 GT PUSH2 0x828 JUMPI PUSH1 0x40 MLOAD PUSH3 0x461BCD PUSH1 0xE5 SHL DUP2 MSTORE PUSH1 0x20 PUSH1 0x4 DUP3 ADD MSTORE PUSH1 0x9 PUSH1 0x24 DUP3 ADD MSTORE PUSH9 0x626164207072696365 PUSH1 0xB8 SHL PUSH1 0x44 DUP3 ADD MSTORE PUSH1 0x64 ADD PUSH2 0x7CA JUMP JUMPDEST DUP1 PUSH2 0x83D DUP5 PUSH10 0xD3C21BCECCEDA1000000 PUSH2 0x1E54 JUMP JUMPDEST PUSH2 0x847 SWAP2 SWAP1 PUSH2 0x1E81 JUMP JUMPDEST SWAP4 SWAP3 POP POP POP JUMP JUMPDEST PUSH1 0x1 PUSH1 0x1 PUSH1 0xA0 SHL SUB DUP5 AND PUSH2 0x891 JUMPI PUSH1 0x40 MLOAD PUSH3 0x461BCD PUSH1 0xE5 SHL DUP2 MSTORE PUSH1 0x20 PUSH1 0x4 DUP3 ADD MSTORE PUSH1 0xA PUSH1 0x24 DUP3 ADD MSTORE PUSH10 0x6D65726368616E743D3 PUSH1 0xB4 SHL PUSH1 0x44 DUP3 ADD MSTORE PUSH1 0x64 ADD PUSH2 0x7CA JUMP JUMPDEST PUSH1 0x0 DUP4 GT PUSH2 0x8CB JUMPI PUSH1 0x40 MLOAD PUSH3 0x461BCD PUSH1 0xE5 SHL DUP2 MSTORE PUSH1 0x20 PUSH1 0x4 DUP3 ADD MSTORE PUSH1 0x7 PUSH1 0x24 DUP3 ADD MSTORE PUSH7 0x70726963653D3 PUSH1 0xCC SHL PUSH1 0x44 DUP3 ADD MSTORE PUSH1 0x64 ADD PUSH2 0x7CA JUMP JUMPDEST PUSH1 0x0 DUP3 GT PUSH2 0x906 JUMPI PUSH1 0x40 MLOAD PUSH3 0x461BCD PUSH1 0xE5 SHL DUP2 MSTORE PUSH1 0x20 PUSH1 0x4 DUP3 ADD MSTORE PUSH1 0x8 PUSH1 0x24 DUP3 ADD MSTORE PUSH8 0x706572696F643D3 PUSH1 0xC4 SHL PUSH1 0x44 DUP3 ADD MSTORE PUSH1 0x64 ADD PUSH2 0x7CA JUMP JUMPDEST PUSH1 0x40 DUP1 MLOAD PUSH1 0xC0 DUP2 ADD DUP3 MSTORE PUSH1 0x1 PUSH1 0x1 PUSH1 0xA0 SHL SUB DUP7 DUP2 AND DUP1 DUP4 MSTORE PUSH1 0x20 DUP1 DUP5 ADD DUP9 DUP2 MSTORE DUP5 DUP7 ADD DUP9 DUP2 MSTORE PUSH1 0x0 PUSH1 0x60 DUP1 DUP9 ADD DUP3 DUP2 MSTORE PUSH1 0x80 DUP10 ADD DUP12 DUP2 MSTORE PUSH1 0x1 PUSH1 0xA0 DUP12 ADD DUP2 DUP2 MSTORE CALLER DUP1 DUP8 MSTORE DUP3 DUP11 MSTORE SWAP6 DUP14 SWAP1 KECCAK256 SWAP12 MLOAD DUP13 SLOAD PUSH1 0x1 PUSH1 0x1 PUSH1 0xA0 SHL SUB NOT AND SWAP12 AND SWAP11 SWAP1 SWAP11 OR DUP12 SSTORE SWAP6 MLOAD SWAP6 DUP11 ADD SWAP6 SWAP1 SWAP6 SSTORE SWAP3 MLOAD PUSH1 0x2 DUP10 ADD SSTORE SWAP2 MLOAD PUSH1 0x3 DUP9 ADD SSTORE SWAP2 MLOAD PUSH1 0x4 DUP8 ADD SSTORE SWAP4 MLOAD PUSH1 0x5 SWAP1 SWAP6 ADD DUP1 SLOAD PUSH1 0xFF NOT AND SWAP6 ISZERO ISZERO SWAP6 SWAP1 SWAP6 OR SWAP1 SWAP5 SSTORE DUP5 MLOAD DUP9 DUP2 MSTORE SWAP1 DUP2 ADD DUP8 SWAP1 MSTORE SWAP4 DUP5 ADD DUP6 SWAP1 MSTORE SWAP3 PUSH32 0x1FAF2B5A74C296487268DE9F9E3DDF269CA3980197CDA4EE5C927AC895AEEE88 SWAP2 ADD PUSH1 0x40 MLOAD DUP1 SWAP2 SUB SWAP1 LOG3 POP POP POP POP JUMP JUMPDEST PUSH1 0x0 DUP1 PUSH2 0x9EA PUSH2 0x11C3 JUMP JUMPDEST SWAP1 POP PUSH1 0x0 PUSH2 0x9F7 DUP3 PUSH2 0x126A JUMP JUMPDEST SWAP3 POP PUSH2 0xFFFF AND SWAP1 POP PUSH1 0x0 DUP2 SWAP1 SUB PUSH2 0xA21 JUMPI PUSH1 0x40 MLOAD PUSH4 0x2154BFCF PUSH1 0xE2 SHL DUP2 MSTORE PUSH1 0x4 ADD PUSH1 0x40 MLOAD DUP1 SWAP2 SUB SWAP1 REVERT JUMPDEST PUSH1 0x0 JUMPDEST DUP2 DUP2 LT ISZERO PUSH2 0xAE7 JUMPI PUSH1 0x0 PUSH2 0xA37 DUP5 PUSH2 0x12B9 JUMP JUMPDEST SWAP1 POP PUSH1 0x0 DUP1 PUSH2 0xA47 PUSH1 0x68 DUP8 PUSH2 0x1C9B JUMP JUMPDEST SWAP1 POP PUSH1 0x0 PUSH2 0xA55 DUP3 CALLDATASIZE PUSH2 0x1E95 JUMP JUMPDEST SWAP1 POP DUP1 CALLDATALOAD SWAP3 POP DUP3 PUSH6 0xFFFFFFFFFFFF AND PUSH1 0x0 SUB PUSH2 0xA84 JUMPI PUSH1 0x40 MLOAD PUSH4 0x336DC9D PUSH1 0xE4 SHL DUP2 MSTORE PUSH1 0x4 ADD PUSH1 0x40 MLOAD DUP1 SWAP2 SUB SWAP1 REVERT JUMPDEST DUP8 PUSH1 0x0 SUB PUSH2 0xA9C JUMPI DUP3 PUSH6 0xFFFFFFFFFFFF AND SWAP8 POP PUSH2 0xAC4 JUMP JUMPDEST DUP8 DUP4 PUSH6 0xFFFFFFFFFFFF AND EQ PUSH2 0xAC4 JUMPI PUSH1 0x40 MLOAD PUSH4 0xD9D1F465 PUSH1 0xE0 SHL DUP2 MSTORE PUSH1 0x4 ADD PUSH1 0x40 MLOAD DUP1 SWAP2 SUB SWAP1 REVERT JUMPDEST PUSH2 0xACE DUP5 DUP9 PUSH2 0x1C9B JUMP JUMPDEST SWAP7 POP POP POP POP POP DUP1 DUP1 PUSH2 0xADF SWAP1 PUSH2 0x1EA8 JUMP JUMPDEST SWAP2 POP POP PUSH2 0xA24 JUMP JUMPDEST POP POP POP SWAP1 JUMP JUMPDEST PUSH1 0x0 PUSH2 0x432 DUP3 PUSH2 0xB74 JUMP JUMPDEST PUSH1 0x0 PUSH2 0x432 DUP3 PUSH2 0x12F5 JUMP JUMPDEST PUSH1 0x1 PUSH1 0x1 PUSH1 0xA0 SHL SUB DUP2 AND PUSH1 0x0 SWAP1 DUP2 MSTORE PUSH1 0x1 PUSH1 0x20 MSTORE PUSH1 0x40 DUP2 KECCAK256 PUSH1 0x5 DUP2 ADD SLOAD PUSH1 0xFF AND PUSH2 0xB31 JUMPI POP PUSH1 0x0 NOT SWAP3 SWAP2 POP POP JUMP JUMPDEST DUP1 PUSH1 0x3 ADD SLOAD PUSH1 0x0 SUB PUSH2 0xB45 JUMPI POP TIMESTAMP SWAP3 SWAP2 POP POP JUMP JUMPDEST DUP1 PUSH1 0x2 ADD SLOAD DUP2 PUSH1 0x3 ADD SLOAD PUSH2 0x847 SWAP2 SWAP1 PUSH2 0x1C9B JUMP JUMPDEST PUSH1 0x60 PUSH1 0x40 MLOAD PUSH4 0x608B5307 PUSH1 0xE0 SHL DUP2 MSTORE PUSH1 0x4 ADD PUSH1 0x40 MLOAD DUP1 SWAP2 SUB SWAP1 REVERT JUMPDEST PUSH1 0x0 PUSH1 0x1 PUSH1 0x1 PUSH1 0xA0 SHL SUB DUP3 AND PUSH20 0x8626F6940E2EB28930EFB4CEF49B2D1F2C9C1199 SUB PUSH2 0xBBE JUMPI PUSH1 0x40 MLOAD PUSH4 0x3B1166F PUSH1 0xE6 SHL DUP2 MSTORE PUSH1 0x1 PUSH1 0x1 PUSH1 0xA0 SHL SUB DUP4 AND PUSH1 0x4 DUP3 ADD MSTORE PUSH1 0x24 ADD PUSH2 0x7CA JUMP JUMPDEST PUSH2 0x432 DUP3 PUSH2 0x438 JUMP JUMPDEST CALLER PUSH1 0x0 SWAP1 DUP2 MSTORE PUSH1 0x1 PUSH1 0x20 MSTORE PUSH1 0x40 SWAP1 KECCAK256 PUSH1 0x5 DUP2 ADD SLOAD PUSH1 0xFF AND PUSH2 0xC14 JUMPI PUSH1 0x40 MLOAD PUSH3 0x461BCD PUSH1 0xE5 SHL DUP2 MSTORE PUSH1 0x20 PUSH1 0x4 DUP3 ADD MSTORE PUSH1 0x7 PUSH1 0x24 DUP3 ADD MSTORE PUSH7 0x373790383630B7 PUSH1 0xC9 SHL PUSH1 0x44 DUP3 ADD MSTORE PUSH1 0x64 ADD PUSH2 0x7CA JUMP JUMPDEST PUSH1 0x5 DUP2 ADD DUP1 SLOAD PUSH1 0xFF NOT AND SWAP1 SSTORE PUSH1 0x40 MLOAD CALLER SWAP1 PUSH32 0x398BD6B21AE4164EC322FB0EB8C2EB6277F36FD41903FBBED594DFE125591281 SWAP1 PUSH1 0x0 SWAP1 LOG2 POP JUMP JUMPDEST PUSH1 0x0 DUP2 GT PUSH2 0xC87 JUMPI PUSH1 0x40 MLOAD PUSH3 0x461BCD PUSH1 0xE5 SHL DUP2 MSTORE PUSH1 0x4 ADD PUSH2 0x7CA SWAP1 PUSH1 0x20 DUP1 DUP3 MSTORE PUSH1 0x4 SWAP1 DUP3 ADD MSTORE PUSH4 0x5A65726F PUSH1 0xE0 SHL PUSH1 0x40 DUP3 ADD MSTORE PUSH1 0x60 ADD SWAP1 JUMP JUMPDEST CALLER PUSH1 0x0 SWAP1 DUP2 MSTORE PUSH1 0x20 DUP2 SWAP1 MSTORE PUSH1 0x40 SWAP1 KECCAK256 SLOAD DUP2 DUP2 LT ISZERO PUSH2 0xCD6 JUMPI PUSH1 0x40 MLOAD PUSH3 0x461BCD PUSH1 0xE5 SHL DUP2 MSTORE PUSH1 0x20 PUSH1 0x4 DUP3 ADD MSTORE PUSH1 0xC PUSH1 0x24 DUP3 ADD MSTORE PUSH12 0x125B9CDD59999A58DA595B9D PUSH1 0xA2 SHL PUSH1 0x44 DUP3 ADD MSTORE PUSH1 0x64 ADD PUSH2 0x7CA JUMP JUMPDEST CALLER PUSH1 0x0 DUP2 DUP2 MSTORE PUSH1 0x20 DUP2 SWAP1 MSTORE PUSH1 0x40 DUP1 DUP3 KECCAK256 DUP6 DUP6 SUB SWAP1 SSTORE MLOAD SWAP1 SWAP2 SWAP1 DUP5 SWAP1 DUP4 DUP2 DUP2 DUP2 DUP6 DUP8 GAS CALL SWAP3 POP POP POP RETURNDATASIZE DUP1 PUSH1 0x0 DUP2 EQ PUSH2 0xD29 JUMPI PUSH1 0x40 MLOAD SWAP2 POP PUSH1 0x1F NOT PUSH1 0x3F RETURNDATASIZE ADD AND DUP3 ADD PUSH1 0x40 MSTORE RETURNDATASIZE DUP3 MSTORE RETURNDATASIZE PUSH1 0x0 PUSH1 0x20 DUP5 ADD RETURNDATACOPY PUSH2 0xD2E JUMP JUMPDEST PUSH1 0x60 SWAP2 POP JUMPDEST POP POP SWAP1 POP DUP1 PUSH2 0xD71 JUMPI PUSH1 0x40 MLOAD PUSH3 0x461BCD PUSH1 0xE5 SHL DUP2 MSTORE PUSH1 0x20 PUSH1 0x4 DUP3 ADD MSTORE PUSH1 0xF PUSH1 0x24 DUP3 ADD MSTORE PUSH15 0x15DA5D1A191C985DC819985A5B1959 PUSH1 0x8A SHL PUSH1 0x44 DUP3 ADD MSTORE PUSH1 0x64 ADD PUSH2 0x7CA JUMP JUMPDEST PUSH1 0x40 MLOAD DUP4 DUP2 MSTORE CALLER SWAP1 PUSH32 0x7084F5476618D8E60B11EF0D7D3F06914655ADB8793E28FF7F018D4C76D505D5 SWAP1 PUSH1 0x20 ADD PUSH1 0x40 MLOAD DUP1 SWAP2 SUB SWAP1 LOG2 POP POP POP JUMP JUMPDEST PUSH2 0xDB4 DUP2 PUSH2 0x1300 JUMP JUMPDEST POP JUMP JUMPDEST PUSH1 0x0 CALLVALUE GT PUSH2 0xDF0 JUMPI PUSH1 0x40 MLOAD PUSH3 0x461BCD PUSH1 0xE5 SHL DUP2 MSTORE PUSH1 0x20 PUSH1 0x4 DUP3 ADD MSTORE PUSH1 0x6 PUSH1 0x24 DUP3 ADD MSTORE PUSH6 0x9CDE408AA89 PUSH1 0xD3 SHL PUSH1 0x44 DUP3 ADD MSTORE PUSH1 0x64 ADD PUSH2 0x7CA JUMP JUMPDEST CALLER PUSH1 0x0 SWAP1 DUP2 MSTORE PUSH1 0x20 DUP2 SWAP1 MSTORE PUSH1 0x40 DUP2 KECCAK256 DUP1 SLOAD CALLVALUE SWAP3 SWAP1 PUSH2 0xE0F SWAP1 DUP5 SWAP1 PUSH2 0x1C9B JUMP JUMPDEST SWAP1 SWAP2 SSTORE POP POP PUSH1 0x40 MLOAD CALLVALUE DUP2 MSTORE CALLER SWAP1 PUSH32 0x2DA466A7B24304F47E87FA2E1E5A81B9831CE54FEC19055CE277CA2F39BA42C4 SWAP1 PUSH1 0x20 ADD PUSH1 0x40 MLOAD DUP1 SWAP2 SUB SWAP1 LOG2 JUMP JUMPDEST PUSH1 0x1 PUSH1 0x1 PUSH1 0xA0 SHL SUB DUP2 AND PUSH1 0x0 SWAP1 DUP2 MSTORE PUSH1 0x1 PUSH1 0x20 MSTORE PUSH1 0x40 SWAP1 KECCAK256 PUSH1 0x5 DUP2 ADD SLOAD PUSH1 0xFF AND PUSH2 0xEA1 JUMPI PUSH1 0x40 MLOAD PUSH3 0x461BCD PUSH1 0xE5 SHL DUP2 MSTORE PUSH1 0x20 PUSH1 0x4 DUP3 ADD MSTORE PUSH1 0x7 PUSH1 0x24 DUP3 ADD MSTORE PUSH7 0x373790383630B7 PUSH1 0xC9 SHL PUSH1 0x44 DUP3 ADD MSTORE PUSH1 0x64 ADD PUSH2 0x7CA JUMP JUMPDEST PUSH2 0xEAA DUP3 PUSH2 0xB03 JUMP JUMPDEST TIMESTAMP LT ISZERO PUSH2 0xEE3 JUMPI PUSH1 0x40 MLOAD PUSH3 0x461BCD PUSH1 0xE5 SHL DUP2 MSTORE PUSH1 0x20 PUSH1 0x4 DUP3 ADD MSTORE PUSH1 0x7 PUSH1 0x24 DUP3 ADD MSTORE PUSH7 0x6E6F7420647565 PUSH1 0xC8 SHL PUSH1 0x44 DUP3 ADD MSTORE PUSH1 0x64 ADD PUSH2 0x7CA JUMP JUMPDEST PUSH1 0x0 PUSH2 0xEF4 PUSH3 0x8AA89 PUSH1 0xEB SHL PUSH2 0x1153 JUMP JUMPDEST SWAP1 POP PUSH1 0x0 DUP2 GT PUSH2 0xF32 JUMPI PUSH1 0x40 MLOAD PUSH3 0x461BCD PUSH1 0xE5 SHL DUP2 MSTORE PUSH1 0x20 PUSH1 0x4 DUP3 ADD MSTORE PUSH1 0x9 PUSH1 0x24 DUP3 ADD MSTORE PUSH9 0x626164207072696365 PUSH1 0xB8 SHL PUSH1 0x44 DUP3 ADD MSTORE PUSH1 0x64 ADD PUSH2 0x7CA JUMP JUMPDEST PUSH1 0x1 DUP3 ADD SLOAD PUSH1 0x0 DUP3 PUSH2 0xF4E DUP4 PUSH10 0xD3C21BCECCEDA1000000 PUSH2 0x1E54 JUMP JUMPDEST PUSH2 0xF58 SWAP2 SWAP1 PUSH2 0x1E81 JUMP JUMPDEST SWAP1 POP PUSH1 0x0 DUP2 GT PUSH2 0xF93 JUMPI PUSH1 0x40 MLOAD PUSH3 0x461BCD PUSH1 0xE5 SHL DUP2 MSTORE PUSH1 0x4 ADD PUSH2 0x7CA SWAP1 PUSH1 0x20 DUP1 DUP3 MSTORE PUSH1 0x4 SWAP1 DUP3 ADD MSTORE PUSH4 0x74696E79 PUSH1 0xE0 SHL PUSH1 0x40 DUP3 ADD MSTORE PUSH1 0x60 ADD SWAP1 JUMP JUMPDEST DUP4 PUSH1 0x4 ADD SLOAD DUP2 GT ISZERO DUP1 PUSH2 0xFA8 JUMPI POP PUSH1 0x4 DUP5 ADD SLOAD ISZERO JUMPDEST PUSH2 0xFE2 JUMPI PUSH1 0x40 MLOAD PUSH3 0x461BCD PUSH1 0xE5 SHL DUP2 MSTORE PUSH1 0x20 PUSH1 0x4 DUP3 ADD MSTORE PUSH1 0xB PUSH1 0x24 DUP3 ADD MSTORE PUSH11 0x657863656564732063617 PUSH1 0xAC SHL PUSH1 0x44 DUP3 ADD MSTORE PUSH1 0x64 ADD PUSH2 0x7CA JUMP JUMPDEST PUSH1 0x1 PUSH1 0x1 PUSH1 0xA0 SHL SUB DUP6 AND PUSH1 0x0 SWAP1 DUP2 MSTORE PUSH1 0x20 DUP2 SWAP1 MSTORE PUSH1 0x40 SWAP1 KECCAK256 SLOAD DUP2 GT ISZERO PUSH2 0x1041 JUMPI PUSH1 0x40 MLOAD PUSH3 0x461BCD PUSH1 0xE5 SHL DUP2 MSTORE PUSH1 0x20 PUSH1 0x4 DUP3 ADD MSTORE PUSH1 0x14 PUSH1 0x24 DUP3 ADD MSTORE PUSH20 0x696E73756666696369656E742062616C616E6365 PUSH1 0x60 SHL PUSH1 0x44 DUP3 ADD MSTORE PUSH1 0x64 ADD PUSH2 0x7CA JUMP JUMPDEST PUSH1 0x1 PUSH1 0x1 PUSH1 0xA0 SHL SUB DUP6 DUP2 AND PUSH1 0x0 SWAP1 DUP2 MSTORE PUSH1 0x20 DUP2 SWAP1 MSTORE PUSH1 0x40 DUP1 DUP3 KECCAK256 DUP1 SLOAD DUP6 SWAP1 SUB SWAP1 SSTORE DUP7 SLOAD SWAP1 MLOAD SWAP2 SWAP3 AND SWAP1 DUP4 SWAP1 DUP4 DUP2 DUP2 DUP2 DUP6 DUP8 GAS CALL SWAP3 POP POP POP RETURNDATASIZE DUP1 PUSH1 0x0 DUP2 EQ PUSH2 0x10A4 JUMPI PUSH1 0x40 MLOAD SWAP2 POP PUSH1 0x1F NOT PUSH1 0x3F RETURNDATASIZE ADD AND DUP3 ADD PUSH1 0x40 MSTORE RETURNDATASIZE DUP3 MSTORE RETURNDATASIZE PUSH1 0x0 PUSH1 0x20 DUP5 ADD RETURNDATACOPY PUSH2 0x10A9 JUMP JUMPDEST PUSH1 0x60 SWAP2 POP JUMPDEST POP POP SWAP1 POP DUP1 PUSH2 0x10E5 JUMPI PUSH1 0x40 MLOAD PUSH3 0x461BCD PUSH1 0xE5 SHL DUP2 MSTORE PUSH1 0x20 PUSH1 0x4 DUP3 ADD MSTORE PUSH1 0x8 PUSH1 0x24 DUP3 ADD MSTORE PUSH8 0x1C185E4819985A5B PUSH1 0xC2 SHL PUSH1 0x44 DUP3 ADD MSTORE PUSH1 0x64 ADD PUSH2 0x7CA JUMP JUMPDEST TIMESTAMP PUSH1 0x3 DUP7 ADD SSTORE DUP5 SLOAD PUSH1 0x1 PUSH1 0x1 PUSH1 0xA0 SHL SUB SWAP1 DUP2 AND SWAP1 DUP8 AND PUSH32 0xB3E1A1D5EEC96C841D90F413AA5261898365653F66CD2769CFFE66BBFB28C7A0 DUP6 DUP8 DUP7 PUSH2 0x1128 DUP13 PUSH2 0xB03 JUMP JUMPDEST PUSH1 0x40 DUP1 MLOAD SWAP5 DUP6 MSTORE PUSH1 0x20 DUP6 ADD SWAP4 SWAP1 SWAP4 MSTORE SWAP2 DUP4 ADD MSTORE PUSH1 0x60 DUP3 ADD MSTORE PUSH1 0x80 ADD PUSH1 0x40 MLOAD DUP1 SWAP2 SUB SWAP1 LOG3 POP POP POP POP POP POP JUMP JUMPDEST PUSH1 0x40 DUP1 MLOAD PUSH1 0x1 DUP1 DUP3 MSTORE DUP2 DUP4 ADD SWAP1 SWAP3 MSTORE PUSH1 0x0 SWAP2 DUP3 SWAP2 SWAP1 PUSH1 0x20 DUP1 DUP4 ADD SWAP1 DUP1 CALLDATASIZE DUP4 CALLDATACOPY ADD SWAP1 POP POP SWAP1 POP DUP3 DUP2 PUSH1 0x0 DUP2 MLOAD DUP2 LT PUSH2 0x118C JUMPI PUSH2 0x118C PUSH2 0x1EC1 JUMP JUMPDEST PUSH1 0x20 MUL PUSH1 0x20 ADD ADD DUP2 DUP2 MSTORE POP POP PUSH2 0x11A1 DUP2 PUSH2 0x1384 JUMP JUMPDEST PUSH1 0x0 DUP2 MLOAD DUP2 LT PUSH2 0x11B3 JUMPI PUSH2 0x11B3 PUSH2 0x1EC1 JUMP JUMPDEST PUSH1 0x20 MUL PUSH1 0x20 ADD ADD MLOAD SWAP2 POP POP SWAP2 SWAP1 POP JUMP JUMPDEST PUSH1 0x0 PUSH7 0x2ED57011E0000 PUSH1 0x1F NOT CALLDATASIZE ADD CALLDATALOAD DUP2 AND EQ DUP1 PUSH2 0x11F4 JUMPI PUSH1 0x40 MLOAD PUSH4 0x73BB264F PUSH1 0xE1 SHL DUP2 MSTORE PUSH1 0x4 ADD PUSH1 0x40 MLOAD DUP1 SWAP2 SUB SWAP1 REVERT JUMPDEST PUSH1 0x0 CALLDATASIZE PUSH1 0x29 GT ISZERO PUSH2 0x1218 JUMPI PUSH1 0x40 MLOAD PUSH4 0x2BCB7BC5 PUSH1 0xE1 SHL DUP2 MSTORE PUSH1 0x4 ADD PUSH1 0x40 MLOAD DUP1 SWAP2 SUB SWAP1 REVERT JUMPDEST POP PUSH1 0x28 NOT CALLDATASIZE ADD CALLDATALOAD PUSH1 0x0 PUSH1 0x9 PUSH2 0x1233 PUSH1 0x3 PUSH3 0xFFFFFF DUP6 AND PUSH2 0x1C9B JUMP JUMPDEST PUSH2 0x123D SWAP2 SWAP1 PUSH2 0x1C9B JUMP JUMPDEST SWAP1 POP CALLDATASIZE PUSH2 0x124B PUSH1 0x2 DUP4 PUSH2 0x1C9B JUMP JUMPDEST GT ISZERO PUSH2 0x847 JUMPI PUSH1 0x40 MLOAD PUSH4 0xC30A7BD7 PUSH1 0xE0 SHL DUP2 MSTORE PUSH1 0x4 ADD PUSH1 0x40 MLOAD DUP1 SWAP2 SUB SWAP1 REVERT JUMPDEST PUSH1 0x0 DUP1 DUP1 PUSH2 0x1279 PUSH1 0x20 DUP6 PUSH2 0x1C9B JUMP JUMPDEST SWAP1 POP CALLDATASIZE DUP2 GT ISZERO PUSH2 0x129C JUMPI PUSH1 0x40 MLOAD PUSH4 0x2BCB7BC5 PUSH1 0xE1 SHL DUP2 MSTORE PUSH1 0x4 ADD PUSH1 0x40 MLOAD DUP1 SWAP2 SUB SWAP1 REVERT JUMPDEST CALLDATASIZE DUP2 SWAP1 SUB CALLDATALOAD SWAP3 POP DUP3 PUSH2 0x12AF PUSH1 0x2 DUP7 PUSH2 0x1C9B JUMP JUMPDEST SWAP3 POP SWAP3 POP POP SWAP2 POP SWAP2 JUMP JUMPDEST PUSH1 0x0 DUP1 PUSH1 0x0 PUSH2 0x12C7 DUP5 PUSH2 0x13A6 JUMP JUMPDEST SWAP1 SWAP3 POP SWAP1 POP PUSH1 0x4E PUSH2 0x12D9 DUP3 PUSH1 0x20 PUSH2 0x1C9B JUMP JUMPDEST PUSH2 0x12E3 SWAP1 DUP5 PUSH2 0x1E54 JUMP JUMPDEST PUSH2 0x12ED SWAP2 SWAP1 PUSH2 0x1C9B JUMP JUMPDEST SWAP5 SWAP4 POP POP POP POP JUMP JUMPDEST PUSH1 0x0 PUSH2 0x432 DUP3 PUSH2 0x13F9 JUMP JUMPDEST PUSH1 0x0 PUSH2 0x130E PUSH2 0x3E8 DUP4 PUSH2 0x1E81 JUMP JUMPDEST SWAP1 POP DUP1 TIMESTAMP LT ISZERO PUSH2 0x1350 JUMPI PUSH1 0x3C PUSH2 0x1324 TIMESTAMP DUP4 PUSH2 0x1E95 JUMP JUMPDEST GT ISZERO PUSH2 0x134C JUMPI PUSH1 0x40 MLOAD PUSH4 0xB6B0916D PUSH1 0xE0 SHL DUP2 MSTORE PUSH1 0x4 DUP2 ADD DUP3 SWAP1 MSTORE TIMESTAMP PUSH1 0x24 DUP3 ADD MSTORE PUSH1 0x44 ADD PUSH2 0x7CA JUMP JUMPDEST POP POP JUMP JUMPDEST PUSH1 0xB4 PUSH2 0x135C DUP3 TIMESTAMP PUSH2 0x1E95 JUMP JUMPDEST GT ISZERO PUSH2 0x134C JUMPI PUSH1 0x40 MLOAD PUSH4 0x321D0B5 PUSH1 0xE0 SHL DUP2 MSTORE PUSH1 0x4 DUP2 ADD DUP3 SWAP1 MSTORE TIMESTAMP PUSH1 0x24 DUP3 ADD MSTORE PUSH1 0x44 ADD PUSH2 0x7CA JUMP JUMPDEST PUSH1 0x60 PUSH1 0x0 DUP1 PUSH2 0x1392 DUP5 PUSH2 0x150D JUMP JUMPDEST SWAP2 POP SWAP2 POP PUSH2 0x139F DUP2 PUSH2 0xDAB JUMP JUMPDEST POP SWAP3 SWAP2 POP POP JUMP JUMPDEST PUSH1 0x0 DUP1 DUP1 DUP1 DUP1 PUSH1 0x20 PUSH2 0x13B9 PUSH1 0x41 DUP9 PUSH2 0x1C9B JUMP JUMPDEST PUSH2 0x13C3 SWAP2 SWAP1 PUSH2 0x1C9B JUMP JUMPDEST PUSH2 0x13CD SWAP1 CALLDATASIZE PUSH2 0x1E95 JUMP JUMPDEST DUP1 CALLDATALOAD SWAP4 POP SWAP1 POP PUSH2 0x13DE PUSH1 0x3 DUP3 PUSH2 0x1E95 JUMP JUMPDEST PUSH3 0xFFFFFF SWAP4 SWAP1 SWAP4 AND SWAP7 SWAP3 CALLDATALOAD PUSH4 0xFFFFFFFF AND SWAP6 POP SWAP2 SWAP4 POP POP POP POP JUMP JUMPDEST PUSH1 0x0 DUP2 MLOAD PUSH1 0x2 SUB PUSH2 0x1450 JUMPI PUSH1 0x2 DUP3 PUSH1 0x1 DUP2 MLOAD DUP2 LT PUSH2 0x1419 JUMPI PUSH2 0x1419 PUSH2 0x1EC1 JUMP JUMPDEST PUSH1 0x20 MUL PUSH1 0x20 ADD ADD MLOAD DUP4 PUSH1 0x0 DUP2 MLOAD DUP2 LT PUSH2 0x1434 JUMPI PUSH2 0x1434 PUSH2 0x1EC1 JUMP JUMPDEST PUSH1 0x20 MUL PUSH1 0x20 ADD ADD MLOAD PUSH2 0x1446 SWAP2 SWAP1 PUSH2 0x1C9B JUMP JUMPDEST PUSH2 0x432 SWAP2 SWAP1 PUSH2 0x1E81 JUMP JUMPDEST DUP2 MLOAD PUSH1 0x0 SUB PUSH2 0x1472 JUMPI PUSH1 0x40 MLOAD PUSH4 0x9E198AF9 PUSH1 0xE0 SHL DUP2 MSTORE PUSH1 0x4 ADD PUSH1 0x40 MLOAD DUP1 SWAP2 SUB SWAP1 REVERT JUMPDEST PUSH2 0x147B DUP3 PUSH2 0x1728 JUMP JUMPDEST PUSH1 0x0 PUSH1 0x2 DUP4 MLOAD PUSH2 0x148B SWAP2 SWAP1 PUSH2 0x1E81 JUMP JUMPDEST SWAP1 POP PUSH1 0x2 DUP4 MLOAD PUSH2 0x149B SWAP2 SWAP1 PUSH2 0x1ED7 JUMP JUMPDEST PUSH1 0x0 SUB PUSH2 0x14FB JUMPI PUSH1 0x0 DUP4 DUP3 DUP2 MLOAD DUP2 LT PUSH2 0x14B6 JUMPI PUSH2 0x14B6 PUSH2 0x1EC1 JUMP JUMPDEST PUSH1 0x20 MUL PUSH1 0x20 ADD ADD MLOAD DUP5 PUSH1 0x1 DUP5 PUSH2 0x14CC SWAP2 SWAP1 PUSH2 0x1E95 JUMP JUMPDEST DUP2 MLOAD DUP2 LT PUSH2 0x14DC JUMPI PUSH2 0x14DC PUSH2 0x1EC1 JUMP JUMPDEST PUSH1 0x20 MUL PUSH1 0x20 ADD ADD MLOAD PUSH2 0x14EE SWAP2 SWAP1 PUSH2 0x1C9B JUMP JUMPDEST SWAP1 POP PUSH2 0x12ED PUSH1 0x2 DUP3 PUSH2 0x1E81 JUMP JUMPDEST DUP3 DUP2 DUP2 MLOAD DUP2 LT PUSH2 0x11B3 JUMPI PUSH2 0x11B3 PUSH2 0x1EC1 JUMP JUMPDEST PUSH1 0x60 PUSH1 0x0 DUP1 DUP4 MLOAD PUSH8 0xFFFFFFFFFFFFFFFF DUP2 GT ISZERO PUSH2 0x152C JUMPI PUSH2 0x152C PUSH2 0x1D32 JUMP JUMPDEST PUSH1 0x40 MLOAD SWAP1 DUP1 DUP3 MSTORE DUP1 PUSH1 0x20 MUL PUSH1 0x20 ADD DUP3 ADD PUSH1 0x40 MSTORE DUP1 ISZERO PUSH2 0x1555 JUMPI DUP2 PUSH1 0x20 ADD PUSH1 0x20 DUP3 MUL DUP1 CALLDATASIZE DUP4 CALLDATACOPY ADD SWAP1 POP JUMPDEST POP SWAP1 POP PUSH1 0x0 DUP5 MLOAD PUSH8 0xFFFFFFFFFFFFFFFF DUP2 GT ISZERO PUSH2 0x1574 JUMPI PUSH2 0x1574 PUSH2 0x1D32 JUMP JUMPDEST PUSH1 0x40 MLOAD SWAP1 DUP1 DUP3 MSTORE DUP1 PUSH1 0x20 MUL PUSH1 0x20 ADD DUP3 ADD PUSH1 0x40 MSTORE DUP1 ISZERO PUSH2 0x159D JUMPI DUP2 PUSH1 0x20 ADD PUSH1 0x20 DUP3 MUL DUP1 CALLDATASIZE DUP4 CALLDATACOPY ADD SWAP1 POP JUMPDEST POP SWAP1 POP PUSH1 0x0 DUP6 MLOAD PUSH8 0xFFFFFFFFFFFFFFFF DUP2 GT ISZERO PUSH2 0x15BC JUMPI PUSH2 0x15BC PUSH2 0x1D32 JUMP JUMPDEST PUSH1 0x40 MLOAD SWAP1 DUP1 DUP3 MSTORE DUP1 PUSH1 0x20 MUL PUSH1 0x20 ADD DUP3 ADD PUSH1 0x40 MSTORE DUP1 ISZERO PUSH2 0x15EF JUMPI DUP2 PUSH1 0x20 ADD JUMPDEST PUSH1 0x60 DUP2 MSTORE PUSH1 0x20 ADD SWAP1 PUSH1 0x1 SWAP1 SUB SWAP1 DUP2 PUSH2 0x15DA JUMPI SWAP1 POP JUMPDEST POP SWAP1 POP PUSH1 0x1 PUSH1 0x0 JUMPDEST DUP8 MLOAD DUP2 LT ISZERO PUSH2 0x1668 JUMPI DUP2 PUSH8 0xFFFFFFFFFFFFFFFF DUP2 GT ISZERO PUSH2 0x1619 JUMPI PUSH2 0x1619 PUSH2 0x1D32 JUMP JUMPDEST PUSH1 0x40 MLOAD SWAP1 DUP1 DUP3 MSTORE DUP1 PUSH1 0x20 MUL PUSH1 0x20 ADD DUP3 ADD PUSH1 0x40 MSTORE DUP1 ISZERO PUSH2 0x1642 JUMPI DUP2 PUSH1 0x20 ADD PUSH1 0x20 DUP3 MUL DUP1 CALLDATASIZE DUP4 CALLDATACOPY ADD SWAP1 POP JUMPDEST POP DUP4 DUP3 DUP2 MLOAD DUP2 LT PUSH2 0x1655 JUMPI PUSH2 0x1655 PUSH2 0x1EC1 JUMP JUMPDEST PUSH1 0x20 SWAP1 DUP2 MUL SWAP2 SWAP1 SWAP2 ADD ADD MSTORE PUSH1 0x1 ADD PUSH2 0x15F7 JUMP JUMPDEST POP PUSH1 0x0 PUSH2 0x1673 PUSH2 0x11C3 JUMP JUMPDEST SWAP1 POP PUSH1 0x0 PUSH2 0x1680 DUP3 PUSH2 0x126A JUMP JUMPDEST PUSH1 0x40 MLOAD SWAP1 SWAP4 POP PUSH2 0xFFFF SWAP1 SWAP2 AND SWAP2 POP PUSH1 0x0 JUMPDEST DUP3 DUP2 LT ISZERO PUSH2 0x170F JUMPI PUSH1 0x0 PUSH2 0x16A8 DUP13 DUP11 DUP11 DUP11 DUP10 PUSH2 0x1776 JUMP JUMPDEST SWAP1 SWAP6 POP SWAP1 POP PUSH1 0x0 DUP2 SWAP1 SUB PUSH2 0x16CF JUMPI PUSH1 0x40 MLOAD PUSH4 0xDFB25A79 PUSH1 0xE0 SHL DUP2 MSTORE PUSH1 0x4 ADD PUSH1 0x40 MLOAD DUP1 SWAP2 SUB SWAP1 REVERT JUMPDEST DUP10 DUP2 EQ PUSH2 0x16FF JUMPI DUP10 PUSH1 0x0 SUB PUSH2 0x16E6 JUMPI DUP1 SWAP10 POP PUSH2 0x16FF JUMP JUMPDEST PUSH1 0x40 MLOAD PUSH4 0x265E23A1 PUSH1 0xE1 SHL DUP2 MSTORE PUSH1 0x4 ADD PUSH1 0x40 MLOAD DUP1 SWAP2 SUB SWAP1 REVERT JUMPDEST POP PUSH1 0x20 DUP3 ADD PUSH1 0x40 MSTORE PUSH1 0x1 ADD PUSH2 0x1691 JUMP JUMPDEST POP PUSH2 0x171A DUP6 DUP9 PUSH2 0x1A01 JUMP JUMPDEST SWAP9 POP POP POP POP POP POP POP POP SWAP2 POP SWAP2 JUMP JUMPDEST DUP1 MLOAD PUSH1 0x20 DUP3 ADD PUSH1 0x20 DUP3 MUL DUP2 ADD SWAP2 POP DUP1 JUMPDEST DUP3 DUP2 LT ISZERO PUSH2 0x1770 JUMPI DUP2 JUMPDEST DUP2 DUP2 LT ISZERO PUSH2 0x1767 JUMPI DUP2 MLOAD DUP2 MLOAD DUP1 DUP3 LT ISZERO PUSH2 0x175D JUMPI DUP1 DUP5 MSTORE DUP2 DUP4 MSTORE JUMPDEST POP POP PUSH1 0x20 ADD PUSH2 0x1742 JUMP JUMPDEST POP PUSH1 0x20 ADD PUSH2 0x1738 JUMP JUMPDEST POP POP POP POP JUMP JUMPDEST PUSH1 0x0 DUP1 PUSH1 0x0 DUP1 PUSH1 0x0 PUSH2 0x1787 DUP7 PUSH2 0x13A6 JUMP JUMPDEST SWAP1 SWAP3 POP SWAP1 POP PUSH1 0x0 DUP1 PUSH1 0x60 DUP2 DUP1 PUSH1 0xD PUSH2 0x17A0 PUSH1 0x20 DUP9 PUSH2 0x1C9B JUMP JUMPDEST PUSH2 0x17AA SWAP1 DUP10 PUSH2 0x1E54 JUMP JUMPDEST PUSH2 0x17B4 SWAP2 SWAP1 PUSH2 0x1C9B JUMP JUMPDEST SWAP2 POP PUSH1 0x0 PUSH2 0x17C3 PUSH1 0x68 DUP14 PUSH2 0x1C9B JUMP JUMPDEST PUSH2 0x17CD SWAP1 CALLDATASIZE PUSH2 0x1E95 JUMP JUMPDEST SWAP1 POP PUSH1 0x0 DUP4 PUSH2 0x17DD PUSH1 0x41 DUP16 PUSH2 0x1C9B JUMP JUMPDEST PUSH2 0x17E7 SWAP2 SWAP1 PUSH2 0x1C9B JUMP JUMPDEST PUSH2 0x17F1 SWAP1 CALLDATASIZE PUSH2 0x1E95 JUMP JUMPDEST SWAP1 POP PUSH2 0x17FD DUP5 DUP3 PUSH2 0x1810 JUMP JUMPDEST SWAP5 POP DUP4 PUSH1 0x20 DUP7 ADD KECCAK256 SWAP6 POP DUP2 CALLDATALOAD SWAP3 POP PUSH2 0x1834 JUMP JUMPDEST PUSH1 0x40 DUP1 MLOAD DUP4 DUP2 MSTORE PUSH1 0x20 DUP2 DUP6 ADD DUP2 ADD SWAP1 SWAP3 MSTORE PUSH1 0x0 SWAP2 ADD DUP4 DUP4 DUP3 CALLDATACOPY PUSH1 0x1F NOT ADD SWAP4 SWAP3 POP POP POP JUMP JUMPDEST DUP3 PUSH6 0xFFFFFFFFFFFF AND SWAP11 POP PUSH2 0x1855 DUP7 PUSH1 0x41 DUP16 PUSH2 0x1850 SWAP2 SWAP1 PUSH2 0x1C9B JUMP JUMPDEST PUSH2 0x1B10 JUMP JUMPDEST SWAP7 POP PUSH2 0x1860 DUP8 PUSH2 0x427 JUMP JUMPDEST PUSH1 0xFF AND SWAP10 POP POP POP POP POP POP POP POP PUSH1 0x4E DUP7 PUSH2 0x1879 SWAP2 SWAP1 PUSH2 0x1C9B JUMP JUMPDEST SWAP6 POP PUSH1 0x0 DUP1 PUSH1 0x0 JUMPDEST DUP5 DUP2 LT ISZERO PUSH2 0x19EE JUMPI PUSH1 0x20 PUSH2 0x1895 DUP6 DUP12 PUSH2 0x1C9B JUMP JUMPDEST PUSH2 0x189F SWAP2 SWAP1 PUSH2 0x1C9B JUMP JUMPDEST SWAP9 POP PUSH2 0x18AB DUP10 DUP6 PUSH2 0x1C32 JUMP JUMPDEST SWAP1 SWAP4 POP SWAP2 POP PUSH1 0x0 JUMPDEST DUP14 MLOAD DUP2 LT ISZERO PUSH2 0x19E5 JUMPI DUP14 DUP2 DUP2 MLOAD DUP2 LT PUSH2 0x18CE JUMPI PUSH2 0x18CE PUSH2 0x1EC1 JUMP JUMPDEST PUSH1 0x20 MUL PUSH1 0x20 ADD ADD MLOAD DUP5 SUB PUSH2 0x19DD JUMPI PUSH1 0x0 DUP13 DUP3 DUP2 MLOAD DUP2 LT PUSH2 0x18F0 JUMPI PUSH2 0x18F0 PUSH2 0x1EC1 JUMP JUMPDEST PUSH1 0x20 MUL PUSH1 0x20 ADD ADD MLOAD SWAP1 POP PUSH2 0x1909 DUP2 DUP10 PUSH1 0x1 SWAP1 SHL AND ISZERO ISZERO SWAP1 JUMP JUMPDEST ISZERO DUP1 ISZERO PUSH2 0x1932 JUMPI POP PUSH1 0x1 PUSH1 0xFF AND DUP15 DUP4 DUP2 MLOAD DUP2 LT PUSH2 0x1928 JUMPI PUSH2 0x1928 PUSH2 0x1EC1 JUMP JUMPDEST PUSH1 0x20 MUL PUSH1 0x20 ADD ADD MLOAD LT JUMPDEST ISZERO PUSH2 0x19D7 JUMPI DUP4 DUP13 DUP4 DUP2 MLOAD DUP2 LT PUSH2 0x194A JUMPI PUSH2 0x194A PUSH2 0x1EC1 JUMP JUMPDEST PUSH1 0x20 MUL PUSH1 0x20 ADD ADD MLOAD DUP16 DUP5 DUP2 MLOAD DUP2 LT PUSH2 0x1964 JUMPI PUSH2 0x1964 PUSH2 0x1EC1 JUMP JUMPDEST PUSH1 0x20 MUL PUSH1 0x20 ADD ADD MLOAD DUP2 MLOAD DUP2 LT PUSH2 0x197C JUMPI PUSH2 0x197C PUSH2 0x1EC1 JUMP JUMPDEST PUSH1 0x20 MUL PUSH1 0x20 ADD ADD DUP2 DUP2 MSTORE POP POP DUP14 DUP3 DUP2 MLOAD DUP2 LT PUSH2 0x199A JUMPI PUSH2 0x199A PUSH2 0x1EC1 JUMP JUMPDEST PUSH1 0x20 MUL PUSH1 0x20 ADD ADD DUP1 MLOAD DUP1 SWAP2 SWAP1 PUSH2 0x19AF SWAP1 PUSH2 0x1EA8 JUMP JUMPDEST SWAP1 MSTORE POP PUSH1 0x1 DUP9 SHL DUP2 OR DUP14 DUP4 DUP2 MLOAD DUP2 LT PUSH2 0x19CA JUMPI PUSH2 0x19CA PUSH2 0x1EC1 JUMP JUMPDEST PUSH1 0x20 MUL PUSH1 0x20 ADD ADD DUP2 DUP2 MSTORE POP POP JUMPDEST POP PUSH2 0x19E5 JUMP JUMPDEST PUSH1 0x1 ADD PUSH2 0x18B3 JUMP JUMPDEST POP PUSH1 0x1 ADD PUSH2 0x1881 JUMP JUMPDEST POP POP POP DUP6 SWAP5 POP POP POP POP SWAP6 POP SWAP6 SWAP4 POP POP POP POP JUMP JUMPDEST PUSH1 0x60 PUSH1 0x0 DUP4 MLOAD PUSH8 0xFFFFFFFFFFFFFFFF DUP2 GT ISZERO PUSH2 0x1A1F JUMPI PUSH2 0x1A1F PUSH2 0x1D32 JUMP JUMPDEST PUSH1 0x40 MLOAD SWAP1 DUP1 DUP3 MSTORE DUP1 PUSH1 0x20 MUL PUSH1 0x20 ADD DUP3 ADD PUSH1 0x40 MSTORE DUP1 ISZERO PUSH2 0x1A48 JUMPI DUP2 PUSH1 0x20 ADD PUSH1 0x20 DUP3 MUL DUP1 CALLDATASIZE DUP4 CALLDATACOPY ADD SWAP1 POP JUMPDEST POP SWAP1 POP PUSH1 0x1 PUSH1 0x0 JUMPDEST DUP6 MLOAD DUP2 LT ISZERO PUSH2 0x1B06 JUMPI DUP2 DUP6 DUP3 DUP2 MLOAD DUP2 LT PUSH2 0x1A6C JUMPI PUSH2 0x1A6C PUSH2 0x1EC1 JUMP JUMPDEST PUSH1 0x20 MUL PUSH1 0x20 ADD ADD MLOAD LT ISZERO PUSH2 0x1AB9 JUMPI DUP5 DUP2 DUP2 MLOAD DUP2 LT PUSH2 0x1A8C JUMPI PUSH2 0x1A8C PUSH2 0x1EC1 JUMP JUMPDEST PUSH1 0x20 MUL PUSH1 0x20 ADD ADD MLOAD DUP3 PUSH1 0x40 MLOAD PUSH4 0x2B13AEF5 PUSH1 0xE0 SHL DUP2 MSTORE PUSH1 0x4 ADD PUSH2 0x7CA SWAP3 SWAP2 SWAP1 SWAP2 DUP3 MSTORE PUSH1 0x20 DUP3 ADD MSTORE PUSH1 0x40 ADD SWAP1 JUMP JUMPDEST PUSH1 0x0 PUSH2 0x1ADD DUP8 DUP4 DUP2 MLOAD DUP2 LT PUSH2 0x1AD0 JUMPI PUSH2 0x1AD0 PUSH2 0x1EC1 JUMP JUMPDEST PUSH1 0x20 MUL PUSH1 0x20 ADD ADD MLOAD PUSH2 0xAF8 JUMP JUMPDEST SWAP1 POP DUP1 DUP5 DUP4 DUP2 MLOAD DUP2 LT PUSH2 0x1AF2 JUMPI PUSH2 0x1AF2 PUSH2 0x1EC1 JUMP JUMPDEST PUSH1 0x20 SWAP1 DUP2 MUL SWAP2 SWAP1 SWAP2 ADD ADD MSTORE POP PUSH1 0x1 ADD PUSH2 0x1A50 JUMP JUMPDEST POP SWAP1 SWAP5 SWAP4 POP POP POP POP JUMP JUMPDEST PUSH1 0x0 CALLDATASIZE DUP3 SWAP1 SUB DUP1 CALLDATALOAD SWAP1 PUSH1 0x20 DUP2 ADD CALLDATALOAD SWAP1 PUSH1 0x40 ADD CALLDATALOAD DUP4 BYTE PUSH1 0x1B DUP2 EQ DUP1 ISZERO SWAP1 PUSH2 0x1B3A JUMPI POP PUSH1 0xFF DUP2 AND PUSH1 0x1C EQ ISZERO JUMPDEST ISZERO PUSH2 0x1B5B JUMPI PUSH1 0x40 MLOAD PUSH4 0x3335BE5D PUSH1 0xE1 SHL DUP2 MSTORE PUSH1 0x4 DUP2 ADD DUP8 SWAP1 MSTORE PUSH1 0x24 ADD PUSH2 0x7CA JUMP JUMPDEST PUSH32 0x7FFFFFFFFFFFFFFFFFFFFFFFFFFFFFFF5D576E7357A4501DDFE92F46681B20A0 DUP3 GT ISZERO PUSH2 0x1B9F JUMPI PUSH1 0x40 MLOAD PUSH4 0x3335BE5D PUSH1 0xE1 SHL DUP2 MSTORE PUSH1 0x4 DUP2 ADD DUP8 SWAP1 MSTORE PUSH1 0x24 ADD PUSH2 0x7CA JUMP JUMPDEST PUSH1 0x40 DUP1 MLOAD PUSH1 0x0 DUP2 MSTORE PUSH1 0x20 DUP2 ADD DUP1 DUP4 MSTORE DUP9 SWAP1 MSTORE PUSH1 0xFF DUP4 AND SWAP2 DUP2 ADD SWAP2 SWAP1 SWAP2 MSTORE PUSH1 0x60 DUP2 ADD DUP5 SWAP1 MSTORE PUSH1 0x80 DUP2 ADD DUP4 SWAP1 MSTORE PUSH1 0x1 SWAP1 PUSH1 0xA0 ADD PUSH1 0x20 PUSH1 0x40 MLOAD PUSH1 0x20 DUP2 SUB SWAP1 DUP1 DUP5 SUB SWAP1 DUP6 GAS STATICCALL ISZERO DUP1 ISZERO PUSH2 0x1BF2 JUMPI RETURNDATASIZE PUSH1 0x0 DUP1 RETURNDATACOPY RETURNDATASIZE PUSH1 0x0 REVERT JUMPDEST POP POP PUSH1 0x40 MLOAD PUSH1 0x1F NOT ADD MLOAD SWAP5 POP POP PUSH1 0x1 PUSH1 0x1 PUSH1 0xA0 SHL SUB DUP5 AND PUSH2 0x1C29 JUMPI PUSH1 0x40 MLOAD PUSH4 0x3335BE5D PUSH1 0xE1 SHL DUP2 MSTORE PUSH1 0x4 DUP2 ADD DUP8 SWAP1 MSTORE PUSH1 0x24 ADD PUSH2 0x7CA JUMP JUMPDEST POP POP POP SWAP3 SWAP2 POP POP JUMP JUMPDEST PUSH1 0x0 DUP1 DUP1 PUSH2 0x1C40 DUP6 CALLDATASIZE PUSH2 0x1E95 JUMP JUMPDEST SWAP1 POP DUP1 CALLDATALOAD SWAP3 POP PUSH1 0x20 DUP2 ADD CALLDATALOAD SWAP2 POP PUSH1 0x21 DUP5 LT PUSH2 0x1C71 JUMPI PUSH1 0x40 MLOAD PUSH4 0x60007E21 PUSH1 0xE1 SHL DUP2 MSTORE PUSH1 0x4 DUP2 ADD DUP6 SWAP1 MSTORE PUSH1 0x24 ADD PUSH2 0x7CA JUMP JUMPDEST DUP4 PUSH1 0x20 SUB PUSH1 0x8 MUL DUP3 SWAP1 SHR SWAP2 POP POP SWAP3 POP SWAP3 SWAP1 POP JUMP JUMPDEST PUSH4 0x4E487B71 PUSH1 0xE0 SHL PUSH1 0x0 MSTORE PUSH1 0x11 PUSH1 0x4 MSTORE PUSH1 0x24 PUSH1 0x0 REVERT JUMPDEST DUP1 DUP3 ADD DUP1 DUP3 GT ISZERO PUSH2 0x432 JUMPI PUSH2 0x432 PUSH2 0x1C85 JUMP JUMPDEST DUP1 CALLDATALOAD PUSH1 0x1 PUSH1 0x1 PUSH1 0xA0 SHL SUB DUP2 AND DUP2 EQ PUSH2 0x7D3 JUMPI PUSH1 0x0 DUP1 REVERT JUMPDEST PUSH1 0x0 PUSH1 0x20 DUP3 DUP5 SUB SLT ISZERO PUSH2 0x1CD7 JUMPI PUSH1 0x0 DUP1 REVERT JUMPDEST PUSH2 0x847 DUP3 PUSH2 0x1CAE JUMP JUMPDEST PUSH1 0x0 PUSH1 0x20 DUP3 DUP5 SUB SLT ISZERO PUSH2 0x1CF2 JUMPI PUSH1 0x0 DUP1 REVERT JUMPDEST POP CALLDATALOAD SWAP2 SWAP1 POP JUMP JUMPDEST PUSH1 0x0 DUP1 PUSH1 0x0 DUP1 PUSH1 0x80 DUP6 DUP8 SUB SLT ISZERO PUSH2 0x1D0F JUMPI PUSH1 0x0 DUP1 REVERT JUMPDEST PUSH2 0x1D18 DUP6 PUSH2 0x1CAE JUMP JUMPDEST SWAP7 PUSH1 0x20 DUP7 ADD CALLDATALOAD SWAP7 POP PUSH1 0x40 DUP7 ADD CALLDATALOAD SWAP6 PUSH1 0x60 ADD CALLDATALOAD SWAP5 POP SWAP3 POP POP POP JUMP JUMPDEST PUSH4 0x4E487B71 PUSH1 0xE0 SHL PUSH1 0x0 MSTORE PUSH1 0x41 PUSH1 0x4 MSTORE PUSH1 0x24 PUSH1 0x0 REVERT JUMPDEST PUSH1 0x0 PUSH1 0x20 DUP1 DUP4 DUP6 SUB SLT ISZERO PUSH2 0x1D5B JUMPI PUSH1 0x0 DUP1 REVERT JUMPDEST DUP3 CALLDATALOAD PUSH8 0xFFFFFFFFFFFFFFFF DUP1 DUP3 GT ISZERO PUSH2 0x1D73 JUMPI PUSH1 0x0 DUP1 REVERT JUMPDEST DUP2 DUP6 ADD SWAP2 POP DUP6 PUSH1 0x1F DUP4 ADD SLT PUSH2 0x1D87 JUMPI PUSH1 0x0 DUP1 REVERT JUMPDEST DUP2 CALLDATALOAD DUP2 DUP2 GT ISZERO PUSH2 0x1D99 JUMPI PUSH2 0x1D99 PUSH2 0x1D32 JUMP JUMPDEST DUP1 PUSH1 0x5 SHL PUSH1 0x40 MLOAD PUSH1 0x1F NOT PUSH1 0x3F DUP4 ADD AND DUP2 ADD DUP2 DUP2 LT DUP6 DUP3 GT OR ISZERO PUSH2 0x1DBE JUMPI PUSH2 0x1DBE PUSH2 0x1D32 JUMP JUMPDEST PUSH1 0x40 MSTORE SWAP2 DUP3 MSTORE DUP5 DUP3 ADD SWAP3 POP DUP4 DUP2 ADD DUP6 ADD SWAP2 DUP9 DUP4 GT ISZERO PUSH2 0x1DDC JUMPI PUSH1 0x0 DUP1 REVERT JUMPDEST SWAP4 DUP6 ADD SWAP4 JUMPDEST DUP3 DUP6 LT ISZERO PUSH2 0x1DFA JUMPI DUP5 CALLDATALOAD DUP5 MSTORE SWAP4 DUP6 ADD SWAP4 SWAP3 DUP6 ADD SWAP3 PUSH2 0x1DE1 JUMP JUMPDEST SWAP9 SWAP8 POP POP POP POP POP POP POP POP JUMP JUMPDEST PUSH1 0x0 PUSH1 0x20 DUP1 DUP4 MSTORE DUP4 MLOAD DUP1 DUP3 DUP6 ADD MSTORE PUSH1 0x0 JUMPDEST DUP2 DUP2 LT ISZERO PUSH2 0x1E33 JUMPI DUP6 DUP2 ADD DUP4 ADD MLOAD DUP6 DUP3 ADD PUSH1 0x40 ADD MSTORE DUP3 ADD PUSH2 0x1E17 JUMP JUMPDEST POP PUSH1 0x0 PUSH1 0x40 DUP3 DUP7 ADD ADD MSTORE PUSH1 0x40 PUSH1 0x1F NOT PUSH1 0x1F DUP4 ADD AND DUP6 ADD ADD SWAP3 POP POP POP SWAP3 SWAP2 POP POP JUMP JUMPDEST DUP1 DUP3 MUL DUP2 ISZERO DUP3 DUP3 DIV DUP5 EQ OR PUSH2 0x432 JUMPI PUSH2 0x432 PUSH2 0x1C85 JUMP JUMPDEST PUSH4 0x4E487B71 PUSH1 0xE0 SHL PUSH1 0x0 MSTORE PUSH1 0x12 PUSH1 0x4 MSTORE PUSH1 0x24 PUSH1 0x0 REVERT JUMPDEST PUSH1 0x0 DUP3 PUSH2 0x1E90 JUMPI PUSH2 0x1E90 PUSH2 0x1E6B JUMP JUMPDEST POP DIV SWAP1 JUMP JUMPDEST DUP2 DUP2 SUB DUP2 DUP2 GT ISZERO PUSH2 0x432 JUMPI PUSH2 0x432 PUSH2 0x1C85 JUMP JUMPDEST PUSH1 0x0 PUSH1 0x1 DUP3 ADD PUSH2 0x1EBA JUMPI PUSH2 0x1EBA PUSH2 0x1C85 JUMP JUMPDEST POP PUSH1 0x1 ADD SWAP1 JUMP JUMPDEST PUSH4 0x4E487B71 PUSH1 0xE0 SHL PUSH1 0x0 MSTORE PUSH1 0x32 PUSH1 0x4 MSTORE PUSH1 0x24 PUSH1 0x0 REVERT JUMPDEST PUSH1 0x0 DUP3 PUSH2 0x1EE6 JUMPI PUSH2 0x1EE6 PUSH2 0x1E6B JUMP JUMPDEST POP MOD SWAP1 JUMP INVALID LOG2 PUSH5 0x6970667358 0x22 SLT KECCAK256 DUP12 DUP11 SSTORE DUP10 EXTCODESIZE 0x21 0xAA 0xB9 0xBF 0xB8 0xD4 0xED 0xFB 0xD0 POP LOG2 0xAC 0xCD 0xE7 PUSH19 0x1C712AF71EC64770B2D6CBA864736F6C634300 ADDMOD EQ STOP CALLER "},"methodIdentifiers":{"aggregateValues(uint256[])":"b24ebfcc","cancel()":"ea8a1af0","charge(address)":"fc6bd76a","depositETH()":"f6326fb3","ethBalances(address)":"3cfba0e3","extractTimestampsAndAssertAllAreEqual()":"55a547d5","getAllMockAuthorised(address)":"429989f0","getAllMockExceptLastOneAuthorised(address)":"d22158fa","getAuthorisedMockSignerIndex(address)":"95262d9f","getAuthorisedSignerIndex(address)":"3ce142f5","getDataServiceId()":"c274583a","getUniqueSignersThreshold()":"f90c4924","nextChargeDueAt(address)":"b4ee623e","plans(address)":"86d86d84","quoteEthForUsdCents(uint256)":"460b410d","subscribe(address,uint256,uint256,uint256)":"4907cd0f","validateTimestamp(uint256)":"f50b2efe","withdrawETH(uint256)":"f14210a6"}}}}}