{"contracts/UsdSubscriptionProd.sol":{"UsdSubscriptionProd":{"abi":[{"inputs":[],"name":"CalldataMustHaveValidPayload","type":"error"},{"inputs":[],"name":"CalldataOverOrUnderFlow","type":"error"},{"inputs":[],"name":"CanNotPickMedianOfEmptyArray","type":"error"},{"inputs":[],"name":"DataPackageTimestampMustNotBeZero","type":"error"},{"inputs":[],"name":"DataPackageTimestampsMustBeEqual","type":"error"},{"inputs":[],"name":"DataTimestampCannotBeZero","type":"error"},{"inputs":[],"name":"EachSignerMustProvideTheSameValue","type":"error"},{"inputs":[],"name":"EmptyCalldataPointersArr","type":"error"},{"inputs":[],"name":"GetDataServiceIdNotImplemented","type":"error"},{"inputs":[],"name":"IncorrectUnsignedMetadataSize","type":"error"},{"inputs":[{"internalType":"uint256","name":"receivedSignersCount","type":"uint256"},{"internalType":"uint256","name":"requiredSignersCount","type":"uint256"}],"name":"InsufficientNumberOfUniqueSigners","type":"error"},{"inputs":[],"name":"InvalidCalldataPointer","type":"error"},{"inputs":[{"internalType":"bytes32","name":"signedHash","type":"bytes32"}],"name":"InvalidSignature","type":"error"},{"inputs":[],"name":"RedstonePayloadMustHaveAtLeastOneDataPackage","type":"error"},{"inputs":[{"internalType":"address","name":"receivedSigner","type":"address"}],"name":"SignerNotAuthorised","type":"error"},{"inputs":[{"internalType":"uint256","name":"receivedTimestampSeconds","type":"uint256"},{"internalType":"uint256","name":"blockTimestamp","type":"uint256"}],"name":"TimestampFromTooLongFuture","type":"error"},{"inputs":[{"internalType":"uint256","name":"receivedTimestampSeconds","type":"uint256"},{"internalType":"uint256","name":"blockTimestamp","type":"uint256"}],"name":"TimestampIsTooOld","type":"error"},{"inputs":[],"name":"TimestampsMustBeEqual","type":"error"},{"inputs":[{"internalType":"uint256","name":"valueByteSize","type":"uint256"}],"name":"TooLargeValueByteSize","type":"error"},{"anonymous":false,"inputs":[{"indexed":true,"internalType":"address","name":"payer","type":"address"}],"name":"Cancelled","type":"event"},{"anonymous":false,"inputs":[{"indexed":true,"internalType":"address","name":"payer","type":"address"},{"indexed":true,"internalType":"address","name":"merchant","type":"address"},{"indexed":false,"internalType":"uint256","name":"usdCents","type":"uint256"},{"indexed":false,"internalType":"uint256","name":"priceEthUsd_8","type":"uint256"},{"indexed":false,"internalType":"uint256","name":"paidEthWei","type":"uint256"},{"indexed":false,"internalType":"uint256","name":"nextChargeAt","type":"uint256"}],"name":"Charged","type":"event"},{"anonymous":false,"inputs":[{"indexed":true,"internalType":"address","name":"payer","type":"address"},{"indexed":false,"internalType":"uint256","name":"amount","type":"uint256"}],"name":"Deposited","type":"event"},{"anonymous":false,"inputs":[{"indexed":true,"internalType":"address","name":"payer","type":"address"},{"indexed":true,"internalType":"address","name":"merchant","type":"address"},{"indexed":false,"internalType":"uint256","name":"usdCentsPerPeriod","type":"uint256"},{"indexed":false,"internalType":"uint256","name":"period","type":"uint256"},{"indexed":false,"internalType":"uint256","name":"maxEthPerChargeWei","type":"uint256"}],"name":"Subscribed","type":"event"},{"anonymous":false,"inputs":[{"indexed":true,"internalType":"address","name":"payer","type":"address"},{"indexed":false,"internalType":"uint256","name":"amount","type":"uint256"}],"name":"Withdrawn","type":"event"},{"inputs":[{"internalType":"uint256[]","name":"values","type":"uint256[]"}],"name":"aggregateValues","outputs":[{"internalType":"uint256","name":"","type":"uint256"}],"stateMutability":"view","type":"function"},{"inputs":[],"name":"cancel","outputs":[],"stateMutability":"nonpayable","type":"function"},{"inputs":[{"internalType":"address","name":"payer","type":"address"}],"name":"charge","outputs":[],"stateMutability":"nonpayable","type":"function"},{"inputs":[],"name":"depositETH","outputs":[],"stateMutability":"payable","type":"function"},{"inputs":[{"internalType":"address","name":"","type":"address"}],"name":"ethBalances","outputs":[{"internalType":"uint256","name":"","type":"uint256"}],"stateMutability":"view","type":"function"},{"inputs":[],"name":"extractTimestampsAndAssertAllAreEqual","outputs":[{"internalType":"uint256","name":"extractedTimestamp","type":"uint256"}],"stateMutability":"pure","type":"function"},{"inputs":[{"internalType":"address","name":"signerAddress","type":"address"}],"name":"getAuthorisedSignerIndex","outputs":[{"internalType":"uint8","name":"","type":"uint8"}],"stateMutability":"view","type":"function"},{"inputs":[],"name":"getDataServiceId","outputs":[{"internalType":"string","name":"","type":"string"}],"stateMutability":"view","type":"function"},{"inputs":[],"name":"getUniqueSignersThreshold","outputs":[{"internalType":"uint8","name":"","type":"uint8"}],"stateMutability":"view","type":"function"},{"inputs":[{"internalType":"address","name":"payer","type":"address"}],"name":"nextChargeDueAt","outputs":[{"internalType":"uint256","name":"","type":"uint256"}],"stateMutability":"view","type":"function"},{"inputs":[{"internalType":"address","name":"","type":"address"}],"name":"plans","outputs":[{"internalType":"address","name":"merchant","type":"address"},{"internalType":"uint256","name":"usdCentsPerPeriod","type":"uint256"},{"internalType":"uint256","name":"period","type":"uint256"},{"internalType":"uint256","name":"lastCharged","type":"uint256"},{"internalType":"uint256","name":"maxEthPerChargeWei","type":"uint256"},{"internalType":"bool","name":"active","type":"bool"}],"stateMutability":"view","type":"function"},{"inputs":[{"internalType":"uint256","name":"usdCents","type":"uint256"}],"name":"quoteEthForUsdCents","outputs":[{"internalType":"uint256","name":"ethWei","type":"uint256"}],"stateMutability":"view","type":"function"},{"inputs":[{"internalType":"address","name":"merchant","type":"address"},{"internalType":"uint256","name":"usdCentsPerPeriod","type":"uint256"},{"internalType":"uint256","name":"period","type":"uint256"},{"internalType":"uint256","name":"maxEthPerChargeWei","type":"uint256"}],"name":"subscribe","outputs":[],"stateMutability":"nonpayable","type":"function"},{"inputs":[{"internalType":"uint256","name":"receivedTimestampMilliseconds","type":"uint256"}],"name":"validateTimestamp","outputs":[],"stateMutability":"view","type":"function"},{"inputs":[{"internalType":"uint256","name":"amount","type":"uint256"}],"name":"withdrawETH","outputs":[],"stateMutability":"nonpayable","type":"function"},{"stateMutability":"payable","type":"receive"}],"evm":{"bytecode":{"linkReferences":{},"object":"608060405234801561001057600080fd5b50611baa806100206000396000f3fe6080604052600436106100ec5760003560e01c8063b4ee623e1161008a578063f50b2efe11610059578063f50b2efe1461036c578063f6326fb31461038c578063f90c492414610394578063fc6bd76a146103a857600080fd5b8063b4ee623e146102d3578063c274583a146102f3578063ea8a1af014610337578063f14210a61461034c57600080fd5b80634907cd0f116100c65780634907cd0f146101e357806355a547d51461020557806386d86d841461021a578063b24ebfcc146102b357600080fd5b80633ce142f5146101515780633cfba0e314610188578063460b410d146101c357600080fd5b3661014c573360009081526020819052604081208054349290610110908490611924565b909155505060405134815233907f2da466a7b24304f47e87fa2e1e5a81b9831ce54fec19055ce277ca2f39ba42c49060200160405180910390a2005b600080fd5b34801561015d57600080fd5b5061017161016c36600461194e565b6103c8565b60405160ff90911681526020015b60405180910390f35b34801561019457600080fd5b506101b56101a336600461194e565b60006020819052908152604090205481565b60405190815260200161017f565b3480156101cf57600080fd5b506101b56101de366004611969565b6104d4565b3480156101ef57600080fd5b506102036101fe366004611982565b61054a565b005b34801561021157600080fd5b506101b56106db565b34801561022657600080fd5b5061027a61023536600461194e565b60016020819052600091825260409091208054918101546002820154600383015460048401546005909401546001600160a01b03909516949293919290919060ff1686565b604080516001600160a01b03909716875260208701959095529385019290925260608401526080830152151560a082015260c00161017f565b3480156102bf57600080fd5b506101b56102ce3660046119d1565b6107e9565b3480156102df57600080fd5b506101b56102ee36600461194e565b6107fa565b3480156102ff57600080fd5b5060408051808201825260158152741c99591cdd1bdb994b5c1c9a5b585c9e4b5c1c9bd9605a1b6020820152905161017f9190611a8f565b34801561034357600080fd5b50610203610850565b34801561035857600080fd5b50610203610367366004611969565b6108d7565b34801561037857600080fd5b50610203610387366004611969565b610a34565b610203610a40565b3480156103a057600080fd5b506003610171565b3480156103b457600080fd5b506102036103c336600461194e565b610ad4565b60006001600160a01b038216738bb8f32df04c8b654987daaed53d6b6091e3b774036103f657506000919050565b6001600160a01b03821673deb22f54738d54976c4c0fe5ce6d408e40d884990361042257506001919050565b6001600160a01b0382167351ce04be4b3e32572c4ec9135221d0691ba7d2020361044e57506002919050565b6001600160a01b03821673dd682daec5a90dd295d14da4b0bec9281017b5be0361047a57506003919050565b6001600160a01b038216739c5ae89c4af6aa32ce58588dbaf90d18a855b6de036104a657506004919050565b6040516303b1166f60e61b81526001600160a01b03831660048201526024015b60405180910390fd5b919050565b6000806104e66208aa8960eb1b610ddc565b9050600081116105245760405162461bcd60e51b815260206004820152600960248201526862616420707269636560b81b60448201526064016104c6565b806105398469d3c21bcecceda1000000611add565b6105439190611b0a565b9392505050565b6001600160a01b03841661058d5760405162461bcd60e51b815260206004820152600a60248201526906d65726368616e743d360b41b60448201526064016104c6565b600083116105c75760405162461bcd60e51b8152602060048201526007602482015266070726963653d360cc1b60448201526064016104c6565b600082116106025760405162461bcd60e51b81526020600482015260086024820152670706572696f643d360c41b60448201526064016104c6565b6040805160c0810182526001600160a01b03868116808352602080840188815284860188815260006060808801828152608089018b8152600160a08b0181815233808752828a52958d90209b518c546001600160a01b0319169b169a909a178b559551958a019590955592516002890155915160038801559151600487015593516005909501805460ff1916951515959095179094558451888152908101879052938401859052927f1faf2b5a74c296487268de9f9e3ddf269ca3980197cda4ee5c927ac895aeee88910160405180910390a350505050565b6000806106e6610e4c565b905060006106f382610ef3565b925061ffff169050600081900361071d57604051632154bfcf60e21b815260040160405180910390fd5b60005b818110156107e357600061073384610f42565b9050600080610743606887611924565b905060006107518236611b1e565b9050803592508265ffffffffffff1660000361078057604051630336dc9d60e41b815260040160405180910390fd5b87600003610798578265ffffffffffff1697506107c0565b878365ffffffffffff16146107c05760405163d9d1f46560e01b815260040160405180910390fd5b6107ca8488611924565b96505050505080806107db90611b31565b915050610720565b50505090565b60006107f482610f7e565b92915050565b6001600160a01b0381166000908152600160205260408120600581015460ff16610828575060001992915050565b806003015460000361083c57504292915050565b806002015481600301546105439190611924565b336000908152600160205260409020600581015460ff1661089d5760405162461bcd60e51b8152602060048201526007602482015266373790383630b760c91b60448201526064016104c6565b60058101805460ff1916905560405133907f398bd6b21ae4164ec322fb0eb8c2eb6277f36fd41903fbbed594dfe12559128190600090a250565b600081116109105760405162461bcd60e51b81526004016104c6906020808252600490820152635a65726f60e01b604082015260600190565b336000908152602081905260409020548181101561095f5760405162461bcd60e51b815260206004820152600c60248201526b125b9cdd59999a58da595b9d60a21b60448201526064016104c6565b3360008181526020819052604080822085850390555190919084908381818185875af1925050503d80600081146109b2576040519150601f19603f3d011682016040523d82523d6000602084013e6109b7565b606091505b50509050806109fa5760405162461bcd60e51b815260206004820152600f60248201526e15da5d1a191c985dc819985a5b1959608a1b60448201526064016104c6565b60405183815233907f7084f5476618d8e60b11ef0d7d3f06914655adb8793e28ff7f018d4c76d505d59060200160405180910390a2505050565b610a3d81610f89565b50565b60003411610a795760405162461bcd60e51b815260206004820152600660248201526509cde408aa8960d31b60448201526064016104c6565b3360009081526020819052604081208054349290610a98908490611924565b909155505060405134815233907f2da466a7b24304f47e87fa2e1e5a81b9831ce54fec19055ce277ca2f39ba42c49060200160405180910390a2565b6001600160a01b0381166000908152600160205260409020600581015460ff16610b2a5760405162461bcd60e51b8152602060048201526007602482015266373790383630b760c91b60448201526064016104c6565b610b33826107fa565b421015610b6c5760405162461bcd60e51b81526020600482015260076024820152666e6f742064756560c81b60448201526064016104c6565b6000610b7d6208aa8960eb1b610ddc565b905060008111610bbb5760405162461bcd60e51b815260206004820152600960248201526862616420707269636560b81b60448201526064016104c6565b6001820154600082610bd78369d3c21bcecceda1000000611add565b610be19190611b0a565b905060008111610c1c5760405162461bcd60e51b81526004016104c69060208082526004908201526374696e7960e01b604082015260600190565b836004015481111580610c3157506004840154155b610c6b5760405162461bcd60e51b815260206004820152600b60248201526a065786365656473206361760ac1b60448201526064016104c6565b6001600160a01b038516600090815260208190526040902054811115610cca5760405162461bcd60e51b8152602060048201526014602482015273696e73756666696369656e742062616c616e636560601b60448201526064016104c6565b6001600160a01b0385811660009081526020819052604080822080548590039055865490519192169083908381818185875af1925050503d8060008114610d2d576040519150601f19603f3d011682016040523d82523d6000602084013e610d32565b606091505b5050905080610d6e5760405162461bcd60e51b81526020600482015260086024820152671c185e4819985a5b60c21b60448201526064016104c6565b42600386015584546001600160a01b039081169087167fb3e1a1d5eec96c841d90f413aa5261898365653f66cd2769cffe66bbfb28c7a0858786610db18c6107fa565b60408051948552602085019390935291830152606082015260800160405180910390a3505050505050565b604080516001808252818301909252600091829190602080830190803683370190505090508281600081518110610e1557610e15611b4a565b602002602001018181525050610e2a8161100d565b600081518110610e3c57610e3c611b4a565b6020026020010151915050919050565b60006602ed57011e0000601f1936013581161480610e7d576040516373bb264f60e11b815260040160405180910390fd5b60003660291115610ea157604051632bcb7bc560e11b815260040160405180910390fd5b5060281936013560006009610ebc600362ffffff8516611924565b610ec69190611924565b905036610ed4600283611924565b11156105435760405163c30a7bd760e01b815260040160405180910390fd5b60008080610f02602085611924565b905036811115610f2557604051632bcb7bc560e11b815260040160405180910390fd5b3681900335925082610f38600286611924565b9250925050915091565b6000806000610f508461102f565b9092509050604e610f62826020611924565b610f6c9084611add565b610f769190611924565b949350505050565b60006107f482611082565b6000610f976103e883611b0a565b905080421015610fd957603c610fad4283611b1e565b1115610fd55760405163b6b0916d60e01b8152600481018290524260248201526044016104c6565b5050565b60b4610fe58242611b1e565b1115610fd557604051630321d0b560e01b8152600481018290524260248201526044016104c6565b606060008061101b84611196565b9150915061102881610a34565b5092915050565b6000808080806020611042604188611924565b61104c9190611924565b6110569036611b1e565b803593509050611067600382611b1e565b62ffffff9390931696923563ffffffff169550919350505050565b600081516002036110d9576002826001815181106110a2576110a2611b4a565b6020026020010151836000815181106110bd576110bd611b4a565b60200260200101516110cf9190611924565b6107f49190611b0a565b81516000036110fb57604051639e198af960e01b815260040160405180910390fd5b611104826113b1565b6000600283516111149190611b0a565b9050600283516111249190611b60565b60000361118457600083828151811061113f5761113f611b4a565b6020026020010151846001846111559190611b1e565b8151811061116557611165611b4a565b60200260200101516111779190611924565b9050610f76600282611b0a565b828181518110610e3c57610e3c611b4a565b6060600080835167ffffffffffffffff8111156111b5576111b56119bb565b6040519080825280602002602001820160405280156111de578160200160208202803683370190505b5090506000845167ffffffffffffffff8111156111fd576111fd6119bb565b604051908082528060200260200182016040528015611226578160200160208202803683370190505b5090506000855167ffffffffffffffff811115611245576112456119bb565b60405190808252806020026020018201604052801561127857816020015b60608152602001906001900390816112635790505b509050600360005b87518110156112f1578167ffffffffffffffff8111156112a2576112a26119bb565b6040519080825280602002602001820160405280156112cb578160200160208202803683370190505b508382815181106112de576112de611b4a565b6020908102919091010152600101611280565b5060006112fc610e4c565b9050600061130982610ef3565b60405190935061ffff909116915060005b828110156113985760006113318c8a8a8a896113ff565b909550905060008190036113585760405163dfb25a7960e01b815260040160405180910390fd5b898114611388578960000361136f57809950611388565b60405163265e23a160e11b815260040160405180910390fd5b506020820160405260010161131a565b506113a3858861168a565b985050505050505050915091565b8051602082016020820281019150805b828110156113f957815b818110156113f05781518151808210156113e6578084528183525b50506020016113cb565b506020016113c1565b50505050565b60008060008060006114108661102f565b909250905060008060608180600d611429602088611924565b6114339089611add565b61143d9190611924565b9150600061144c60688d611924565b6114569036611b1e565b905060008361146660418f611924565b6114709190611924565b61147a9036611b1e565b90506114868482611499565b94508360208601209550813592506114bd565b60408051838152602081850181019092526000910183838237601f19019392505050565b8265ffffffffffff169a506114de8660418f6114d99190611924565b611799565b96506114e9876103c8565b60ff16995050505050505050604e866115029190611924565b955060008060005b8481101561167757602061151e858b611924565b6115289190611924565b985061153489856118bb565b909350915060005b8d5181101561166e578d818151811061155757611557611b4a565b602002602001015184036116665760008c828151811061157957611579611b4a565b6020026020010151905061159281896001901b16151590565b1580156115bb5750600360ff168e83815181106115b1576115b1611b4a565b6020026020010151105b1561166057838c83815181106115d3576115d3611b4a565b60200260200101518f84815181106115ed576115ed611b4a565b60200260200101518151811061160557611605611b4a565b6020026020010181815250508d828151811061162357611623611b4a565b60200260200101805180919061163890611b31565b9052506001881b81178d838151811061165357611653611b4a565b6020026020010181815250505b5061166e565b60010161153c565b5060010161150a565b5050508594505050509550959350505050565b60606000835167ffffffffffffffff8111156116a8576116a86119bb565b6040519080825280602002602001820160405280156116d1578160200160208202803683370190505b509050600360005b855181101561178f57818582815181106116f5576116f5611b4a565b602002602001015110156117425784818151811061171557611715611b4a565b602002602001015182604051632b13aef560e01b81526004016104c6929190918252602082015260400190565b600061176687838151811061175957611759611b4a565b60200260200101516107e9565b90508084838151811061177b5761177b611b4a565b6020908102919091010152506001016116d9565b5090949350505050565b60003682900380359060208101359060400135831a601b81148015906117c3575060ff8116601c14155b156117e457604051633335be5d60e11b8152600481018790526024016104c6565b7f7fffffffffffffffffffffffffffffff5d576e7357a4501ddfe92f46681b20a082111561182857604051633335be5d60e11b8152600481018790526024016104c6565b60408051600081526020810180835288905260ff831691810191909152606081018490526080810183905260019060a0016020604051602081039080840390855afa15801561187b573d6000803e3d6000fd5b5050604051601f1901519450506001600160a01b0384166118b257604051633335be5d60e11b8152600481018790526024016104c6565b50505092915050565b600080806118c98536611b1e565b90508035925060208101359150602184106118fa576040516360007e2160e11b8152600481018590526024016104c6565b8360200360080282901c9150509250929050565b634e487b7160e01b600052601160045260246000fd5b808201808211156107f4576107f461190e565b80356001600160a01b03811681146104cf57600080fd5b60006020828403121561196057600080fd5b61054382611937565b60006020828403121561197b57600080fd5b5035919050565b6000806000806080858703121561199857600080fd5b6119a185611937565b966020860135965060408601359560600135945092505050565b634e487b7160e01b600052604160045260246000fd5b600060208083850312156119e457600080fd5b823567ffffffffffffffff808211156119fc57600080fd5b818501915085601f830112611a1057600080fd5b813581811115611a2257611a226119bb565b8060051b604051601f19603f83011681018181108582111715611a4757611a476119bb565b604052918252848201925083810185019188831115611a6557600080fd5b938501935b82851015611a8357843584529385019392850192611a6a565b98975050505050505050565b600060208083528351808285015260005b81811015611abc57858101830151858201604001528201611aa0565b506000604082860101526040601f19601f8301168501019250505092915050565b80820281158282048414176107f4576107f461190e565b634e487b7160e01b600052601260045260246000fd5b600082611b1957611b19611af4565b500490565b818103818111156107f4576107f461190e565b600060018201611b4357611b4361190e565b5060010190565b634e487b7160e01b600052603260045260246000fd5b600082611b6f57611b6f611af4565b50069056fea26469706673582212207872789d62728bb6a51dc413521f0a3987d4a575ff9f84ee09ab0e49b4a8a74f64736f6c63430008140033","opcodes":"PUSH1 0x80 PUSH1 0x40 MSTORE CALLVALUE DUP1 ISZERO PUSH2 0x10 JUMPI PUSH1 0x0 DUP1 REVERT JUMPDEST POP PUSH2 0x1BAA DUP1 PUSH2 0x20 PUSH1 0x0 CODECOPY PUSH1 0x0 RETURN INVALID PUSH1 0x80 PUSH1 0x40 MSTORE PUSH1 0x4 CALLDATASIZE LT PUSH2 0xEC JUMPI PUSH1 0x0 CALLDATALOAD PUSH1 0xE0 SHR DUP1 PUSH4 0xB4EE623E GT PUSH2 0x8A JUMPI DUP1 PUSH4 0xF50B2EFE GT PUSH2 0x59 JUMPI DUP1 PUSH4 0xF50B2EFE EQ PUSH2 0x36C JUMPI DUP1 PUSH4 0xF6326FB3 EQ PUSH2 0x38C JUMPI DUP1 PUSH4 0xF90C4924 EQ PUSH2 0x394 JUMPI DUP1 PUSH4 0xFC6BD76A EQ PUSH2 0x3A8 JUMPI PUSH1 0x0 DUP1 REVERT JUMPDEST DUP1 PUSH4 0xB4EE623E EQ PUSH2 0x2D3 JUMPI DUP1 PUSH4 0xC274583A EQ PUSH2 0x2F3 JUMPI DUP1 PUSH4 0xEA8A1AF0 EQ PUSH2 0x337 JUMPI DUP1 PUSH4 0xF14210A6 EQ PUSH2 0x34C JUMPI PUSH1 0x0 DUP1 REVERT JUMPDEST DUP1 PUSH4 0x4907CD0F GT PUSH2 0xC6 JUMPI DUP1 PUSH4 0x4907CD0F EQ PUSH2 0x1E3 JUMPI DUP1 PUSH4 0x55A547D5 EQ PUSH2 0x205 JUMPI DUP1 PUSH4 0x86D86D84 EQ PUSH2 0x21A JUMPI DUP1 PUSH4 0xB24EBFCC EQ PUSH2 0x2B3 JUMPI PUSH1 0x0 DUP1 REVERT JUMPDEST DUP1 PUSH4 0x3CE142F5 EQ PUSH2 0x151 JUMPI DUP1 PUSH4 0x3CFBA0E3 EQ PUSH2 0x188 JUMPI DUP1 PUSH4 0x460B410D EQ PUSH2 0x1C3 JUMPI PUSH1 0x0 DUP1 REVERT JUMPDEST CALLDATASIZE PUSH2 0x14C JUMPI CALLER PUSH1 0x0 SWAP1 DUP2 MSTORE PUSH1 0x20 DUP2 SWAP1 MSTORE PUSH1 0x40 DUP2 KECCAK256 DUP1 SLOAD CALLVALUE SWAP3 SWAP1 PUSH2 0x110 SWAP1 DUP5 SWAP1 PUSH2 0x1924 JUMP JUMPDEST SWAP1 SWAP2 SSTORE POP POP PUSH1 0x40 MLOAD CALLVALUE DUP2 MSTORE CALLER SWAP1 PUSH32 0x2DA466A7B24304F47E87FA2E1E5A81B9831CE54FEC19055CE277CA2F39BA42C4 SWAP1 PUSH1 0x20 ADD PUSH1 0x40 MLOAD DUP1 SWAP2 SUB SWAP1 LOG2 STOP JUMPDEST PUSH1 0x0 DUP1 REVERT JUMPDEST CALLVALUE DUP1 ISZERO PUSH2 0x15D JUMPI PUSH1 0x0 DUP1 REVERT JUMPDEST POP PUSH2 0x171 PUSH2 0x16C CALLDATASIZE PUSH1 0x4 PUSH2 0x194E JUMP JUMPDEST PUSH2 0x3C8 JUMP JUMPDEST PUSH1 0x40 MLOAD PUSH1 0xFF SWAP1 SWAP2 AND DUP2 MSTORE PUSH1 0x20 ADD JUMPDEST PUSH1 0x40 MLOAD DUP1 SWAP2 SUB SWAP1 RETURN JUMPDEST CALLVALUE DUP1 ISZERO PUSH2 0x194 JUMPI PUSH1 0x0 DUP1 REVERT JUMPDEST POP PUSH2 0x1B5 PUSH2 0x1A3 CALLDATASIZE PUSH1 0x4 PUSH2 0x194E JUMP JUMPDEST PUSH1 0x0 PUSH1 0x20 DUP2 SWAP1 MSTORE SWAP1 DUP2 MSTORE PUSH1 0x40 SWAP1 KECCAK256 SLOAD DUP2 JUMP JUMPDEST PUSH1 0x40 MLOAD SWAP1 DUP2 MSTORE PUSH1 0x20 ADD PUSH2 0x17F JUMP JUMPDEST CALLVALUE DUP1 ISZERO PUSH2 0x1CF JUMPI PUSH1 0x0 DUP1 REVERT JUMPDEST POP PUSH2 0x1B5 PUSH2 0x1DE CALLDATASIZE PUSH1 0x4 PUSH2 0x1969 JUMP JUMPDEST PUSH2 0x4D4 JUMP JUMPDEST CALLVALUE DUP1 ISZERO PUSH2 0x1EF JUMPI PUSH1 0x0 DUP1 REVERT JUMPDEST POP PUSH2 0x203 PUSH2 0x1FE CALLDATASIZE PUSH1 0x4 PUSH2 0x1982 JUMP JUMPDEST PUSH2 0x54A JUMP JUMPDEST STOP JUMPDEST CALLVALUE DUP1 ISZERO PUSH2 0x211 JUMPI PUSH1 0x0 DUP1 REVERT JUMPDEST POP PUSH2 0x1B5 PUSH2 0x6DB JUMP JUMPDEST CALLVALUE DUP1 ISZERO PUSH2 0x226 JUMPI PUSH1 0x0 DUP1 REVERT JUMPDEST POP PUSH2 0x27A PUSH2 0x235 CALLDATASIZE PUSH1 0x4 PUSH2 0x194E JUMP JUMPDEST PUSH1 0x1 PUSH1 0x20 DUP2 SWAP1 MSTORE PUSH1 0x0 SWAP2 DUP3 MSTORE PUSH1 0x40 SWAP1 SWAP2 KECCAK256 DUP1 SLOAD SWAP2 DUP2 ADD SLOAD PUSH1 0x2 DUP3 ADD SLOAD PUSH1 0x3 DUP4 ADD SLOAD PUSH1 0x4 DUP5 ADD SLOAD PUSH1 0x5 SWAP1 SWAP5 ADD SLOAD PUSH1 0x1 PUSH1 0x1 PUSH1 0xA0 SHL SUB SWAP1 SWAP6 AND SWAP5 SWAP3 SWAP4 SWAP2 SWAP3 SWAP1 SWAP2 SWAP1 PUSH1 0xFF AND DUP7 JUMP JUMPDEST PUSH1 0x40 DUP1 MLOAD PUSH1 0x1 PUSH1 0x1 PUSH1 0xA0 SHL SUB SWAP1 SWAP8 AND DUP8 MSTORE PUSH1 0x20 DUP8 ADD SWAP6 SWAP1 SWAP6 MSTORE SWAP4 DUP6 ADD SWAP3 SWAP1 SWAP3 MSTORE PUSH1 0x60 DUP5 ADD MSTORE PUSH1 0x80 DUP4 ADD MSTORE ISZERO ISZERO PUSH1 0xA0 DUP3 ADD MSTORE PUSH1 0xC0 ADD PUSH2 0x17F JUMP JUMPDEST CALLVALUE DUP1 ISZERO PUSH2 0x2BF JUMPI PUSH1 0x0 DUP1 REVERT JUMPDEST POP PUSH2 0x1B5 PUSH2 0x2CE CALLDATASIZE PUSH1 0x4 PUSH2 0x19D1 JUMP JUMPDEST PUSH2 0x7E9 JUMP JUMPDEST CALLVALUE DUP1 ISZERO PUSH2 0x2DF JUMPI PUSH1 0x0 DUP1 REVERT JUMPDEST POP PUSH2 0x1B5 PUSH2 0x2EE CALLDATASIZE PUSH1 0x4 PUSH2 0x194E JUMP JUMPDEST PUSH2 0x7FA JUMP JUMPDEST CALLVALUE DUP1 ISZERO PUSH2 0x2FF JUMPI PUSH1 0x0 DUP1 REVERT JUMPDEST POP PUSH1 0x40 DUP1 MLOAD DUP1 DUP3 ADD DUP3 MSTORE PUSH1 0x15 DUP2 MSTORE PUSH21 0x1C99591CDD1BDB994B5C1C9A5B585C9E4B5C1C9BD9 PUSH1 0x5A SHL PUSH1 0x20 DUP3 ADD MSTORE SWAP1 MLOAD PUSH2 0x17F SWAP2 SWAP1 PUSH2 0x1A8F JUMP JUMPDEST CALLVALUE DUP1 ISZERO PUSH2 0x343 JUMPI PUSH1 0x0 DUP1 REVERT JUMPDEST POP PUSH2 0x203 PUSH2 0x850 JUMP JUMPDEST CALLVALUE DUP1 ISZERO PUSH2 0x358 JUMPI PUSH1 0x0 DUP1 REVERT JUMPDEST POP PUSH2 0x203 PUSH2 0x367 CALLDATASIZE PUSH1 0x4 PUSH2 0x1969 JUMP JUMPDEST PUSH2 0x8D7 JUMP JUMPDEST CALLVALUE DUP1 ISZERO PUSH2 0x378 JUMPI PUSH1 0x0 DUP1 REVERT JUMPDEST POP PUSH2 0x203 PUSH2 0x387 CALLDATASIZE PUSH1 0x4 PUSH2 0x1969 JUMP JUMPDEST PUSH2 0xA34 JUMP JUMPDEST PUSH2 0x203 PUSH2 0xA40 JUMP JUMPDEST CALLVALUE DUP1 ISZERO PUSH2 0x3A0 JUMPI PUSH1 0x0 DUP1 REVERT JUMPDEST POP PUSH1 0x3 PUSH2 0x171 JUMP JUMPDEST CALLVALUE DUP1 ISZERO PUSH2 0x3B4 JUMPI PUSH1 0x0 DUP1 REVERT JUMPDEST POP PUSH2 0x203 PUSH2 0x3C3 CALLDATASIZE PUSH1 0x4 PUSH2 0x194E JUMP JUMPDEST PUSH2 0xAD4 JUMP JUMPDEST PUSH1 0x0 PUSH1 0x1 PUSH1 0x1 PUSH1 0xA0 SHL SUB DUP3 AND PUSH20 0x8BB8F32DF04C8B654987DAAED53D6B6091E3B774 SUB PUSH2 0x3F6 JUMPI POP PUSH1 0x0 SWAP2 SWAP1 POP JUMP JUMPDEST PUSH1 0x1 PUSH1 0x1 PUSH1 0xA0 SHL SUB DUP3 AND PUSH20 0xDEB22F54738D54976C4C0FE5CE6D408E40D88499 SUB PUSH2 0x422 JUMPI POP PUSH1 0x1 SWAP2 SWAP1 POP JUMP JUMPDEST PUSH1 0x1 PUSH1 0x1 PUSH1 0xA0 SHL SUB DUP3 AND PUSH20 0x51CE04BE4B3E32572C4EC9135221D0691BA7D202 SUB PUSH2 0x44E JUMPI POP PUSH1 0x2 SWAP2 SWAP1 POP JUMP JUMPDEST PUSH1 0x1 PUSH1 0x1 PUSH1 0xA0 SHL SUB DUP3 AND PUSH20 0xDD682DAEC5A90DD295D14DA4B0BEC9281017B5BE SUB PUSH2 0x47A JUMPI POP PUSH1 0x3 SWAP2 SWAP1 POP JUMP JUMPDEST PUSH1 0x1 PUSH1 0x1 PUSH1 0xA0 SHL SUB DUP3 AND PUSH20 0x9C5AE89C4AF6AA32CE58588DBAF90D18A855B6DE SUB PUSH2 0x4A6 JUMPI POP PUSH1 0x4 SWAP2 SWAP1 POP JUMP JUMPDEST PUSH1 0x40 MLOAD PUSH4 0x3B1166F PUSH1 0xE6 SHL DUP2 MSTORE PUSH1 0x1 PUSH1 0x1 PUSH1 0xA0 SHL SUB DUP4 AND PUSH1 0x4 DUP3 ADD MSTORE PUSH1 0x24 ADD JUMPDEST PUSH1 0x40 MLOAD DUP1 SWAP2 SUB SWAP1 REVERT JUMPDEST SWAP2 SWAP1 POP JUMP JUMPDEST PUSH1 0x0 DUP1 PUSH2 0x4E6 PUSH3 0x8AA89 PUSH1 0xEB SHL PUSH2 0xDDC JUMP JUMPDEST SWAP1 POP PUSH1 0x0 DUP2 GT PUSH2 0x524 JUMPI PUSH1 0x40 MLOAD PUSH3 0x461BCD PUSH1 0xE5 SHL DUP2 MSTORE PUSH1 0x20 PUSH1 0x4 DUP3 ADD MSTORE PUSH1 0x9 PUSH1 0x24 DUP3 ADD MSTORE PUSH9 0x626164207072696365 PUSH1 0xB8 SHL PUSH1 0x44 DUP3 ADD MSTORE PUSH1 0x64 ADD PUSH2 0x4C6 JUMP JUMPDEST DUP1 PUSH2 0x539 DUP5 PUSH10 0xD3C21BCECCEDA1000000 PUSH2 0x1ADD JUMP JUMPDEST PUSH2 0x543 SWAP2 SWAP1 PUSH2 0x1B0A JUMP JUMPDEST SWAP4 SWAP3 POP POP POP JUMP JUMPDEST PUSH1 0x1 PUSH1 0x1 PUSH1 0xA0 SHL SUB DUP5 AND PUSH2 0x58D JUMPI PUSH1 0x40 MLOAD PUSH3 0x461BCD PUSH1 0xE5 SHL DUP2 MSTORE PUSH1 0x20 PUSH1 0x4 DUP3 ADD MSTORE PUSH1 0xA PUSH1 0x24 DUP3 ADD MSTORE PUSH10 0x6D65726368616E743D3 PUSH1 0xB4 SHL PUSH1 0x44 DUP3 ADD MSTORE PUSH1 0x64 ADD PUSH2 0x4C6 JUMP JUMPDEST PUSH1 0x0 DUP4 GT PUSH2 0x5C7 JUMPI PUSH1 0x40 MLOAD PUSH3 0x461BCD PUSH1 0xE5 SHL DUP2 MSTORE PUSH1 0x20 PUSH1 0x4 DUP3 ADD MSTORE PUSH1 0x7 PUSH1 0x24 DUP3 ADD MSTORE PUSH7 0x70726963653D3 PUSH1 0xCC SHL PUSH1 0x44 DUP3 ADD MSTORE PUSH1 0x64 ADD PUSH2 0x4C6 JUMP JUMPDEST PUSH1 0x0 DUP3 GT PUSH2 0x602 JUMPI PUSH1 0x40 MLOAD PUSH3 0x461BCD PUSH1 0xE5 SHL DUP2 MSTORE PUSH1 0x20 PUSH1 0x4 DUP3 ADD MSTORE PUSH1 0x8 PUSH1 0x24 DUP3 ADD MSTORE PUSH8 0x706572696F643D3 PUSH1 0xC4 SHL PUSH1 0x44 DUP3 ADD MSTORE PUSH1 0x64 ADD PUSH2 0x4C6 JUMP JUMPDEST PUSH1 0x40 DUP1 MLOAD PUSH1 0xC0 DUP2 ADD DUP3 MSTORE PUSH1 0x1 PUSH1 0x1 PUSH1 0xA0 SHL SUB DUP7 DUP2 AND DUP1 DUP4 MSTORE PUSH1 0x20 DUP1 DUP5 ADD DUP9 DUP2 MSTORE DUP5 DUP7 ADD DUP9 DUP2 MSTORE PUSH1 0x0 PUSH1 0x60 DUP1 DUP9 ADD DUP3 DUP2 MSTORE PUSH1 0x80 DUP10 ADD DUP12 DUP2 MSTORE PUSH1 0x1 PUSH1 0xA0 DUP12 ADD DUP2 DUP2 MSTORE CALLER DUP1 DUP8 MSTORE DUP3 DUP11 MSTORE SWAP6 DUP14 SWAP1 KECCAK256 SWAP12 MLOAD DUP13 SLOAD PUSH1 0x1 PUSH1 0x1 PUSH1 0xA0 SHL SUB NOT AND SWAP12 AND SWAP11 SWAP1 SWAP11 OR DUP12 SSTORE SWAP6 MLOAD SWAP6 DUP11 ADD SWAP6 SWAP1 SWAP6 SSTORE SWAP3 MLOAD PUSH1 0x2 DUP10 ADD SSTORE SWAP2 MLOAD PUSH1 0x3 DUP9 ADD SSTORE SWAP2 MLOAD PUSH1 0x4 DUP8 ADD SSTORE SWAP4 MLOAD PUSH1 0x5 SWAP1 SWAP6 ADD DUP1 SLOAD PUSH1 0xFF NOT AND SWAP6 ISZERO ISZERO SWAP6 SWAP1 SWAP6 OR SWAP1 SWAP5 SSTORE DUP5 MLOAD DUP9 DUP2 MSTORE SWAP1 DUP2 ADD DUP8 SWAP1 MSTORE SWAP4 DUP5 ADD DUP6 SWAP1 MSTORE SWAP3 PUSH32 0x1FAF2B5A74C296487268DE9F9E3DDF269CA3980197CDA4EE5C927AC895AEEE88 SWAP2 ADD PUSH1 0x40 MLOAD DUP1 SWAP2 SUB SWAP1 LOG3 POP POP POP POP JUMP JUMPDEST PUSH1 0x0 DUP1 PUSH2 0x6E6 PUSH2 0xE4C JUMP JUMPDEST SWAP1 POP PUSH1 0x0 PUSH2 0x6F3 DUP3 PUSH2 0xEF3 JUMP JUMPDEST SWAP3 POP PUSH2 0xFFFF AND SWAP1 POP PUSH1 0x0 DUP2 SWAP1 SUB PUSH2 0x71D JUMPI PUSH1 0x40 MLOAD PUSH4 0x2154BFCF PUSH1 0xE2 SHL DUP2 MSTORE PUSH1 0x4 ADD PUSH1 0x40 MLOAD DUP1 SWAP2 SUB SWAP1 REVERT JUMPDEST PUSH1 0x0 JUMPDEST DUP2 DUP2 LT ISZERO PUSH2 0x7E3 JUMPI PUSH1 0x0 PUSH2 0x733 DUP5 PUSH2 0xF42 JUMP JUMPDEST SWAP1 POP PUSH1 0x0 DUP1 PUSH2 0x743 PUSH1 0x68 DUP8 PUSH2 0x1924 JUMP JUMPDEST SWAP1 POP PUSH1 0x0 PUSH2 0x751 DUP3 CALLDATASIZE PUSH2 0x1B1E JUMP JUMPDEST SWAP1 POP DUP1 CALLDATALOAD SWAP3 POP DUP3 PUSH6 0xFFFFFFFFFFFF AND PUSH1 0x0 SUB PUSH2 0x780 JUMPI PUSH1 0x40 MLOAD PUSH4 0x336DC9D PUSH1 0xE4 SHL DUP2 MSTORE PUSH1 0x4 ADD PUSH1 0x40 MLOAD DUP1 SWAP2 SUB SWAP1 REVERT JUMPDEST DUP8 PUSH1 0x0 SUB PUSH2 0x798 JUMPI DUP3 PUSH6 0xFFFFFFFFFFFF AND SWAP8 POP PUSH2 0x7C0 JUMP JUMPDEST DUP8 DUP4 PUSH6 0xFFFFFFFFFFFF AND EQ PUSH2 0x7C0 JUMPI PUSH1 0x40 MLOAD PUSH4 0xD9D1F465 PUSH1 0xE0 SHL DUP2 MSTORE PUSH1 0x4 ADD PUSH1 0x40 MLOAD DUP1 SWAP2 SUB SWAP1 REVERT JUMPDEST PUSH2 0x7CA DUP5 DUP9 PUSH2 0x1924 JUMP JUMPDEST SWAP7 POP POP POP POP POP DUP1 DUP1 PUSH2 0x7DB SWAP1 PUSH2 0x1B31 JUMP JUMPDEST SWAP2 POP POP PUSH2 0x720 JUMP JUMPDEST POP POP POP SWAP1 JUMP JUMPDEST PUSH1 0x0 PUSH2 0x7F4 DUP3 PUSH2 0xF7E JUMP JUMPDEST SWAP3 SWAP2 POP POP JUMP JUMPDEST PUSH1 0x1 PUSH1 0x1 PUSH1 0xA0 SHL SUB DUP2 AND PUSH1 0x0 SWAP1 DUP2 MSTORE PUSH1 0x1 PUSH1 0x20 MSTORE PUSH1 0x40 DUP2 KECCAK256 PUSH1 0x5 DUP2 ADD SLOAD PUSH1 0xFF AND PUSH2 0x828 JUMPI POP PUSH1 0x0 NOT SWAP3 SWAP2 POP POP JUMP JUMPDEST DUP1 PUSH1 0x3 ADD SLOAD PUSH1 0x0 SUB PUSH2 0x83C JUMPI POP TIMESTAMP SWAP3 SWAP2 POP POP JUMP JUMPDEST DUP1 PUSH1 0x2 ADD SLOAD DUP2 PUSH1 0x3 ADD SLOAD PUSH2 0x543 SWAP2 SWAP1 PUSH2 0x1924 JUMP JUMPDEST CALLER PUSH1 0x0 SWAP1 DUP2 MSTORE PUSH1 0x1 PUSH1 0x20 MSTORE PUSH1 0x40 SWAP1 KECCAK256 PUSH1 0x5 DUP2 ADD SLOAD PUSH1 0xFF AND PUSH2 0x89D JUMPI PUSH1 0x40 MLOAD PUSH3 0x461BCD PUSH1 0xE5 SHL DUP2 MSTORE PUSH1 0x20 PUSH1 0x4 DUP3 ADD MSTORE PUSH1 0x7 PUSH1 0x24 DUP3 ADD MSTORE PUSH7 0x373790383630B7 PUSH1 0xC9 SHL PUSH1 0x44 DUP3 ADD MSTORE PUSH1 0x64 ADD PUSH2 0x4C6 JUMP JUMPDEST PUSH1 0x5 DUP2 ADD DUP1 SLOAD PUSH1 0xFF NOT AND SWAP1 SSTORE PUSH1 0x40 MLOAD CALLER SWAP1 PUSH32 0x398BD6B21AE4164EC322FB0EB8C2EB6277F36FD41903FBBED594DFE125591281 SWAP1 PUSH1 0x0 SWAP1 LOG2 POP JUMP JUMPDEST PUSH1 0x0 DUP2 GT PUSH2 0x910 JUMPI PUSH1 0x40 MLOAD PUSH3 0x461BCD PUSH1 0xE5 SHL DUP2 MSTORE PUSH1 0x4 ADD PUSH2 0x4C6 SWAP1 PUSH1 0x20 DUP1 DUP3 MSTORE PUSH1 0x4 SWAP1 DUP3 ADD MSTORE PUSH4 0x5A65726F PUSH1 0xE0 SHL PUSH1 0x40 DUP3 ADD MSTORE PUSH1 0x60 ADD SWAP1 JUMP JUMPDEST CALLER PUSH1 0x0 SWAP1 DUP2 MSTORE PUSH1 0x20 DUP2 SWAP1 MSTORE PUSH1 0x40 SWAP1 KECCAK256 SLOAD DUP2 DUP2 LT ISZERO PUSH2 0x95F JUMPI PUSH1 0x40 MLOAD PUSH3 0x461BCD PUSH1 0xE5 SHL DUP2 MSTORE PUSH1 0x20 PUSH1 0x4 DUP3 ADD MSTORE PUSH1 0xC PUSH1 0x24 DUP3 ADD MSTORE PUSH12 0x125B9CDD59999A58DA595B9D PUSH1 0xA2 SHL PUSH1 0x44 DUP3 ADD MSTORE PUSH1 0x64 ADD PUSH2 0x4C6 JUMP JUMPDEST CALLER PUSH1 0x0 DUP2 DUP2 MSTORE PUSH1 0x20 DUP2 SWAP1 MSTORE PUSH1 0x40 DUP1 DUP3 KECCAK256 DUP6 DUP6 SUB SWAP1 SSTORE MLOAD SWAP1 SWAP2 SWAP1 DUP5 SWAP1 DUP4 DUP2 DUP2 DUP2 DUP6 DUP8 GAS CALL SWAP3 POP POP POP RETURNDATASIZE DUP1 PUSH1 0x0 DUP2 EQ PUSH2 0x9B2 JUMPI PUSH1 0x40 MLOAD SWAP2 POP PUSH1 0x1F NOT PUSH1 0x3F RETURNDATASIZE ADD AND DUP3 ADD PUSH1 0x40 MSTORE RETURNDATASIZE DUP3 MSTORE RETURNDATASIZE PUSH1 0x0 PUSH1 0x20 DUP5 ADD RETURNDATACOPY PUSH2 0x9B7 JUMP JUMPDEST PUSH1 0x60 SWAP2 POP JUMPDEST POP POP SWAP1 POP DUP1 PUSH2 0x9FA JUMPI PUSH1 0x40 MLOAD PUSH3 0x461BCD PUSH1 0xE5 SHL DUP2 MSTORE PUSH1 0x20 PUSH1 0x4 DUP3 ADD MSTORE PUSH1 0xF PUSH1 0x24 DUP3 ADD MSTORE PUSH15 0x15DA5D1A191C985DC819985A5B1959 PUSH1 0x8A SHL PUSH1 0x44 DUP3 ADD MSTORE PUSH1 0x64 ADD PUSH2 0x4C6 JUMP JUMPDEST PUSH1 0x40 MLOAD DUP4 DUP2 MSTORE CALLER SWAP1 PUSH32 0x7084F5476618D8E60B11EF0D7D3F06914655ADB8793E28FF7F018D4C76D505D5 SWAP1 PUSH1 0x20 ADD PUSH1 0x40 MLOAD DUP1 SWAP2 SUB SWAP1 LOG2 POP POP POP JUMP JUMPDEST PUSH2 0xA3D DUP2 PUSH2 0xF89 JUMP JUMPDEST POP JUMP JUMPDEST PUSH1 0x0 CALLVALUE GT PUSH2 0xA79 JUMPI PUSH1 0x40 MLOAD PUSH3 0x461BCD PUSH1 0xE5 SHL DUP2 MSTORE PUSH1 0x20 PUSH1 0x4 DUP3 ADD MSTORE PUSH1 0x6 PUSH1 0x24 DUP3 ADD MSTORE PUSH6 0x9CDE408AA89 PUSH1 0xD3 SHL PUSH1 0x44 DUP3 ADD MSTORE PUSH1 0x64 ADD PUSH2 0x4C6 JUMP JUMPDEST CALLER PUSH1 0x0 SWAP1 DUP2 MSTORE PUSH1 0x20 DUP2 SWAP1 MSTORE PUSH1 0x40 DUP2 KECCAK256 DUP1 SLOAD CALLVALUE SWAP3 SWAP1 PUSH2 0xA98 SWAP1 DUP5 SWAP1 PUSH2 0x1924 JUMP JUMPDEST SWAP1 SWAP2 SSTORE POP POP PUSH1 0x40 MLOAD CALLVALUE DUP2 MSTORE CALLER SWAP1 PUSH32 0x2DA466A7B24304F47E87FA2E1E5A81B9831CE54FEC19055CE277CA2F39BA42C4 SWAP1 PUSH1 0x20 ADD PUSH1 0x40 MLOAD DUP1 SWAP2 SUB SWAP1 LOG2 JUMP JUMPDEST PUSH1 0x1 PUSH1 0x1 PUSH1 0xA0 SHL SUB DUP2 AND PUSH1 0x0 SWAP1 DUP2 MSTORE PUSH1 0x1 PUSH1 0x20 MSTORE PUSH1 0x40 SWAP1 KECCAK256 PUSH1 0x5 DUP2 ADD SLOAD PUSH1 0xFF AND PUSH2 0xB2A JUMPI PUSH1 0x40 MLOAD PUSH3 0x461BCD PUSH1 0xE5 SHL DUP2 MSTORE PUSH1 0x20 PUSH1 0x4 DUP3 ADD MSTORE PUSH1 0x7 PUSH1 0x24 DUP3 ADD MSTORE PUSH7 0x373790383630B7 PUSH1 0xC9 SHL PUSH1 0x44 DUP3 ADD MSTORE PUSH1 0x64 ADD PUSH2 0x4C6 JUMP JUMPDEST PUSH2 0xB33 DUP3 PUSH2 0x7FA JUMP JUMPDEST TIMESTAMP LT ISZERO PUSH2 0xB6C JUMPI PUSH1 0x40 MLOAD PUSH3 0x461BCD PUSH1 0xE5 SHL DUP2 MSTORE PUSH1 0x20 PUSH1 0x4 DUP3 ADD MSTORE PUSH1 0x7 PUSH1 0x24 DUP3 ADD MSTORE PUSH7 0x6E6F7420647565 PUSH1 0xC8 SHL PUSH1 0x44 DUP3 ADD MSTORE PUSH1 0x64 ADD PUSH2 0x4C6 JUMP JUMPDEST PUSH1 0x0 PUSH2 0xB7D PUSH3 0x8AA89 PUSH1 0xEB SHL PUSH2 0xDDC JUMP JUMPDEST SWAP1 POP PUSH1 0x0 DUP2 GT PUSH2 0xBBB JUMPI PUSH1 0x40 MLOAD PUSH3 0x461BCD PUSH1 0xE5 SHL DUP2 MSTORE PUSH1 0x20 PUSH1 0x4 DUP3 ADD MSTORE PUSH1 0x9 PUSH1 0x24 DUP3 ADD MSTORE PUSH9 0x626164207072696365 PUSH1 0xB8 SHL PUSH1 0x44 DUP3 ADD MSTORE PUSH1 0x64 ADD PUSH2 0x4C6 JUMP JUMPDEST PUSH1 0x1 DUP3 ADD SLOAD PUSH1 0x0 DUP3 PUSH2 0xBD7 DUP4 PUSH10 0xD3C21BCECCEDA1000000 PUSH2 0x1ADD JUMP JUMPDEST PUSH2 0xBE1 SWAP2 SWAP1 PUSH2 0x1B0A JUMP JUMPDEST SWAP1 POP PUSH1 0x0 DUP2 GT PUSH2 0xC1C JUMPI PUSH1 0x40 MLOAD PUSH3 0x461BCD PUSH1 0xE5 SHL DUP2 MSTORE PUSH1 0x4 ADD PUSH2 0x4C6 SWAP1 PUSH1 0x20 DUP1 DUP3 MSTORE PUSH1 0x4 SWAP1 DUP3 ADD MSTORE PUSH4 0x74696E79 PUSH1 0xE0 SHL PUSH1 0x40 DUP3 ADD MSTORE PUSH1 0x60 ADD SWAP1 JUMP JUMPDEST DUP4 PUSH1 0x4 ADD SLOAD DUP2 GT ISZERO DUP1 PUSH2 0xC31 JUMPI POP PUSH1 0x4 DUP5 ADD SLOAD ISZERO JUMPDEST PUSH2 0xC6B JUMPI PUSH1 0x40 MLOAD PUSH3 0x461BCD PUSH1 0xE5 SHL DUP2 MSTORE PUSH1 0x20 PUSH1 0x4 DUP3 ADD MSTORE PUSH1 0xB PUSH1 0x24 DUP3 ADD MSTORE PUSH11 0x657863656564732063617 PUSH1 0xAC SHL PUSH1 0x44 DUP3 ADD MSTORE PUSH1 0x64 ADD PUSH2 0x4C6 JUMP JUMPDEST PUSH1 0x1 PUSH1 0x1 PUSH1 0xA0 SHL SUB DUP6 AND PUSH1 0x0 SWAP1 DUP2 MSTORE PUSH1 0x20 DUP2 SWAP1 MSTORE PUSH1 0x40 SWAP1 KECCAK256 SLOAD DUP2 GT ISZERO PUSH2 0xCCA JUMPI PUSH1 0x40 MLOAD PUSH3 0x461BCD PUSH1 0xE5 SHL DUP2 MSTORE PUSH1 0x20 PUSH1 0x4 DUP3 ADD MSTORE PUSH1 0x14 PUSH1 0x24 DUP3 ADD MSTORE PUSH20 0x696E73756666696369656E742062616C616E6365 PUSH1 0x60 SHL PUSH1 0x44 DUP3 ADD MSTORE PUSH1 0x64 ADD PUSH2 0x4C6 JUMP JUMPDEST PUSH1 0x1 PUSH1 0x1 PUSH1 0xA0 SHL SUB DUP6 DUP2 AND PUSH1 0x0 SWAP1 DUP2 MSTORE PUSH1 0x20 DUP2 SWAP1 MSTORE PUSH1 0x40 DUP1 DUP3 KECCAK256 DUP1 SLOAD DUP6 SWAP1 SUB SWAP1 SSTORE DUP7 SLOAD SWAP1 MLOAD SWAP2 SWAP3 AND SWAP1 DUP4 SWAP1 DUP4 DUP2 DUP2 DUP2 DUP6 DUP8 GAS CALL SWAP3 POP POP POP RETURNDATASIZE DUP1 PUSH1 0x0 DUP2 EQ PUSH2 0xD2D JUMPI PUSH1 0x40 MLOAD SWAP2 POP PUSH1 0x1F NOT PUSH1 0x3F RETURNDATASIZE ADD AND DUP3 ADD PUSH1 0x40 MSTORE RETURNDATASIZE DUP3 MSTORE RETURNDATASIZE PUSH1 0x0 PUSH1 0x20 DUP5 ADD RETURNDATACOPY PUSH2 0xD32 JUMP JUMPDEST PUSH1 0x60 SWAP2 POP JUMPDEST POP POP SWAP1 POP DUP1 PUSH2 0xD6E JUMPI PUSH1 0x40 MLOAD PUSH3 0x461BCD PUSH1 0xE5 SHL DUP2 MSTORE PUSH1 0x20 PUSH1 0x4 DUP3 ADD MSTORE PUSH1 0x8 PUSH1 0x24 DUP3 ADD MSTORE PUSH8 0x1C185E4819985A5B PUSH1 0xC2 SHL PUSH1 0x44 DUP3 ADD MSTORE PUSH1 0x64 ADD PUSH2 0x4C6 JUMP JUMPDEST TIMESTAMP PUSH1 0x3 DUP7 ADD SSTORE DUP5 SLOAD PUSH1 0x1 PUSH1 0x1 PUSH1 0xA0 SHL SUB SWAP1 DUP2 AND SWAP1 DUP8 AND PUSH32 0xB3E1A1D5EEC96C841D90F413AA5261898365653F66CD2769CFFE66BBFB28C7A0 DUP6 DUP8 DUP7 PUSH2 0xDB1 DUP13 PUSH2 0x7FA JUMP JUMPDEST PUSH1 0x40 DUP1 MLOAD SWAP5 DUP6 MSTORE PUSH1 0x20 DUP6 ADD SWAP4 SWAP1 SWAP4 MSTORE SWAP2 DUP4 ADD MSTORE PUSH1 0x60 DUP3 ADD MSTORE PUSH1 0x80 ADD PUSH1 0x40 MLOAD DUP1 SWAP2 SUB SWAP1 LOG3 POP POP POP POP POP POP JUMP JUMPDEST PUSH1 0x40 DUP1 MLOAD PUSH1 0x1 DUP1 DUP3 MSTORE DUP2 DUP4 ADD SWAP1 SWAP3 MSTORE PUSH1 0x0 SWAP2 DUP3 SWAP2 SWAP1 PUSH1 0x20 DUP1 DUP4 ADD SWAP1 DUP1 CALLDATASIZE DUP4 CALLDATACOPY ADD SWAP1 POP POP SWAP1 POP DUP3 DUP2 PUSH1 0x0 DUP2 MLOAD DUP2 LT PUSH2 0xE15 JUMPI PUSH2 0xE15 PUSH2 0x1B4A JUMP JUMPDEST PUSH1 0x20 MUL PUSH1 0x20 ADD ADD DUP2 DUP2 MSTORE POP POP PUSH2 0xE2A DUP2 PUSH2 0x100D JUMP JUMPDEST PUSH1 0x0 DUP2 MLOAD DUP2 LT PUSH2 0xE3C JUMPI PUSH2 0xE3C PUSH2 0x1B4A JUMP JUMPDEST PUSH1 0x20 MUL PUSH1 0x20 ADD ADD MLOAD SWAP2 POP POP SWAP2 SWAP1 POP JUMP JUMPDEST PUSH1 0x0 PUSH7 0x2ED57011E0000 PUSH1 0x1F NOT CALLDATASIZE ADD CALLDATALOAD DUP2 AND EQ DUP1 PUSH2 0xE7D JUMPI PUSH1 0x40 MLOAD PUSH4 0x73BB264F PUSH1 0xE1 SHL DUP2 MSTORE PUSH1 0x4 ADD PUSH1 0x40 MLOAD DUP1 SWAP2 SUB SWAP1 REVERT JUMPDEST PUSH1 0x0 CALLDATASIZE PUSH1 0x29 GT ISZERO PUSH2 0xEA1 JUMPI PUSH1 0x40 MLOAD PUSH4 0x2BCB7BC5 PUSH1 0xE1 SHL DUP2 MSTORE PUSH1 0x4 ADD PUSH1 0x40 MLOAD DUP1 SWAP2 SUB SWAP1 REVERT JUMPDEST POP PUSH1 0x28 NOT CALLDATASIZE ADD CALLDATALOAD PUSH1 0x0 PUSH1 0x9 PUSH2 0xEBC PUSH1 0x3 PUSH3 0xFFFFFF DUP6 AND PUSH2 0x1924 JUMP JUMPDEST PUSH2 0xEC6 SWAP2 SWAP1 PUSH2 0x1924 JUMP JUMPDEST SWAP1 POP CALLDATASIZE PUSH2 0xED4 PUSH1 0x2 DUP4 PUSH2 0x1924 JUMP JUMPDEST GT ISZERO PUSH2 0x543 JUMPI PUSH1 0x40 MLOAD PUSH4 0xC30A7BD7 PUSH1 0xE0 SHL DUP2 MSTORE PUSH1 0x4 ADD PUSH1 0x40 MLOAD DUP1 SWAP2 SUB SWAP1 REVERT JUMPDEST PUSH1 0x0 DUP1 DUP1 PUSH2 0xF02 PUSH1 0x20 DUP6 PUSH2 0x1924 JUMP JUMPDEST SWAP1 POP CALLDATASIZE DUP2 GT ISZERO PUSH2 0xF25 JUMPI PUSH1 0x40 MLOAD PUSH4 0x2BCB7BC5 PUSH1 0xE1 SHL DUP2 MSTORE PUSH1 0x4 ADD PUSH1 0x40 MLOAD DUP1 SWAP2 SUB SWAP1 REVERT JUMPDEST CALLDATASIZE DUP2 SWAP1 SUB CALLDATALOAD SWAP3 POP DUP3 PUSH2 0xF38 PUSH1 0x2 DUP7 PUSH2 0x1924 JUMP JUMPDEST SWAP3 POP SWAP3 POP POP SWAP2 POP SWAP2 JUMP JUMPDEST PUSH1 0x0 DUP1 PUSH1 0x0 PUSH2 0xF50 DUP5 PUSH2 0x102F JUMP JUMPDEST SWAP1 SWAP3 POP SWAP1 POP PUSH1 0x4E PUSH2 0xF62 DUP3 PUSH1 0x20 PUSH2 0x1924 JUMP JUMPDEST PUSH2 0xF6C SWAP1 DUP5 PUSH2 0x1ADD JUMP JUMPDEST PUSH2 0xF76 SWAP2 SWAP1 PUSH2 0x1924 JUMP JUMPDEST SWAP5 SWAP4 POP POP POP POP JUMP JUMPDEST PUSH1 0x0 PUSH2 0x7F4 DUP3 PUSH2 0x1082 JUMP JUMPDEST PUSH1 0x0 PUSH2 0xF97 PUSH2 0x3E8 DUP4 PUSH2 0x1B0A JUMP JUMPDEST SWAP1 POP DUP1 TIMESTAMP LT ISZERO PUSH2 0xFD9 JUMPI PUSH1 0x3C PUSH2 0xFAD TIMESTAMP DUP4 PUSH2 0x1B1E JUMP JUMPDEST GT ISZERO PUSH2 0xFD5 JUMPI PUSH1 0x40 MLOAD PUSH4 0xB6B0916D PUSH1 0xE0 SHL DUP2 MSTORE PUSH1 0x4 DUP2 ADD DUP3 SWAP1 MSTORE TIMESTAMP PUSH1 0x24 DUP3 ADD MSTORE PUSH1 0x44 ADD PUSH2 0x4C6 JUMP JUMPDEST POP POP JUMP JUMPDEST PUSH1 0xB4 PUSH2 0xFE5 DUP3 TIMESTAMP PUSH2 0x1B1E JUMP JUMPDEST GT ISZERO PUSH2 0xFD5 JUMPI PUSH1 0x40 MLOAD PUSH4 0x321D0B5 PUSH1 0xE0 SHL DUP2 MSTORE PUSH1 0x4 DUP2 ADD DUP3 SWAP1 MSTORE TIMESTAMP PUSH1 0x24 DUP3 ADD MSTORE PUSH1 0x44 ADD PUSH2 0x4C6 JUMP JUMPDEST PUSH1 0x60 PUSH1 0x0 DUP1 PUSH2 0x101B DUP5 PUSH2 0x1196 JUMP JUMPDEST SWAP2 POP SWAP2 POP PUSH2 0x1028 DUP2 PUSH2 0xA34 JUMP JUMPDEST POP SWAP3 SWAP2 POP POP JUMP JUMPDEST PUSH1 0x0 DUP1 DUP1 DUP1 DUP1 PUSH1 0x20 PUSH2 0x1042 PUSH1 0x41 DUP9 PUSH2 0x1924 JUMP JUMPDEST PUSH2 0x104C SWAP2 SWAP1 PUSH2 0x1924 JUMP JUMPDEST PUSH2 0x1056 SWAP1 CALLDATASIZE PUSH2 0x1B1E JUMP JUMPDEST DUP1 CALLDATALOAD SWAP4 POP SWAP1 POP PUSH2 0x1067 PUSH1 0x3 DUP3 PUSH2 0x1B1E JUMP JUMPDEST PUSH3 0xFFFFFF SWAP4 SWAP1 SWAP4 AND SWAP7 SWAP3 CALLDATALOAD PUSH4 0xFFFFFFFF AND SWAP6 POP SWAP2 SWAP4 POP POP POP POP JUMP JUMPDEST PUSH1 0x0 DUP2 MLOAD PUSH1 0x2 SUB PUSH2 0x10D9 JUMPI PUSH1 0x2 DUP3 PUSH1 0x1 DUP2 MLOAD DUP2 LT PUSH2 0x10A2 JUMPI PUSH2 0x10A2 PUSH2 0x1B4A JUMP JUMPDEST PUSH1 0x20 MUL PUSH1 0x20 ADD ADD MLOAD DUP4 PUSH1 0x0 DUP2 MLOAD DUP2 LT PUSH2 0x10BD JUMPI PUSH2 0x10BD PUSH2 0x1B4A JUMP JUMPDEST PUSH1 0x20 MUL PUSH1 0x20 ADD ADD MLOAD PUSH2 0x10CF SWAP2 SWAP1 PUSH2 0x1924 JUMP JUMPDEST PUSH2 0x7F4 SWAP2 SWAP1 PUSH2 0x1B0A JUMP JUMPDEST DUP2 MLOAD PUSH1 0x0 SUB PUSH2 0x10FB JUMPI PUSH1 0x40 MLOAD PUSH4 0x9E198AF9 PUSH1 0xE0 SHL DUP2 MSTORE PUSH1 0x4 ADD PUSH1 0x40 MLOAD DUP1 SWAP2 SUB SWAP1 REVERT JUMPDEST PUSH2 0x1104 DUP3 PUSH2 0x13B1 JUMP JUMPDEST PUSH1 0x0 PUSH1 0x2 DUP4 MLOAD PUSH2 0x1114 SWAP2 SWAP1 PUSH2 0x1B0A JUMP JUMPDEST SWAP1 POP PUSH1 0x2 DUP4 MLOAD PUSH2 0x1124 SWAP2 SWAP1 PUSH2 0x1B60 JUMP JUMPDEST PUSH1 0x0 SUB PUSH2 0x1184 JUMPI PUSH1 0x0 DUP4 DUP3 DUP2 MLOAD DUP2 LT PUSH2 0x113F JUMPI PUSH2 0x113F PUSH2 0x1B4A JUMP JUMPDEST PUSH1 0x20 MUL PUSH1 0x20 ADD ADD MLOAD DUP5 PUSH1 0x1 DUP5 PUSH2 0x1155 SWAP2 SWAP1 PUSH2 0x1B1E JUMP JUMPDEST DUP2 MLOAD DUP2 LT PUSH2 0x1165 JUMPI PUSH2 0x1165 PUSH2 0x1B4A JUMP JUMPDEST PUSH1 0x20 MUL PUSH1 0x20 ADD ADD MLOAD PUSH2 0x1177 SWAP2 SWAP1 PUSH2 0x1924 JUMP JUMPDEST SWAP1 POP PUSH2 0xF76 PUSH1 0x2 DUP3 PUSH2 0x1B0A JUMP JUMPDEST DUP3 DUP2 DUP2 MLOAD DUP2 LT PUSH2 0xE3C JUMPI PUSH2 0xE3C PUSH2 0x1B4A JUMP JUMPDEST PUSH1 0x60 PUSH1 0x0 DUP1 DUP4 MLOAD PUSH8 0xFFFFFFFFFFFFFFFF DUP2 GT ISZERO PUSH2 0x11B5 JUMPI PUSH2 0x11B5 PUSH2 0x19BB JUMP JUMPDEST PUSH1 0x40 MLOAD SWAP1 DUP1 DUP3 MSTORE DUP1 PUSH1 0x20 MUL PUSH1 0x20 ADD DUP3 ADD PUSH1 0x40 MSTORE DUP1 ISZERO PUSH2 0x11DE JUMPI DUP2 PUSH1 0x20 ADD PUSH1 0x20 DUP3 MUL DUP1 CALLDATASIZE DUP4 CALLDATACOPY ADD SWAP1 POP JUMPDEST POP SWAP1 POP PUSH1 0x0 DUP5 MLOAD PUSH8 0xFFFFFFFFFFFFFFFF DUP2 GT ISZERO PUSH2 0x11FD JUMPI PUSH2 0x11FD PUSH2 0x19BB JUMP JUMPDEST PUSH1 0x40 MLOAD SWAP1 DUP1 DUP3 MSTORE DUP1 PUSH1 0x20 MUL PUSH1 0x20 ADD DUP3 ADD PUSH1 0x40 MSTORE DUP1 ISZERO PUSH2 0x1226 JUMPI DUP2 PUSH1 0x20 ADD PUSH1 0x20 DUP3 MUL DUP1 CALLDATASIZE DUP4 CALLDATACOPY ADD SWAP1 POP JUMPDEST POP SWAP1 POP PUSH1 0x0 DUP6 MLOAD PUSH8 0xFFFFFFFFFFFFFFFF DUP2 GT ISZERO PUSH2 0x1245 JUMPI PUSH2 0x1245 PUSH2 0x19BB JUMP JUMPDEST PUSH1 0x40 MLOAD SWAP1 DUP1 DUP3 MSTORE DUP1 PUSH1 0x20 MUL PUSH1 0x20 ADD DUP3 ADD PUSH1 0x40 MSTORE DUP1 ISZERO PUSH2 0x1278 JUMPI DUP2 PUSH1 0x20 ADD JUMPDEST PUSH1 0x60 DUP2 MSTORE PUSH1 0x20 ADD SWAP1 PUSH1 0x1 SWAP1 SUB SWAP1 DUP2 PUSH2 0x1263 JUMPI SWAP1 POP JUMPDEST POP SWAP1 POP PUSH1 0x3 PUSH1 0x0 JUMPDEST DUP8 MLOAD DUP2 LT ISZERO PUSH2 0x12F1 JUMPI DUP2 PUSH8 0xFFFFFFFFFFFFFFFF DUP2 GT ISZERO PUSH2 0x12A2 JUMPI PUSH2 0x12A2 PUSH2 0x19BB JUMP JUMPDEST PUSH1 0x40 MLOAD SWAP1 DUP1 DUP3 MSTORE DUP1 PUSH1 0x20 MUL PUSH1 0x20 ADD DUP3 ADD PUSH1 0x40 MSTORE DUP1 ISZERO PUSH2 0x12CB JUMPI DUP2 PUSH1 0x20 ADD PUSH1 0x20 DUP3 MUL DUP1 CALLDATASIZE DUP4 CALLDATACOPY ADD SWAP1 POP JUMPDEST POP DUP4 DUP3 DUP2 MLOAD DUP2 LT PUSH2 0x12DE JUMPI PUSH2 0x12DE PUSH2 0x1B4A JUMP JUMPDEST PUSH1 0x20 SWAP1 DUP2 MUL SWAP2 SWAP1 SWAP2 ADD ADD MSTORE PUSH1 0x1 ADD PUSH2 0x1280 JUMP JUMPDEST POP PUSH1 0x0 PUSH2 0x12FC PUSH2 0xE4C JUMP JUMPDEST SWAP1 POP PUSH1 0x0 PUSH2 0x1309 DUP3 PUSH2 0xEF3 JUMP JUMPDEST PUSH1 0x40 MLOAD SWAP1 SWAP4 POP PUSH2 0xFFFF SWAP1 SWAP2 AND SWAP2 POP PUSH1 0x0 JUMPDEST DUP3 DUP2 LT ISZERO PUSH2 0x1398 JUMPI PUSH1 0x0 PUSH2 0x1331 DUP13 DUP11 DUP11 DUP11 DUP10 PUSH2 0x13FF JUMP JUMPDEST SWAP1 SWAP6 POP SWAP1 POP PUSH1 0x0 DUP2 SWAP1 SUB PUSH2 0x1358 JUMPI PUSH1 0x40 MLOAD PUSH4 0xDFB25A79 PUSH1 0xE0 SHL DUP2 MSTORE PUSH1 0x4 ADD PUSH1 0x40 MLOAD DUP1 SWAP2 SUB SWAP1 REVERT JUMPDEST DUP10 DUP2 EQ PUSH2 0x1388 JUMPI DUP10 PUSH1 0x0 SUB PUSH2 0x136F JUMPI DUP1 SWAP10 POP PUSH2 0x1388 JUMP JUMPDEST PUSH1 0x40 MLOAD PUSH4 0x265E23A1 PUSH1 0xE1 SHL DUP2 MSTORE PUSH1 0x4 ADD PUSH1 0x40 MLOAD DUP1 SWAP2 SUB SWAP1 REVERT JUMPDEST POP PUSH1 0x20 DUP3 ADD PUSH1 0x40 MSTORE PUSH1 0x1 ADD PUSH2 0x131A JUMP JUMPDEST POP PUSH2 0x13A3 DUP6 DUP9 PUSH2 0x168A JUMP JUMPDEST SWAP9 POP POP POP POP POP POP POP POP SWAP2 POP SWAP2 JUMP JUMPDEST DUP1 MLOAD PUSH1 0x20 DUP3 ADD PUSH1 0x20 DUP3 MUL DUP2 ADD SWAP2 POP DUP1 JUMPDEST DUP3 DUP2 LT ISZERO PUSH2 0x13F9 JUMPI DUP2 JUMPDEST DUP2 DUP2 LT ISZERO PUSH2 0x13F0 JUMPI DUP2 MLOAD DUP2 MLOAD DUP1 DUP3 LT ISZERO PUSH2 0x13E6 JUMPI DUP1 DUP5 MSTORE DUP2 DUP4 MSTORE JUMPDEST POP POP PUSH1 0x20 ADD PUSH2 0x13CB JUMP JUMPDEST POP PUSH1 0x20 ADD PUSH2 0x13C1 JUMP JUMPDEST POP POP POP POP JUMP JUMPDEST PUSH1 0x0 DUP1 PUSH1 0x0 DUP1 PUSH1 0x0 PUSH2 0x1410 DUP7 PUSH2 0x102F JUMP JUMPDEST SWAP1 SWAP3 POP SWAP1 POP PUSH1 0x0 DUP1 PUSH1 0x60 DUP2 DUP1 PUSH1 0xD PUSH2 0x1429 PUSH1 0x20 DUP9 PUSH2 0x1924 JUMP JUMPDEST PUSH2 0x1433 SWAP1 DUP10 PUSH2 0x1ADD JUMP JUMPDEST PUSH2 0x143D SWAP2 SWAP1 PUSH2 0x1924 JUMP JUMPDEST SWAP2 POP PUSH1 0x0 PUSH2 0x144C PUSH1 0x68 DUP14 PUSH2 0x1924 JUMP JUMPDEST PUSH2 0x1456 SWAP1 CALLDATASIZE PUSH2 0x1B1E JUMP JUMPDEST SWAP1 POP PUSH1 0x0 DUP4 PUSH2 0x1466 PUSH1 0x41 DUP16 PUSH2 0x1924 JUMP JUMPDEST PUSH2 0x1470 SWAP2 SWAP1 PUSH2 0x1924 JUMP JUMPDEST PUSH2 0x147A SWAP1 CALLDATASIZE PUSH2 0x1B1E JUMP JUMPDEST SWAP1 POP PUSH2 0x1486 DUP5 DUP3 PUSH2 0x1499 JUMP JUMPDEST SWAP5 POP DUP4 PUSH1 0x20 DUP7 ADD KECCAK256 SWAP6 POP DUP2 CALLDATALOAD SWAP3 POP PUSH2 0x14BD JUMP JUMPDEST PUSH1 0x40 DUP1 MLOAD DUP4 DUP2 MSTORE PUSH1 0x20 DUP2 DUP6 ADD DUP2 ADD SWAP1 SWAP3 MSTORE PUSH1 0x0 SWAP2 ADD DUP4 DUP4 DUP3 CALLDATACOPY PUSH1 0x1F NOT ADD SWAP4 SWAP3 POP POP POP JUMP JUMPDEST DUP3 PUSH6 0xFFFFFFFFFFFF AND SWAP11 POP PUSH2 0x14DE DUP7 PUSH1 0x41 DUP16 PUSH2 0x14D9 SWAP2 SWAP1 PUSH2 0x1924 JUMP JUMPDEST PUSH2 0x1799 JUMP JUMPDEST SWAP7 POP PUSH2 0x14E9 DUP8 PUSH2 0x3C8 JUMP JUMPDEST PUSH1 0xFF AND SWAP10 POP POP POP POP POP POP POP POP PUSH1 0x4E DUP7 PUSH2 0x1502 SWAP2 SWAP1 PUSH2 0x1924 JUMP JUMPDEST SWAP6 POP PUSH1 0x0 DUP1 PUSH1 0x0 JUMPDEST DUP5 DUP2 LT ISZERO PUSH2 0x1677 JUMPI PUSH1 0x20 PUSH2 0x151E DUP6 DUP12 PUSH2 0x1924 JUMP JUMPDEST PUSH2 0x1528 SWAP2 SWAP1 PUSH2 0x1924 JUMP JUMPDEST SWAP9 POP PUSH2 0x1534 DUP10 DUP6 PUSH2 0x18BB JUMP JUMPDEST SWAP1 SWAP4 POP SWAP2 POP PUSH1 0x0 JUMPDEST DUP14 MLOAD DUP2 LT ISZERO PUSH2 0x166E JUMPI DUP14 DUP2 DUP2 MLOAD DUP2 LT PUSH2 0x1557 JUMPI PUSH2 0x1557 PUSH2 0x1B4A JUMP JUMPDEST PUSH1 0x20 MUL PUSH1 0x20 ADD ADD MLOAD DUP5 SUB PUSH2 0x1666 JUMPI PUSH1 0x0 DUP13 DUP3 DUP2 MLOAD DUP2 LT PUSH2 0x1579 JUMPI PUSH2 0x1579 PUSH2 0x1B4A JUMP JUMPDEST PUSH1 0x20 MUL PUSH1 0x20 ADD ADD MLOAD SWAP1 POP PUSH2 0x1592 DUP2 DUP10 PUSH1 0x1 SWAP1 SHL AND ISZERO ISZERO SWAP1 JUMP JUMPDEST ISZERO DUP1 ISZERO PUSH2 0x15BB JUMPI POP PUSH1 0x3 PUSH1 0xFF AND DUP15 DUP4 DUP2 MLOAD DUP2 LT PUSH2 0x15B1 JUMPI PUSH2 0x15B1 PUSH2 0x1B4A JUMP JUMPDEST PUSH1 0x20 MUL PUSH1 0x20 ADD ADD MLOAD LT JUMPDEST ISZERO PUSH2 0x1660 JUMPI DUP4 DUP13 DUP4 DUP2 MLOAD DUP2 LT PUSH2 0x15D3 JUMPI PUSH2 0x15D3 PUSH2 0x1B4A JUMP JUMPDEST PUSH1 0x20 MUL PUSH1 0x20 ADD ADD MLOAD DUP16 DUP5 DUP2 MLOAD DUP2 LT PUSH2 0x15ED JUMPI PUSH2 0x15ED PUSH2 0x1B4A JUMP JUMPDEST PUSH1 0x20 MUL PUSH1 0x20 ADD ADD MLOAD DUP2 MLOAD DUP2 LT PUSH2 0x1605 JUMPI PUSH2 0x1605 PUSH2 0x1B4A JUMP JUMPDEST PUSH1 0x20 MUL PUSH1 0x20 ADD ADD DUP2 DUP2 MSTORE POP POP DUP14 DUP3 DUP2 MLOAD DUP2 LT PUSH2 0x1623 JUMPI PUSH2 0x1623 PUSH2 0x1B4A JUMP JUMPDEST PUSH1 0x20 MUL PUSH1 0x20 ADD ADD DUP1 MLOAD DUP1 SWAP2 SWAP1 PUSH2 0x1638 SWAP1 PUSH2 0x1B31 JUMP JUMPDEST SWAP1 MSTORE POP PUSH1 0x1 DUP9 SHL DUP2 OR DUP14 DUP4 DUP2 MLOAD DUP2 LT PUSH2 0x1653 JUMPI PUSH2 0x1653 PUSH2 0x1B4A JUMP JUMPDEST PUSH1 0x20 MUL PUSH1 0x20 ADD ADD DUP2 DUP2 MSTORE POP POP JUMPDEST POP PUSH2 0x166E JUMP JUMPDEST PUSH1 0x1 ADD PUSH2 0x153C JUMP JUMPDEST POP PUSH1 0x1 ADD PUSH2 0x150A JUMP JUMPDEST POP POP POP DUP6 SWAP5 POP POP POP POP SWAP6 POP SWAP6 SWAP4 POP POP POP POP JUMP JUMPDEST PUSH1 0x60 PUSH1 0x0 DUP4 MLOAD PUSH8 0xFFFFFFFFFFFFFFFF DUP2 GT ISZERO PUSH2 0x16A8 JUMPI PUSH2 0x16A8 PUSH2 0x19BB JUMP JUMPDEST PUSH1 0x40 MLOAD SWAP1 DUP1 DUP3 MSTORE DUP1 PUSH1 0x20 MUL PUSH1 0x20 ADD DUP3 ADD PUSH1 0x40 MSTORE DUP1 ISZERO PUSH2 0x16D1 JUMPI DUP2 PUSH1 0x20 ADD PUSH1 0x20 DUP3 MUL DUP1 CALLDATASIZE DUP4 CALLDATACOPY ADD SWAP1 POP JUMPDEST POP SWAP1 POP PUSH1 0x3 PUSH1 0x0 JUMPDEST DUP6 MLOAD DUP2 LT ISZERO PUSH2 0x178F JUMPI DUP2 DUP6 DUP3 DUP2 MLOAD DUP2 LT PUSH2 0x16F5 JUMPI PUSH2 0x16F5 PUSH2 0x1B4A JUMP JUMPDEST PUSH1 0x20 MUL PUSH1 0x20 ADD ADD MLOAD LT ISZERO PUSH2 0x1742 JUMPI DUP5 DUP2 DUP2 MLOAD DUP2 LT PUSH2 0x1715 JUMPI PUSH2 0x1715 PUSH2 0x1B4A JUMP JUMPDEST PUSH1 0x20 MUL PUSH1 0x20 ADD ADD MLOAD DUP3 PUSH1 0x40 MLOAD PUSH4 0x2B13AEF5 PUSH1 0xE0 SHL DUP2 MSTORE PUSH1 0x4 ADD PUSH2 0x4C6 SWAP3 SWAP2 SWAP1 SWAP2 DUP3 MSTORE PUSH1 0x20 DUP3 ADD MSTORE PUSH1 0x40 ADD SWAP1 JUMP JUMPDEST PUSH1 0x0 PUSH2 0x1766 DUP8 DUP4 DUP2 MLOAD DUP2 LT PUSH2 0x1759 JUMPI PUSH2 0x1759 PUSH2 0x1B4A JUMP JUMPDEST PUSH1 0x20 MUL PUSH1 0x20 ADD ADD MLOAD PUSH2 0x7E9 JUMP JUMPDEST SWAP1 POP DUP1 DUP5 DUP4 DUP2 MLOAD DUP2 LT PUSH2 0x177B JUMPI PUSH2 0x177B PUSH2 0x1B4A JUMP JUMPDEST PUSH1 0x20 SWAP1 DUP2 MUL SWAP2 SWAP1 SWAP2 ADD ADD MSTORE POP PUSH1 0x1 ADD PUSH2 0x16D9 JUMP JUMPDEST POP SWAP1 SWAP5 SWAP4 POP POP POP POP JUMP JUMPDEST PUSH1 0x0 CALLDATASIZE DUP3 SWAP1 SUB DUP1 CALLDATALOAD SWAP1 PUSH1 0x20 DUP2 ADD CALLDATALOAD SWAP1 PUSH1 0x40 ADD CALLDATALOAD DUP4 BYTE PUSH1 0x1B DUP2 EQ DUP1 ISZERO SWAP1 PUSH2 0x17C3 JUMPI POP PUSH1 0xFF DUP2 AND PUSH1 0x1C EQ ISZERO JUMPDEST ISZERO PUSH2 0x17E4 JUMPI PUSH1 0x40 MLOAD PUSH4 0x3335BE5D PUSH1 0xE1 SHL DUP2 MSTORE PUSH1 0x4 DUP2 ADD DUP8 SWAP1 MSTORE PUSH1 0x24 ADD PUSH2 0x4C6 JUMP JUMPDEST PUSH32 0x7FFFFFFFFFFFFFFFFFFFFFFFFFFFFFFF5D576E7357A4501DDFE92F46681B20A0 DUP3 GT ISZERO PUSH2 0x1828 JUMPI PUSH1 0x40 MLOAD PUSH4 0x3335BE5D PUSH1 0xE1 SHL DUP2 MSTORE PUSH1 0x4 DUP2 ADD DUP8 SWAP1 MSTORE PUSH1 0x24 ADD PUSH2 0x4C6 JUMP JUMPDEST PUSH1 0x40 DUP1 MLOAD PUSH1 0x0 DUP2 MSTORE PUSH1 0x20 DUP2 ADD DUP1 DUP4 MSTORE DUP9 SWAP1 MSTORE PUSH1 0xFF DUP4 AND SWAP2 DUP2 ADD SWAP2 SWAP1 SWAP2 MSTORE PUSH1 0x60 DUP2 ADD DUP5 SWAP1 MSTORE PUSH1 0x80 DUP2 ADD DUP4 SWAP1 MSTORE PUSH1 0x1 SWAP1 PUSH1 0xA0 ADD PUSH1 0x20 PUSH1 0x40 MLOAD PUSH1 0x20 DUP2 SUB SWAP1 DUP1 DUP5 SUB SWAP1 DUP6 GAS STATICCALL ISZERO DUP1 ISZERO PUSH2 0x187B JUMPI RETURNDATASIZE PUSH1 0x0 DUP1 RETURNDATACOPY RETURNDATASIZE PUSH1 0x0 REVERT JUMPDEST POP POP PUSH1 0x40 MLOAD PUSH1 0x1F NOT ADD MLOAD SWAP5 POP POP PUSH1 0x1 PUSH1 0x1 PUSH1 0xA0 SHL SUB DUP5 AND PUSH2 0x18B2 JUMPI PUSH1 0x40 MLOAD PUSH4 0x3335BE5D PUSH1 0xE1 SHL DUP2 MSTORE PUSH1 0x4 DUP2 ADD DUP8 SWAP1 MSTORE PUSH1 0x24 ADD PUSH2 0x4C6 JUMP JUMPDEST POP POP POP SWAP3 SWAP2 POP POP JUMP JUMPDEST PUSH1 0x0 DUP1 DUP1 PUSH2 0x18C9 DUP6 CALLDATASIZE PUSH2 0x1B1E JUMP JUMPDEST SWAP1 POP DUP1 CALLDATALOAD SWAP3 POP PUSH1 0x20 DUP2 ADD CALLDATALOAD SWAP2 POP PUSH1 0x21 DUP5 LT PUSH2 0x18FA JUMPI PUSH1 0x40 MLOAD PUSH4 0x60007E21 PUSH1 0xE1 SHL DUP2 MSTORE PUSH1 0x4 DUP2 ADD DUP6 SWAP1 MSTORE PUSH1 0x24 ADD PUSH2 0x4C6 JUMP JUMPDEST DUP4 PUSH1 0x20 SUB PUSH1 0x8 MUL DUP3 SWAP1 SHR SWAP2 POP POP SWAP3 POP SWAP3 SWAP1 POP JUMP JUMPDEST PUSH4 0x4E487B71 PUSH1 0xE0 SHL PUSH1 0x0 MSTORE PUSH1 0x11 PUSH1 0x4 MSTORE PUSH1 0x24 PUSH1 0x0 REVERT JUMPDEST DUP1 DUP3 ADD DUP1 DUP3 GT ISZERO PUSH2 0x7F4 JUMPI PUSH2 0x7F4 PUSH2 0x190E JUMP JUMPDEST DUP1 CALLDATALOAD PUSH1 0x1 PUSH1 0x1 PUSH1 0xA0 SHL SUB DUP2 AND DUP2 EQ PUSH2 0x4CF JUMPI PUSH1 0x0 DUP1 REVERT JUMPDEST PUSH1 0x0 PUSH1 0x20 DUP3 DUP5 SUB SLT ISZERO PUSH2 0x1960 JUMPI PUSH1 0x0 DUP1 REVERT JUMPDEST PUSH2 0x543 DUP3 PUSH2 0x1937 JUMP JUMPDEST PUSH1 0x0 PUSH1 0x20 DUP3 DUP5 SUB SLT ISZERO PUSH2 0x197B JUMPI PUSH1 0x0 DUP1 REVERT JUMPDEST POP CALLDATALOAD SWAP2 SWAP1 POP JUMP JUMPDEST PUSH1 0x0 DUP1 PUSH1 0x0 DUP1 PUSH1 0x80 DUP6 DUP8 SUB SLT ISZERO PUSH2 0x1998 JUMPI PUSH1 0x0 DUP1 REVERT JUMPDEST PUSH2 0x19A1 DUP6 PUSH2 0x1937 JUMP JUMPDEST SWAP7 PUSH1 0x20 DUP7 ADD CALLDATALOAD SWAP7 POP PUSH1 0x40 DUP7 ADD CALLDATALOAD SWAP6 PUSH1 0x60 ADD CALLDATALOAD SWAP5 POP SWAP3 POP POP POP JUMP JUMPDEST PUSH4 0x4E487B71 PUSH1 0xE0 SHL PUSH1 0x0 MSTORE PUSH1 0x41 PUSH1 0x4 MSTORE PUSH1 0x24 PUSH1 0x0 REVERT JUMPDEST PUSH1 0x0 PUSH1 0x20 DUP1 DUP4 DUP6 SUB SLT ISZERO PUSH2 0x19E4 JUMPI PUSH1 0x0 DUP1 REVERT JUMPDEST DUP3 CALLDATALOAD PUSH8 0xFFFFFFFFFFFFFFFF DUP1 DUP3 GT ISZERO PUSH2 0x19FC JUMPI PUSH1 0x0 DUP1 REVERT JUMPDEST DUP2 DUP6 ADD SWAP2 POP DUP6 PUSH1 0x1F DUP4 ADD SLT PUSH2 0x1A10 JUMPI PUSH1 0x0 DUP1 REVERT JUMPDEST DUP2 CALLDATALOAD DUP2 DUP2 GT ISZERO PUSH2 0x1A22 JUMPI PUSH2 0x1A22 PUSH2 0x19BB JUMP JUMPDEST DUP1 PUSH1 0x5 SHL PUSH1 0x40 MLOAD PUSH1 0x1F NOT PUSH1 0x3F DUP4 ADD AND DUP2 ADD DUP2 DUP2 LT DUP6 DUP3 GT OR ISZERO PUSH2 0x1A47 JUMPI PUSH2 0x1A47 PUSH2 0x19BB JUMP JUMPDEST PUSH1 0x40 MSTORE SWAP2 DUP3 MSTORE DUP5 DUP3 ADD SWAP3 POP DUP4 DUP2 ADD DUP6 ADD SWAP2 DUP9 DUP4 GT ISZERO PUSH2 0x1A65 JUMPI PUSH1 0x0 DUP1 REVERT JUMPDEST SWAP4 DUP6 ADD SWAP4 JUMPDEST DUP3 DUP6 LT ISZERO PUSH2 0x1A83 JUMPI DUP5 CALLDATALOAD DUP5 MSTORE SWAP4 DUP6 ADD SWAP4 SWAP3 DUP6 ADD SWAP3 PUSH2 0x1A6A JUMP JUMPDEST SWAP9 SWAP8 POP POP POP POP POP POP POP POP JUMP JUMPDEST PUSH1 0x0 PUSH1 0x20 DUP1 DUP4 MSTORE DUP4 MLOAD DUP1 DUP3 DUP6 ADD MSTORE PUSH1 0x0 JUMPDEST DUP2 DUP2 LT ISZERO PUSH2 0x1ABC JUMPI DUP6 DUP2 ADD DUP4 ADD MLOAD DUP6 DUP3 ADD PUSH1 0x40 ADD MSTORE DUP3 ADD PUSH2 0x1AA0 JUMP JUMPDEST POP PUSH1 0x0 PUSH1 0x40 DUP3 DUP7 ADD ADD MSTORE PUSH1 0x40 PUSH1 0x1F NOT PUSH1 0x1F DUP4 ADD AND DUP6 ADD ADD SWAP3 POP POP POP SWAP3 SWAP2 POP POP JUMP JUMPDEST DUP1 DUP3 MUL DUP2 ISZERO DUP3 DUP3 DIV DUP5 EQ OR PUSH2 0x7F4 JUMPI PUSH2 0x7F4 PUSH2 0x190E JUMP JUMPDEST PUSH4 0x4E487B71 PUSH1 0xE0 SHL PUSH1 0x0 MSTORE PUSH1 0x12 PUSH1 0x4 MSTORE PUSH1 0x24 PUSH1 0x0 REVERT JUMPDEST PUSH1 0x0 DUP3 PUSH2 0x1B19 JUMPI PUSH2 0x1B19 PUSH2 0x1AF4 JUMP JUMPDEST POP DIV SWAP1 JUMP JUMPDEST DUP2 DUP2 SUB DUP2 DUP2 GT ISZERO PUSH2 0x7F4 JUMPI PUSH2 0x7F4 PUSH2 0x190E JUMP JUMPDEST PUSH1 0x0 PUSH1 0x1 DUP3 ADD PUSH2 0x1B43 JUMPI PUSH2 0x1B43 PUSH2 0x190E JUMP JUMPDEST POP PUSH1 0x1 ADD SWAP1 JUMP JUMPDEST PUSH4 0x4E487B71 PUSH1 0xE0 SHL PUSH1 0x0 MSTORE PUSH1 0x32 PUSH1 0x4 MSTORE PUSH1 0x24 PUSH1 0x0 REVERT JUMPDEST PUSH1 0x0 DUP3 PUSH2 0x1B6F JUMPI PUSH2 0x1B6F PUSH2 0x1AF4 JUMP JUMPDEST POP MOD SWAP1 JUMP INVALID LOG2 PUSH5 0x6970667358 0x22 SLT KECCAK256 PUSH25 0x72789D62728BB6A51DC413521F0A3987D4A575FF9F84EE09AB 0xE 0x49 0xB4 0xA8 0xA7 0x4F PUSH5 0x736F6C6343 STOP ADDMOD EQ STOP CALLER "},"methodIdentifiers":{"aggregateValues(uint256[])":"b24ebfcc","cancel()":"ea8a1af0","charge(address)":"fc6bd76a","depositETH()":"f6326fb3","ethBalances(address)":"3cfba0e3","extractTimestampsAndAssertAllAreEqual()":"55a547d5","getAuthorisedSignerIndex(address)":"3ce142f5","getDataServiceId()":"c274583a","getUniqueSignersThreshold()":"f90c4924","nextChargeDueAt(address)":"b4ee623e","plans(address)":"86d86d84","quoteEthForUsdCents(uint256)":"460b410d","subscribe(address,uint256,uint256,uint256)":"4907cd0f","validateTimestamp(uint256)":"f50b2efe","withdrawETH(uint256)":"f14210a6"}}}}}