{
  "_format": "hh-sol-artifact-1",
  "contractName": "PrimaryProdDataServiceConsumerBase",
  "sourceName": "@redstone-finance/evm-connector/contracts/data-services/PrimaryProdDataServiceConsumerBase.sol",
  "abi": [
    {
      "inputs": [],
      "name": "CalldataMustHaveValidPayload",
      "type": "error"
    },
    {
      "inputs": [],
      "name": "CalldataOverOrUnderFlow",
      "type": "error"
    },
    {
      "inputs": [],
      "name": "CanNotPickMedianOfEmptyArray",
      "type": "error"
    },
    {
      "inputs": [],
      "name": "DataPackageTimestampMustNotBeZero",
      "type": "error"
    },
    {
      "inputs": [],
      "name": "DataPackageTimestampsMustBeEqual",
      "type": "error"
    },
    {
      "inputs": [],
      "name": "DataTimestampCannotBeZero",
      "type": "error"
    },
    {
      "inputs": [],
      "name": "EachSignerMustProvideTheSameValue",
      "type": "error"
    },
    {
      "inputs": [],
      "name": "EmptyCalldataPointersArr",
      "type": "error"
    },
    {
      "inputs": [],
      "name": "GetDataServiceIdNotImplemented",
      "type": "error"
    },
    {
      "inputs": [],
      "name": "IncorrectUnsignedMetadataSize",
      "type": "error"
    },
    {
      "inputs": [
        {
          "internalType": "uint256",
          "name": "receivedSignersCount",
          "type": "uint256"
        },
        {
          "internalType": "uint256",
          "name": "requiredSignersCount",
          "type": "uint256"
        }
      ],
      "name": "InsufficientNumberOfUniqueSigners",
      "type": "error"
    },
    {
      "inputs": [],
      "name": "InvalidCalldataPointer",
      "type": "error"
    },
    {
      "inputs": [],
      "name": "RedstonePayloadMustHaveAtLeastOneDataPackage",
      "type": "error"
    },
    {
      "inputs": [
        {
          "internalType": "address",
          "name": "receivedSigner",
          "type": "address"
        }
      ],
      "name": "SignerNotAuthorised",
      "type": "error"
    },
    {
      "inputs": [
        {
          "internalType": "uint256",
          "name": "receivedTimestampSeconds",
          "type": "uint256"
        },
        {
          "internalType": "uint256",
          "name": "blockTimestamp",
          "type": "uint256"
        }
      ],
      "name": "TimestampFromTooLongFuture",
      "type": "error"
    },
    {
      "inputs": [
        {
          "internalType": "uint256",
          "name": "receivedTimestampSeconds",
          "type": "uint256"
        },
        {
          "internalType": "uint256",
          "name": "blockTimestamp",
          "type": "uint256"
        }
      ],
      "name": "TimestampIsTooOld",
      "type": "error"
    },
    {
      "inputs": [],
      "name": "TimestampsMustBeEqual",
      "type": "error"
    },
    {
      "inputs": [
        {
          "internalType": "uint256",
          "name": "valueByteSize",
          "type": "uint256"
        }
      ],
      "name": "TooLargeValueByteSize",
      "type": "error"
    },
    {
      "inputs": [
        {
          "internalType": "uint256[]",
          "name": "values",
          "type": "uint256[]"
        }
      ],
      "name": "aggregateValues",
      "outputs": [
        {
          "internalType": "uint256",
          "name": "",
          "type": "uint256"
        }
      ],
      "stateMutability": "view",
      "type": "function"
    },
    {
      "inputs": [],
      "name": "extractTimestampsAndAssertAllAreEqual",
      "outputs": [
        {
          "internalType": "uint256",
          "name": "extractedTimestamp",
          "type": "uint256"
        }
      ],
      "stateMutability": "pure",
      "type": "function"
    },
    {
      "inputs": [
        {
          "internalType": "address",
          "name": "signerAddress",
          "type": "address"
        }
      ],
      "name": "getAuthorisedSignerIndex",
      "outputs": [
        {
          "internalType": "uint8",
          "name": "",
          "type": "uint8"
        }
      ],
      "stateMutability": "view",
      "type": "function"
    },
    {
      "inputs": [],
      "name": "getDataServiceId",
      "outputs": [
        {
          "internalType": "string",
          "name": "",
          "type": "string"
        }
      ],
      "stateMutability": "view",
      "type": "function"
    },
    {
      "inputs": [],
      "name": "getUniqueSignersThreshold",
      "outputs": [
        {
          "internalType": "uint8",
          "name": "",
          "type": "uint8"
        }
      ],
      "stateMutability": "view",
      "type": "function"
    },
    {
      "inputs": [
        {
          "internalType": "uint256",
          "name": "receivedTimestampMilliseconds",
          "type": "uint256"
        }
      ],
      "name": "validateTimestamp",
      "outputs": [],
      "stateMutability": "view",
      "type": "function"
    }
  ],
  "bytecode": "0x608060405234801561001057600080fd5b50610926806100206000396000f3fe608060405234801561001057600080fd5b50600436106100625760003560e01c80633ce142f51461006757806355a547d514610091578063b24ebfcc146100a7578063c274583a146100ba578063f50b2efe146100f1578063f90c492414610106575b600080fd5b61007a6100753660046106cc565b61010d565b60405160ff90911681526020015b60405180910390f35b610099610214565b604051908152602001610088565b6100996100b536600461070b565b610322565b60408051808201825260158152741c99591cdd1bdb994b5c1c9a5b585c9e4b5c1c9bd9605a1b6020820152905161008891906107c9565b6101046100ff366004610817565b610333565b005b600361007a565b60006001600160a01b038216738bb8f32df04c8b654987daaed53d6b6091e3b7740361013b57506000919050565b6001600160a01b03821673deb22f54738d54976c4c0fe5ce6d408e40d884990361016757506001919050565b6001600160a01b0382167351ce04be4b3e32572c4ec9135221d0691ba7d2020361019357506002919050565b6001600160a01b03821673dd682daec5a90dd295d14da4b0bec9281017b5be036101bf57506003919050565b6001600160a01b038216739c5ae89c4af6aa32ce58588dbaf90d18a855b6de036101eb57506004919050565b6040516303b1166f60e61b81526001600160a01b03831660048201526024015b60405180910390fd5b60008061021f61033f565b9050600061022c826103ed565b925061ffff169050600081900361025657604051632154bfcf60e21b815260040160405180910390fd5b60005b8181101561031c57600061026c8461043c565b905060008061027c606887610846565b9050600061028a8236610859565b9050803592508265ffffffffffff166000036102b957604051630336dc9d60e41b815260040160405180910390fd5b876000036102d1578265ffffffffffff1697506102f9565b878365ffffffffffff16146102f95760405163d9d1f46560e01b815260040160405180910390fd5b6103038488610846565b96505050505080806103149061086c565b915050610259565b50505090565b600061032d82610478565b92915050565b61033c81610483565b50565b60006602ed57011e0000601f1936013581161480610370576040516373bb264f60e11b815260040160405180910390fd5b6000366029111561039457604051632bcb7bc560e11b815260040160405180910390fd5b50602819360135600060096103af600362ffffff8516610846565b6103b99190610846565b9050366103c7600283610846565b11156103e65760405163c30a7bd760e01b815260040160405180910390fd5b9392505050565b600080806103fc602085610846565b90503681111561041f57604051632bcb7bc560e11b815260040160405180910390fd5b3681900335925082610432600286610846565b9250925050915091565b600080600061044a84610507565b9092509050604e61045c826020610846565b6104669084610885565b6104709190610846565b949350505050565b600061032d8261055a565b60006104916103e8836108b2565b9050804210156104d357603c6104a74283610859565b11156104cf5760405163b6b0916d60e01b81526004810182905242602482015260440161020b565b5050565b60b46104df8242610859565b11156104cf57604051630321d0b560e01b81526004810182905242602482015260440161020b565b600080808080602061051a604188610846565b6105249190610846565b61052e9036610859565b80359350905061053f600382610859565b62ffffff9390931696923563ffffffff169550919350505050565b600081516002036105b15760028260018151811061057a5761057a6108c6565b602002602001015183600081518110610595576105956108c6565b60200260200101516105a79190610846565b61032d91906108b2565b81516000036105d357604051639e198af960e01b815260040160405180910390fd5b6105dc8261067e565b6000600283516105ec91906108b2565b9050600283516105fc91906108dc565b60000361065c576000838281518110610617576106176108c6565b60200260200101518460018461062d9190610859565b8151811061063d5761063d6108c6565b602002602001015161064f9190610846565b90506104706002826108b2565b82818151811061066e5761066e6108c6565b6020026020010151915050919050565b8051602082016020820281019150805b828110156106c657815b818110156106bd5781518151808210156106b3578084528183525b5050602001610698565b5060200161068e565b50505050565b6000602082840312156106de57600080fd5b81356001600160a01b03811681146103e657600080fd5b634e487b7160e01b600052604160045260246000fd5b6000602080838503121561071e57600080fd5b823567ffffffffffffffff8082111561073657600080fd5b818501915085601f83011261074a57600080fd5b81358181111561075c5761075c6106f5565b8060051b604051601f19603f83011681018181108582111715610781576107816106f5565b60405291825284820192508381018501918883111561079f57600080fd5b938501935b828510156107bd578435845293850193928501926107a4565b98975050505050505050565b600060208083528351808285015260005b818110156107f6578581018301518582016040015282016107da565b506000604082860101526040601f19601f8301168501019250505092915050565b60006020828403121561082957600080fd5b5035919050565b634e487b7160e01b600052601160045260246000fd5b8082018082111561032d5761032d610830565b8181038181111561032d5761032d610830565b60006001820161087e5761087e610830565b5060010190565b808202811582820484141761032d5761032d610830565b634e487b7160e01b600052601260045260246000fd5b6000826108c1576108c161089c565b500490565b634e487b7160e01b600052603260045260246000fd5b6000826108eb576108eb61089c565b50069056fea2646970667358221220db3ad76fcf29ecaf5b9c99df3a908a060d58c179d1c1eeb7c0ef4b401901d2ea64736f6c63430008140033",
  "linkReferences": {},
  "deployedLinkReferences": {}
}