{
  "_format": "hh-sol-artifact-1",
  "contractName": "PayerRegistry",
  "sourceName": "contracts/PayerRegistry.sol",
  "abi": [
    {
      "anonymous": false,
      "inputs": [
        {
          "indexed": true,
          "internalType": "address",
          "name": "merchant",
          "type": "address"
        },
        {
          "indexed": true,
          "internalType": "address",
          "name": "payer",
          "type": "address"
        }
      ],
      "name": "PayerAdded",
      "type": "event"
    },
    {
      "anonymous": false,
      "inputs": [
        {
          "indexed": true,
          "internalType": "address",
          "name": "merchant",
          "type": "address"
        },
        {
          "indexed": true,
          "internalType": "address",
          "name": "payer",
          "type": "address"
        }
      ],
      "name": "PayerRemoved",
      "type": "event"
    },
    {
      "inputs": [
        {
          "internalType": "address",
          "name": "payer",
          "type": "address"
        }
      ],
      "name": "addPayer",
      "outputs": [],
      "stateMutability": "nonpayable",
      "type": "function"
    },
    {
      "inputs": [
        {
          "internalType": "address",
          "name": "merchant",
          "type": "address"
        }
      ],
      "name": "getPayers",
      "outputs": [
        {
          "internalType": "address[]",
          "name": "",
          "type": "address[]"
        }
      ],
      "stateMutability": "view",
      "type": "function"
    },
    {
      "inputs": [
        {
          "internalType": "address",
          "name": "",
          "type": "address"
        },
        {
          "internalType": "address",
          "name": "",
          "type": "address"
        }
      ],
      "name": "isPayerForMerchant",
      "outputs": [
        {
          "internalType": "bool",
          "name": "",
          "type": "bool"
        }
      ],
      "stateMutability": "view",
      "type": "function"
    },
    {
      "inputs": [
        {
          "internalType": "address",
          "name": "payer",
          "type": "address"
        }
      ],
      "name": "removePayer",
      "outputs": [],
      "stateMutability": "nonpayable",
      "type": "function"
    }
  ],
  "bytecode": "0x608060405234801561001057600080fd5b50610553806100206000396000f3fe608060405234801561001057600080fd5b506004361061004c5760003560e01c8063048f1627146100515780637c35b98214610066578063b78376e91461008f578063d60b2193146100a2575b600080fd5b61006461005f366004610407565b6100e0565b005b610079610074366004610407565b610285565b6040516100869190610429565b60405180910390f35b61006461009d366004610407565b6102f9565b6100d06100b0366004610476565b600160209081526000928352604080842090915290825290205460ff1681565b6040519015158152602001610086565b3360009081526001602090815260408083206001600160a01b038516845290915290205460ff1661010e5750565b3360008181526001602090815260408083206001600160a01b03861684528252808320805460ff19169055928252819052908120905b815481101561024a57826001600160a01b0316828281548110610169576101696104a9565b6000918252602090912001546001600160a01b0316036102385781548290610193906001906104d5565b815481106101a3576101a36104a9565b9060005260206000200160009054906101000a90046001600160a01b03168282815481106101d3576101d36104a9565b9060005260206000200160006101000a8154816001600160a01b0302191690836001600160a01b0316021790555081805480610211576102116104ee565b600082815260209020810160001990810180546001600160a01b031916905501905561024a565b8061024281610504565b915050610144565b506040516001600160a01b0383169033907f5e1b66e991f6968e9d741f8e1671b26e686ed2bd58909005308a3c87684b92c190600090a35050565b6001600160a01b038116600090815260208181526040918290208054835181840281018401909452808452606093928301828280156102ed57602002820191906000526020600020905b81546001600160a01b031681526001909101906020018083116102cf575b50505050509050919050565b6001600160a01b03811661033d5760405162461bcd60e51b8152602060048201526007602482015266070617965723d360cc1b604482015260640160405180910390fd5b3360009081526001602090815260408083206001600160a01b038516845290915290205460ff166103e8573360008181526001602081815260408084206001600160a01b038716808652908352818520805460ff19168517905585855284835281852080549485018155855291842090920180546001600160a01b0319168217905590519092917fc25149048071a4ae456deeae58271d16899b7da697e1022ef4bc7c161e5a8bf891a35b50565b80356001600160a01b038116811461040257600080fd5b919050565b60006020828403121561041957600080fd5b610422826103eb565b9392505050565b6020808252825182820181905260009190848201906040850190845b8181101561046a5783516001600160a01b031683529284019291840191600101610445565b50909695505050505050565b6000806040838503121561048957600080fd5b610492836103eb565b91506104a0602084016103eb565b90509250929050565b634e487b7160e01b600052603260045260246000fd5b634e487b7160e01b600052601160045260246000fd5b818103818111156104e8576104e86104bf565b92915050565b634e487b7160e01b600052603160045260246000fd5b600060018201610516576105166104bf565b506001019056fea26469706673582212208ecd3976328aec003b51fde3e8eadf8052af705c30d687fadcfd95c294b353c764736f6c63430008140033",
  "linkReferences": {},
  "deployedLinkReferences": {}
}