{
  "_format": "hh-sol-artifact-1",
  "contractName": "CalldataExtractor",
  "sourceName": "@redstone-finance/evm-connector/contracts/core/CalldataExtractor.sol",
  "abi": [
    {
      "inputs": [],
      "name": "CalldataMustHaveValidPayload",
      "type": "error"
    },
    {
      "inputs": [],
      "name": "CalldataOverOrUnderFlow",
      "type": "error"
    },
    {
      "inputs": [],
      "name": "DataPackageTimestampMustNotBeZero",
      "type": "error"
    },
    {
      "inputs": [],
      "name": "DataPackageTimestampsMustBeEqual",
      "type": "error"
    },
    {
      "inputs": [],
      "name": "DataTimestampCannotBeZero",
      "type": "error"
    },
    {
      "inputs": [],
      "name": "EachSignerMustProvideTheSameValue",
      "type": "error"
    },
    {
      "inputs": [],
      "name": "EmptyCalldataPointersArr",
      "type": "error"
    },
    {
      "inputs": [],
      "name": "IncorrectUnsignedMetadataSize",
      "type": "error"
    },
    {
      "inputs": [
        {
          "internalType": "uint256",
          "name": "receivedSignersCount",
          "type": "uint256"
        },
        {
          "internalType": "uint256",
          "name": "requiredSignersCount",
          "type": "uint256"
        }
      ],
      "name": "InsufficientNumberOfUniqueSigners",
      "type": "error"
    },
    {
      "inputs": [],
      "name": "InvalidCalldataPointer",
      "type": "error"
    },
    {
      "inputs": [],
      "name": "RedstonePayloadMustHaveAtLeastOneDataPackage",
      "type": "error"
    },
    {
      "inputs": [
        {
          "internalType": "address",
          "name": "receivedSigner",
          "type": "address"
        }
      ],
      "name": "SignerNotAuthorised",
      "type": "error"
    },
    {
      "inputs": [],
      "name": "TimestampsMustBeEqual",
      "type": "error"
    },
    {
      "inputs": [
        {
          "internalType": "uint256",
          "name": "valueByteSize",
          "type": "uint256"
        }
      ],
      "name": "TooLargeValueByteSize",
      "type": "error"
    },
    {
      "inputs": [],
      "name": "extractTimestampsAndAssertAllAreEqual",
      "outputs": [
        {
          "internalType": "uint256",
          "name": "extractedTimestamp",
          "type": "uint256"
        }
      ],
      "stateMutability": "pure",
      "type": "function"
    }
  ],
  "bytecode": "0x608060405234801561001057600080fd5b5061038c806100206000396000f3fe608060405234801561001057600080fd5b506004361061002b5760003560e01c806355a547d514610030575b600080fd5b61003861004a565b60405190815260200160405180910390f35b600080610055610158565b9050600061006282610206565b925061ffff169050600081900361008c57604051632154bfcf60e21b815260040160405180910390fd5b60005b818110156101525760006100a284610255565b90506000806100b26068876102fa565b905060006100c08236610313565b9050803592508265ffffffffffff166000036100ef57604051630336dc9d60e41b815260040160405180910390fd5b87600003610107578265ffffffffffff16975061012f565b878365ffffffffffff161461012f5760405163d9d1f46560e01b815260040160405180910390fd5b61013984886102fa565b965050505050808061014a90610326565b91505061008f565b50505090565b60006602ed57011e0000601f1936013581161480610189576040516373bb264f60e11b815260040160405180910390fd5b600036602911156101ad57604051632bcb7bc560e11b815260040160405180910390fd5b50602819360135600060096101c8600362ffffff85166102fa565b6101d291906102fa565b9050366101e06002836102fa565b11156101ff5760405163c30a7bd760e01b815260040160405180910390fd5b9392505050565b600080806102156020856102fa565b90503681111561023857604051632bcb7bc560e11b815260040160405180910390fd5b368190033592508261024b6002866102fa565b9250925050915091565b600080600061026384610291565b9092509050604e6102758260206102fa565b61027f908461033f565b61028991906102fa565b949350505050565b60008080808060206102a46041886102fa565b6102ae91906102fa565b6102b89036610313565b8035935090506102c9600382610313565b62ffffff9390931696923563ffffffff169550919350505050565b634e487b7160e01b600052601160045260246000fd5b8082018082111561030d5761030d6102e4565b92915050565b8181038181111561030d5761030d6102e4565b600060018201610338576103386102e4565b5060010190565b808202811582820484141761030d5761030d6102e456fea26469706673582212204f39caf3484b9be0560ac03021b1fbc46e37efe4d1d539466192c35fbdfaac4764736f6c63430008140033",
  "linkReferences": {},
  "deployedLinkReferences": {}
}